{
  "_format": "hh-sol-artifact-1",
  "contractName": "StrategyCommonRewardPoolLP",
  "sourceName": "contracts/quick/StrategyCommonRewardPoolLP.sol",
  "abi": [
    {
      "inputs": [
        {
          "internalType": "address",
          "name": "_want",
          "type": "address"
        },
        {
          "internalType": "address",
          "name": "_rewardPool",
          "type": "address"
        },
        {
          "internalType": "address",
          "name": "_vault",
          "type": "address"
        },
        {
          "internalType": "address",
          "name": "_unirouter",
          "type": "address"
        },
        {
          "internalType": "address",
          "name": "_keeper",
          "type": "address"
        },
        {
          "internalType": "address",
          "name": "_strategist",
          "type": "address"
        },
        {
          "internalType": "address",
          "name": "_beefyFeeRecipient",
          "type": "address"
        },
        {
          "internalType": "address[]",
          "name": "_outputToNativeRoute",
          "type": "address[]"
        },
        {
          "internalType": "address[]",
          "name": "_outputToLp0Route",
          "type": "address[]"
        },
        {
          "internalType": "address[]",
          "name": "_outputToLp1Route",
          "type": "address[]"
        }
      ],
      "stateMutability": "nonpayable",
      "type": "constructor"
    },
    {
      "anonymous": false,
      "inputs": [
        {
          "indexed": true,
          "internalType": "address",
          "name": "previousOwner",
          "type": "address"
        },
        {
          "indexed": true,
          "internalType": "address",
          "name": "newOwner",
          "type": "address"
        }
      ],
      "name": "OwnershipTransferred",
      "type": "event"
    },
    {
      "anonymous": false,
      "inputs": [
        {
          "indexed": false,
          "internalType": "address",
          "name": "account",
          "type": "address"
        }
      ],
      "name": "Paused",
      "type": "event"
    },
    {
      "anonymous": false,
      "inputs": [
        {
          "indexed": true,
          "internalType": "address",
          "name": "harvester",
          "type": "address"
        }
      ],
      "name": "StratHarvest",
      "type": "event"
    },
    {
      "anonymous": false,
      "inputs": [
        {
          "indexed": false,
          "internalType": "address",
          "name": "account",
          "type": "address"
        }
      ],
      "name": "Unpaused",
      "type": "event"
    },
    {
      "inputs": [],
      "name": "MAX_CALL_FEE",
      "outputs": [
        {
          "internalType": "uint256",
          "name": "",
          "type": "uint256"
        }
      ],
      "stateMutability": "view",
      "type": "function"
    },
    {
      "inputs": [],
      "name": "MAX_FEE",
      "outputs": [
        {
          "internalType": "uint256",
          "name": "",
          "type": "uint256"
        }
      ],
      "stateMutability": "view",
      "type": "function"
    },
    {
      "inputs": [],
      "name": "MAX_INT",
      "outputs": [
        {
          "internalType": "uint256",
          "name": "",
          "type": "uint256"
        }
      ],
      "stateMutability": "view",
      "type": "function"
    },
    {
      "inputs": [],
      "name": "STRATEGIST_FEE",
      "outputs": [
        {
          "internalType": "uint256",
          "name": "",
          "type": "uint256"
        }
      ],
      "stateMutability": "view",
      "type": "function"
    },
    {
      "inputs": [],
      "name": "WITHDRAWAL_FEE_CAP",
      "outputs": [
        {
          "internalType": "uint256",
          "name": "",
          "type": "uint256"
        }
      ],
      "stateMutability": "view",
      "type": "function"
    },
    {
      "inputs": [],
      "name": "WITHDRAWAL_MAX",
      "outputs": [
        {
          "internalType": "uint256",
          "name": "",
          "type": "uint256"
        }
      ],
      "stateMutability": "view",
      "type": "function"
    },
    {
      "inputs": [],
      "name": "balanceOf",
      "outputs": [
        {
          "internalType": "uint256",
          "name": "",
          "type": "uint256"
        }
      ],
      "stateMutability": "view",
      "type": "function"
    },
    {
      "inputs": [],
      "name": "balanceOfPool",
      "outputs": [
        {
          "internalType": "uint256",
          "name": "",
          "type": "uint256"
        }
      ],
      "stateMutability": "view",
      "type": "function"
    },
    {
      "inputs": [],
      "name": "balanceOfWant",
      "outputs": [
        {
          "internalType": "uint256",
          "name": "",
          "type": "uint256"
        }
      ],
      "stateMutability": "view",
      "type": "function"
    },
    {
      "inputs": [],
      "name": "beefyFee",
      "outputs": [
        {
          "internalType": "uint256",
          "name": "",
          "type": "uint256"
        }
      ],
      "stateMutability": "view",
      "type": "function"
    },
    {
      "inputs": [],
      "name": "beefyFeeRecipient",
      "outputs": [
        {
          "internalType": "address",
          "name": "",
          "type": "address"
        }
      ],
      "stateMutability": "view",
      "type": "function"
    },
    {
      "inputs": [],
      "name": "beforeDeposit",
      "outputs": [],
      "stateMutability": "nonpayable",
      "type": "function"
    },
    {
      "inputs": [],
      "name": "callFee",
      "outputs": [
        {
          "internalType": "uint256",
          "name": "",
          "type": "uint256"
        }
      ],
      "stateMutability": "view",
      "type": "function"
    },
    {
      "inputs": [],
      "name": "deposit",
      "outputs": [],
      "stateMutability": "nonpayable",
      "type": "function"
    },
    {
      "inputs": [],
      "name": "harvest",
      "outputs": [],
      "stateMutability": "nonpayable",
      "type": "function"
    },
    {
      "inputs": [],
      "name": "harvestOnDeposit",
      "outputs": [
        {
          "internalType": "bool",
          "name": "",
          "type": "bool"
        }
      ],
      "stateMutability": "view",
      "type": "function"
    },
    {
      "inputs": [],
      "name": "keeper",
      "outputs": [
        {
          "internalType": "address",
          "name": "",
          "type": "address"
        }
      ],
      "stateMutability": "view",
      "type": "function"
    },
    {
      "inputs": [],
      "name": "lastHarvest",
      "outputs": [
        {
          "internalType": "uint256",
          "name": "",
          "type": "uint256"
        }
      ],
      "stateMutability": "view",
      "type": "function"
    },
    {
      "inputs": [],
      "name": "lpToken0",
      "outputs": [
        {
          "internalType": "address",
          "name": "",
          "type": "address"
        }
      ],
      "stateMutability": "view",
      "type": "function"
    },
    {
      "inputs": [],
      "name": "lpToken1",
      "outputs": [
        {
          "internalType": "address",
          "name": "",
          "type": "address"
        }
      ],
      "stateMutability": "view",
      "type": "function"
    },
    {
      "inputs": [],
      "name": "managerHarvest",
      "outputs": [],
      "stateMutability": "nonpayable",
      "type": "function"
    },
    {
      "inputs": [],
      "name": "native",
      "outputs": [
        {
          "internalType": "address",
          "name": "",
          "type": "address"
        }
      ],
      "stateMutability": "view",
      "type": "function"
    },
    {
      "inputs": [],
      "name": "output",
      "outputs": [
        {
          "internalType": "address",
          "name": "",
          "type": "address"
        }
      ],
      "stateMutability": "view",
      "type": "function"
    },
    {
      "inputs": [],
      "name": "outputToLp0",
      "outputs": [
        {
          "internalType": "address[]",
          "name": "",
          "type": "address[]"
        }
      ],
      "stateMutability": "view",
      "type": "function"
    },
    {
      "inputs": [
        {
          "internalType": "uint256",
          "name": "",
          "type": "uint256"
        }
      ],
      "name": "outputToLp0Route",
      "outputs": [
        {
          "internalType": "address",
          "name": "",
          "type": "address"
        }
      ],
      "stateMutability": "view",
      "type": "function"
    },
    {
      "inputs": [],
      "name": "outputToLp1",
      "outputs": [
        {
          "internalType": "address[]",
          "name": "",
          "type": "address[]"
        }
      ],
      "stateMutability": "view",
      "type": "function"
    },
    {
      "inputs": [
        {
          "internalType": "uint256",
          "name": "",
          "type": "uint256"
        }
      ],
      "name": "outputToLp1Route",
      "outputs": [
        {
          "internalType": "address",
          "name": "",
          "type": "address"
        }
      ],
      "stateMutability": "view",
      "type": "function"
    },
    {
      "inputs": [],
      "name": "outputToNative",
      "outputs": [
        {
          "internalType": "address[]",
          "name": "",
          "type": "address[]"
        }
      ],
      "stateMutability": "view",
      "type": "function"
    },
    {
      "inputs": [
        {
          "internalType": "uint256",
          "name": "",
          "type": "uint256"
        }
      ],
      "name": "outputToNativeRoute",
      "outputs": [
        {
          "internalType": "address",
          "name": "",
          "type": "address"
        }
      ],
      "stateMutability": "view",
      "type": "function"
    },
    {
      "inputs": [],
      "name": "owner",
      "outputs": [
        {
          "internalType": "address",
          "name": "",
          "type": "address"
        }
      ],
      "stateMutability": "view",
      "type": "function"
    },
    {
      "inputs": [],
      "name": "panic",
      "outputs": [],
      "stateMutability": "nonpayable",
      "type": "function"
    },
    {
      "inputs": [],
      "name": "pause",
      "outputs": [],
      "stateMutability": "nonpayable",
      "type": "function"
    },
    {
      "inputs": [],
      "name": "paused",
      "outputs": [
        {
          "internalType": "bool",
          "name": "",
          "type": "bool"
        }
      ],
      "stateMutability": "view",
      "type": "function"
    },
    {
      "inputs": [],
      "name": "renounceOwnership",
      "outputs": [],
      "stateMutability": "nonpayable",
      "type": "function"
    },
    {
      "inputs": [],
      "name": "retireStrat",
      "outputs": [],
      "stateMutability": "nonpayable",
      "type": "function"
    },
    {
      "inputs": [],
      "name": "rewardPool",
      "outputs": [
        {
          "internalType": "address",
          "name": "",
          "type": "address"
        }
      ],
      "stateMutability": "view",
      "type": "function"
    },
    {
      "inputs": [],
      "name": "rewardsAvailable",
      "outputs": [
        {
          "internalType": "uint256",
          "name": "",
          "type": "uint256"
        }
      ],
      "stateMutability": "view",
      "type": "function"
    },
    {
      "inputs": [
        {
          "internalType": "address",
          "name": "_beefyFeeRecipient",
          "type": "address"
        }
      ],
      "name": "setBeefyFeeRecipient",
      "outputs": [],
      "stateMutability": "nonpayable",
      "type": "function"
    },
    {
      "inputs": [
        {
          "internalType": "uint256",
          "name": "_fee",
          "type": "uint256"
        }
      ],
      "name": "setCallFee",
      "outputs": [],
      "stateMutability": "nonpayable",
      "type": "function"
    },
    {
      "inputs": [
        {
          "internalType": "bool",
          "name": "_harvestOnDeposit",
          "type": "bool"
        }
      ],
      "name": "setHarvestOnDeposit",
      "outputs": [],
      "stateMutability": "nonpayable",
      "type": "function"
    },
    {
      "inputs": [
        {
          "internalType": "address",
          "name": "_keeper",
          "type": "address"
        }
      ],
      "name": "setKeeper",
      "outputs": [],
      "stateMutability": "nonpayable",
      "type": "function"
    },
    {
      "inputs": [
        {
          "internalType": "address",
          "name": "_strategist",
          "type": "address"
        }
      ],
      "name": "setStrategist",
      "outputs": [],
      "stateMutability": "nonpayable",
      "type": "function"
    },
    {
      "inputs": [
        {
          "internalType": "address",
          "name": "_unirouter",
          "type": "address"
        }
      ],
      "name": "setUnirouter",
      "outputs": [],
      "stateMutability": "nonpayable",
      "type": "function"
    },
    {
      "inputs": [
        {
          "internalType": "address",
          "name": "_vault",
          "type": "address"
        }
      ],
      "name": "setVault",
      "outputs": [],
      "stateMutability": "nonpayable",
      "type": "function"
    },
    {
      "inputs": [
        {
          "internalType": "uint256",
          "name": "_fee",
          "type": "uint256"
        }
      ],
      "name": "setWithdrawalFee",
      "outputs": [],
      "stateMutability": "nonpayable",
      "type": "function"
    },
    {
      "inputs": [],
      "name": "strategist",
      "outputs": [
        {
          "internalType": "address",
          "name": "",
          "type": "address"
        }
      ],
      "stateMutability": "view",
      "type": "function"
    },
    {
      "inputs": [
        {
          "internalType": "address",
          "name": "newOwner",
          "type": "address"
        }
      ],
      "name": "transferOwnership",
      "outputs": [],
      "stateMutability": "nonpayable",
      "type": "function"
    },
    {
      "inputs": [],
      "name": "unirouter",
      "outputs": [
        {
          "internalType": "address",
          "name": "",
          "type": "address"
        }
      ],
      "stateMutability": "view",
      "type": "function"
    },
    {
      "inputs": [],
      "name": "unpause",
      "outputs": [],
      "stateMutability": "nonpayable",
      "type": "function"
    },
    {
      "inputs": [],
      "name": "vault",
      "outputs": [
        {
          "internalType": "address",
          "name": "",
          "type": "address"
        }
      ],
      "stateMutability": "view",
      "type": "function"
    },
    {
      "inputs": [],
      "name": "want",
      "outputs": [
        {
          "internalType": "address",
          "name": "",
          "type": "address"
        }
      ],
      "stateMutability": "view",
      "type": "function"
    },
    {
      "inputs": [
        {
          "internalType": "uint256",
          "name": "_amount",
          "type": "uint256"
        }
      ],
      "name": "withdraw",
      "outputs": [],
      "stateMutability": "nonpayable",
      "type": "function"
    },
    {
      "inputs": [],
      "name": "withdrawalFee",
      "outputs": [
        {
          "internalType": "uint256",
          "name": "",
          "type": "uint256"
        }
      ],
      "stateMutability": "view",
      "type": "function"
    }
  ],
  "bytecode": "0x6080604052600a600655600b60075560075460706103e8620000229190620013bc565b6200002e9190620013bc565b6008557fffffffffffffffffffffffffffffffffffffffffffffffffffffffffffffffff6009553480156200006257600080fd5b506040516200617038038062006170833981810160405281019062000088919062000f4a565b8585888a87620000ad620000a1620005da60201b60201c565b620005e260201b60201c565b60008060146101000a81548160ff02191690831515021790555084600160006101000a81548173ffffffffffffffffffffffffffffffffffffffff021916908373ffffffffffffffffffffffffffffffffffffffff16021790555083600260006101000a81548173ffffffffffffffffffffffffffffffffffffffff021916908373ffffffffffffffffffffffffffffffffffffffff16021790555082600360006101000a81548173ffffffffffffffffffffffffffffffffffffffff021916908373ffffffffffffffffffffffffffffffffffffffff16021790555081600460006101000a81548173ffffffffffffffffffffffffffffffffffffffff021916908373ffffffffffffffffffffffffffffffffffffffff16021790555080600560006101000a81548173ffffffffffffffffffffffffffffffffffffffff021916908373ffffffffffffffffffffffffffffffffffffffff160217905550505050505089600c60006101000a81548173ffffffffffffffffffffffffffffffffffffffff021916908373ffffffffffffffffffffffffffffffffffffffff16021790555088600f60006101000a81548173ffffffffffffffffffffffffffffffffffffffff021916908373ffffffffffffffffffffffffffffffffffffffff16021790555082600081518110620002ce577f4e487b7100000000000000000000000000000000000000000000000000000000600052603260045260246000fd5b6020026020010151600b60006101000a81548173ffffffffffffffffffffffffffffffffffffffff021916908373ffffffffffffffffffffffffffffffffffffffff1602179055508260018451620003279190620013bc565b815181106200035f577f4e487b7100000000000000000000000000000000000000000000000000000000600052603260045260246000fd5b6020026020010151600a60006101000a81548173ffffffffffffffffffffffffffffffffffffffff021916908373ffffffffffffffffffffffffffffffffffffffff1602179055508260109080519060200190620003bf92919062000d89565b50600c60009054906101000a900473ffffffffffffffffffffffffffffffffffffffff1673ffffffffffffffffffffffffffffffffffffffff16630dfe16816040518163ffffffff1660e01b815260040160206040518083038186803b1580156200042957600080fd5b505afa1580156200043e573d6000803e3d6000fd5b505050506040513d601f19601f8201168201806040525081019062000464919062000f1e565b600d60006101000a81548173ffffffffffffffffffffffffffffffffffffffff021916908373ffffffffffffffffffffffffffffffffffffffff1602179055508160119080519060200190620004bc92919062000d89565b50600c60009054906101000a900473ffffffffffffffffffffffffffffffffffffffff1673ffffffffffffffffffffffffffffffffffffffff1663d21220a76040518163ffffffff1660e01b815260040160206040518083038186803b1580156200052657600080fd5b505afa1580156200053b573d6000803e3d6000fd5b505050506040513d601f19601f8201168201806040525081019062000561919062000f1e565b600e60006101000a81548173ffffffffffffffffffffffffffffffffffffffff021916908373ffffffffffffffffffffffffffffffffffffffff1602179055508060129080519060200190620005b992919062000d89565b50620005ca620006a660201b60201c565b5050505050505050505062001680565b600033905090565b60008060009054906101000a900473ffffffffffffffffffffffffffffffffffffffff169050816000806101000a81548173ffffffffffffffffffffffffffffffffffffffff021916908373ffffffffffffffffffffffffffffffffffffffff1602179055508173ffffffffffffffffffffffffffffffffffffffff168173ffffffffffffffffffffffffffffffffffffffff167f8be0079c531659141344cd1fd0a4f28419497f9722a3daafe3b4186f6b6457e060405160405180910390a35050565b6200071e600f60009054906101000a900473ffffffffffffffffffffffffffffffffffffffff16600954600c60009054906101000a900473ffffffffffffffffffffffffffffffffffffffff1673ffffffffffffffffffffffffffffffffffffffff166200097660201b620023f5179092919060201c565b62000796600360009054906101000a900473ffffffffffffffffffffffffffffffffffffffff16600954600b60009054906101000a900473ffffffffffffffffffffffffffffffffffffffff1673ffffffffffffffffffffffffffffffffffffffff166200097660201b620023f5179092919060201c565b6200080d600360009054906101000a900473ffffffffffffffffffffffffffffffffffffffff166000600d60009054906101000a900473ffffffffffffffffffffffffffffffffffffffff1673ffffffffffffffffffffffffffffffffffffffff166200097660201b620023f5179092919060201c565b62000885600360009054906101000a900473ffffffffffffffffffffffffffffffffffffffff16600954600d60009054906101000a900473ffffffffffffffffffffffffffffffffffffffff1673ffffffffffffffffffffffffffffffffffffffff166200097660201b620023f5179092919060201c565b620008fc600360009054906101000a900473ffffffffffffffffffffffffffffffffffffffff166000600e60009054906101000a900473ffffffffffffffffffffffffffffffffffffffff1673ffffffffffffffffffffffffffffffffffffffff166200097660201b620023f5179092919060201c565b62000974600360009054906101000a900473ffffffffffffffffffffffffffffffffffffffff16600954600e60009054906101000a900473ffffffffffffffffffffffffffffffffffffffff1673ffffffffffffffffffffffffffffffffffffffff166200097660201b620023f5179092919060201c565b565b600081148062000a16575060008373ffffffffffffffffffffffffffffffffffffffff1663dd62ed3e30856040518363ffffffff1660e01b8152600401620009c09291906200122c565b60206040518083038186803b158015620009d957600080fd5b505afa158015620009ee573d6000803e3d6000fd5b505050506040513d601f19601f8201168201806040525081019062000a149190620010b1565b145b62000a58576040517f08c379a000000000000000000000000000000000000000000000000000000000815260040162000a4f9062001310565b60405180910390fd5b62000ae38363095ea7b360e01b848460405160240162000a7a92919062001259565b604051602081830303815290604052907bffffffffffffffffffffffffffffffffffffffffffffffffffffffff19166020820180517bffffffffffffffffffffffffffffffffffffffffffffffffffffffff838183161783525050505062000ae860201b60201c565b505050565b600062000b51826040518060400160405280602081526020017f5361666545524332303a206c6f772d6c6576656c2063616c6c206661696c65648152508573ffffffffffffffffffffffffffffffffffffffff1662000bbc60201b62002553179092919060201c565b905060008151111562000bb7578080602001905181019062000b74919062001085565b62000bb6576040517f08c379a000000000000000000000000000000000000000000000000000000000815260040162000bad90620012ee565b60405180910390fd5b5b505050565b606062000bd3848460008562000bdc60201b60201c565b90509392505050565b60608247101562000c24576040517f08c379a000000000000000000000000000000000000000000000000000000000815260040162000c1b90620012aa565b60405180910390fd5b62000c358562000d0a60201b60201c565b62000c77576040517f08c379a000000000000000000000000000000000000000000000000000000000815260040162000c6e90620012cc565b60405180910390fd5b6000808673ffffffffffffffffffffffffffffffffffffffff16858760405162000ca2919062001213565b60006040518083038185875af1925050503d806000811462000ce1576040519150601f19603f3d011682016040523d82523d6000602084013e62000ce6565b606091505b509150915062000cfe82828662000d1d60201b60201c565b92505050949350505050565b600080823b905060008111915050919050565b6060831562000d2f5782905062000d82565b60008351111562000d435782518084602001fd5b816040517f08c379a000000000000000000000000000000000000000000000000000000000815260040162000d79919062001286565b60405180910390fd5b9392505050565b82805482825590600052602060002090810192821562000e05579160200282015b8281111562000e045782518260006101000a81548173ffffffffffffffffffffffffffffffffffffffff021916908373ffffffffffffffffffffffffffffffffffffffff1602179055509160200191906001019062000daa565b5b50905062000e14919062000e18565b5090565b5b8082111562000e3357600081600090555060010162000e19565b5090565b600062000e4e62000e48846200135b565b62001332565b9050808382526020820190508285602086028201111562000e6e57600080fd5b60005b8581101562000ea2578162000e87888262000eac565b84526020840193506020830192505060018101905062000e71565b5050509392505050565b60008151905062000ebd8162001632565b92915050565b600082601f83011262000ed557600080fd5b815162000ee784826020860162000e37565b91505092915050565b60008151905062000f01816200164c565b92915050565b60008151905062000f188162001666565b92915050565b60006020828403121562000f3157600080fd5b600062000f418482850162000eac565b91505092915050565b6000806000806000806000806000806101408b8d03121562000f6b57600080fd5b600062000f7b8d828e0162000eac565b9a5050602062000f8e8d828e0162000eac565b995050604062000fa18d828e0162000eac565b985050606062000fb48d828e0162000eac565b975050608062000fc78d828e0162000eac565b96505060a062000fda8d828e0162000eac565b95505060c062000fed8d828e0162000eac565b94505060e08b015167ffffffffffffffff8111156200100b57600080fd5b620010198d828e0162000ec3565b9350506101008b015167ffffffffffffffff8111156200103857600080fd5b620010468d828e0162000ec3565b9250506101208b015167ffffffffffffffff8111156200106557600080fd5b620010738d828e0162000ec3565b9150509295989b9194979a5092959850565b6000602082840312156200109857600080fd5b6000620010a88482850162000ef0565b91505092915050565b600060208284031215620010c457600080fd5b6000620010d48482850162000f07565b91505092915050565b620010e881620013f7565b82525050565b6000620010fb826200138a565b620011078185620013a0565b93506200111981856020860162001441565b80840191505092915050565b6000620011328262001395565b6200113e8185620013ab565b93506200115081856020860162001441565b6200115b816200150b565b840191505092915050565b600062001175602683620013ab565b915062001182826200151c565b604082019050919050565b60006200119c601d83620013ab565b9150620011a9826200156b565b602082019050919050565b6000620011c3602a83620013ab565b9150620011d08262001594565b604082019050919050565b6000620011ea603683620013ab565b9150620011f782620015e3565b604082019050919050565b6200120d8162001437565b82525050565b6000620012218284620010ee565b915081905092915050565b6000604082019050620012436000830185620010dd565b620012526020830184620010dd565b9392505050565b6000604082019050620012706000830185620010dd565b6200127f602083018462001202565b9392505050565b60006020820190508181036000830152620012a2818462001125565b905092915050565b60006020820190508181036000830152620012c58162001166565b9050919050565b60006020820190508181036000830152620012e7816200118d565b9050919050565b600060208201905081810360008301526200130981620011b4565b9050919050565b600060208201905081810360008301526200132b81620011db565b9050919050565b60006200133e62001351565b90506200134c828262001477565b919050565b6000604051905090565b600067ffffffffffffffff821115620013795762001378620014dc565b5b602082029050602081019050919050565b600081519050919050565b600081519050919050565b600081905092915050565b600082825260208201905092915050565b6000620013c98262001437565b9150620013d68362001437565b925082821015620013ec57620013eb620014ad565b5b828203905092915050565b6000620014048262001417565b9050919050565b60008115159050919050565b600073ffffffffffffffffffffffffffffffffffffffff82169050919050565b6000819050919050565b60005b838110156200146157808201518184015260208101905062001444565b8381111562001471576000848401525b50505050565b62001482826200150b565b810181811067ffffffffffffffff82111715620014a457620014a3620014dc565b5b80604052505050565b7f4e487b7100000000000000000000000000000000000000000000000000000000600052601160045260246000fd5b7f4e487b7100000000000000000000000000000000000000000000000000000000600052604160045260246000fd5b6000601f19601f8301169050919050565b7f416464726573733a20696e73756666696369656e742062616c616e636520666f60008201527f722063616c6c0000000000000000000000000000000000000000000000000000602082015250565b7f416464726573733a2063616c6c20746f206e6f6e2d636f6e7472616374000000600082015250565b7f5361666545524332303a204552433230206f7065726174696f6e20646964206e60008201527f6f74207375636365656400000000000000000000000000000000000000000000602082015250565b7f5361666545524332303a20617070726f76652066726f6d206e6f6e2d7a65726f60008201527f20746f206e6f6e2d7a65726f20616c6c6f77616e636500000000000000000000602082015250565b6200163d81620013f7565b81146200164957600080fd5b50565b62001657816200140b565b81146200166357600080fd5b50565b620016718162001437565b81146200167d57600080fd5b50565b614ae080620016906000396000f3fe608060405234801561001057600080fd5b50600436106103275760003560e01c80638456cb59116101b8578063c1a3d44c11610104578063e7a7250a116100a2578063f2fde38b1161007c578063f2fde38b1461085c578063fb61778714610878578063fbfa77cf14610882578063fd63a887146108a057610327565b8063e7a7250a14610802578063f1a392da14610820578063f20eaeb81461083e57610327565b8063d3102589116100de578063d3102589146107a0578063d801d946146107be578063d92f3d73146107c8578063dfbdc437146107e457610327565b8063c1a3d44c1461075c578063c7b9d5301461077a578063d0e30db01461079657610327565b806390321e1a11610171578063ac1e50251161014b578063ac1e5025146106d4578063aced1661146106f0578063bc063e1a1461070e578063be12a9781461072c57610327565b806390321e1a1461067c578063989ef4e31461069a578063a68833e5146106b857610327565b80638456cb59146105dc578063877562b6146105e65780638912cb8b146106045780638bc7e8c4146106225780638da5cb5b146106405780638e1454591461065e57610327565b80633f4ba83a116102775780635ee167c011610230578063715018a61161020a578063715018a61461057a578063722713f714610584578063748747e6146105a25780637d38ca65146105be57610327565b80635ee167c01461052257806366666aa9146105405780636817031b1461055e57610327565b80633f4ba83a146104be5780634641257d146104c85780634700d305146104d257806354518b1a146104dc578063573fef0a146104fa5780635c975abb1461050457610327565b80631f1fcd51116102e457806326465826116102be57806326465826146104385780632ad5a53f146104545780632e1a7d4d1461047257806336c6cf211461048e57610327565b80631f1fcd51146103de5780631fe4a686146103fc578063257ae0de1461041a57610327565b80630587f7851461032c578063098d32281461034a5780630e8fbb5a14610368578063115880861461038457806311b0b42d146103a257806313e120b1146103c0575b600080fd5b6103346108d0565b6040516103419190614135565b60405180910390f35b61035261095e565b60405161035f9190614354565b60405180910390f35b610382600480360381019061037d9190613bb7565b610964565b005b61038c610a84565b6040516103999190614354565b60405180910390f35b6103aa610b36565b6040516103b7919061404a565b60405180910390f35b6103c8610b5c565b6040516103d59190614135565b60405180910390f35b6103e6610bea565b6040516103f3919061404a565b60405180910390f35b610404610c10565b604051610411919061404a565b60405180910390f35b610422610c36565b60405161042f919061404a565b60405180910390f35b610452600480360381019061044d9190613c09565b610c5c565b005b61045c610d99565b6040516104699190614354565b60405180910390f35b61048c60048036038101906104879190613c09565b610d9e565b005b6104a860048036038101906104a39190613c09565b61106a565b6040516104b5919061404a565b60405180910390f35b6104c66110a9565b005b6104d0611190565b005b6104da611250565b005b6104e46113bb565b6040516104f19190614354565b60405180910390f35b6105026113c1565b005b61050c611471565b6040516105199190614157565b60405180910390f35b61052a611487565b604051610537919061404a565b60405180910390f35b6105486114ad565b604051610555919061404a565b60405180910390f35b61057860048036038101906105739190613b4d565b6114d3565b005b610582611593565b005b61058c61161b565b6040516105999190614354565b60405180910390f35b6105bc60048036038101906105b79190613b4d565b611643565b005b6105c6611754565b6040516105d39190614354565b60405180910390f35b6105e4611759565b005b6105ee611838565b6040516105fb919061404a565b60405180910390f35b61060c61185e565b6040516106199190614157565b60405180910390f35b61062a611871565b6040516106379190614354565b60405180910390f35b610648611877565b604051610655919061404a565b60405180910390f35b6106666118a0565b604051610673919061404a565b60405180910390f35b6106846118c6565b6040516106919190614354565b60405180910390f35b6106a26118cc565b6040516106af9190614135565b60405180910390f35b6106d260048036038101906106cd9190613b4d565b61195a565b005b6106ee60048036038101906106e99190613c09565b611a1a565b005b6106f8611b35565b604051610705919061404a565b60405180910390f35b610716611b5b565b6040516107239190614354565b60405180910390f35b61074660048036038101906107419190613c09565b611b61565b604051610753919061404a565b60405180910390f35b610764611ba0565b6040516107719190614354565b60405180910390f35b610794600480360381019061078f9190613b4d565b611c52565b005b61079e611d26565b005b6107a8611e14565b6040516107b59190614354565b60405180910390f35b6107c6611e1a565b005b6107e260048036038101906107dd9190613b4d565b611ef1565b005b6107ec611fb1565b6040516107f99190614354565b60405180910390f35b61080a611fb6565b6040516108179190614354565b60405180910390f35b610828612067565b6040516108359190614354565b60405180910390f35b61084661206d565b604051610853919061404a565b60405180910390f35b61087660048036038101906108719190613b4d565b612093565b005b61088061218b565b005b61088a612390565b604051610897919061404a565b60405180910390f35b6108ba60048036038101906108b59190613c09565b6123b6565b6040516108c7919061404a565b60405180910390f35b6060601280548060200260200160405190810160405280929190818152602001828054801561095457602002820191906000526020600020905b8160009054906101000a900473ffffffffffffffffffffffffffffffffffffffff1673ffffffffffffffffffffffffffffffffffffffff168152602001906001019080831161090a575b5050505050905090565b60095481565b61096c611877565b73ffffffffffffffffffffffffffffffffffffffff163373ffffffffffffffffffffffffffffffffffffffff1614806109f25750600160009054906101000a900473ffffffffffffffffffffffffffffffffffffffff1673ffffffffffffffffffffffffffffffffffffffff163373ffffffffffffffffffffffffffffffffffffffff16145b610a31576040517f08c379a0000000000000000000000000000000000000000000000000000000008152600401610a28906142d4565b60405180910390fd5b80601360006101000a81548160ff02191690831515021790555060011515601360009054906101000a900460ff1615151415610a7657610a716000611a1a565b610a81565b610a80600a611a1a565b5b50565b6000600f60009054906101000a900473ffffffffffffffffffffffffffffffffffffffff1673ffffffffffffffffffffffffffffffffffffffff166370a08231306040518263ffffffff1660e01b8152600401610ae1919061404a565b60206040518083038186803b158015610af957600080fd5b505afa158015610b0d573d6000803e3d6000fd5b505050506040513d601f19601f82011682018060405250810190610b319190613c32565b905090565b600a60009054906101000a900473ffffffffffffffffffffffffffffffffffffffff1681565b60606010805480602002602001604051908101604052809291908181526020018280548015610be057602002820191906000526020600020905b8160009054906101000a900473ffffffffffffffffffffffffffffffffffffffff1673ffffffffffffffffffffffffffffffffffffffff1681526020019060010190808311610b96575b5050505050905090565b600c60009054906101000a900473ffffffffffffffffffffffffffffffffffffffff1681565b600260009054906101000a900473ffffffffffffffffffffffffffffffffffffffff1681565b600360009054906101000a900473ffffffffffffffffffffffffffffffffffffffff1681565b610c64611877565b73ffffffffffffffffffffffffffffffffffffffff163373ffffffffffffffffffffffffffffffffffffffff161480610cea5750600160009054906101000a900473ffffffffffffffffffffffffffffffffffffffff1673ffffffffffffffffffffffffffffffffffffffff163373ffffffffffffffffffffffffffffffffffffffff16145b610d29576040517f08c379a0000000000000000000000000000000000000000000000000000000008152600401610d20906142d4565b60405180910390fd5b606f811115610d6d576040517f08c379a0000000000000000000000000000000000000000000000000000000008152600401610d6490614254565b60405180910390fd5b8060078190555060075460706103e8610d869190614593565b610d909190614593565b60088190555050565b606f81565b600460009054906101000a900473ffffffffffffffffffffffffffffffffffffffff1673ffffffffffffffffffffffffffffffffffffffff163373ffffffffffffffffffffffffffffffffffffffff1614610e2e576040517f08c379a0000000000000000000000000000000000000000000000000000000008152600401610e2590614274565b60405180910390fd5b6000610e38611ba0565b905081811015610eec57600f60009054906101000a900473ffffffffffffffffffffffffffffffffffffffff1673ffffffffffffffffffffffffffffffffffffffff16632e1a7d4d610e93838561256b90919063ffffffff16565b6040518263ffffffff1660e01b8152600401610eaf9190614354565b600060405180830381600087803b158015610ec957600080fd5b505af1158015610edd573d6000803e3d6000fd5b50505050610ee9611ba0565b90505b81811115610ef8578190505b610f00611877565b73ffffffffffffffffffffffffffffffffffffffff163273ffffffffffffffffffffffffffffffffffffffff161480610f3d5750610f3c611471565b5b15610fb657610fb1600460009054906101000a900473ffffffffffffffffffffffffffffffffffffffff1682600c60009054906101000a900473ffffffffffffffffffffffffffffffffffffffff1673ffffffffffffffffffffffffffffffffffffffff166125819092919063ffffffff16565b611066565b6000610fe1612710610fd36006548561260790919063ffffffff16565b61261d90919063ffffffff16565b9050611064600460009054906101000a900473ffffffffffffffffffffffffffffffffffffffff1661101c838561256b90919063ffffffff16565b600c60009054906101000a900473ffffffffffffffffffffffffffffffffffffffff1673ffffffffffffffffffffffffffffffffffffffff166125819092919063ffffffff16565b505b5050565b6011818154811061107a57600080fd5b906000526020600020016000915054906101000a900473ffffffffffffffffffffffffffffffffffffffff1681565b6110b1611877565b73ffffffffffffffffffffffffffffffffffffffff163373ffffffffffffffffffffffffffffffffffffffff1614806111375750600160009054906101000a900473ffffffffffffffffffffffffffffffffffffffff1673ffffffffffffffffffffffffffffffffffffffff163373ffffffffffffffffffffffffffffffffffffffff16145b611176576040517f08c379a000000000000000000000000000000000000000000000000000000000815260040161116d906142d4565b60405180910390fd5b61117e612633565b6111866126d4565b61118e611d26565b565b611198611471565b156111d8576040517f08c379a00000000000000000000000000000000000000000000000000000000081526004016111cf90614234565b60405180910390fd5b3273ffffffffffffffffffffffffffffffffffffffff163373ffffffffffffffffffffffffffffffffffffffff1614611246576040517f08c379a000000000000000000000000000000000000000000000000000000000815260040161123d90614314565b60405180910390fd5b61124e61297a565b565b611258611877565b73ffffffffffffffffffffffffffffffffffffffff163373ffffffffffffffffffffffffffffffffffffffff1614806112de5750600160009054906101000a900473ffffffffffffffffffffffffffffffffffffffff1673ffffffffffffffffffffffffffffffffffffffff163373ffffffffffffffffffffffffffffffffffffffff16145b61131d576040517f08c379a0000000000000000000000000000000000000000000000000000000008152600401611314906142d4565b60405180910390fd5b611325611759565b600f60009054906101000a900473ffffffffffffffffffffffffffffffffffffffff1673ffffffffffffffffffffffffffffffffffffffff16632e1a7d4d61136b610a84565b6040518263ffffffff1660e01b81526004016113879190614354565b600060405180830381600087803b1580156113a157600080fd5b505af11580156113b5573d6000803e3d6000fd5b50505050565b61271081565b601360009054906101000a900460ff161561146f57600460009054906101000a900473ffffffffffffffffffffffffffffffffffffffff1673ffffffffffffffffffffffffffffffffffffffff163373ffffffffffffffffffffffffffffffffffffffff1614611466576040517f08c379a000000000000000000000000000000000000000000000000000000000815260040161145d90614274565b60405180910390fd5b61146e61297a565b5b565b60008060149054906101000a900460ff16905090565b600d60009054906101000a900473ffffffffffffffffffffffffffffffffffffffff1681565b600f60009054906101000a900473ffffffffffffffffffffffffffffffffffffffff1681565b6114db612b26565b73ffffffffffffffffffffffffffffffffffffffff166114f9611877565b73ffffffffffffffffffffffffffffffffffffffff161461154f576040517f08c379a000000000000000000000000000000000000000000000000000000000815260040161154690614294565b60405180910390fd5b80600460006101000a81548173ffffffffffffffffffffffffffffffffffffffff021916908373ffffffffffffffffffffffffffffffffffffffff16021790555050565b61159b612b26565b73ffffffffffffffffffffffffffffffffffffffff166115b9611877565b73ffffffffffffffffffffffffffffffffffffffff161461160f576040517f08c379a000000000000000000000000000000000000000000000000000000000815260040161160690614294565b60405180910390fd5b6116196000612b2e565b565b600061163e611628610a84565b611630611ba0565b612bf290919063ffffffff16565b905090565b61164b611877565b73ffffffffffffffffffffffffffffffffffffffff163373ffffffffffffffffffffffffffffffffffffffff1614806116d15750600160009054906101000a900473ffffffffffffffffffffffffffffffffffffffff1673ffffffffffffffffffffffffffffffffffffffff163373ffffffffffffffffffffffffffffffffffffffff16145b611710576040517f08c379a0000000000000000000000000000000000000000000000000000000008152600401611707906142d4565b60405180910390fd5b80600160006101000a81548173ffffffffffffffffffffffffffffffffffffffff021916908373ffffffffffffffffffffffffffffffffffffffff16021790555050565b607081565b611761611877565b73ffffffffffffffffffffffffffffffffffffffff163373ffffffffffffffffffffffffffffffffffffffff1614806117e75750600160009054906101000a900473ffffffffffffffffffffffffffffffffffffffff1673ffffffffffffffffffffffffffffffffffffffff163373ffffffffffffffffffffffffffffffffffffffff16145b611826576040517f08c379a000000000000000000000000000000000000000000000000000000000815260040161181d906142d4565b60405180910390fd5b61182e612c08565b611836612cab565b565b600e60009054906101000a900473ffffffffffffffffffffffffffffffffffffffff1681565b601360009054906101000a900460ff1681565b60065481565b60008060009054906101000a900473ffffffffffffffffffffffffffffffffffffffff16905090565b600560009054906101000a900473ffffffffffffffffffffffffffffffffffffffff1681565b60075481565b6060601180548060200260200160405190810160405280929190818152602001828054801561195057602002820191906000526020600020905b8160009054906101000a900473ffffffffffffffffffffffffffffffffffffffff1673ffffffffffffffffffffffffffffffffffffffff1681526020019060010190808311611906575b5050505050905090565b611962612b26565b73ffffffffffffffffffffffffffffffffffffffff16611980611877565b73ffffffffffffffffffffffffffffffffffffffff16146119d6576040517f08c379a00000000000000000000000000000000000000000000000000000000081526004016119cd90614294565b60405180910390fd5b80600560006101000a81548173ffffffffffffffffffffffffffffffffffffffff021916908373ffffffffffffffffffffffffffffffffffffffff16021790555050565b611a22611877565b73ffffffffffffffffffffffffffffffffffffffff163373ffffffffffffffffffffffffffffffffffffffff161480611aa85750600160009054906101000a900473ffffffffffffffffffffffffffffffffffffffff1673ffffffffffffffffffffffffffffffffffffffff163373ffffffffffffffffffffffffffffffffffffffff16145b611ae7576040517f08c379a0000000000000000000000000000000000000000000000000000000008152600401611ade906142d4565b60405180910390fd5b6032811115611b2b576040517f08c379a0000000000000000000000000000000000000000000000000000000008152600401611b2290614254565b60405180910390fd5b8060068190555050565b600160009054906101000a900473ffffffffffffffffffffffffffffffffffffffff1681565b6103e881565b60108181548110611b7157600080fd5b906000526020600020016000915054906101000a900473ffffffffffffffffffffffffffffffffffffffff1681565b6000600c60009054906101000a900473ffffffffffffffffffffffffffffffffffffffff1673ffffffffffffffffffffffffffffffffffffffff166370a08231306040518263ffffffff1660e01b8152600401611bfd919061404a565b60206040518083038186803b158015611c1557600080fd5b505afa158015611c29573d6000803e3d6000fd5b505050506040513d601f19601f82011682018060405250810190611c4d9190613c32565b905090565b600260009054906101000a900473ffffffffffffffffffffffffffffffffffffffff1673ffffffffffffffffffffffffffffffffffffffff163373ffffffffffffffffffffffffffffffffffffffff1614611ce2576040517f08c379a0000000000000000000000000000000000000000000000000000000008152600401611cd9906141b4565b60405180910390fd5b80600260006101000a81548173ffffffffffffffffffffffffffffffffffffffff021916908373ffffffffffffffffffffffffffffffffffffffff16021790555050565b611d2e611471565b15611d6e576040517f08c379a0000000000000000000000000000000000000000000000000000000008152600401611d6590614234565b60405180910390fd5b6000611d78611ba0565b90506000811115611e1157600f60009054906101000a900473ffffffffffffffffffffffffffffffffffffffff1673ffffffffffffffffffffffffffffffffffffffff1663a694fc3a826040518263ffffffff1660e01b8152600401611dde9190614354565b600060405180830381600087803b158015611df857600080fd5b505af1158015611e0c573d6000803e3d6000fd5b505050505b50565b60085481565b611e22611877565b73ffffffffffffffffffffffffffffffffffffffff163373ffffffffffffffffffffffffffffffffffffffff161480611ea85750600160009054906101000a900473ffffffffffffffffffffffffffffffffffffffff1673ffffffffffffffffffffffffffffffffffffffff163373ffffffffffffffffffffffffffffffffffffffff16145b611ee7576040517f08c379a0000000000000000000000000000000000000000000000000000000008152600401611ede906142d4565b60405180910390fd5b611eef61297a565b565b611ef9612b26565b73ffffffffffffffffffffffffffffffffffffffff16611f17611877565b73ffffffffffffffffffffffffffffffffffffffff1614611f6d576040517f08c379a0000000000000000000000000000000000000000000000000000000008152600401611f6490614294565b60405180910390fd5b80600360006101000a81548173ffffffffffffffffffffffffffffffffffffffff021916908373ffffffffffffffffffffffffffffffffffffffff16021790555050565b603281565b6000600f60009054906101000a900473ffffffffffffffffffffffffffffffffffffffff1673ffffffffffffffffffffffffffffffffffffffff16628cc262306040518263ffffffff1660e01b8152600401612012919061404a565b60206040518083038186803b15801561202a57600080fd5b505afa15801561203e573d6000803e3d6000fd5b505050506040513d601f19601f820116820180604052508101906120629190613c32565b905090565b60145481565b600b60009054906101000a900473ffffffffffffffffffffffffffffffffffffffff1681565b61209b612b26565b73ffffffffffffffffffffffffffffffffffffffff166120b9611877565b73ffffffffffffffffffffffffffffffffffffffff161461210f576040517f08c379a000000000000000000000000000000000000000000000000000000000815260040161210690614294565b60405180910390fd5b600073ffffffffffffffffffffffffffffffffffffffff168173ffffffffffffffffffffffffffffffffffffffff16141561217f576040517f08c379a0000000000000000000000000000000000000000000000000000000008152600401612176906141d4565b60405180910390fd5b61218881612b2e565b50565b600460009054906101000a900473ffffffffffffffffffffffffffffffffffffffff1673ffffffffffffffffffffffffffffffffffffffff163373ffffffffffffffffffffffffffffffffffffffff161461221b576040517f08c379a000000000000000000000000000000000000000000000000000000000815260040161221290614274565b60405180910390fd5b600f60009054906101000a900473ffffffffffffffffffffffffffffffffffffffff1673ffffffffffffffffffffffffffffffffffffffff16632e1a7d4d612261610a84565b6040518263ffffffff1660e01b815260040161227d9190614354565b600060405180830381600087803b15801561229757600080fd5b505af11580156122ab573d6000803e3d6000fd5b5050505060006122b9611ba0565b9050600c60009054906101000a900473ffffffffffffffffffffffffffffffffffffffff1673ffffffffffffffffffffffffffffffffffffffff1663a9059cbb600460009054906101000a900473ffffffffffffffffffffffffffffffffffffffff16836040518363ffffffff1660e01b815260040161233a92919061410c565b602060405180830381600087803b15801561235457600080fd5b505af1158015612368573d6000803e3d6000fd5b505050506040513d601f19601f8201168201806040525081019061238c9190613be0565b5050565b600460009054906101000a900473ffffffffffffffffffffffffffffffffffffffff1681565b601281815481106123c657600080fd5b906000526020600020016000915054906101000a900473ffffffffffffffffffffffffffffffffffffffff1681565b600081148061248e575060008373ffffffffffffffffffffffffffffffffffffffff1663dd62ed3e30856040518363ffffffff1660e01b815260040161243c929190614065565b60206040518083038186803b15801561245457600080fd5b505afa158015612468573d6000803e3d6000fd5b505050506040513d601f19601f8201168201806040525081019061248c9190613c32565b145b6124cd576040517f08c379a00000000000000000000000000000000000000000000000000000000081526004016124c490614334565b60405180910390fd5b61254e8363095ea7b360e01b84846040516024016124ec92919061410c565b604051602081830303815290604052907bffffffffffffffffffffffffffffffffffffffffffffffffffffffff19166020820180517bffffffffffffffffffffffffffffffffffffffffffffffffffffffff8381831617835250505050612e6d565b505050565b60606125628484600085612f34565b90509392505050565b600081836125799190614593565b905092915050565b6126028363a9059cbb60e01b84846040516024016125a092919061410c565b604051602081830303815290604052907bffffffffffffffffffffffffffffffffffffffffffffffffffffffff19166020820180517bffffffffffffffffffffffffffffffffffffffffffffffffffffffff8381831617835250505050612e6d565b505050565b600081836126159190614539565b905092915050565b6000818361262b9190614508565b905092915050565b61263b611471565b61267a576040517f08c379a000000000000000000000000000000000000000000000000000000000815260040161267190614194565b60405180910390fd5b60008060146101000a81548160ff0219169083151502179055507f5db9ee0a495bf2e6ff9c91a7834c1ba4fdd244a5e8aa4e537bd38aeae4b073aa6126bd612b26565b6040516126ca919061404a565b60405180910390a1565b612745600f60009054906101000a900473ffffffffffffffffffffffffffffffffffffffff16600954600c60009054906101000a900473ffffffffffffffffffffffffffffffffffffffff1673ffffffffffffffffffffffffffffffffffffffff166123f59092919063ffffffff16565b6127b6600360009054906101000a900473ffffffffffffffffffffffffffffffffffffffff16600954600b60009054906101000a900473ffffffffffffffffffffffffffffffffffffffff1673ffffffffffffffffffffffffffffffffffffffff166123f59092919063ffffffff16565b612826600360009054906101000a900473ffffffffffffffffffffffffffffffffffffffff166000600d60009054906101000a900473ffffffffffffffffffffffffffffffffffffffff1673ffffffffffffffffffffffffffffffffffffffff166123f59092919063ffffffff16565b612897600360009054906101000a900473ffffffffffffffffffffffffffffffffffffffff16600954600d60009054906101000a900473ffffffffffffffffffffffffffffffffffffffff1673ffffffffffffffffffffffffffffffffffffffff166123f59092919063ffffffff16565b612907600360009054906101000a900473ffffffffffffffffffffffffffffffffffffffff166000600e60009054906101000a900473ffffffffffffffffffffffffffffffffffffffff1673ffffffffffffffffffffffffffffffffffffffff166123f59092919063ffffffff16565b612978600360009054906101000a900473ffffffffffffffffffffffffffffffffffffffff16600954600e60009054906101000a900473ffffffffffffffffffffffffffffffffffffffff1673ffffffffffffffffffffffffffffffffffffffff166123f59092919063ffffffff16565b565b3373ffffffffffffffffffffffffffffffffffffffff163273ffffffffffffffffffffffffffffffffffffffff161480612a015750600460009054906101000a900473ffffffffffffffffffffffffffffffffffffffff1673ffffffffffffffffffffffffffffffffffffffff163373ffffffffffffffffffffffffffffffffffffffff16145b612a40576040517f08c379a0000000000000000000000000000000000000000000000000000000008152600401612a37906141f4565b60405180910390fd5b600f60009054906101000a900473ffffffffffffffffffffffffffffffffffffffff1673ffffffffffffffffffffffffffffffffffffffff16633d18b9126040518163ffffffff1660e01b8152600401600060405180830381600087803b158015612aaa57600080fd5b505af1158015612abe573d6000803e3d6000fd5b50505050612aca613048565b612ad2613442565b612ada611d26565b426014819055503373ffffffffffffffffffffffffffffffffffffffff167f577a37fdb49a88d66684922c6f913df5239b4f214b2b97c53ef8e3bbb2034cb560405160405180910390a2565b600033905090565b60008060009054906101000a900473ffffffffffffffffffffffffffffffffffffffff169050816000806101000a81548173ffffffffffffffffffffffffffffffffffffffff021916908373ffffffffffffffffffffffffffffffffffffffff1602179055508173ffffffffffffffffffffffffffffffffffffffff168173ffffffffffffffffffffffffffffffffffffffff167f8be0079c531659141344cd1fd0a4f28419497f9722a3daafe3b4186f6b6457e060405160405180910390a35050565b60008183612c0091906144b2565b905092915050565b612c10611471565b15612c50576040517f08c379a0000000000000000000000000000000000000000000000000000000008152600401612c4790614234565b60405180910390fd5b6001600060146101000a81548160ff0219169083151502179055507f62e78cea01bee320cd4e420270b5ea74000d11b0c9f74754ebdbfc544b05a258612c94612b26565b604051612ca1919061404a565b60405180910390a1565b612d1b600f60009054906101000a900473ffffffffffffffffffffffffffffffffffffffff166000600c60009054906101000a900473ffffffffffffffffffffffffffffffffffffffff1673ffffffffffffffffffffffffffffffffffffffff166123f59092919063ffffffff16565b612d8b600360009054906101000a900473ffffffffffffffffffffffffffffffffffffffff166000600b60009054906101000a900473ffffffffffffffffffffffffffffffffffffffff1673ffffffffffffffffffffffffffffffffffffffff166123f59092919063ffffffff16565b612dfb600360009054906101000a900473ffffffffffffffffffffffffffffffffffffffff166000600d60009054906101000a900473ffffffffffffffffffffffffffffffffffffffff1673ffffffffffffffffffffffffffffffffffffffff166123f59092919063ffffffff16565b612e6b600360009054906101000a900473ffffffffffffffffffffffffffffffffffffffff166000600e60009054906101000a900473ffffffffffffffffffffffffffffffffffffffff1673ffffffffffffffffffffffffffffffffffffffff166123f59092919063ffffffff16565b565b6000612ecf826040518060400160405280602081526020017f5361666545524332303a206c6f772d6c6576656c2063616c6c206661696c65648152508573ffffffffffffffffffffffffffffffffffffffff166125539092919063ffffffff16565b9050600081511115612f2f5780806020019051810190612eef9190613be0565b612f2e576040517f08c379a0000000000000000000000000000000000000000000000000000000008152600401612f25906142f4565b60405180910390fd5b5b505050565b606082471015612f79576040517f08c379a0000000000000000000000000000000000000000000000000000000008152600401612f7090614214565b60405180910390fd5b612f82856139d4565b612fc1576040517f08c379a0000000000000000000000000000000000000000000000000000000008152600401612fb8906142b4565b60405180910390fd5b6000808673ffffffffffffffffffffffffffffffffffffffff168587604051612fea9190614033565b60006040518083038185875af1925050503d8060008114613027576040519150601f19603f3d011682016040523d82523d6000602084013e61302c565b606091505b509150915061303c8282866139e7565b92505050949350505050565b600061311c6103e861310e602d600b60009054906101000a900473ffffffffffffffffffffffffffffffffffffffff1673ffffffffffffffffffffffffffffffffffffffff166370a08231306040518263ffffffff1660e01b81526004016130b0919061404a565b60206040518083038186803b1580156130c857600080fd5b505afa1580156130dc573d6000803e3d6000fd5b505050506040513d601f19601f820116820180604052508101906131009190613c32565b61260790919063ffffffff16565b61261d90919063ffffffff16565b9050600360009054906101000a900473ffffffffffffffffffffffffffffffffffffffff1673ffffffffffffffffffffffffffffffffffffffff166338ed1739826000601030426040518663ffffffff1660e01b815260040161318395949392919061436f565b600060405180830381600087803b15801561319d57600080fd5b505af11580156131b1573d6000803e3d6000fd5b505050506040513d6000823e3d601f19601f820116820180604052508101906131da9190613b76565b506000600a60009054906101000a900473ffffffffffffffffffffffffffffffffffffffff1673ffffffffffffffffffffffffffffffffffffffff166370a08231306040518263ffffffff1660e01b8152600401613238919061404a565b60206040518083038186803b15801561325057600080fd5b505afa158015613264573d6000803e3d6000fd5b505050506040513d601f19601f820116820180604052508101906132889190613c32565b905060006132b56103e86132a76007548561260790919063ffffffff16565b61261d90919063ffffffff16565b90506133043282600a60009054906101000a900473ffffffffffffffffffffffffffffffffffffffff1673ffffffffffffffffffffffffffffffffffffffff166125819092919063ffffffff16565b600061332f6103e86133216008548661260790919063ffffffff16565b61261d90919063ffffffff16565b90506133a0600560009054906101000a900473ffffffffffffffffffffffffffffffffffffffff1682600a60009054906101000a900473ffffffffffffffffffffffffffffffffffffffff1673ffffffffffffffffffffffffffffffffffffffff166125819092919063ffffffff16565b60006133ca6103e86133bc60708761260790919063ffffffff16565b61261d90919063ffffffff16565b905061343b600260009054906101000a900473ffffffffffffffffffffffffffffffffffffffff1682600a60009054906101000a900473ffffffffffffffffffffffffffffffffffffffff1673ffffffffffffffffffffffffffffffffffffffff166125819092919063ffffffff16565b5050505050565b60006135026002600b60009054906101000a900473ffffffffffffffffffffffffffffffffffffffff1673ffffffffffffffffffffffffffffffffffffffff166370a08231306040518263ffffffff1660e01b81526004016134a4919061404a565b60206040518083038186803b1580156134bc57600080fd5b505afa1580156134d0573d6000803e3d6000fd5b505050506040513d601f19601f820116820180604052508101906134f49190613c32565b61261d90919063ffffffff16565b9050600b60009054906101000a900473ffffffffffffffffffffffffffffffffffffffff1673ffffffffffffffffffffffffffffffffffffffff16600d60009054906101000a900473ffffffffffffffffffffffffffffffffffffffff1673ffffffffffffffffffffffffffffffffffffffff161461363957600360009054906101000a900473ffffffffffffffffffffffffffffffffffffffff1673ffffffffffffffffffffffffffffffffffffffff166338ed1739826000601130426040518663ffffffff1660e01b81526004016135e095949392919061436f565b600060405180830381600087803b1580156135fa57600080fd5b505af115801561360e573d6000803e3d6000fd5b505050506040513d6000823e3d601f19601f820116820180604052508101906136379190613b76565b505b600b60009054906101000a900473ffffffffffffffffffffffffffffffffffffffff1673ffffffffffffffffffffffffffffffffffffffff16600e60009054906101000a900473ffffffffffffffffffffffffffffffffffffffff1673ffffffffffffffffffffffffffffffffffffffff161461376e57600360009054906101000a900473ffffffffffffffffffffffffffffffffffffffff1673ffffffffffffffffffffffffffffffffffffffff166338ed1739826000601230426040518663ffffffff1660e01b815260040161371595949392919061436f565b600060405180830381600087803b15801561372f57600080fd5b505af1158015613743573d6000803e3d6000fd5b505050506040513d6000823e3d601f19601f8201168201806040525081019061376c9190613b76565b505b6000600d60009054906101000a900473ffffffffffffffffffffffffffffffffffffffff1673ffffffffffffffffffffffffffffffffffffffff166370a08231306040518263ffffffff1660e01b81526004016137cb919061404a565b60206040518083038186803b1580156137e357600080fd5b505afa1580156137f7573d6000803e3d6000fd5b505050506040513d601f19601f8201168201806040525081019061381b9190613c32565b90506000600e60009054906101000a900473ffffffffffffffffffffffffffffffffffffffff1673ffffffffffffffffffffffffffffffffffffffff166370a08231306040518263ffffffff1660e01b815260040161387a919061404a565b60206040518083038186803b15801561389257600080fd5b505afa1580156138a6573d6000803e3d6000fd5b505050506040513d601f19601f820116820180604052508101906138ca9190613c32565b9050600360009054906101000a900473ffffffffffffffffffffffffffffffffffffffff1673ffffffffffffffffffffffffffffffffffffffff1663e8e33700600d60009054906101000a900473ffffffffffffffffffffffffffffffffffffffff16600e60009054906101000a900473ffffffffffffffffffffffffffffffffffffffff16858560018030426040518963ffffffff1660e01b815260040161397a98979695949392919061408e565b606060405180830381600087803b15801561399457600080fd5b505af11580156139a8573d6000803e3d6000fd5b505050506040513d601f19601f820116820180604052508101906139cc9190613c5b565b505050505050565b600080823b905060008111915050919050565b606083156139f757829050613a47565b600083511115613a0a5782518084602001fd5b816040517f08c379a0000000000000000000000000000000000000000000000000000000008152600401613a3e9190614172565b60405180910390fd5b9392505050565b6000613a61613a5c846143ee565b6143c9565b90508083825260208201905082856020860282011115613a8057600080fd5b60005b85811015613ab05781613a968882613b38565b845260208401935060208301925050600181019050613a83565b5050509392505050565b600081359050613ac981614a65565b92915050565b600082601f830112613ae057600080fd5b8151613af0848260208601613a4e565b91505092915050565b600081359050613b0881614a7c565b92915050565b600081519050613b1d81614a7c565b92915050565b600081359050613b3281614a93565b92915050565b600081519050613b4781614a93565b92915050565b600060208284031215613b5f57600080fd5b6000613b6d84828501613aba565b91505092915050565b600060208284031215613b8857600080fd5b600082015167ffffffffffffffff811115613ba257600080fd5b613bae84828501613acf565b91505092915050565b600060208284031215613bc957600080fd5b6000613bd784828501613af9565b91505092915050565b600060208284031215613bf257600080fd5b6000613c0084828501613b0e565b91505092915050565b600060208284031215613c1b57600080fd5b6000613c2984828501613b23565b91505092915050565b600060208284031215613c4457600080fd5b6000613c5284828501613b38565b91505092915050565b600080600060608486031215613c7057600080fd5b6000613c7e86828701613b38565b9350506020613c8f86828701613b38565b9250506040613ca086828701613b38565b9150509250925092565b6000613cb68383613cc2565b60208301905092915050565b613ccb816145e7565b82525050565b613cda816145e7565b82525050565b6000613ceb8261443f565b613cf58185614485565b9350613d008361441a565b8060005b83811015613d31578151613d188882613caa565b9750613d238361446b565b925050600181019050613d04565b5085935050505092915050565b6000613d498261444a565b613d538185614485565b9350613d5e8361442a565b8060005b83811015613d9657613d738261475e565b613d7d8882613caa565b9750613d8883614478565b925050600181019050613d62565b5085935050505092915050565b613dac816145f9565b82525050565b6000613dbd82614455565b613dc78185614496565b9350613dd7818560208601614653565b80840191505092915050565b613dec8161462f565b82525050565b613dfb81614641565b82525050565b6000613e0c82614460565b613e1681856144a1565b9350613e26818560208601614653565b613e2f81614771565b840191505092915050565b6000613e476014836144a1565b9150613e528261478f565b602082019050919050565b6000613e6a600b836144a1565b9150613e75826147b8565b602082019050919050565b6000613e8d6026836144a1565b9150613e98826147e1565b604082019050919050565b6000613eb06009836144a1565b9150613ebb82614830565b602082019050919050565b6000613ed36026836144a1565b9150613ede82614859565b604082019050919050565b6000613ef66010836144a1565b9150613f01826148a8565b602082019050919050565b6000613f196004836144a1565b9150613f24826148d1565b602082019050919050565b6000613f3c6006836144a1565b9150613f47826148fa565b602082019050919050565b6000613f5f6020836144a1565b9150613f6a82614923565b602082019050919050565b6000613f82601d836144a1565b9150613f8d8261494c565b602082019050919050565b6000613fa56008836144a1565b9150613fb082614975565b602082019050919050565b6000613fc8602a836144a1565b9150613fd38261499e565b604082019050919050565b6000613feb6004836144a1565b9150613ff6826149ed565b602082019050919050565b600061400e6036836144a1565b915061401982614a16565b604082019050919050565b61402d81614625565b82525050565b600061403f8284613db2565b915081905092915050565b600060208201905061405f6000830184613cd1565b92915050565b600060408201905061407a6000830185613cd1565b6140876020830184613cd1565b9392505050565b6000610100820190506140a4600083018b613cd1565b6140b1602083018a613cd1565b6140be6040830189614024565b6140cb6060830188614024565b6140d86080830187613df2565b6140e560a0830186613df2565b6140f260c0830185613cd1565b6140ff60e0830184614024565b9998505050505050505050565b60006040820190506141216000830185613cd1565b61412e6020830184614024565b9392505050565b6000602082019050818103600083015261414f8184613ce0565b905092915050565b600060208201905061416c6000830184613da3565b92915050565b6000602082019050818103600083015261418c8184613e01565b905092915050565b600060208201905081810360008301526141ad81613e3a565b9050919050565b600060208201905081810360008301526141cd81613e5d565b9050919050565b600060208201905081810360008301526141ed81613e80565b9050919050565b6000602082019050818103600083015261420d81613ea3565b9050919050565b6000602082019050818103600083015261422d81613ec6565b9050919050565b6000602082019050818103600083015261424d81613ee9565b9050919050565b6000602082019050818103600083015261426d81613f0c565b9050919050565b6000602082019050818103600083015261428d81613f2f565b9050919050565b600060208201905081810360008301526142ad81613f52565b9050919050565b600060208201905081810360008301526142cd81613f75565b9050919050565b600060208201905081810360008301526142ed81613f98565b9050919050565b6000602082019050818103600083015261430d81613fbb565b9050919050565b6000602082019050818103600083015261432d81613fde565b9050919050565b6000602082019050818103600083015261434d81614001565b9050919050565b60006020820190506143696000830184614024565b92915050565b600060a0820190506143846000830188614024565b6143916020830187613de3565b81810360408301526143a38186613d3e565b90506143b26060830185613cd1565b6143bf6080830184614024565b9695505050505050565b60006143d36143e4565b90506143df82826146a0565b919050565b6000604051905090565b600067ffffffffffffffff8211156144095761440861472f565b5b602082029050602081019050919050565b6000819050602082019050919050565b60008190508160005260206000209050919050565b600081519050919050565b600081549050919050565b600081519050919050565b600081519050919050565b6000602082019050919050565b6000600182019050919050565b600082825260208201905092915050565b600081905092915050565b600082825260208201905092915050565b60006144bd82614625565b91506144c883614625565b9250827fffffffffffffffffffffffffffffffffffffffffffffffffffffffffffffffff038211156144fd576144fc6146d1565b5b828201905092915050565b600061451382614625565b915061451e83614625565b92508261452e5761452d614700565b5b828204905092915050565b600061454482614625565b915061454f83614625565b9250817fffffffffffffffffffffffffffffffffffffffffffffffffffffffffffffffff0483118215151615614588576145876146d1565b5b828202905092915050565b600061459e82614625565b91506145a983614625565b9250828210156145bc576145bb6146d1565b5b828203905092915050565b600073ffffffffffffffffffffffffffffffffffffffff82169050919050565b60006145f282614605565b9050919050565b60008115159050919050565b600073ffffffffffffffffffffffffffffffffffffffff82169050919050565b6000819050919050565b600061463a82614625565b9050919050565b600061464c82614625565b9050919050565b60005b83811015614671578082015181840152602081019050614656565b83811115614680576000848401525b50505050565b600061469961469483614782565b6145c7565b9050919050565b6146a982614771565b810181811067ffffffffffffffff821117156146c8576146c761472f565b5b80604052505050565b7f4e487b7100000000000000000000000000000000000000000000000000000000600052601160045260246000fd5b7f4e487b7100000000000000000000000000000000000000000000000000000000600052601260045260246000fd5b7f4e487b7100000000000000000000000000000000000000000000000000000000600052604160045260246000fd5b600061476a8254614686565b9050919050565b6000601f19601f8301169050919050565b60008160001c9050919050565b7f5061757361626c653a206e6f7420706175736564000000000000000000000000600082015250565b7f2173747261746567697374000000000000000000000000000000000000000000600082015250565b7f4f776e61626c653a206e6577206f776e657220697320746865207a65726f206160008201527f6464726573730000000000000000000000000000000000000000000000000000602082015250565b7f21636f6e74726163740000000000000000000000000000000000000000000000600082015250565b7f416464726573733a20696e73756666696369656e742062616c616e636520666f60008201527f722063616c6c0000000000000000000000000000000000000000000000000000602082015250565b7f5061757361626c653a2070617573656400000000000000000000000000000000600082015250565b7f2163617000000000000000000000000000000000000000000000000000000000600082015250565b7f217661756c740000000000000000000000000000000000000000000000000000600082015250565b7f4f776e61626c653a2063616c6c6572206973206e6f7420746865206f776e6572600082015250565b7f416464726573733a2063616c6c20746f206e6f6e2d636f6e7472616374000000600082015250565b7f216d616e61676572000000000000000000000000000000000000000000000000600082015250565b7f5361666545524332303a204552433230206f7065726174696f6e20646964206e60008201527f6f74207375636365656400000000000000000000000000000000000000000000602082015250565b7f21454f4100000000000000000000000000000000000000000000000000000000600082015250565b7f5361666545524332303a20617070726f76652066726f6d206e6f6e2d7a65726f60008201527f20746f206e6f6e2d7a65726f20616c6c6f77616e636500000000000000000000602082015250565b614a6e816145e7565b8114614a7957600080fd5b50565b614a85816145f9565b8114614a9057600080fd5b50565b614a9c81614625565b8114614aa757600080fd5b5056fea264697066735822122014c9a7dae10f1d50efb6f8071584f710c808f6e8b071b4e16b9674667d6d311e64736f6c63430008040033",
  "linkReferences": {},
  "deployedLinkReferences": {}
}