{
  "_format": "hh-sol-artifact-1",
  "contractName": "StrategyQuickDragonsLair",
  "sourceName": "contracts/quick/StrategyQuickDragonsLair.sol",
  "abi": [
    {
      "inputs": [
        {
          "internalType": "address",
          "name": "_rewardPool",
          "type": "address"
        },
        {
          "internalType": "address",
          "name": "_vault",
          "type": "address"
        },
        {
          "internalType": "address",
          "name": "_unirouter",
          "type": "address"
        },
        {
          "internalType": "address",
          "name": "_keeper",
          "type": "address"
        },
        {
          "internalType": "address",
          "name": "_strategist",
          "type": "address"
        },
        {
          "internalType": "address",
          "name": "_beefyFeeRecipient",
          "type": "address"
        },
        {
          "internalType": "address[]",
          "name": "_outputToNativeRoute",
          "type": "address[]"
        },
        {
          "internalType": "address[]",
          "name": "_outputToWantRoute",
          "type": "address[]"
        }
      ],
      "stateMutability": "nonpayable",
      "type": "constructor"
    },
    {
      "anonymous": false,
      "inputs": [
        {
          "indexed": true,
          "internalType": "address",
          "name": "previousOwner",
          "type": "address"
        },
        {
          "indexed": true,
          "internalType": "address",
          "name": "newOwner",
          "type": "address"
        }
      ],
      "name": "OwnershipTransferred",
      "type": "event"
    },
    {
      "anonymous": false,
      "inputs": [
        {
          "indexed": false,
          "internalType": "address",
          "name": "account",
          "type": "address"
        }
      ],
      "name": "Paused",
      "type": "event"
    },
    {
      "anonymous": false,
      "inputs": [
        {
          "indexed": true,
          "internalType": "address",
          "name": "harvester",
          "type": "address"
        }
      ],
      "name": "StratHarvest",
      "type": "event"
    },
    {
      "anonymous": false,
      "inputs": [
        {
          "indexed": false,
          "internalType": "address",
          "name": "rewardPool",
          "type": "address"
        }
      ],
      "name": "SwapRewardPool",
      "type": "event"
    },
    {
      "anonymous": false,
      "inputs": [
        {
          "indexed": false,
          "internalType": "address",
          "name": "account",
          "type": "address"
        }
      ],
      "name": "Unpaused",
      "type": "event"
    },
    {
      "inputs": [],
      "name": "MAX_CALL_FEE",
      "outputs": [
        {
          "internalType": "uint256",
          "name": "",
          "type": "uint256"
        }
      ],
      "stateMutability": "view",
      "type": "function"
    },
    {
      "inputs": [],
      "name": "MAX_FEE",
      "outputs": [
        {
          "internalType": "uint256",
          "name": "",
          "type": "uint256"
        }
      ],
      "stateMutability": "view",
      "type": "function"
    },
    {
      "inputs": [],
      "name": "MAX_INT",
      "outputs": [
        {
          "internalType": "uint256",
          "name": "",
          "type": "uint256"
        }
      ],
      "stateMutability": "view",
      "type": "function"
    },
    {
      "inputs": [],
      "name": "QUICK",
      "outputs": [
        {
          "internalType": "address",
          "name": "",
          "type": "address"
        }
      ],
      "stateMutability": "view",
      "type": "function"
    },
    {
      "inputs": [],
      "name": "STRATEGIST_FEE",
      "outputs": [
        {
          "internalType": "uint256",
          "name": "",
          "type": "uint256"
        }
      ],
      "stateMutability": "view",
      "type": "function"
    },
    {
      "inputs": [],
      "name": "WITHDRAWAL_FEE_CAP",
      "outputs": [
        {
          "internalType": "uint256",
          "name": "",
          "type": "uint256"
        }
      ],
      "stateMutability": "view",
      "type": "function"
    },
    {
      "inputs": [],
      "name": "WITHDRAWAL_MAX",
      "outputs": [
        {
          "internalType": "uint256",
          "name": "",
          "type": "uint256"
        }
      ],
      "stateMutability": "view",
      "type": "function"
    },
    {
      "inputs": [],
      "name": "balanceOf",
      "outputs": [
        {
          "internalType": "uint256",
          "name": "",
          "type": "uint256"
        }
      ],
      "stateMutability": "view",
      "type": "function"
    },
    {
      "inputs": [],
      "name": "balanceOfPool",
      "outputs": [
        {
          "internalType": "uint256",
          "name": "",
          "type": "uint256"
        }
      ],
      "stateMutability": "view",
      "type": "function"
    },
    {
      "inputs": [],
      "name": "balanceOfPoolD",
      "outputs": [
        {
          "internalType": "uint256",
          "name": "",
          "type": "uint256"
        }
      ],
      "stateMutability": "view",
      "type": "function"
    },
    {
      "inputs": [],
      "name": "balanceOfWant",
      "outputs": [
        {
          "internalType": "uint256",
          "name": "",
          "type": "uint256"
        }
      ],
      "stateMutability": "view",
      "type": "function"
    },
    {
      "inputs": [],
      "name": "balanceOfWantD",
      "outputs": [
        {
          "internalType": "uint256",
          "name": "",
          "type": "uint256"
        }
      ],
      "stateMutability": "view",
      "type": "function"
    },
    {
      "inputs": [],
      "name": "beefyFee",
      "outputs": [
        {
          "internalType": "uint256",
          "name": "",
          "type": "uint256"
        }
      ],
      "stateMutability": "view",
      "type": "function"
    },
    {
      "inputs": [],
      "name": "beefyFeeRecipient",
      "outputs": [
        {
          "internalType": "address",
          "name": "",
          "type": "address"
        }
      ],
      "stateMutability": "view",
      "type": "function"
    },
    {
      "inputs": [],
      "name": "beforeDeposit",
      "outputs": [],
      "stateMutability": "nonpayable",
      "type": "function"
    },
    {
      "inputs": [],
      "name": "callFee",
      "outputs": [
        {
          "internalType": "uint256",
          "name": "",
          "type": "uint256"
        }
      ],
      "stateMutability": "view",
      "type": "function"
    },
    {
      "inputs": [],
      "name": "deposit",
      "outputs": [],
      "stateMutability": "nonpayable",
      "type": "function"
    },
    {
      "inputs": [],
      "name": "dragonsLair",
      "outputs": [
        {
          "internalType": "address",
          "name": "",
          "type": "address"
        }
      ],
      "stateMutability": "view",
      "type": "function"
    },
    {
      "inputs": [],
      "name": "harvest",
      "outputs": [],
      "stateMutability": "nonpayable",
      "type": "function"
    },
    {
      "inputs": [],
      "name": "harvestOnDeposit",
      "outputs": [
        {
          "internalType": "bool",
          "name": "",
          "type": "bool"
        }
      ],
      "stateMutability": "view",
      "type": "function"
    },
    {
      "inputs": [],
      "name": "keeper",
      "outputs": [
        {
          "internalType": "address",
          "name": "",
          "type": "address"
        }
      ],
      "stateMutability": "view",
      "type": "function"
    },
    {
      "inputs": [],
      "name": "lastHarvest",
      "outputs": [
        {
          "internalType": "uint256",
          "name": "",
          "type": "uint256"
        }
      ],
      "stateMutability": "view",
      "type": "function"
    },
    {
      "inputs": [],
      "name": "managerHarvest",
      "outputs": [],
      "stateMutability": "nonpayable",
      "type": "function"
    },
    {
      "inputs": [],
      "name": "native",
      "outputs": [
        {
          "internalType": "address",
          "name": "",
          "type": "address"
        }
      ],
      "stateMutability": "view",
      "type": "function"
    },
    {
      "inputs": [],
      "name": "output",
      "outputs": [
        {
          "internalType": "address",
          "name": "",
          "type": "address"
        }
      ],
      "stateMutability": "view",
      "type": "function"
    },
    {
      "inputs": [],
      "name": "outputToNative",
      "outputs": [
        {
          "internalType": "address[]",
          "name": "",
          "type": "address[]"
        }
      ],
      "stateMutability": "view",
      "type": "function"
    },
    {
      "inputs": [
        {
          "internalType": "uint256",
          "name": "",
          "type": "uint256"
        }
      ],
      "name": "outputToNativeRoute",
      "outputs": [
        {
          "internalType": "address",
          "name": "",
          "type": "address"
        }
      ],
      "stateMutability": "view",
      "type": "function"
    },
    {
      "inputs": [],
      "name": "outputToWant",
      "outputs": [
        {
          "internalType": "address[]",
          "name": "",
          "type": "address[]"
        }
      ],
      "stateMutability": "view",
      "type": "function"
    },
    {
      "inputs": [
        {
          "internalType": "uint256",
          "name": "",
          "type": "uint256"
        }
      ],
      "name": "outputToWantRoute",
      "outputs": [
        {
          "internalType": "address",
          "name": "",
          "type": "address"
        }
      ],
      "stateMutability": "view",
      "type": "function"
    },
    {
      "inputs": [],
      "name": "owner",
      "outputs": [
        {
          "internalType": "address",
          "name": "",
          "type": "address"
        }
      ],
      "stateMutability": "view",
      "type": "function"
    },
    {
      "inputs": [],
      "name": "panic",
      "outputs": [],
      "stateMutability": "nonpayable",
      "type": "function"
    },
    {
      "inputs": [],
      "name": "pause",
      "outputs": [],
      "stateMutability": "nonpayable",
      "type": "function"
    },
    {
      "inputs": [],
      "name": "paused",
      "outputs": [
        {
          "internalType": "bool",
          "name": "",
          "type": "bool"
        }
      ],
      "stateMutability": "view",
      "type": "function"
    },
    {
      "inputs": [],
      "name": "renounceOwnership",
      "outputs": [],
      "stateMutability": "nonpayable",
      "type": "function"
    },
    {
      "inputs": [],
      "name": "retireStrat",
      "outputs": [],
      "stateMutability": "nonpayable",
      "type": "function"
    },
    {
      "inputs": [],
      "name": "rewardPool",
      "outputs": [
        {
          "internalType": "address",
          "name": "",
          "type": "address"
        }
      ],
      "stateMutability": "view",
      "type": "function"
    },
    {
      "inputs": [
        {
          "internalType": "address",
          "name": "_beefyFeeRecipient",
          "type": "address"
        }
      ],
      "name": "setBeefyFeeRecipient",
      "outputs": [],
      "stateMutability": "nonpayable",
      "type": "function"
    },
    {
      "inputs": [
        {
          "internalType": "uint256",
          "name": "_fee",
          "type": "uint256"
        }
      ],
      "name": "setCallFee",
      "outputs": [],
      "stateMutability": "nonpayable",
      "type": "function"
    },
    {
      "inputs": [
        {
          "internalType": "bool",
          "name": "_harvestOnDeposit",
          "type": "bool"
        }
      ],
      "name": "setHarvestOnDeposit",
      "outputs": [],
      "stateMutability": "nonpayable",
      "type": "function"
    },
    {
      "inputs": [
        {
          "internalType": "address",
          "name": "_keeper",
          "type": "address"
        }
      ],
      "name": "setKeeper",
      "outputs": [],
      "stateMutability": "nonpayable",
      "type": "function"
    },
    {
      "inputs": [
        {
          "internalType": "address",
          "name": "_strategist",
          "type": "address"
        }
      ],
      "name": "setStrategist",
      "outputs": [],
      "stateMutability": "nonpayable",
      "type": "function"
    },
    {
      "inputs": [
        {
          "internalType": "address",
          "name": "_unirouter",
          "type": "address"
        }
      ],
      "name": "setUnirouter",
      "outputs": [],
      "stateMutability": "nonpayable",
      "type": "function"
    },
    {
      "inputs": [
        {
          "internalType": "address",
          "name": "_vault",
          "type": "address"
        }
      ],
      "name": "setVault",
      "outputs": [],
      "stateMutability": "nonpayable",
      "type": "function"
    },
    {
      "inputs": [
        {
          "internalType": "uint256",
          "name": "_fee",
          "type": "uint256"
        }
      ],
      "name": "setWithdrawalFee",
      "outputs": [],
      "stateMutability": "nonpayable",
      "type": "function"
    },
    {
      "inputs": [],
      "name": "strategist",
      "outputs": [
        {
          "internalType": "address",
          "name": "",
          "type": "address"
        }
      ],
      "stateMutability": "view",
      "type": "function"
    },
    {
      "inputs": [
        {
          "internalType": "address",
          "name": "_rewardPool",
          "type": "address"
        },
        {
          "internalType": "address[]",
          "name": "_outputToNativeRoute",
          "type": "address[]"
        },
        {
          "internalType": "address[]",
          "name": "_outputToWantRoute",
          "type": "address[]"
        }
      ],
      "name": "swapRewardPool",
      "outputs": [],
      "stateMutability": "nonpayable",
      "type": "function"
    },
    {
      "inputs": [
        {
          "internalType": "address",
          "name": "newOwner",
          "type": "address"
        }
      ],
      "name": "transferOwnership",
      "outputs": [],
      "stateMutability": "nonpayable",
      "type": "function"
    },
    {
      "inputs": [],
      "name": "unirouter",
      "outputs": [
        {
          "internalType": "address",
          "name": "",
          "type": "address"
        }
      ],
      "stateMutability": "view",
      "type": "function"
    },
    {
      "inputs": [],
      "name": "unpause",
      "outputs": [],
      "stateMutability": "nonpayable",
      "type": "function"
    },
    {
      "inputs": [],
      "name": "vault",
      "outputs": [
        {
          "internalType": "address",
          "name": "",
          "type": "address"
        }
      ],
      "stateMutability": "view",
      "type": "function"
    },
    {
      "inputs": [],
      "name": "want",
      "outputs": [
        {
          "internalType": "address",
          "name": "",
          "type": "address"
        }
      ],
      "stateMutability": "view",
      "type": "function"
    },
    {
      "inputs": [
        {
          "internalType": "uint256",
          "name": "_amount",
          "type": "uint256"
        }
      ],
      "name": "withdraw",
      "outputs": [],
      "stateMutability": "nonpayable",
      "type": "function"
    },
    {
      "inputs": [],
      "name": "withdrawalFee",
      "outputs": [
        {
          "internalType": "uint256",
          "name": "",
          "type": "uint256"
        }
      ],
      "stateMutability": "view",
      "type": "function"
    }
  ],
  "bytecode": "0x6080604052600a600655600b60075560075460706103e862000022919062001243565b6200002e919062001243565b6008557fffffffffffffffffffffffffffffffffffffffffffffffffffffffffffffffff6009553480156200006257600080fd5b506040516200686e3803806200686e833981810160405281019062000088919062000d85565b8484878986620000ad620000a1620005c360201b60201c565b620005cb60201b60201c565b60008060146101000a81548160ff02191690831515021790555084600160006101000a81548173ffffffffffffffffffffffffffffffffffffffff021916908373ffffffffffffffffffffffffffffffffffffffff16021790555083600260006101000a81548173ffffffffffffffffffffffffffffffffffffffff021916908373ffffffffffffffffffffffffffffffffffffffff16021790555082600360006101000a81548173ffffffffffffffffffffffffffffffffffffffff021916908373ffffffffffffffffffffffffffffffffffffffff16021790555081600460006101000a81548173ffffffffffffffffffffffffffffffffffffffff021916908373ffffffffffffffffffffffffffffffffffffffff16021790555080600560006101000a81548173ffffffffffffffffffffffffffffffffffffffff021916908373ffffffffffffffffffffffffffffffffffffffff160217905550505050505073831753dd7087cac61ab5644b308642cc1c33dc13600c60006101000a81548173ffffffffffffffffffffffffffffffffffffffff021916908373ffffffffffffffffffffffffffffffffffffffff16021790555087600d60006101000a81548173ffffffffffffffffffffffffffffffffffffffff021916908373ffffffffffffffffffffffffffffffffffffffff16021790555081600081518110620002e2577f4e487b7100000000000000000000000000000000000000000000000000000000600052603260045260246000fd5b6020026020010151600b60006101000a81548173ffffffffffffffffffffffffffffffffffffffff021916908373ffffffffffffffffffffffffffffffffffffffff16021790555081600183516200033b919062001243565b8151811062000373577f4e487b7100000000000000000000000000000000000000000000000000000000600052603260045260246000fd5b6020026020010151600a60006101000a81548173ffffffffffffffffffffffffffffffffffffffff021916908373ffffffffffffffffffffffffffffffffffffffff16021790555081600e9080519060200190620003d392919062000bf0565b50600b60009054906101000a900473ffffffffffffffffffffffffffffffffffffffff1673ffffffffffffffffffffffffffffffffffffffff168160008151811062000448577f4e487b7100000000000000000000000000000000000000000000000000000000600052603260045260246000fd5b602002602001015173ffffffffffffffffffffffffffffffffffffffff1614620004a9576040517f08c379a0000000000000000000000000000000000000000000000000000000008152600401620004a0906200110f565b60405180910390fd5b600c60009054906101000a900473ffffffffffffffffffffffffffffffffffffffff1673ffffffffffffffffffffffffffffffffffffffff168160018351620004f3919062001243565b815181106200052b577f4e487b7100000000000000000000000000000000000000000000000000000000600052603260045260246000fd5b602002602001015173ffffffffffffffffffffffffffffffffffffffff16146200058c576040517f08c379a00000000000000000000000000000000000000000000000000000000081526004016200058390620010ed565b60405180910390fd5b80600f9080519060200190620005a492919062000bf0565b50620005b56200068f60201b60201c565b505050505050505062001559565b600033905090565b60008060009054906101000a900473ffffffffffffffffffffffffffffffffffffffff169050816000806101000a81548173ffffffffffffffffffffffffffffffffffffffff021916908373ffffffffffffffffffffffffffffffffffffffff1602179055508173ffffffffffffffffffffffffffffffffffffffff168173ffffffffffffffffffffffffffffffffffffffff167f8be0079c531659141344cd1fd0a4f28419497f9722a3daafe3b4186f6b6457e060405160405180910390a35050565b620006f973f28164a485b0b2c90639e47b0f377b4a438a16b1600954600c60009054906101000a900473ffffffffffffffffffffffffffffffffffffffff1673ffffffffffffffffffffffffffffffffffffffff16620007dd60201b62002e16179092919060201c565b62000763600d60009054906101000a900473ffffffffffffffffffffffffffffffffffffffff1660095473f28164a485b0b2c90639e47b0f377b4a438a16b173ffffffffffffffffffffffffffffffffffffffff16620007dd60201b62002e16179092919060201c565b620007db600360009054906101000a900473ffffffffffffffffffffffffffffffffffffffff16600954600b60009054906101000a900473ffffffffffffffffffffffffffffffffffffffff1673ffffffffffffffffffffffffffffffffffffffff16620007dd60201b62002e16179092919060201c565b565b60008114806200087d575060008373ffffffffffffffffffffffffffffffffffffffff1663dd62ed3e30856040518363ffffffff1660e01b8152600401620008279291906200106f565b60206040518083038186803b1580156200084057600080fd5b505afa15801562000855573d6000803e3d6000fd5b505050506040513d601f19601f820116820180604052508101906200087b919062000ea6565b145b620008bf576040517f08c379a0000000000000000000000000000000000000000000000000000000008152600401620008b69062001197565b60405180910390fd5b6200094a8363095ea7b360e01b8484604051602401620008e19291906200109c565b604051602081830303815290604052907bffffffffffffffffffffffffffffffffffffffffffffffffffffffff19166020820180517bffffffffffffffffffffffffffffffffffffffffffffffffffffffff83818316178352505050506200094f60201b60201c565b505050565b6000620009b8826040518060400160405280602081526020017f5361666545524332303a206c6f772d6c6576656c2063616c6c206661696c65648152508573ffffffffffffffffffffffffffffffffffffffff1662000a2360201b62002f74179092919060201c565b905060008151111562000a1e5780806020019051810190620009db919062000e7a565b62000a1d576040517f08c379a000000000000000000000000000000000000000000000000000000000815260040162000a149062001175565b60405180910390fd5b5b505050565b606062000a3a848460008562000a4360201b60201c565b90509392505050565b60608247101562000a8b576040517f08c379a000000000000000000000000000000000000000000000000000000000815260040162000a829062001131565b60405180910390fd5b62000a9c8562000b7160201b60201c565b62000ade576040517f08c379a000000000000000000000000000000000000000000000000000000000815260040162000ad59062001153565b60405180910390fd5b6000808673ffffffffffffffffffffffffffffffffffffffff16858760405162000b09919062001056565b60006040518083038185875af1925050503d806000811462000b48576040519150601f19603f3d011682016040523d82523d6000602084013e62000b4d565b606091505b509150915062000b6582828662000b8460201b60201c565b92505050949350505050565b600080823b905060008111915050919050565b6060831562000b965782905062000be9565b60008351111562000baa5782518084602001fd5b816040517f08c379a000000000000000000000000000000000000000000000000000000000815260040162000be09190620010c9565b60405180910390fd5b9392505050565b82805482825590600052602060002090810192821562000c6c579160200282015b8281111562000c6b5782518260006101000a81548173ffffffffffffffffffffffffffffffffffffffff021916908373ffffffffffffffffffffffffffffffffffffffff1602179055509160200191906001019062000c11565b5b50905062000c7b919062000c7f565b5090565b5b8082111562000c9a57600081600090555060010162000c80565b5090565b600062000cb562000caf84620011e2565b620011b9565b9050808382526020820190508285602086028201111562000cd557600080fd5b60005b8581101562000d09578162000cee888262000d13565b84526020840193506020830192505060018101905062000cd8565b5050509392505050565b60008151905062000d24816200150b565b92915050565b600082601f83011262000d3c57600080fd5b815162000d4e84826020860162000c9e565b91505092915050565b60008151905062000d688162001525565b92915050565b60008151905062000d7f816200153f565b92915050565b600080600080600080600080610100898b03121562000da357600080fd5b600062000db38b828c0162000d13565b985050602062000dc68b828c0162000d13565b975050604062000dd98b828c0162000d13565b965050606062000dec8b828c0162000d13565b955050608062000dff8b828c0162000d13565b94505060a062000e128b828c0162000d13565b93505060c089015167ffffffffffffffff81111562000e3057600080fd5b62000e3e8b828c0162000d2a565b92505060e089015167ffffffffffffffff81111562000e5c57600080fd5b62000e6a8b828c0162000d2a565b9150509295985092959890939650565b60006020828403121562000e8d57600080fd5b600062000e9d8482850162000d57565b91505092915050565b60006020828403121562000eb957600080fd5b600062000ec98482850162000d6e565b91505092915050565b62000edd816200127e565b82525050565b600062000ef08262001211565b62000efc818562001227565b935062000f0e818560208601620012c8565b80840191505092915050565b600062000f27826200121c565b62000f33818562001232565b935062000f45818560208601620012c8565b62000f508162001392565b840191505092915050565b600062000f6a60058362001232565b915062000f7782620013a3565b602082019050919050565b600062000f9160168362001232565b915062000f9e82620013cc565b602082019050919050565b600062000fb860268362001232565b915062000fc582620013f5565b604082019050919050565b600062000fdf601d8362001232565b915062000fec8262001444565b602082019050919050565b600062001006602a8362001232565b915062001013826200146d565b604082019050919050565b60006200102d60368362001232565b91506200103a82620014bc565b604082019050919050565b6200105081620012be565b82525050565b600062001064828462000ee3565b915081905092915050565b600060408201905062001086600083018562000ed2565b62001095602083018462000ed2565b9392505050565b6000604082019050620010b3600083018562000ed2565b620010c2602083018462001045565b9392505050565b60006020820190508181036000830152620010e5818462000f1a565b905092915050565b60006020820190508181036000830152620011088162000f5b565b9050919050565b600060208201905081810360008301526200112a8162000f82565b9050919050565b600060208201905081810360008301526200114c8162000fa9565b9050919050565b600060208201905081810360008301526200116e8162000fd0565b9050919050565b60006020820190508181036000830152620011908162000ff7565b9050919050565b60006020820190508181036000830152620011b2816200101e565b9050919050565b6000620011c5620011d8565b9050620011d38282620012fe565b919050565b6000604051905090565b600067ffffffffffffffff8211156200120057620011ff62001363565b5b602082029050602081019050919050565b600081519050919050565b600081519050919050565b600081905092915050565b600082825260208201905092915050565b60006200125082620012be565b91506200125d83620012be565b92508282101562001273576200127262001334565b5b828203905092915050565b60006200128b826200129e565b9050919050565b60008115159050919050565b600073ffffffffffffffffffffffffffffffffffffffff82169050919050565b6000819050919050565b60005b83811015620012e8578082015181840152602081019050620012cb565b83811115620012f8576000848401525b50505050565b620013098262001392565b810181811067ffffffffffffffff821117156200132b576200132a62001363565b5b80604052505050565b7f4e487b7100000000000000000000000000000000000000000000000000000000600052601160045260246000fd5b7f4e487b7100000000000000000000000000000000000000000000000000000000600052604160045260246000fd5b6000601f19601f8301169050919050565b7f2177616e74000000000000000000000000000000000000000000000000000000600082015250565b7f746f4465706f7369745b305d20213d206f757470757400000000000000000000600082015250565b7f416464726573733a20696e73756666696369656e742062616c616e636520666f60008201527f722063616c6c0000000000000000000000000000000000000000000000000000602082015250565b7f416464726573733a2063616c6c20746f206e6f6e2d636f6e7472616374000000600082015250565b7f5361666545524332303a204552433230206f7065726174696f6e20646964206e60008201527f6f74207375636365656400000000000000000000000000000000000000000000602082015250565b7f5361666545524332303a20617070726f76652066726f6d206e6f6e2d7a65726f60008201527f20746f206e6f6e2d7a65726f20616c6c6f77616e636500000000000000000000602082015250565b62001516816200127e565b81146200152257600080fd5b50565b620015308162001292565b81146200153c57600080fd5b50565b6200154a81620012be565b81146200155657600080fd5b50565b61530580620015696000396000f3fe608060405234801561001057600080fd5b50600436106103275760003560e01c80637d38ca65116101b8578063c1a3d44c11610104578063dd93d6b3116100a2578063f20eaeb81161007c578063f20eaeb81461085a578063f2fde38b14610878578063fb61778714610894578063fbfa77cf1461089e57610327565b8063dd93d6b3146107ee578063dfbdc4371461081e578063f1a392da1461083c57610327565b8063d0e30db0116100de578063d0e30db0146107a0578063d3102589146107aa578063d801d946146107c8578063d92f3d73146107d257610327565b8063c1a3d44c14610748578063c7b9d53014610766578063cc7cb29b1461078257610327565b806390321e1a11610171578063ac1e50251161014b578063ac1e5025146106c0578063aced1661146106dc578063bc063e1a146106fa578063be12a9781461071857610327565b806390321e1a1461066a5780639c19f9c714610688578063a68833e5146106a457610327565b80637d38ca65146105ca5780638456cb59146105e85780638912cb8b146105f25780638bc7e8c4146106105780638da5cb5b1461062e5780638e1454591461064c57610327565b80634641257d1161027757806361bd16b011610230578063715018a61161020a578063715018a614610568578063722713f714610572578063748747e61461059057806375342c6a146105ac57610327565b806361bd16b01461051057806366666aa91461052e5780636817031b1461054c57610327565b80634641257d146104985780634700d305146104a257806354518b1a146104ac578063573fef0a146104ca5780635c975abb146104d45780636013d5bf146104f257610327565b80631f1fcd51116102e457806326465826116102be57806326465826146104385780632ad5a53f146104545780632e1a7d4d146104725780633f4ba83a1461048e57610327565b80631f1fcd51146103de5780631fe4a686146103fc578063257ae0de1461041a57610327565b8063098d32281461032c5780630e8fbb5a1461034a578063115880861461036657806311b0b42d1461038457806313e120b1146103a2578063188672a0146103c0575b600080fd5b6103346108bc565b6040516103419190614a72565b60405180910390f35b610364600480360381019061035f91906142e8565b6108c2565b005b61036e6109e2565b60405161037b9190614a72565b60405180910390f35b61038c610b35565b6040516103999190614786565b60405180910390f35b6103aa610b5b565b6040516103b791906147f3565b60405180910390f35b6103c8610be9565b6040516103d59190614786565b60405180910390f35b6103e6610c01565b6040516103f39190614786565b60405180910390f35b610404610c27565b6040516104119190614786565b60405180910390f35b610422610c4d565b60405161042f9190614786565b60405180910390f35b610452600480360381019061044d919061433a565b610c73565b005b61045c610db0565b6040516104699190614a72565b60405180910390f35b61048c6004803603810190610487919061433a565b610db5565b005b6104966111c1565b005b6104a06112a8565b005b6104aa611368565b005b6104b4611559565b6040516104c19190614a72565b60405180910390f35b6104d261155f565b005b6104dc61160f565b6040516104e99190614815565b60405180910390f35b6104fa611625565b6040516105079190614786565b60405180910390f35b61051861163d565b6040516105259190614a72565b60405180910390f35b6105366116ef565b6040516105439190614786565b60405180910390f35b610566600480360381019061056191906141d6565b611715565b005b6105706117d5565b005b61057a61185d565b6040516105879190614a72565b60405180910390f35b6105aa60048036038101906105a591906141d6565b611885565b005b6105b4611996565b6040516105c19190614a72565b60405180910390f35b6105d2611a3a565b6040516105df9190614a72565b60405180910390f35b6105f0611a3f565b005b6105fa611b1e565b6040516106079190614815565b60405180910390f35b610618611b31565b6040516106259190614a72565b60405180910390f35b610636611b37565b6040516106439190614786565b60405180910390f35b610654611b60565b6040516106619190614786565b60405180910390f35b610672611b86565b60405161067f9190614a72565b60405180910390f35b6106a2600480360381019061069d9190614228565b611b8c565b005b6106be60048036038101906106b991906141d6565b61228c565b005b6106da60048036038101906106d5919061433a565b61234c565b005b6106e4612467565b6040516106f19190614786565b60405180910390f35b61070261248d565b60405161070f9190614a72565b60405180910390f35b610732600480360381019061072d919061433a565b612493565b60405161073f9190614786565b60405180910390f35b6107506124d2565b60405161075d9190614a72565b60405180910390f35b610780600480360381019061077b91906141d6565b612584565b005b61078a612658565b60405161079791906147f3565b60405180910390f35b6107a86126e6565b005b6107b2612860565b6040516107bf9190614a72565b60405180910390f35b6107d0612866565b005b6107ec60048036038101906107e791906141d6565b61293d565b005b6108086004803603810190610803919061433a565b6129fd565b6040516108159190614786565b60405180910390f35b610826612a3c565b6040516108339190614a72565b60405180910390f35b610844612a41565b6040516108519190614a72565b60405180910390f35b610862612a47565b60405161086f9190614786565b60405180910390f35b610892600480360381019061088d91906141d6565b612a6d565b005b61089c612b65565b005b6108a6612df0565b6040516108b39190614786565b60405180910390f35b60095481565b6108ca611b37565b73ffffffffffffffffffffffffffffffffffffffff163373ffffffffffffffffffffffffffffffffffffffff1614806109505750600160009054906101000a900473ffffffffffffffffffffffffffffffffffffffff1673ffffffffffffffffffffffffffffffffffffffff163373ffffffffffffffffffffffffffffffffffffffff16145b61098f576040517f08c379a0000000000000000000000000000000000000000000000000000000008152600401610986906149f2565b60405180910390fd5b80601060006101000a81548160ff02191690831515021790555060011515601060009054906101000a900460ff16151514156109d4576109cf600061234c565b6109df565b6109de600a61234c565b5b50565b600080600d60009054906101000a900473ffffffffffffffffffffffffffffffffffffffff1673ffffffffffffffffffffffffffffffffffffffff166370a08231306040518263ffffffff1660e01b8152600401610a409190614786565b60206040518083038186803b158015610a5857600080fd5b505afa158015610a6c573d6000803e3d6000fd5b505050506040513d601f19601f82011682018060405250810190610a909190614363565b905073f28164a485b0b2c90639e47b0f377b4a438a16b173ffffffffffffffffffffffffffffffffffffffff1663ad19daf8826040518263ffffffff1660e01b8152600401610adf9190614a72565b60206040518083038186803b158015610af757600080fd5b505afa158015610b0b573d6000803e3d6000fd5b505050506040513d601f19601f82011682018060405250810190610b2f9190614363565b91505090565b600a60009054906101000a900473ffffffffffffffffffffffffffffffffffffffff1681565b6060600e805480602002602001604051908101604052809291908181526020018280548015610bdf57602002820191906000526020600020905b8160009054906101000a900473ffffffffffffffffffffffffffffffffffffffff1673ffffffffffffffffffffffffffffffffffffffff1681526020019060010190808311610b95575b5050505050905090565b73831753dd7087cac61ab5644b308642cc1c33dc1381565b600c60009054906101000a900473ffffffffffffffffffffffffffffffffffffffff1681565b600260009054906101000a900473ffffffffffffffffffffffffffffffffffffffff1681565b600360009054906101000a900473ffffffffffffffffffffffffffffffffffffffff1681565b610c7b611b37565b73ffffffffffffffffffffffffffffffffffffffff163373ffffffffffffffffffffffffffffffffffffffff161480610d015750600160009054906101000a900473ffffffffffffffffffffffffffffffffffffffff1673ffffffffffffffffffffffffffffffffffffffff163373ffffffffffffffffffffffffffffffffffffffff16145b610d40576040517f08c379a0000000000000000000000000000000000000000000000000000000008152600401610d37906149f2565b60405180910390fd5b606f811115610d84576040517f08c379a0000000000000000000000000000000000000000000000000000000008152600401610d7b90614972565b60405180910390fd5b8060078190555060075460706103e8610d9d9190614cdd565b610da79190614cdd565b60088190555050565b606f81565b600460009054906101000a900473ffffffffffffffffffffffffffffffffffffffff1673ffffffffffffffffffffffffffffffffffffffff163373ffffffffffffffffffffffffffffffffffffffff1614610e45576040517f08c379a0000000000000000000000000000000000000000000000000000000008152600401610e3c90614992565b60405180910390fd5b6000610e4f6124d2565b90506000610e5b611996565b9050600073f28164a485b0b2c90639e47b0f377b4a438a16b173ffffffffffffffffffffffffffffffffffffffff16637ea715e9856040518263ffffffff1660e01b8152600401610eac9190614a72565b60206040518083038186803b158015610ec457600080fd5b505afa158015610ed8573d6000803e3d6000fd5b505050506040513d601f19601f82011682018060405250810190610efc9190614363565b90508383101561104157600d60009054906101000a900473ffffffffffffffffffffffffffffffffffffffff1673ffffffffffffffffffffffffffffffffffffffff16632e1a7d4d610f578484612f8c90919063ffffffff16565b6040518263ffffffff1660e01b8152600401610f739190614a72565b600060405180830381600087803b158015610f8d57600080fd5b505af1158015610fa1573d6000803e3d6000fd5b5050505073f28164a485b0b2c90639e47b0f377b4a438a16b173ffffffffffffffffffffffffffffffffffffffff166367dfd4c9610fe88484612f8c90919063ffffffff16565b6040518263ffffffff1660e01b81526004016110049190614a72565b600060405180830381600087803b15801561101e57600080fd5b505af1158015611032573d6000803e3d6000fd5b5050505061103e6124d2565b92505b8383111561104d578392505b611055611b37565b73ffffffffffffffffffffffffffffffffffffffff163273ffffffffffffffffffffffffffffffffffffffff161480611092575061109161160f565b5b1561110b57611106600460009054906101000a900473ffffffffffffffffffffffffffffffffffffffff1684600c60009054906101000a900473ffffffffffffffffffffffffffffffffffffffff1673ffffffffffffffffffffffffffffffffffffffff16612fa29092919063ffffffff16565b6111bb565b60006111366127106111286006548761302890919063ffffffff16565b61303e90919063ffffffff16565b90506111b9600460009054906101000a900473ffffffffffffffffffffffffffffffffffffffff166111718387612f8c90919063ffffffff16565b600c60009054906101000a900473ffffffffffffffffffffffffffffffffffffffff1673ffffffffffffffffffffffffffffffffffffffff16612fa29092919063ffffffff16565b505b50505050565b6111c9611b37565b73ffffffffffffffffffffffffffffffffffffffff163373ffffffffffffffffffffffffffffffffffffffff16148061124f5750600160009054906101000a900473ffffffffffffffffffffffffffffffffffffffff1673ffffffffffffffffffffffffffffffffffffffff163373ffffffffffffffffffffffffffffffffffffffff16145b61128e576040517f08c379a0000000000000000000000000000000000000000000000000000000008152600401611285906149f2565b60405180910390fd5b611296613054565b61129e6130f5565b6112a66126e6565b565b6112b061160f565b156112f0576040517f08c379a00000000000000000000000000000000000000000000000000000000081526004016112e790614912565b60405180910390fd5b3273ffffffffffffffffffffffffffffffffffffffff163373ffffffffffffffffffffffffffffffffffffffff161461135e576040517f08c379a000000000000000000000000000000000000000000000000000000000815260040161135590614a32565b60405180910390fd5b61136661322e565b565b611370611b37565b73ffffffffffffffffffffffffffffffffffffffff163373ffffffffffffffffffffffffffffffffffffffff1614806113f65750600160009054906101000a900473ffffffffffffffffffffffffffffffffffffffff1673ffffffffffffffffffffffffffffffffffffffff163373ffffffffffffffffffffffffffffffffffffffff16145b611435576040517f08c379a000000000000000000000000000000000000000000000000000000000815260040161142c906149f2565b60405180910390fd5b61143d611a3f565b600d60009054906101000a900473ffffffffffffffffffffffffffffffffffffffff1673ffffffffffffffffffffffffffffffffffffffff16632e1a7d4d61148361163d565b6040518263ffffffff1660e01b815260040161149f9190614a72565b600060405180830381600087803b1580156114b957600080fd5b505af11580156114cd573d6000803e3d6000fd5b5050505073f28164a485b0b2c90639e47b0f377b4a438a16b173ffffffffffffffffffffffffffffffffffffffff166367dfd4c9611509611996565b6040518263ffffffff1660e01b81526004016115259190614a72565b600060405180830381600087803b15801561153f57600080fd5b505af1158015611553573d6000803e3d6000fd5b50505050565b61271081565b601060009054906101000a900460ff161561160d57600460009054906101000a900473ffffffffffffffffffffffffffffffffffffffff1673ffffffffffffffffffffffffffffffffffffffff163373ffffffffffffffffffffffffffffffffffffffff1614611604576040517f08c379a00000000000000000000000000000000000000000000000000000000081526004016115fb90614992565b60405180910390fd5b61160c61322e565b5b565b60008060149054906101000a900460ff16905090565b73f28164a485b0b2c90639e47b0f377b4a438a16b181565b6000600d60009054906101000a900473ffffffffffffffffffffffffffffffffffffffff1673ffffffffffffffffffffffffffffffffffffffff166370a08231306040518263ffffffff1660e01b815260040161169a9190614786565b60206040518083038186803b1580156116b257600080fd5b505afa1580156116c6573d6000803e3d6000fd5b505050506040513d601f19601f820116820180604052508101906116ea9190614363565b905090565b600d60009054906101000a900473ffffffffffffffffffffffffffffffffffffffff1681565b61171d613494565b73ffffffffffffffffffffffffffffffffffffffff1661173b611b37565b73ffffffffffffffffffffffffffffffffffffffff1614611791576040517f08c379a0000000000000000000000000000000000000000000000000000000008152600401611788906149b2565b60405180910390fd5b80600460006101000a81548173ffffffffffffffffffffffffffffffffffffffff021916908373ffffffffffffffffffffffffffffffffffffffff16021790555050565b6117dd613494565b73ffffffffffffffffffffffffffffffffffffffff166117fb611b37565b73ffffffffffffffffffffffffffffffffffffffff1614611851576040517f08c379a0000000000000000000000000000000000000000000000000000000008152600401611848906149b2565b60405180910390fd5b61185b600061349c565b565b600061188061186a6109e2565b6118726124d2565b61356090919063ffffffff16565b905090565b61188d611b37565b73ffffffffffffffffffffffffffffffffffffffff163373ffffffffffffffffffffffffffffffffffffffff1614806119135750600160009054906101000a900473ffffffffffffffffffffffffffffffffffffffff1673ffffffffffffffffffffffffffffffffffffffff163373ffffffffffffffffffffffffffffffffffffffff16145b611952576040517f08c379a0000000000000000000000000000000000000000000000000000000008152600401611949906149f2565b60405180910390fd5b80600160006101000a81548173ffffffffffffffffffffffffffffffffffffffff021916908373ffffffffffffffffffffffffffffffffffffffff16021790555050565b600073f28164a485b0b2c90639e47b0f377b4a438a16b173ffffffffffffffffffffffffffffffffffffffff166370a08231306040518263ffffffff1660e01b81526004016119e59190614786565b60206040518083038186803b1580156119fd57600080fd5b505afa158015611a11573d6000803e3d6000fd5b505050506040513d601f19601f82011682018060405250810190611a359190614363565b905090565b607081565b611a47611b37565b73ffffffffffffffffffffffffffffffffffffffff163373ffffffffffffffffffffffffffffffffffffffff161480611acd5750600160009054906101000a900473ffffffffffffffffffffffffffffffffffffffff1673ffffffffffffffffffffffffffffffffffffffff163373ffffffffffffffffffffffffffffffffffffffff16145b611b0c576040517f08c379a0000000000000000000000000000000000000000000000000000000008152600401611b03906149f2565b60405180910390fd5b611b14613576565b611b1c613619565b565b601060009054906101000a900460ff1681565b60065481565b60008060009054906101000a900473ffffffffffffffffffffffffffffffffffffffff16905090565b600560009054906101000a900473ffffffffffffffffffffffffffffffffffffffff1681565b60075481565b611b94613494565b73ffffffffffffffffffffffffffffffffffffffff16611bb2611b37565b73ffffffffffffffffffffffffffffffffffffffff1614611c08576040517f08c379a0000000000000000000000000000000000000000000000000000000008152600401611bff906149b2565b60405180910390fd5b8273ffffffffffffffffffffffffffffffffffffffff166372f702f36040518163ffffffff1660e01b815260040160206040518083038186803b158015611c4e57600080fd5b505afa158015611c62573d6000803e3d6000fd5b505050506040513d601f19601f82011682018060405250810190611c8691906141ff565b73ffffffffffffffffffffffffffffffffffffffff1673f28164a485b0b2c90639e47b0f377b4a438a16b173ffffffffffffffffffffffffffffffffffffffff1614611d07576040517f08c379a0000000000000000000000000000000000000000000000000000000008152600401611cfe90614932565b60405180910390fd5b8273ffffffffffffffffffffffffffffffffffffffff1663d1af0c7d6040518163ffffffff1660e01b815260040160206040518083038186803b158015611d4d57600080fd5b505afa158015611d61573d6000803e3d6000fd5b505050506040513d601f19601f82011682018060405250810190611d8591906141ff565b73ffffffffffffffffffffffffffffffffffffffff1682600081518110611dd5577f4e487b7100000000000000000000000000000000000000000000000000000000600052603260045260246000fd5b602002602001015173ffffffffffffffffffffffffffffffffffffffff16148015611ee957508273ffffffffffffffffffffffffffffffffffffffff1663d1af0c7d6040518163ffffffff1660e01b815260040160206040518083038186803b158015611e4157600080fd5b505afa158015611e55573d6000803e3d6000fd5b505050506040513d601f19601f82011682018060405250810190611e7991906141ff565b73ffffffffffffffffffffffffffffffffffffffff1681600081518110611ec9577f4e487b7100000000000000000000000000000000000000000000000000000000600052603260045260246000fd5b602002602001015173ffffffffffffffffffffffffffffffffffffffff16145b611f28576040517f08c379a0000000000000000000000000000000000000000000000000000000008152600401611f1f90614952565b60405180910390fd5b600c60009054906101000a900473ffffffffffffffffffffffffffffffffffffffff1673ffffffffffffffffffffffffffffffffffffffff168160018351611f709190614cdd565b81518110611fa7577f4e487b7100000000000000000000000000000000000000000000000000000000600052603260045260246000fd5b602002602001015173ffffffffffffffffffffffffffffffffffffffff1614612005576040517f08c379a0000000000000000000000000000000000000000000000000000000008152600401611ffc906148d2565b60405180910390fd5b600d60009054906101000a900473ffffffffffffffffffffffffffffffffffffffff1673ffffffffffffffffffffffffffffffffffffffff16632e1a7d4d61204b61163d565b6040518263ffffffff1660e01b81526004016120679190614a72565b600060405180830381600087803b15801561208157600080fd5b505af1158015612095573d6000803e3d6000fd5b505050506120a1613619565b82600d60006101000a81548173ffffffffffffffffffffffffffffffffffffffff021916908373ffffffffffffffffffffffffffffffffffffffff1602179055508160008151811061211c577f4e487b7100000000000000000000000000000000000000000000000000000000600052603260045260246000fd5b6020026020010151600b60006101000a81548173ffffffffffffffffffffffffffffffffffffffff021916908373ffffffffffffffffffffffffffffffffffffffff16021790555081600e908051906020019061217a929190613f85565b5080600f9080519060200190612191929190613f85565b5061219a6130f5565b600d60009054906101000a900473ffffffffffffffffffffffffffffffffffffffff1673ffffffffffffffffffffffffffffffffffffffff1663a694fc3a6121e0611996565b6040518263ffffffff1660e01b81526004016121fc9190614a72565b600060405180830381600087803b15801561221657600080fd5b505af115801561222a573d6000803e3d6000fd5b505050507f8e9a8dd0ff80d45ff34141134cb76275843f214cdde734710b9452129e3ebc7f600d60009054906101000a900473ffffffffffffffffffffffffffffffffffffffff1660405161227f9190614786565b60405180910390a1505050565b612294613494565b73ffffffffffffffffffffffffffffffffffffffff166122b2611b37565b73ffffffffffffffffffffffffffffffffffffffff1614612308576040517f08c379a00000000000000000000000000000000000000000000000000000000081526004016122ff906149b2565b60405180910390fd5b80600560006101000a81548173ffffffffffffffffffffffffffffffffffffffff021916908373ffffffffffffffffffffffffffffffffffffffff16021790555050565b612354611b37565b73ffffffffffffffffffffffffffffffffffffffff163373ffffffffffffffffffffffffffffffffffffffff1614806123da5750600160009054906101000a900473ffffffffffffffffffffffffffffffffffffffff1673ffffffffffffffffffffffffffffffffffffffff163373ffffffffffffffffffffffffffffffffffffffff16145b612419576040517f08c379a0000000000000000000000000000000000000000000000000000000008152600401612410906149f2565b60405180910390fd5b603281111561245d576040517f08c379a000000000000000000000000000000000000000000000000000000000815260040161245490614972565b60405180910390fd5b8060068190555050565b600160009054906101000a900473ffffffffffffffffffffffffffffffffffffffff1681565b6103e881565b600e81815481106124a357600080fd5b906000526020600020016000915054906101000a900473ffffffffffffffffffffffffffffffffffffffff1681565b6000600c60009054906101000a900473ffffffffffffffffffffffffffffffffffffffff1673ffffffffffffffffffffffffffffffffffffffff166370a08231306040518263ffffffff1660e01b815260040161252f9190614786565b60206040518083038186803b15801561254757600080fd5b505afa15801561255b573d6000803e3d6000fd5b505050506040513d601f19601f8201168201806040525081019061257f9190614363565b905090565b600260009054906101000a900473ffffffffffffffffffffffffffffffffffffffff1673ffffffffffffffffffffffffffffffffffffffff163373ffffffffffffffffffffffffffffffffffffffff1614612614576040517f08c379a000000000000000000000000000000000000000000000000000000000815260040161260b90614872565b60405180910390fd5b80600260006101000a81548173ffffffffffffffffffffffffffffffffffffffff021916908373ffffffffffffffffffffffffffffffffffffffff16021790555050565b6060600f8054806020026020016040519081016040528092919081815260200182805480156126dc57602002820191906000526020600020905b8160009054906101000a900473ffffffffffffffffffffffffffffffffffffffff1673ffffffffffffffffffffffffffffffffffffffff1681526020019060010190808311612692575b5050505050905090565b6126ee61160f565b1561272e576040517f08c379a000000000000000000000000000000000000000000000000000000000815260040161272590614912565b60405180910390fd5b60006127386124d2565b9050600081111561285d5773f28164a485b0b2c90639e47b0f377b4a438a16b173ffffffffffffffffffffffffffffffffffffffff1663a59f3e0c826040518263ffffffff1660e01b81526004016127909190614a72565b600060405180830381600087803b1580156127aa57600080fd5b505af11580156127be573d6000803e3d6000fd5b5050505060006127cc611996565b9050600d60009054906101000a900473ffffffffffffffffffffffffffffffffffffffff1673ffffffffffffffffffffffffffffffffffffffff1663a694fc3a826040518263ffffffff1660e01b81526004016128299190614a72565b600060405180830381600087803b15801561284357600080fd5b505af1158015612857573d6000803e3d6000fd5b50505050505b50565b60085481565b61286e611b37565b73ffffffffffffffffffffffffffffffffffffffff163373ffffffffffffffffffffffffffffffffffffffff1614806128f45750600160009054906101000a900473ffffffffffffffffffffffffffffffffffffffff1673ffffffffffffffffffffffffffffffffffffffff163373ffffffffffffffffffffffffffffffffffffffff16145b612933576040517f08c379a000000000000000000000000000000000000000000000000000000000815260040161292a906149f2565b60405180910390fd5b61293b61322e565b565b612945613494565b73ffffffffffffffffffffffffffffffffffffffff16612963611b37565b73ffffffffffffffffffffffffffffffffffffffff16146129b9576040517f08c379a00000000000000000000000000000000000000000000000000000000081526004016129b0906149b2565b60405180910390fd5b80600360006101000a81548173ffffffffffffffffffffffffffffffffffffffff021916908373ffffffffffffffffffffffffffffffffffffffff16021790555050565b600f8181548110612a0d57600080fd5b906000526020600020016000915054906101000a900473ffffffffffffffffffffffffffffffffffffffff1681565b603281565b60115481565b600b60009054906101000a900473ffffffffffffffffffffffffffffffffffffffff1681565b612a75613494565b73ffffffffffffffffffffffffffffffffffffffff16612a93611b37565b73ffffffffffffffffffffffffffffffffffffffff1614612ae9576040517f08c379a0000000000000000000000000000000000000000000000000000000008152600401612ae0906149b2565b60405180910390fd5b600073ffffffffffffffffffffffffffffffffffffffff168173ffffffffffffffffffffffffffffffffffffffff161415612b59576040517f08c379a0000000000000000000000000000000000000000000000000000000008152600401612b5090614892565b60405180910390fd5b612b628161349c565b50565b600460009054906101000a900473ffffffffffffffffffffffffffffffffffffffff1673ffffffffffffffffffffffffffffffffffffffff163373ffffffffffffffffffffffffffffffffffffffff1614612bf5576040517f08c379a0000000000000000000000000000000000000000000000000000000008152600401612bec90614992565b60405180910390fd5b600d60009054906101000a900473ffffffffffffffffffffffffffffffffffffffff1673ffffffffffffffffffffffffffffffffffffffff16632e1a7d4d612c3b61163d565b6040518263ffffffff1660e01b8152600401612c579190614a72565b600060405180830381600087803b158015612c7157600080fd5b505af1158015612c85573d6000803e3d6000fd5b5050505073f28164a485b0b2c90639e47b0f377b4a438a16b173ffffffffffffffffffffffffffffffffffffffff166367dfd4c9612cc1611996565b6040518263ffffffff1660e01b8152600401612cdd9190614a72565b600060405180830381600087803b158015612cf757600080fd5b505af1158015612d0b573d6000803e3d6000fd5b505050506000612d196124d2565b9050600c60009054906101000a900473ffffffffffffffffffffffffffffffffffffffff1673ffffffffffffffffffffffffffffffffffffffff1663a9059cbb600460009054906101000a900473ffffffffffffffffffffffffffffffffffffffff16836040518363ffffffff1660e01b8152600401612d9a9291906147ca565b602060405180830381600087803b158015612db457600080fd5b505af1158015612dc8573d6000803e3d6000fd5b505050506040513d601f19601f82011682018060405250810190612dec9190614311565b5050565b600460009054906101000a900473ffffffffffffffffffffffffffffffffffffffff1681565b6000811480612eaf575060008373ffffffffffffffffffffffffffffffffffffffff1663dd62ed3e30856040518363ffffffff1660e01b8152600401612e5d9291906147a1565b60206040518083038186803b158015612e7557600080fd5b505afa158015612e89573d6000803e3d6000fd5b505050506040513d601f19601f82011682018060405250810190612ead9190614363565b145b612eee576040517f08c379a0000000000000000000000000000000000000000000000000000000008152600401612ee590614a52565b60405180910390fd5b612f6f8363095ea7b360e01b8484604051602401612f0d9291906147ca565b604051602081830303815290604052907bffffffffffffffffffffffffffffffffffffffffffffffffffffffff19166020820180517bffffffffffffffffffffffffffffffffffffffffffffffffffffffff838183161783525050505061374f565b505050565b6060612f838484600085613816565b90509392505050565b60008183612f9a9190614cdd565b905092915050565b6130238363a9059cbb60e01b8484604051602401612fc19291906147ca565b604051602081830303815290604052907bffffffffffffffffffffffffffffffffffffffffffffffffffffffff19166020820180517bffffffffffffffffffffffffffffffffffffffffffffffffffffffff838183161783525050505061374f565b505050565b600081836130369190614c83565b905092915050565b6000818361304c9190614c52565b905092915050565b61305c61160f565b61309b576040517f08c379a000000000000000000000000000000000000000000000000000000000815260040161309290614852565b60405180910390fd5b60008060146101000a81548160ff0219169083151502179055507f5db9ee0a495bf2e6ff9c91a7834c1ba4fdd244a5e8aa4e537bd38aeae4b073aa6130de613494565b6040516130eb9190614786565b60405180910390a1565b61315873f28164a485b0b2c90639e47b0f377b4a438a16b1600954600c60009054906101000a900473ffffffffffffffffffffffffffffffffffffffff1673ffffffffffffffffffffffffffffffffffffffff16612e169092919063ffffffff16565b6131bb600d60009054906101000a900473ffffffffffffffffffffffffffffffffffffffff1660095473f28164a485b0b2c90639e47b0f377b4a438a16b173ffffffffffffffffffffffffffffffffffffffff16612e169092919063ffffffff16565b61322c600360009054906101000a900473ffffffffffffffffffffffffffffffffffffffff16600954600b60009054906101000a900473ffffffffffffffffffffffffffffffffffffffff1673ffffffffffffffffffffffffffffffffffffffff16612e169092919063ffffffff16565b565b3373ffffffffffffffffffffffffffffffffffffffff163273ffffffffffffffffffffffffffffffffffffffff1614806132b55750600460009054906101000a900473ffffffffffffffffffffffffffffffffffffffff1673ffffffffffffffffffffffffffffffffffffffff163373ffffffffffffffffffffffffffffffffffffffff16145b6132f4576040517f08c379a00000000000000000000000000000000000000000000000000000000081526004016132eb906148b2565b60405180910390fd5b600d60009054906101000a900473ffffffffffffffffffffffffffffffffffffffff1673ffffffffffffffffffffffffffffffffffffffff16633d18b9126040518163ffffffff1660e01b8152600401600060405180830381600087803b15801561335e57600080fd5b505af1158015613372573d6000803e3d6000fd5b505050506000600b60009054906101000a900473ffffffffffffffffffffffffffffffffffffffff1673ffffffffffffffffffffffffffffffffffffffff166370a08231306040518263ffffffff1660e01b81526004016133d39190614786565b60206040518083038186803b1580156133eb57600080fd5b505afa1580156133ff573d6000803e3d6000fd5b505050506040513d601f19601f820116820180604052508101906134239190614363565b905060008111156134915761343661392a565b61343e613d24565b6134466126e6565b426011819055503373ffffffffffffffffffffffffffffffffffffffff167f577a37fdb49a88d66684922c6f913df5239b4f214b2b97c53ef8e3bbb2034cb560405160405180910390a25b50565b600033905090565b60008060009054906101000a900473ffffffffffffffffffffffffffffffffffffffff169050816000806101000a81548173ffffffffffffffffffffffffffffffffffffffff021916908373ffffffffffffffffffffffffffffffffffffffff1602179055508173ffffffffffffffffffffffffffffffffffffffff168173ffffffffffffffffffffffffffffffffffffffff167f8be0079c531659141344cd1fd0a4f28419497f9722a3daafe3b4186f6b6457e060405160405180910390a35050565b6000818361356e9190614bfc565b905092915050565b61357e61160f565b156135be576040517f08c379a00000000000000000000000000000000000000000000000000000000081526004016135b590614912565b60405180910390fd5b6001600060146101000a81548160ff0219169083151502179055507f62e78cea01bee320cd4e420270b5ea74000d11b0c9f74754ebdbfc544b05a258613602613494565b60405161360f9190614786565b60405180910390a1565b61367b73f28164a485b0b2c90639e47b0f377b4a438a16b16000600c60009054906101000a900473ffffffffffffffffffffffffffffffffffffffff1673ffffffffffffffffffffffffffffffffffffffff16612e169092919063ffffffff16565b6136dd600d60009054906101000a900473ffffffffffffffffffffffffffffffffffffffff16600073f28164a485b0b2c90639e47b0f377b4a438a16b173ffffffffffffffffffffffffffffffffffffffff16612e169092919063ffffffff16565b61374d600360009054906101000a900473ffffffffffffffffffffffffffffffffffffffff166000600b60009054906101000a900473ffffffffffffffffffffffffffffffffffffffff1673ffffffffffffffffffffffffffffffffffffffff16612e169092919063ffffffff16565b565b60006137b1826040518060400160405280602081526020017f5361666545524332303a206c6f772d6c6576656c2063616c6c206661696c65648152508573ffffffffffffffffffffffffffffffffffffffff16612f749092919063ffffffff16565b905060008151111561381157808060200190518101906137d19190614311565b613810576040517f08c379a000000000000000000000000000000000000000000000000000000000815260040161380790614a12565b60405180910390fd5b5b505050565b60608247101561385b576040517f08c379a0000000000000000000000000000000000000000000000000000000008152600401613852906148f2565b60405180910390fd5b61386485613f0b565b6138a3576040517f08c379a000000000000000000000000000000000000000000000000000000000815260040161389a906149d2565b60405180910390fd5b6000808673ffffffffffffffffffffffffffffffffffffffff1685876040516138cc919061476f565b60006040518083038185875af1925050503d8060008114613909576040519150601f19603f3d011682016040523d82523d6000602084013e61390e565b606091505b509150915061391e828286613f1e565b92505050949350505050565b60006139fe6103e86139f0602d600b60009054906101000a900473ffffffffffffffffffffffffffffffffffffffff1673ffffffffffffffffffffffffffffffffffffffff166370a08231306040518263ffffffff1660e01b81526004016139929190614786565b60206040518083038186803b1580156139aa57600080fd5b505afa1580156139be573d6000803e3d6000fd5b505050506040513d601f19601f820116820180604052508101906139e29190614363565b61302890919063ffffffff16565b61303e90919063ffffffff16565b9050600360009054906101000a900473ffffffffffffffffffffffffffffffffffffffff1673ffffffffffffffffffffffffffffffffffffffff166338ed1739826000600e30426040518663ffffffff1660e01b8152600401613a65959493929190614a8d565b600060405180830381600087803b158015613a7f57600080fd5b505af1158015613a93573d6000803e3d6000fd5b505050506040513d6000823e3d601f19601f82011682018060405250810190613abc91906142a7565b506000600a60009054906101000a900473ffffffffffffffffffffffffffffffffffffffff1673ffffffffffffffffffffffffffffffffffffffff166370a08231306040518263ffffffff1660e01b8152600401613b1a9190614786565b60206040518083038186803b158015613b3257600080fd5b505afa158015613b46573d6000803e3d6000fd5b505050506040513d601f19601f82011682018060405250810190613b6a9190614363565b90506000613b976103e8613b896007548561302890919063ffffffff16565b61303e90919063ffffffff16565b9050613be63282600a60009054906101000a900473ffffffffffffffffffffffffffffffffffffffff1673ffffffffffffffffffffffffffffffffffffffff16612fa29092919063ffffffff16565b6000613c116103e8613c036008548661302890919063ffffffff16565b61303e90919063ffffffff16565b9050613c82600560009054906101000a900473ffffffffffffffffffffffffffffffffffffffff1682600a60009054906101000a900473ffffffffffffffffffffffffffffffffffffffff1673ffffffffffffffffffffffffffffffffffffffff16612fa29092919063ffffffff16565b6000613cac6103e8613c9e60708761302890919063ffffffff16565b61303e90919063ffffffff16565b9050613d1d600260009054906101000a900473ffffffffffffffffffffffffffffffffffffffff1682600a60009054906101000a900473ffffffffffffffffffffffffffffffffffffffff1673ffffffffffffffffffffffffffffffffffffffff16612fa29092919063ffffffff16565b5050505050565b600b60009054906101000a900473ffffffffffffffffffffffffffffffffffffffff1673ffffffffffffffffffffffffffffffffffffffff16600c60009054906101000a900473ffffffffffffffffffffffffffffffffffffffff1673ffffffffffffffffffffffffffffffffffffffff1614613f09576000600b60009054906101000a900473ffffffffffffffffffffffffffffffffffffffff1673ffffffffffffffffffffffffffffffffffffffff166370a08231306040518263ffffffff1660e01b8152600401613df89190614786565b60206040518083038186803b158015613e1057600080fd5b505afa158015613e24573d6000803e3d6000fd5b505050506040513d601f19601f82011682018060405250810190613e489190614363565b9050600360009054906101000a900473ffffffffffffffffffffffffffffffffffffffff1673ffffffffffffffffffffffffffffffffffffffff166338ed1739826000600f30426040518663ffffffff1660e01b8152600401613eaf959493929190614a8d565b600060405180830381600087803b158015613ec957600080fd5b505af1158015613edd573d6000803e3d6000fd5b505050506040513d6000823e3d601f19601f82011682018060405250810190613f0691906142a7565b50505b565b600080823b905060008111915050919050565b60608315613f2e57829050613f7e565b600083511115613f415782518084602001fd5b816040517f08c379a0000000000000000000000000000000000000000000000000000000008152600401613f759190614830565b60405180910390fd5b9392505050565b828054828255906000526020600020908101928215613ffe579160200282015b82811115613ffd5782518260006101000a81548173ffffffffffffffffffffffffffffffffffffffff021916908373ffffffffffffffffffffffffffffffffffffffff16021790555091602001919060010190613fa5565b5b50905061400b919061400f565b5090565b5b80821115614028576000816000905550600101614010565b5090565b600061403f61403a84614b0c565b614ae7565b9050808382526020820190508285602086028201111561405e57600080fd5b60005b8581101561408e57816140748882614104565b845260208401935060208301925050600181019050614061565b5050509392505050565b60006140ab6140a684614b38565b614ae7565b905080838252602082019050828560208602820111156140ca57600080fd5b60005b858110156140fa57816140e088826141c1565b8452602084019350602083019250506001810190506140cd565b5050509392505050565b6000813590506141138161528a565b92915050565b6000815190506141288161528a565b92915050565b600082601f83011261413f57600080fd5b813561414f84826020860161402c565b91505092915050565b600082601f83011261416957600080fd5b8151614179848260208601614098565b91505092915050565b600081359050614191816152a1565b92915050565b6000815190506141a6816152a1565b92915050565b6000813590506141bb816152b8565b92915050565b6000815190506141d0816152b8565b92915050565b6000602082840312156141e857600080fd5b60006141f684828501614104565b91505092915050565b60006020828403121561421157600080fd5b600061421f84828501614119565b91505092915050565b60008060006060848603121561423d57600080fd5b600061424b86828701614104565b935050602084013567ffffffffffffffff81111561426857600080fd5b6142748682870161412e565b925050604084013567ffffffffffffffff81111561429157600080fd5b61429d8682870161412e565b9150509250925092565b6000602082840312156142b957600080fd5b600082015167ffffffffffffffff8111156142d357600080fd5b6142df84828501614158565b91505092915050565b6000602082840312156142fa57600080fd5b600061430884828501614182565b91505092915050565b60006020828403121561432357600080fd5b600061433184828501614197565b91505092915050565b60006020828403121561434c57600080fd5b600061435a848285016141ac565b91505092915050565b60006020828403121561437557600080fd5b6000614383848285016141c1565b91505092915050565b600061439883836143a4565b60208301905092915050565b6143ad81614d31565b82525050565b6143bc81614d31565b82525050565b60006143cd82614b89565b6143d78185614bcf565b93506143e283614b64565b8060005b838110156144135781516143fa888261438c565b975061440583614bb5565b9250506001810190506143e6565b5085935050505092915050565b600061442b82614b94565b6144358185614bcf565b935061444083614b74565b8060005b838110156144785761445582614e96565b61445f888261438c565b975061446a83614bc2565b925050600181019050614444565b5085935050505092915050565b61448e81614d43565b82525050565b600061449f82614b9f565b6144a98185614be0565b93506144b9818560208601614d8b565b80840191505092915050565b6144ce81614d79565b82525050565b60006144df82614baa565b6144e98185614beb565b93506144f9818560208601614d8b565b61450281614ea9565b840191505092915050565b600061451a601483614beb565b915061452582614ec7565b602082019050919050565b600061453d600b83614beb565b915061454882614ef0565b602082019050919050565b6000614560602683614beb565b915061456b82614f19565b604082019050919050565b6000614583600983614beb565b915061458e82614f68565b602082019050919050565b60006145a6602383614beb565b91506145b182614f91565b604082019050919050565b60006145c9602683614beb565b91506145d482614fe0565b604082019050919050565b60006145ec601083614beb565b91506145f78261502f565b602082019050919050565b600061460f602183614beb565b915061461a82615058565b604082019050919050565b6000614632602583614beb565b915061463d826150a7565b604082019050919050565b6000614655600483614beb565b9150614660826150f6565b602082019050919050565b6000614678600683614beb565b91506146838261511f565b602082019050919050565b600061469b602083614beb565b91506146a682615148565b602082019050919050565b60006146be601d83614beb565b91506146c982615171565b602082019050919050565b60006146e1600883614beb565b91506146ec8261519a565b602082019050919050565b6000614704602a83614beb565b915061470f826151c3565b604082019050919050565b6000614727600483614beb565b915061473282615212565b602082019050919050565b600061474a603683614beb565b91506147558261523b565b604082019050919050565b61476981614d6f565b82525050565b600061477b8284614494565b915081905092915050565b600060208201905061479b60008301846143b3565b92915050565b60006040820190506147b660008301856143b3565b6147c360208301846143b3565b9392505050565b60006040820190506147df60008301856143b3565b6147ec6020830184614760565b9392505050565b6000602082019050818103600083015261480d81846143c2565b905092915050565b600060208201905061482a6000830184614485565b92915050565b6000602082019050818103600083015261484a81846144d4565b905092915050565b6000602082019050818103600083015261486b8161450d565b9050919050565b6000602082019050818103600083015261488b81614530565b9050919050565b600060208201905081810360008301526148ab81614553565b9050919050565b600060208201905081810360008301526148cb81614576565b9050919050565b600060208201905081810360008301526148eb81614599565b9050919050565b6000602082019050818103600083015261490b816145bc565b9050919050565b6000602082019050818103600083015261492b816145df565b9050919050565b6000602082019050818103600083015261494b81614602565b9050919050565b6000602082019050818103600083015261496b81614625565b9050919050565b6000602082019050818103600083015261498b81614648565b9050919050565b600060208201905081810360008301526149ab8161466b565b9050919050565b600060208201905081810360008301526149cb8161468e565b9050919050565b600060208201905081810360008301526149eb816146b1565b9050919050565b60006020820190508181036000830152614a0b816146d4565b9050919050565b60006020820190508181036000830152614a2b816146f7565b9050919050565b60006020820190508181036000830152614a4b8161471a565b9050919050565b60006020820190508181036000830152614a6b8161473d565b9050919050565b6000602082019050614a876000830184614760565b92915050565b600060a082019050614aa26000830188614760565b614aaf60208301876144c5565b8181036040830152614ac18186614420565b9050614ad060608301856143b3565b614add6080830184614760565b9695505050505050565b6000614af1614b02565b9050614afd8282614dd8565b919050565b6000604051905090565b600067ffffffffffffffff821115614b2757614b26614e67565b5b602082029050602081019050919050565b600067ffffffffffffffff821115614b5357614b52614e67565b5b602082029050602081019050919050565b6000819050602082019050919050565b60008190508160005260206000209050919050565b600081519050919050565b600081549050919050565b600081519050919050565b600081519050919050565b6000602082019050919050565b6000600182019050919050565b600082825260208201905092915050565b600081905092915050565b600082825260208201905092915050565b6000614c0782614d6f565b9150614c1283614d6f565b9250827fffffffffffffffffffffffffffffffffffffffffffffffffffffffffffffffff03821115614c4757614c46614e09565b5b828201905092915050565b6000614c5d82614d6f565b9150614c6883614d6f565b925082614c7857614c77614e38565b5b828204905092915050565b6000614c8e82614d6f565b9150614c9983614d6f565b9250817fffffffffffffffffffffffffffffffffffffffffffffffffffffffffffffffff0483118215151615614cd257614cd1614e09565b5b828202905092915050565b6000614ce882614d6f565b9150614cf383614d6f565b925082821015614d0657614d05614e09565b5b828203905092915050565b600073ffffffffffffffffffffffffffffffffffffffff82169050919050565b6000614d3c82614d4f565b9050919050565b60008115159050919050565b600073ffffffffffffffffffffffffffffffffffffffff82169050919050565b6000819050919050565b6000614d8482614d6f565b9050919050565b60005b83811015614da9578082015181840152602081019050614d8e565b83811115614db8576000848401525b50505050565b6000614dd1614dcc83614eba565b614d11565b9050919050565b614de182614ea9565b810181811067ffffffffffffffff82111715614e0057614dff614e67565b5b80604052505050565b7f4e487b7100000000000000000000000000000000000000000000000000000000600052601160045260246000fd5b7f4e487b7100000000000000000000000000000000000000000000000000000000600052601260045260246000fd5b7f4e487b7100000000000000000000000000000000000000000000000000000000600052604160045260246000fd5b6000614ea28254614dbe565b9050919050565b6000601f19601f8301169050919050565b60008160001c9050919050565b7f5061757361626c653a206e6f7420706175736564000000000000000000000000600082015250565b7f2173747261746567697374000000000000000000000000000000000000000000600082015250565b7f4f776e61626c653a206e6577206f776e657220697320746865207a65726f206160008201527f6464726573730000000000000000000000000000000000000000000000000000602082015250565b7f21636f6e74726163740000000000000000000000000000000000000000000000600082015250565b7f50726f706f7365642077616e7420696e20726f757465206973206e6f7420766160008201527f6c69640000000000000000000000000000000000000000000000000000000000602082015250565b7f416464726573733a20696e73756666696369656e742062616c616e636520666f60008201527f722063616c6c0000000000000000000000000000000000000000000000000000602082015250565b7f5061757361626c653a2070617573656400000000000000000000000000000000600082015250565b7f50726f706f73616c206e6f742076616c696420666f722074686973205661756c60008201527f7400000000000000000000000000000000000000000000000000000000000000602082015250565b7f50726f706f736564206f757470757420696e20726f757465206973206e6f742060008201527f76616c6964000000000000000000000000000000000000000000000000000000602082015250565b7f2163617000000000000000000000000000000000000000000000000000000000600082015250565b7f217661756c740000000000000000000000000000000000000000000000000000600082015250565b7f4f776e61626c653a2063616c6c6572206973206e6f7420746865206f776e6572600082015250565b7f416464726573733a2063616c6c20746f206e6f6e2d636f6e7472616374000000600082015250565b7f216d616e61676572000000000000000000000000000000000000000000000000600082015250565b7f5361666545524332303a204552433230206f7065726174696f6e20646964206e60008201527f6f74207375636365656400000000000000000000000000000000000000000000602082015250565b7f21454f4100000000000000000000000000000000000000000000000000000000600082015250565b7f5361666545524332303a20617070726f76652066726f6d206e6f6e2d7a65726f60008201527f20746f206e6f6e2d7a65726f20616c6c6f77616e636500000000000000000000602082015250565b61529381614d31565b811461529e57600080fd5b50565b6152aa81614d43565b81146152b557600080fd5b50565b6152c181614d6f565b81146152cc57600080fd5b5056fea2646970667358221220c1bfd0cd6ecc944c91551418488fdf380fee829a5cc1f612bd7a8401a5f8542164736f6c63430008040033",
  "linkReferences": {},
  "deployedLinkReferences": {}
}