{
  "_format": "hh-sol-artifact-1",
  "contractName": "StrategyQuickDragonsLair",
  "sourceName": "contracts/quick/StrategyQuickDragonsLair.sol",
  "abi": [
    {
      "inputs": [
        {
          "internalType": "address",
          "name": "_rewardPool",
          "type": "address"
        },
        {
          "internalType": "address",
          "name": "_vault",
          "type": "address"
        },
        {
          "internalType": "address",
          "name": "_unirouter",
          "type": "address"
        },
        {
          "internalType": "address",
          "name": "_keeper",
          "type": "address"
        },
        {
          "internalType": "address",
          "name": "_strategist",
          "type": "address"
        },
        {
          "internalType": "address",
          "name": "_beefyFeeRecipient",
          "type": "address"
        },
        {
          "internalType": "address[]",
          "name": "_outputToNativeRoute",
          "type": "address[]"
        },
        {
          "internalType": "address[]",
          "name": "_outputToWantRoute",
          "type": "address[]"
        }
      ],
      "stateMutability": "nonpayable",
      "type": "constructor"
    },
    {
      "anonymous": false,
      "inputs": [
        {
          "indexed": true,
          "internalType": "address",
          "name": "previousOwner",
          "type": "address"
        },
        {
          "indexed": true,
          "internalType": "address",
          "name": "newOwner",
          "type": "address"
        }
      ],
      "name": "OwnershipTransferred",
      "type": "event"
    },
    {
      "anonymous": false,
      "inputs": [
        {
          "indexed": false,
          "internalType": "address",
          "name": "account",
          "type": "address"
        }
      ],
      "name": "Paused",
      "type": "event"
    },
    {
      "anonymous": false,
      "inputs": [
        {
          "indexed": true,
          "internalType": "address",
          "name": "harvester",
          "type": "address"
        }
      ],
      "name": "StratHarvest",
      "type": "event"
    },
    {
      "anonymous": false,
      "inputs": [
        {
          "indexed": false,
          "internalType": "address",
          "name": "rewardPool",
          "type": "address"
        }
      ],
      "name": "SwapRewardPool",
      "type": "event"
    },
    {
      "anonymous": false,
      "inputs": [
        {
          "indexed": false,
          "internalType": "address",
          "name": "account",
          "type": "address"
        }
      ],
      "name": "Unpaused",
      "type": "event"
    },
    {
      "inputs": [],
      "name": "MAX_CALL_FEE",
      "outputs": [
        {
          "internalType": "uint256",
          "name": "",
          "type": "uint256"
        }
      ],
      "stateMutability": "view",
      "type": "function"
    },
    {
      "inputs": [],
      "name": "MAX_FEE",
      "outputs": [
        {
          "internalType": "uint256",
          "name": "",
          "type": "uint256"
        }
      ],
      "stateMutability": "view",
      "type": "function"
    },
    {
      "inputs": [],
      "name": "MAX_INT",
      "outputs": [
        {
          "internalType": "uint256",
          "name": "",
          "type": "uint256"
        }
      ],
      "stateMutability": "view",
      "type": "function"
    },
    {
      "inputs": [],
      "name": "QUICK",
      "outputs": [
        {
          "internalType": "address",
          "name": "",
          "type": "address"
        }
      ],
      "stateMutability": "view",
      "type": "function"
    },
    {
      "inputs": [],
      "name": "STRATEGIST_FEE",
      "outputs": [
        {
          "internalType": "uint256",
          "name": "",
          "type": "uint256"
        }
      ],
      "stateMutability": "view",
      "type": "function"
    },
    {
      "inputs": [],
      "name": "WITHDRAWAL_FEE_CAP",
      "outputs": [
        {
          "internalType": "uint256",
          "name": "",
          "type": "uint256"
        }
      ],
      "stateMutability": "view",
      "type": "function"
    },
    {
      "inputs": [],
      "name": "WITHDRAWAL_MAX",
      "outputs": [
        {
          "internalType": "uint256",
          "name": "",
          "type": "uint256"
        }
      ],
      "stateMutability": "view",
      "type": "function"
    },
    {
      "inputs": [],
      "name": "balanceOf",
      "outputs": [
        {
          "internalType": "uint256",
          "name": "",
          "type": "uint256"
        }
      ],
      "stateMutability": "view",
      "type": "function"
    },
    {
      "inputs": [],
      "name": "balanceOfPool",
      "outputs": [
        {
          "internalType": "uint256",
          "name": "",
          "type": "uint256"
        }
      ],
      "stateMutability": "view",
      "type": "function"
    },
    {
      "inputs": [],
      "name": "balanceOfPoolD",
      "outputs": [
        {
          "internalType": "uint256",
          "name": "",
          "type": "uint256"
        }
      ],
      "stateMutability": "view",
      "type": "function"
    },
    {
      "inputs": [],
      "name": "balanceOfWant",
      "outputs": [
        {
          "internalType": "uint256",
          "name": "",
          "type": "uint256"
        }
      ],
      "stateMutability": "view",
      "type": "function"
    },
    {
      "inputs": [],
      "name": "balanceOfWantD",
      "outputs": [
        {
          "internalType": "uint256",
          "name": "",
          "type": "uint256"
        }
      ],
      "stateMutability": "view",
      "type": "function"
    },
    {
      "inputs": [],
      "name": "beefyFee",
      "outputs": [
        {
          "internalType": "uint256",
          "name": "",
          "type": "uint256"
        }
      ],
      "stateMutability": "view",
      "type": "function"
    },
    {
      "inputs": [],
      "name": "beefyFeeRecipient",
      "outputs": [
        {
          "internalType": "address",
          "name": "",
          "type": "address"
        }
      ],
      "stateMutability": "view",
      "type": "function"
    },
    {
      "inputs": [],
      "name": "beforeDeposit",
      "outputs": [],
      "stateMutability": "nonpayable",
      "type": "function"
    },
    {
      "inputs": [],
      "name": "callFee",
      "outputs": [
        {
          "internalType": "uint256",
          "name": "",
          "type": "uint256"
        }
      ],
      "stateMutability": "view",
      "type": "function"
    },
    {
      "inputs": [],
      "name": "deposit",
      "outputs": [],
      "stateMutability": "nonpayable",
      "type": "function"
    },
    {
      "inputs": [],
      "name": "dragonsLair",
      "outputs": [
        {
          "internalType": "address",
          "name": "",
          "type": "address"
        }
      ],
      "stateMutability": "view",
      "type": "function"
    },
    {
      "inputs": [],
      "name": "harvest",
      "outputs": [],
      "stateMutability": "nonpayable",
      "type": "function"
    },
    {
      "inputs": [],
      "name": "harvestOnDeposit",
      "outputs": [
        {
          "internalType": "bool",
          "name": "",
          "type": "bool"
        }
      ],
      "stateMutability": "view",
      "type": "function"
    },
    {
      "inputs": [],
      "name": "keeper",
      "outputs": [
        {
          "internalType": "address",
          "name": "",
          "type": "address"
        }
      ],
      "stateMutability": "view",
      "type": "function"
    },
    {
      "inputs": [],
      "name": "lastHarvest",
      "outputs": [
        {
          "internalType": "uint256",
          "name": "",
          "type": "uint256"
        }
      ],
      "stateMutability": "view",
      "type": "function"
    },
    {
      "inputs": [],
      "name": "managerHarvest",
      "outputs": [],
      "stateMutability": "nonpayable",
      "type": "function"
    },
    {
      "inputs": [],
      "name": "native",
      "outputs": [
        {
          "internalType": "address",
          "name": "",
          "type": "address"
        }
      ],
      "stateMutability": "view",
      "type": "function"
    },
    {
      "inputs": [],
      "name": "output",
      "outputs": [
        {
          "internalType": "address",
          "name": "",
          "type": "address"
        }
      ],
      "stateMutability": "view",
      "type": "function"
    },
    {
      "inputs": [],
      "name": "outputToNative",
      "outputs": [
        {
          "internalType": "address[]",
          "name": "",
          "type": "address[]"
        }
      ],
      "stateMutability": "view",
      "type": "function"
    },
    {
      "inputs": [
        {
          "internalType": "uint256",
          "name": "",
          "type": "uint256"
        }
      ],
      "name": "outputToNativeRoute",
      "outputs": [
        {
          "internalType": "address",
          "name": "",
          "type": "address"
        }
      ],
      "stateMutability": "view",
      "type": "function"
    },
    {
      "inputs": [],
      "name": "outputToWant",
      "outputs": [
        {
          "internalType": "address[]",
          "name": "",
          "type": "address[]"
        }
      ],
      "stateMutability": "view",
      "type": "function"
    },
    {
      "inputs": [
        {
          "internalType": "uint256",
          "name": "",
          "type": "uint256"
        }
      ],
      "name": "outputToWantRoute",
      "outputs": [
        {
          "internalType": "address",
          "name": "",
          "type": "address"
        }
      ],
      "stateMutability": "view",
      "type": "function"
    },
    {
      "inputs": [],
      "name": "owner",
      "outputs": [
        {
          "internalType": "address",
          "name": "",
          "type": "address"
        }
      ],
      "stateMutability": "view",
      "type": "function"
    },
    {
      "inputs": [],
      "name": "panic",
      "outputs": [],
      "stateMutability": "nonpayable",
      "type": "function"
    },
    {
      "inputs": [],
      "name": "pause",
      "outputs": [],
      "stateMutability": "nonpayable",
      "type": "function"
    },
    {
      "inputs": [],
      "name": "paused",
      "outputs": [
        {
          "internalType": "bool",
          "name": "",
          "type": "bool"
        }
      ],
      "stateMutability": "view",
      "type": "function"
    },
    {
      "inputs": [],
      "name": "renounceOwnership",
      "outputs": [],
      "stateMutability": "nonpayable",
      "type": "function"
    },
    {
      "inputs": [],
      "name": "retireStrat",
      "outputs": [],
      "stateMutability": "nonpayable",
      "type": "function"
    },
    {
      "inputs": [],
      "name": "rewardPool",
      "outputs": [
        {
          "internalType": "address",
          "name": "",
          "type": "address"
        }
      ],
      "stateMutability": "view",
      "type": "function"
    },
    {
      "inputs": [
        {
          "internalType": "address",
          "name": "_beefyFeeRecipient",
          "type": "address"
        }
      ],
      "name": "setBeefyFeeRecipient",
      "outputs": [],
      "stateMutability": "nonpayable",
      "type": "function"
    },
    {
      "inputs": [
        {
          "internalType": "uint256",
          "name": "_fee",
          "type": "uint256"
        }
      ],
      "name": "setCallFee",
      "outputs": [],
      "stateMutability": "nonpayable",
      "type": "function"
    },
    {
      "inputs": [
        {
          "internalType": "bool",
          "name": "_harvestOnDeposit",
          "type": "bool"
        }
      ],
      "name": "setHarvestOnDeposit",
      "outputs": [],
      "stateMutability": "nonpayable",
      "type": "function"
    },
    {
      "inputs": [
        {
          "internalType": "address",
          "name": "_keeper",
          "type": "address"
        }
      ],
      "name": "setKeeper",
      "outputs": [],
      "stateMutability": "nonpayable",
      "type": "function"
    },
    {
      "inputs": [
        {
          "internalType": "address",
          "name": "_strategist",
          "type": "address"
        }
      ],
      "name": "setStrategist",
      "outputs": [],
      "stateMutability": "nonpayable",
      "type": "function"
    },
    {
      "inputs": [
        {
          "internalType": "address",
          "name": "_unirouter",
          "type": "address"
        }
      ],
      "name": "setUnirouter",
      "outputs": [],
      "stateMutability": "nonpayable",
      "type": "function"
    },
    {
      "inputs": [
        {
          "internalType": "address",
          "name": "_vault",
          "type": "address"
        }
      ],
      "name": "setVault",
      "outputs": [],
      "stateMutability": "nonpayable",
      "type": "function"
    },
    {
      "inputs": [
        {
          "internalType": "uint256",
          "name": "_fee",
          "type": "uint256"
        }
      ],
      "name": "setWithdrawalFee",
      "outputs": [],
      "stateMutability": "nonpayable",
      "type": "function"
    },
    {
      "inputs": [],
      "name": "strategist",
      "outputs": [
        {
          "internalType": "address",
          "name": "",
          "type": "address"
        }
      ],
      "stateMutability": "view",
      "type": "function"
    },
    {
      "inputs": [
        {
          "internalType": "address",
          "name": "_rewardPool",
          "type": "address"
        },
        {
          "internalType": "address[]",
          "name": "_outputToNativeRoute",
          "type": "address[]"
        },
        {
          "internalType": "address[]",
          "name": "_outputToWantRoute",
          "type": "address[]"
        }
      ],
      "name": "swapRewardPool",
      "outputs": [],
      "stateMutability": "nonpayable",
      "type": "function"
    },
    {
      "inputs": [
        {
          "internalType": "address",
          "name": "newOwner",
          "type": "address"
        }
      ],
      "name": "transferOwnership",
      "outputs": [],
      "stateMutability": "nonpayable",
      "type": "function"
    },
    {
      "inputs": [],
      "name": "unirouter",
      "outputs": [
        {
          "internalType": "address",
          "name": "",
          "type": "address"
        }
      ],
      "stateMutability": "view",
      "type": "function"
    },
    {
      "inputs": [],
      "name": "unpause",
      "outputs": [],
      "stateMutability": "nonpayable",
      "type": "function"
    },
    {
      "inputs": [],
      "name": "vault",
      "outputs": [
        {
          "internalType": "address",
          "name": "",
          "type": "address"
        }
      ],
      "stateMutability": "view",
      "type": "function"
    },
    {
      "inputs": [],
      "name": "want",
      "outputs": [
        {
          "internalType": "address",
          "name": "",
          "type": "address"
        }
      ],
      "stateMutability": "view",
      "type": "function"
    },
    {
      "inputs": [
        {
          "internalType": "uint256",
          "name": "_amount",
          "type": "uint256"
        }
      ],
      "name": "withdraw",
      "outputs": [],
      "stateMutability": "nonpayable",
      "type": "function"
    },
    {
      "inputs": [],
      "name": "withdrawalFee",
      "outputs": [
        {
          "internalType": "uint256",
          "name": "",
          "type": "uint256"
        }
      ],
      "stateMutability": "view",
      "type": "function"
    }
  ],
  "bytecode": "0x6080604052600a600655600b60075560075460706103e862000022919062001362565b6200002e919062001362565b6008557fffffffffffffffffffffffffffffffffffffffffffffffffffffffffffffffff6009553480156200006257600080fd5b50604051620066fe380380620066fe833981810160405281019062000088919062000d85565b8484878986620000ad620000a1620005c360201b60201c565b620005cb60201b60201c565b60008060146101000a81548160ff02191690831515021790555084600160006101000a81548173ffffffffffffffffffffffffffffffffffffffff021916908373ffffffffffffffffffffffffffffffffffffffff16021790555083600260006101000a81548173ffffffffffffffffffffffffffffffffffffffff021916908373ffffffffffffffffffffffffffffffffffffffff16021790555082600360006101000a81548173ffffffffffffffffffffffffffffffffffffffff021916908373ffffffffffffffffffffffffffffffffffffffff16021790555081600460006101000a81548173ffffffffffffffffffffffffffffffffffffffff021916908373ffffffffffffffffffffffffffffffffffffffff16021790555080600560006101000a81548173ffffffffffffffffffffffffffffffffffffffff021916908373ffffffffffffffffffffffffffffffffffffffff160217905550505050505073831753dd7087cac61ab5644b308642cc1c33dc13600c60006101000a81548173ffffffffffffffffffffffffffffffffffffffff021916908373ffffffffffffffffffffffffffffffffffffffff16021790555087600d60006101000a81548173ffffffffffffffffffffffffffffffffffffffff021916908373ffffffffffffffffffffffffffffffffffffffff16021790555081600081518110620002e2577f4e487b7100000000000000000000000000000000000000000000000000000000600052603260045260246000fd5b6020026020010151600b60006101000a81548173ffffffffffffffffffffffffffffffffffffffff021916908373ffffffffffffffffffffffffffffffffffffffff16021790555081600183516200033b919062001362565b8151811062000373577f4e487b7100000000000000000000000000000000000000000000000000000000600052603260045260246000fd5b6020026020010151600a60006101000a81548173ffffffffffffffffffffffffffffffffffffffff021916908373ffffffffffffffffffffffffffffffffffffffff16021790555081600e9080519060200190620003d392919062000bf0565b50600b60009054906101000a900473ffffffffffffffffffffffffffffffffffffffff1673ffffffffffffffffffffffffffffffffffffffff168160008151811062000448577f4e487b7100000000000000000000000000000000000000000000000000000000600052603260045260246000fd5b602002602001015173ffffffffffffffffffffffffffffffffffffffff1614620004a9576040517f08c379a0000000000000000000000000000000000000000000000000000000008152600401620004a09062001223565b60405180910390fd5b600c60009054906101000a900473ffffffffffffffffffffffffffffffffffffffff1673ffffffffffffffffffffffffffffffffffffffff168160018351620004f3919062001362565b815181106200052b577f4e487b7100000000000000000000000000000000000000000000000000000000600052603260045260246000fd5b602002602001015173ffffffffffffffffffffffffffffffffffffffff16146200058c576040517f08c379a0000000000000000000000000000000000000000000000000000000008152600401620005839062001201565b60405180910390fd5b80600f9080519060200190620005a492919062000bf0565b50620005b56200068f60201b60201c565b5050505050505050620014da565b600033905090565b60008060009054906101000a900473ffffffffffffffffffffffffffffffffffffffff169050816000806101000a81548173ffffffffffffffffffffffffffffffffffffffff021916908373ffffffffffffffffffffffffffffffffffffffff1602179055508173ffffffffffffffffffffffffffffffffffffffff168173ffffffffffffffffffffffffffffffffffffffff167f8be0079c531659141344cd1fd0a4f28419497f9722a3daafe3b4186f6b6457e060405160405180910390a35050565b620006f973f28164a485b0b2c90639e47b0f377b4a438a16b1600954600c60009054906101000a900473ffffffffffffffffffffffffffffffffffffffff1673ffffffffffffffffffffffffffffffffffffffff16620007dd60201b62002e16179092919060201c565b62000763600d60009054906101000a900473ffffffffffffffffffffffffffffffffffffffff1660095473f28164a485b0b2c90639e47b0f377b4a438a16b173ffffffffffffffffffffffffffffffffffffffff16620007dd60201b62002e16179092919060201c565b620007db600360009054906101000a900473ffffffffffffffffffffffffffffffffffffffff16600954600b60009054906101000a900473ffffffffffffffffffffffffffffffffffffffff1673ffffffffffffffffffffffffffffffffffffffff16620007dd60201b62002e16179092919060201c565b565b60008114806200087d575060008373ffffffffffffffffffffffffffffffffffffffff1663dd62ed3e30856040518363ffffffff1660e01b81526004016200082792919062001183565b60206040518083038186803b1580156200084057600080fd5b505afa15801562000855573d6000803e3d6000fd5b505050506040513d601f19601f820116820180604052508101906200087b919062000ea6565b145b620008bf576040517f08c379a0000000000000000000000000000000000000000000000000000000008152600401620008b690620012ab565b60405180910390fd5b6200094a8363095ea7b360e01b8484604051602401620008e1929190620011b0565b604051602081830303815290604052907bffffffffffffffffffffffffffffffffffffffffffffffffffffffff19166020820180517bffffffffffffffffffffffffffffffffffffffffffffffffffffffff83818316178352505050506200094f60201b60201c565b505050565b6000620009b8826040518060400160405280602081526020017f5361666545524332303a206c6f772d6c6576656c2063616c6c206661696c65648152508573ffffffffffffffffffffffffffffffffffffffff1662000a2360201b62002f74179092919060201c565b905060008151111562000a1e5780806020019051810190620009db919062000e7a565b62000a1d576040517f08c379a000000000000000000000000000000000000000000000000000000000815260040162000a149062001289565b60405180910390fd5b5b505050565b606062000a3a848460008562000a4360201b60201c565b90509392505050565b60608247101562000a8b576040517f08c379a000000000000000000000000000000000000000000000000000000000815260040162000a829062001245565b60405180910390fd5b62000a9c8562000b7160201b60201c565b62000ade576040517f08c379a000000000000000000000000000000000000000000000000000000000815260040162000ad59062001267565b60405180910390fd5b6000808673ffffffffffffffffffffffffffffffffffffffff16858760405162000b0991906200116a565b60006040518083038185875af1925050503d806000811462000b48576040519150601f19603f3d011682016040523d82523d6000602084013e62000b4d565b606091505b509150915062000b6582828662000b8460201b60201c565b92505050949350505050565b600080823b905060008111915050919050565b6060831562000b965782905062000be9565b60008351111562000baa5782518084602001fd5b816040517f08c379a000000000000000000000000000000000000000000000000000000000815260040162000be09190620011dd565b60405180910390fd5b9392505050565b82805482825590600052602060002090810192821562000c6c579160200282015b8281111562000c6b5782518260006101000a81548173ffffffffffffffffffffffffffffffffffffffff021916908373ffffffffffffffffffffffffffffffffffffffff1602179055509160200191906001019062000c11565b5b50905062000c7b919062000c7f565b5090565b5b8082111562000c9a57600081600090555060010162000c80565b5090565b600062000cb562000caf8462001301565b620012cd565b9050808382526020820190508285602086028201111562000cd557600080fd5b60005b8581101562000d09578162000cee888262000d13565b84526020840193506020830192505060018101905062000cd8565b5050509392505050565b60008151905062000d24816200148c565b92915050565b600082601f83011262000d3c57600080fd5b815162000d4e84826020860162000c9e565b91505092915050565b60008151905062000d6881620014a6565b92915050565b60008151905062000d7f81620014c0565b92915050565b600080600080600080600080610100898b03121562000da357600080fd5b600062000db38b828c0162000d13565b985050602062000dc68b828c0162000d13565b975050604062000dd98b828c0162000d13565b965050606062000dec8b828c0162000d13565b955050608062000dff8b828c0162000d13565b94505060a062000e128b828c0162000d13565b93505060c089015167ffffffffffffffff81111562000e3057600080fd5b62000e3e8b828c0162000d2a565b92505060e089015167ffffffffffffffff81111562000e5c57600080fd5b62000e6a8b828c0162000d2a565b9150509295985092959890939650565b60006020828403121562000e8d57600080fd5b600062000e9d8482850162000d57565b91505092915050565b60006020828403121562000eb957600080fd5b600062000ec98482850162000d6e565b91505092915050565b62000edd816200139d565b82525050565b600062000ef08262001330565b62000efc818562001346565b935062000f0e818560208601620013e7565b80840191505092915050565b600062000f27826200133b565b62000f33818562001351565b935062000f45818560208601620013e7565b62000f50816200147b565b840191505092915050565b600062000f6a60058362001351565b91507f2177616e740000000000000000000000000000000000000000000000000000006000830152602082019050919050565b600062000fac60168362001351565b91507f746f4465706f7369745b305d20213d206f7574707574000000000000000000006000830152602082019050919050565b600062000fee60268362001351565b91507f416464726573733a20696e73756666696369656e742062616c616e636520666f60008301527f722063616c6c00000000000000000000000000000000000000000000000000006020830152604082019050919050565b600062001056601d8362001351565b91507f416464726573733a2063616c6c20746f206e6f6e2d636f6e74726163740000006000830152602082019050919050565b600062001098602a8362001351565b91507f5361666545524332303a204552433230206f7065726174696f6e20646964206e60008301527f6f742073756363656564000000000000000000000000000000000000000000006020830152604082019050919050565b60006200110060368362001351565b91507f5361666545524332303a20617070726f76652066726f6d206e6f6e2d7a65726f60008301527f20746f206e6f6e2d7a65726f20616c6c6f77616e6365000000000000000000006020830152604082019050919050565b6200116481620013dd565b82525050565b600062001178828462000ee3565b915081905092915050565b60006040820190506200119a600083018562000ed2565b620011a9602083018462000ed2565b9392505050565b6000604082019050620011c7600083018562000ed2565b620011d6602083018462001159565b9392505050565b60006020820190508181036000830152620011f9818462000f1a565b905092915050565b600060208201905081810360008301526200121c8162000f5b565b9050919050565b600060208201905081810360008301526200123e8162000f9d565b9050919050565b60006020820190508181036000830152620012608162000fdf565b9050919050565b60006020820190508181036000830152620012828162001047565b9050919050565b60006020820190508181036000830152620012a48162001089565b9050919050565b60006020820190508181036000830152620012c681620010f1565b9050919050565b6000604051905081810181811067ffffffffffffffff82111715620012f757620012f66200144c565b5b8060405250919050565b600067ffffffffffffffff8211156200131f576200131e6200144c565b5b602082029050602081019050919050565b600081519050919050565b600081519050919050565b600081905092915050565b600082825260208201905092915050565b60006200136f82620013dd565b91506200137c83620013dd565b9250828210156200139257620013916200141d565b5b828203905092915050565b6000620013aa82620013bd565b9050919050565b60008115159050919050565b600073ffffffffffffffffffffffffffffffffffffffff82169050919050565b6000819050919050565b60005b8381101562001407578082015181840152602081019050620013ea565b8381111562001417576000848401525b50505050565b7f4e487b7100000000000000000000000000000000000000000000000000000000600052601160045260246000fd5b7f4e487b7100000000000000000000000000000000000000000000000000000000600052604160045260246000fd5b6000601f19601f8301169050919050565b62001497816200139d565b8114620014a357600080fd5b50565b620014b181620013b1565b8114620014bd57600080fd5b50565b620014cb81620013dd565b8114620014d757600080fd5b50565b61521480620014ea6000396000f3fe608060405234801561001057600080fd5b50600436106103275760003560e01c80637d38ca65116101b8578063c1a3d44c11610104578063dd93d6b3116100a2578063f20eaeb81161007c578063f20eaeb81461085a578063f2fde38b14610878578063fb61778714610894578063fbfa77cf1461089e57610327565b8063dd93d6b3146107ee578063dfbdc4371461081e578063f1a392da1461083c57610327565b8063d0e30db0116100de578063d0e30db0146107a0578063d3102589146107aa578063d801d946146107c8578063d92f3d73146107d257610327565b8063c1a3d44c14610748578063c7b9d53014610766578063cc7cb29b1461078257610327565b806390321e1a11610171578063ac1e50251161014b578063ac1e5025146106c0578063aced1661146106dc578063bc063e1a146106fa578063be12a9781461071857610327565b806390321e1a1461066a5780639c19f9c714610688578063a68833e5146106a457610327565b80637d38ca65146105ca5780638456cb59146105e85780638912cb8b146105f25780638bc7e8c4146106105780638da5cb5b1461062e5780638e1454591461064c57610327565b80634641257d1161027757806361bd16b011610230578063715018a61161020a578063715018a614610568578063722713f714610572578063748747e61461059057806375342c6a146105ac57610327565b806361bd16b01461051057806366666aa91461052e5780636817031b1461054c57610327565b80634641257d146104985780634700d305146104a257806354518b1a146104ac578063573fef0a146104ca5780635c975abb146104d45780636013d5bf146104f257610327565b80631f1fcd51116102e457806326465826116102be57806326465826146104385780632ad5a53f146104545780632e1a7d4d146104725780633f4ba83a1461048e57610327565b80631f1fcd51146103de5780631fe4a686146103fc578063257ae0de1461041a57610327565b8063098d32281461032c5780630e8fbb5a1461034a578063115880861461036657806311b0b42d1461038457806313e120b1146103a2578063188672a0146103c0575b600080fd5b6103346108bc565b6040516103419190614d69565b60405180910390f35b610364600480360381019061035f91906142e8565b6108c2565b005b61036e6109e2565b60405161037b9190614d69565b60405180910390f35b61038c610b35565b6040516103999190614a7d565b60405180910390f35b6103aa610b5b565b6040516103b79190614aea565b60405180910390f35b6103c8610be9565b6040516103d59190614a7d565b60405180910390f35b6103e6610c01565b6040516103f39190614a7d565b60405180910390f35b610404610c27565b6040516104119190614a7d565b60405180910390f35b610422610c4d565b60405161042f9190614a7d565b60405180910390f35b610452600480360381019061044d919061433a565b610c73565b005b61045c610db0565b6040516104699190614d69565b60405180910390f35b61048c6004803603810190610487919061433a565b610db5565b005b6104966111c1565b005b6104a06112a8565b005b6104aa611368565b005b6104b4611559565b6040516104c19190614d69565b60405180910390f35b6104d261155f565b005b6104dc61160f565b6040516104e99190614b0c565b60405180910390f35b6104fa611625565b6040516105079190614a7d565b60405180910390f35b61051861163d565b6040516105259190614d69565b60405180910390f35b6105366116ef565b6040516105439190614a7d565b60405180910390f35b610566600480360381019061056191906141d6565b611715565b005b6105706117d5565b005b61057a61185d565b6040516105879190614d69565b60405180910390f35b6105aa60048036038101906105a591906141d6565b611885565b005b6105b4611996565b6040516105c19190614d69565b60405180910390f35b6105d2611a3a565b6040516105df9190614d69565b60405180910390f35b6105f0611a3f565b005b6105fa611b1e565b6040516106079190614b0c565b60405180910390f35b610618611b31565b6040516106259190614d69565b60405180910390f35b610636611b37565b6040516106439190614a7d565b60405180910390f35b610654611b60565b6040516106619190614a7d565b60405180910390f35b610672611b86565b60405161067f9190614d69565b60405180910390f35b6106a2600480360381019061069d9190614228565b611b8c565b005b6106be60048036038101906106b991906141d6565b61228c565b005b6106da60048036038101906106d5919061433a565b61234c565b005b6106e4612467565b6040516106f19190614a7d565b60405180910390f35b61070261248d565b60405161070f9190614d69565b60405180910390f35b610732600480360381019061072d919061433a565b612493565b60405161073f9190614a7d565b60405180910390f35b6107506124d2565b60405161075d9190614d69565b60405180910390f35b610780600480360381019061077b91906141d6565b612584565b005b61078a612658565b6040516107979190614aea565b60405180910390f35b6107a86126e6565b005b6107b2612860565b6040516107bf9190614d69565b60405180910390f35b6107d0612866565b005b6107ec60048036038101906107e791906141d6565b61293d565b005b6108086004803603810190610803919061433a565b6129fd565b6040516108159190614a7d565b60405180910390f35b610826612a3c565b6040516108339190614d69565b60405180910390f35b610844612a41565b6040516108519190614d69565b60405180910390f35b610862612a47565b60405161086f9190614a7d565b60405180910390f35b610892600480360381019061088d91906141d6565b612a6d565b005b61089c612b65565b005b6108a6612df0565b6040516108b39190614a7d565b60405180910390f35b60095481565b6108ca611b37565b73ffffffffffffffffffffffffffffffffffffffff163373ffffffffffffffffffffffffffffffffffffffff1614806109505750600160009054906101000a900473ffffffffffffffffffffffffffffffffffffffff1673ffffffffffffffffffffffffffffffffffffffff163373ffffffffffffffffffffffffffffffffffffffff16145b61098f576040517f08c379a000000000000000000000000000000000000000000000000000000000815260040161098690614ce9565b60405180910390fd5b80601060006101000a81548160ff02191690831515021790555060011515601060009054906101000a900460ff16151514156109d4576109cf600061234c565b6109df565b6109de600a61234c565b5b50565b600080600d60009054906101000a900473ffffffffffffffffffffffffffffffffffffffff1673ffffffffffffffffffffffffffffffffffffffff166370a08231306040518263ffffffff1660e01b8152600401610a409190614a7d565b60206040518083038186803b158015610a5857600080fd5b505afa158015610a6c573d6000803e3d6000fd5b505050506040513d601f19601f82011682018060405250810190610a909190614363565b905073f28164a485b0b2c90639e47b0f377b4a438a16b173ffffffffffffffffffffffffffffffffffffffff1663ad19daf8826040518263ffffffff1660e01b8152600401610adf9190614d69565b60206040518083038186803b158015610af757600080fd5b505afa158015610b0b573d6000803e3d6000fd5b505050506040513d601f19601f82011682018060405250810190610b2f9190614363565b91505090565b600a60009054906101000a900473ffffffffffffffffffffffffffffffffffffffff1681565b6060600e805480602002602001604051908101604052809291908181526020018280548015610bdf57602002820191906000526020600020905b8160009054906101000a900473ffffffffffffffffffffffffffffffffffffffff1673ffffffffffffffffffffffffffffffffffffffff1681526020019060010190808311610b95575b5050505050905090565b73831753dd7087cac61ab5644b308642cc1c33dc1381565b600c60009054906101000a900473ffffffffffffffffffffffffffffffffffffffff1681565b600260009054906101000a900473ffffffffffffffffffffffffffffffffffffffff1681565b600360009054906101000a900473ffffffffffffffffffffffffffffffffffffffff1681565b610c7b611b37565b73ffffffffffffffffffffffffffffffffffffffff163373ffffffffffffffffffffffffffffffffffffffff161480610d015750600160009054906101000a900473ffffffffffffffffffffffffffffffffffffffff1673ffffffffffffffffffffffffffffffffffffffff163373ffffffffffffffffffffffffffffffffffffffff16145b610d40576040517f08c379a0000000000000000000000000000000000000000000000000000000008152600401610d3790614ce9565b60405180910390fd5b606f811115610d84576040517f08c379a0000000000000000000000000000000000000000000000000000000008152600401610d7b90614c69565b60405180910390fd5b8060078190555060075460706103e8610d9d9190614fe0565b610da79190614fe0565b60088190555050565b606f81565b600460009054906101000a900473ffffffffffffffffffffffffffffffffffffffff1673ffffffffffffffffffffffffffffffffffffffff163373ffffffffffffffffffffffffffffffffffffffff1614610e45576040517f08c379a0000000000000000000000000000000000000000000000000000000008152600401610e3c90614c89565b60405180910390fd5b6000610e4f6124d2565b90506000610e5b611996565b9050600073f28164a485b0b2c90639e47b0f377b4a438a16b173ffffffffffffffffffffffffffffffffffffffff16637ea715e9856040518263ffffffff1660e01b8152600401610eac9190614d69565b60206040518083038186803b158015610ec457600080fd5b505afa158015610ed8573d6000803e3d6000fd5b505050506040513d601f19601f82011682018060405250810190610efc9190614363565b90508383101561104157600d60009054906101000a900473ffffffffffffffffffffffffffffffffffffffff1673ffffffffffffffffffffffffffffffffffffffff16632e1a7d4d610f578484612f8c90919063ffffffff16565b6040518263ffffffff1660e01b8152600401610f739190614d69565b600060405180830381600087803b158015610f8d57600080fd5b505af1158015610fa1573d6000803e3d6000fd5b5050505073f28164a485b0b2c90639e47b0f377b4a438a16b173ffffffffffffffffffffffffffffffffffffffff166367dfd4c9610fe88484612f8c90919063ffffffff16565b6040518263ffffffff1660e01b81526004016110049190614d69565b600060405180830381600087803b15801561101e57600080fd5b505af1158015611032573d6000803e3d6000fd5b5050505061103e6124d2565b92505b8383111561104d578392505b611055611b37565b73ffffffffffffffffffffffffffffffffffffffff163273ffffffffffffffffffffffffffffffffffffffff161480611092575061109161160f565b5b1561110b57611106600460009054906101000a900473ffffffffffffffffffffffffffffffffffffffff1684600c60009054906101000a900473ffffffffffffffffffffffffffffffffffffffff1673ffffffffffffffffffffffffffffffffffffffff16612fa29092919063ffffffff16565b6111bb565b60006111366127106111286006548761302890919063ffffffff16565b61303e90919063ffffffff16565b90506111b9600460009054906101000a900473ffffffffffffffffffffffffffffffffffffffff166111718387612f8c90919063ffffffff16565b600c60009054906101000a900473ffffffffffffffffffffffffffffffffffffffff1673ffffffffffffffffffffffffffffffffffffffff16612fa29092919063ffffffff16565b505b50505050565b6111c9611b37565b73ffffffffffffffffffffffffffffffffffffffff163373ffffffffffffffffffffffffffffffffffffffff16148061124f5750600160009054906101000a900473ffffffffffffffffffffffffffffffffffffffff1673ffffffffffffffffffffffffffffffffffffffff163373ffffffffffffffffffffffffffffffffffffffff16145b61128e576040517f08c379a000000000000000000000000000000000000000000000000000000000815260040161128590614ce9565b60405180910390fd5b611296613054565b61129e6130f5565b6112a66126e6565b565b6112b061160f565b156112f0576040517f08c379a00000000000000000000000000000000000000000000000000000000081526004016112e790614c09565b60405180910390fd5b3273ffffffffffffffffffffffffffffffffffffffff163373ffffffffffffffffffffffffffffffffffffffff161461135e576040517f08c379a000000000000000000000000000000000000000000000000000000000815260040161135590614d29565b60405180910390fd5b61136661322e565b565b611370611b37565b73ffffffffffffffffffffffffffffffffffffffff163373ffffffffffffffffffffffffffffffffffffffff1614806113f65750600160009054906101000a900473ffffffffffffffffffffffffffffffffffffffff1673ffffffffffffffffffffffffffffffffffffffff163373ffffffffffffffffffffffffffffffffffffffff16145b611435576040517f08c379a000000000000000000000000000000000000000000000000000000000815260040161142c90614ce9565b60405180910390fd5b61143d611a3f565b600d60009054906101000a900473ffffffffffffffffffffffffffffffffffffffff1673ffffffffffffffffffffffffffffffffffffffff16632e1a7d4d61148361163d565b6040518263ffffffff1660e01b815260040161149f9190614d69565b600060405180830381600087803b1580156114b957600080fd5b505af11580156114cd573d6000803e3d6000fd5b5050505073f28164a485b0b2c90639e47b0f377b4a438a16b173ffffffffffffffffffffffffffffffffffffffff166367dfd4c9611509611996565b6040518263ffffffff1660e01b81526004016115259190614d69565b600060405180830381600087803b15801561153f57600080fd5b505af1158015611553573d6000803e3d6000fd5b50505050565b61271081565b601060009054906101000a900460ff161561160d57600460009054906101000a900473ffffffffffffffffffffffffffffffffffffffff1673ffffffffffffffffffffffffffffffffffffffff163373ffffffffffffffffffffffffffffffffffffffff1614611604576040517f08c379a00000000000000000000000000000000000000000000000000000000081526004016115fb90614c89565b60405180910390fd5b61160c61322e565b5b565b60008060149054906101000a900460ff16905090565b73f28164a485b0b2c90639e47b0f377b4a438a16b181565b6000600d60009054906101000a900473ffffffffffffffffffffffffffffffffffffffff1673ffffffffffffffffffffffffffffffffffffffff166370a08231306040518263ffffffff1660e01b815260040161169a9190614a7d565b60206040518083038186803b1580156116b257600080fd5b505afa1580156116c6573d6000803e3d6000fd5b505050506040513d601f19601f820116820180604052508101906116ea9190614363565b905090565b600d60009054906101000a900473ffffffffffffffffffffffffffffffffffffffff1681565b61171d613494565b73ffffffffffffffffffffffffffffffffffffffff1661173b611b37565b73ffffffffffffffffffffffffffffffffffffffff1614611791576040517f08c379a000000000000000000000000000000000000000000000000000000000815260040161178890614ca9565b60405180910390fd5b80600460006101000a81548173ffffffffffffffffffffffffffffffffffffffff021916908373ffffffffffffffffffffffffffffffffffffffff16021790555050565b6117dd613494565b73ffffffffffffffffffffffffffffffffffffffff166117fb611b37565b73ffffffffffffffffffffffffffffffffffffffff1614611851576040517f08c379a000000000000000000000000000000000000000000000000000000000815260040161184890614ca9565b60405180910390fd5b61185b600061349c565b565b600061188061186a6109e2565b6118726124d2565b61356090919063ffffffff16565b905090565b61188d611b37565b73ffffffffffffffffffffffffffffffffffffffff163373ffffffffffffffffffffffffffffffffffffffff1614806119135750600160009054906101000a900473ffffffffffffffffffffffffffffffffffffffff1673ffffffffffffffffffffffffffffffffffffffff163373ffffffffffffffffffffffffffffffffffffffff16145b611952576040517f08c379a000000000000000000000000000000000000000000000000000000000815260040161194990614ce9565b60405180910390fd5b80600160006101000a81548173ffffffffffffffffffffffffffffffffffffffff021916908373ffffffffffffffffffffffffffffffffffffffff16021790555050565b600073f28164a485b0b2c90639e47b0f377b4a438a16b173ffffffffffffffffffffffffffffffffffffffff166370a08231306040518263ffffffff1660e01b81526004016119e59190614a7d565b60206040518083038186803b1580156119fd57600080fd5b505afa158015611a11573d6000803e3d6000fd5b505050506040513d601f19601f82011682018060405250810190611a359190614363565b905090565b607081565b611a47611b37565b73ffffffffffffffffffffffffffffffffffffffff163373ffffffffffffffffffffffffffffffffffffffff161480611acd5750600160009054906101000a900473ffffffffffffffffffffffffffffffffffffffff1673ffffffffffffffffffffffffffffffffffffffff163373ffffffffffffffffffffffffffffffffffffffff16145b611b0c576040517f08c379a0000000000000000000000000000000000000000000000000000000008152600401611b0390614ce9565b60405180910390fd5b611b14613576565b611b1c613619565b565b601060009054906101000a900460ff1681565b60065481565b60008060009054906101000a900473ffffffffffffffffffffffffffffffffffffffff16905090565b600560009054906101000a900473ffffffffffffffffffffffffffffffffffffffff1681565b60075481565b611b94613494565b73ffffffffffffffffffffffffffffffffffffffff16611bb2611b37565b73ffffffffffffffffffffffffffffffffffffffff1614611c08576040517f08c379a0000000000000000000000000000000000000000000000000000000008152600401611bff90614ca9565b60405180910390fd5b8273ffffffffffffffffffffffffffffffffffffffff166372f702f36040518163ffffffff1660e01b815260040160206040518083038186803b158015611c4e57600080fd5b505afa158015611c62573d6000803e3d6000fd5b505050506040513d601f19601f82011682018060405250810190611c8691906141ff565b73ffffffffffffffffffffffffffffffffffffffff1673f28164a485b0b2c90639e47b0f377b4a438a16b173ffffffffffffffffffffffffffffffffffffffff1614611d07576040517f08c379a0000000000000000000000000000000000000000000000000000000008152600401611cfe90614c29565b60405180910390fd5b8273ffffffffffffffffffffffffffffffffffffffff1663d1af0c7d6040518163ffffffff1660e01b815260040160206040518083038186803b158015611d4d57600080fd5b505afa158015611d61573d6000803e3d6000fd5b505050506040513d601f19601f82011682018060405250810190611d8591906141ff565b73ffffffffffffffffffffffffffffffffffffffff1682600081518110611dd5577f4e487b7100000000000000000000000000000000000000000000000000000000600052603260045260246000fd5b602002602001015173ffffffffffffffffffffffffffffffffffffffff16148015611ee957508273ffffffffffffffffffffffffffffffffffffffff1663d1af0c7d6040518163ffffffff1660e01b815260040160206040518083038186803b158015611e4157600080fd5b505afa158015611e55573d6000803e3d6000fd5b505050506040513d601f19601f82011682018060405250810190611e7991906141ff565b73ffffffffffffffffffffffffffffffffffffffff1681600081518110611ec9577f4e487b7100000000000000000000000000000000000000000000000000000000600052603260045260246000fd5b602002602001015173ffffffffffffffffffffffffffffffffffffffff16145b611f28576040517f08c379a0000000000000000000000000000000000000000000000000000000008152600401611f1f90614c49565b60405180910390fd5b600c60009054906101000a900473ffffffffffffffffffffffffffffffffffffffff1673ffffffffffffffffffffffffffffffffffffffff168160018351611f709190614fe0565b81518110611fa7577f4e487b7100000000000000000000000000000000000000000000000000000000600052603260045260246000fd5b602002602001015173ffffffffffffffffffffffffffffffffffffffff1614612005576040517f08c379a0000000000000000000000000000000000000000000000000000000008152600401611ffc90614bc9565b60405180910390fd5b600d60009054906101000a900473ffffffffffffffffffffffffffffffffffffffff1673ffffffffffffffffffffffffffffffffffffffff16632e1a7d4d61204b61163d565b6040518263ffffffff1660e01b81526004016120679190614d69565b600060405180830381600087803b15801561208157600080fd5b505af1158015612095573d6000803e3d6000fd5b505050506120a1613619565b82600d60006101000a81548173ffffffffffffffffffffffffffffffffffffffff021916908373ffffffffffffffffffffffffffffffffffffffff1602179055508160008151811061211c577f4e487b7100000000000000000000000000000000000000000000000000000000600052603260045260246000fd5b6020026020010151600b60006101000a81548173ffffffffffffffffffffffffffffffffffffffff021916908373ffffffffffffffffffffffffffffffffffffffff16021790555081600e908051906020019061217a929190613f85565b5080600f9080519060200190612191929190613f85565b5061219a6130f5565b600d60009054906101000a900473ffffffffffffffffffffffffffffffffffffffff1673ffffffffffffffffffffffffffffffffffffffff1663a694fc3a6121e0611996565b6040518263ffffffff1660e01b81526004016121fc9190614d69565b600060405180830381600087803b15801561221657600080fd5b505af115801561222a573d6000803e3d6000fd5b505050507f8e9a8dd0ff80d45ff34141134cb76275843f214cdde734710b9452129e3ebc7f600d60009054906101000a900473ffffffffffffffffffffffffffffffffffffffff1660405161227f9190614a7d565b60405180910390a1505050565b612294613494565b73ffffffffffffffffffffffffffffffffffffffff166122b2611b37565b73ffffffffffffffffffffffffffffffffffffffff1614612308576040517f08c379a00000000000000000000000000000000000000000000000000000000081526004016122ff90614ca9565b60405180910390fd5b80600560006101000a81548173ffffffffffffffffffffffffffffffffffffffff021916908373ffffffffffffffffffffffffffffffffffffffff16021790555050565b612354611b37565b73ffffffffffffffffffffffffffffffffffffffff163373ffffffffffffffffffffffffffffffffffffffff1614806123da5750600160009054906101000a900473ffffffffffffffffffffffffffffffffffffffff1673ffffffffffffffffffffffffffffffffffffffff163373ffffffffffffffffffffffffffffffffffffffff16145b612419576040517f08c379a000000000000000000000000000000000000000000000000000000000815260040161241090614ce9565b60405180910390fd5b603281111561245d576040517f08c379a000000000000000000000000000000000000000000000000000000000815260040161245490614c69565b60405180910390fd5b8060068190555050565b600160009054906101000a900473ffffffffffffffffffffffffffffffffffffffff1681565b6103e881565b600e81815481106124a357600080fd5b906000526020600020016000915054906101000a900473ffffffffffffffffffffffffffffffffffffffff1681565b6000600c60009054906101000a900473ffffffffffffffffffffffffffffffffffffffff1673ffffffffffffffffffffffffffffffffffffffff166370a08231306040518263ffffffff1660e01b815260040161252f9190614a7d565b60206040518083038186803b15801561254757600080fd5b505afa15801561255b573d6000803e3d6000fd5b505050506040513d601f19601f8201168201806040525081019061257f9190614363565b905090565b600260009054906101000a900473ffffffffffffffffffffffffffffffffffffffff1673ffffffffffffffffffffffffffffffffffffffff163373ffffffffffffffffffffffffffffffffffffffff1614612614576040517f08c379a000000000000000000000000000000000000000000000000000000000815260040161260b90614b69565b60405180910390fd5b80600260006101000a81548173ffffffffffffffffffffffffffffffffffffffff021916908373ffffffffffffffffffffffffffffffffffffffff16021790555050565b6060600f8054806020026020016040519081016040528092919081815260200182805480156126dc57602002820191906000526020600020905b8160009054906101000a900473ffffffffffffffffffffffffffffffffffffffff1673ffffffffffffffffffffffffffffffffffffffff1681526020019060010190808311612692575b5050505050905090565b6126ee61160f565b1561272e576040517f08c379a000000000000000000000000000000000000000000000000000000000815260040161272590614c09565b60405180910390fd5b60006127386124d2565b9050600081111561285d5773f28164a485b0b2c90639e47b0f377b4a438a16b173ffffffffffffffffffffffffffffffffffffffff1663a59f3e0c826040518263ffffffff1660e01b81526004016127909190614d69565b600060405180830381600087803b1580156127aa57600080fd5b505af11580156127be573d6000803e3d6000fd5b5050505060006127cc611996565b9050600d60009054906101000a900473ffffffffffffffffffffffffffffffffffffffff1673ffffffffffffffffffffffffffffffffffffffff1663a694fc3a826040518263ffffffff1660e01b81526004016128299190614d69565b600060405180830381600087803b15801561284357600080fd5b505af1158015612857573d6000803e3d6000fd5b50505050505b50565b60085481565b61286e611b37565b73ffffffffffffffffffffffffffffffffffffffff163373ffffffffffffffffffffffffffffffffffffffff1614806128f45750600160009054906101000a900473ffffffffffffffffffffffffffffffffffffffff1673ffffffffffffffffffffffffffffffffffffffff163373ffffffffffffffffffffffffffffffffffffffff16145b612933576040517f08c379a000000000000000000000000000000000000000000000000000000000815260040161292a90614ce9565b60405180910390fd5b61293b61322e565b565b612945613494565b73ffffffffffffffffffffffffffffffffffffffff16612963611b37565b73ffffffffffffffffffffffffffffffffffffffff16146129b9576040517f08c379a00000000000000000000000000000000000000000000000000000000081526004016129b090614ca9565b60405180910390fd5b80600360006101000a81548173ffffffffffffffffffffffffffffffffffffffff021916908373ffffffffffffffffffffffffffffffffffffffff16021790555050565b600f8181548110612a0d57600080fd5b906000526020600020016000915054906101000a900473ffffffffffffffffffffffffffffffffffffffff1681565b603281565b60115481565b600b60009054906101000a900473ffffffffffffffffffffffffffffffffffffffff1681565b612a75613494565b73ffffffffffffffffffffffffffffffffffffffff16612a93611b37565b73ffffffffffffffffffffffffffffffffffffffff1614612ae9576040517f08c379a0000000000000000000000000000000000000000000000000000000008152600401612ae090614ca9565b60405180910390fd5b600073ffffffffffffffffffffffffffffffffffffffff168173ffffffffffffffffffffffffffffffffffffffff161415612b59576040517f08c379a0000000000000000000000000000000000000000000000000000000008152600401612b5090614b89565b60405180910390fd5b612b628161349c565b50565b600460009054906101000a900473ffffffffffffffffffffffffffffffffffffffff1673ffffffffffffffffffffffffffffffffffffffff163373ffffffffffffffffffffffffffffffffffffffff1614612bf5576040517f08c379a0000000000000000000000000000000000000000000000000000000008152600401612bec90614c89565b60405180910390fd5b600d60009054906101000a900473ffffffffffffffffffffffffffffffffffffffff1673ffffffffffffffffffffffffffffffffffffffff16632e1a7d4d612c3b61163d565b6040518263ffffffff1660e01b8152600401612c579190614d69565b600060405180830381600087803b158015612c7157600080fd5b505af1158015612c85573d6000803e3d6000fd5b5050505073f28164a485b0b2c90639e47b0f377b4a438a16b173ffffffffffffffffffffffffffffffffffffffff166367dfd4c9612cc1611996565b6040518263ffffffff1660e01b8152600401612cdd9190614d69565b600060405180830381600087803b158015612cf757600080fd5b505af1158015612d0b573d6000803e3d6000fd5b505050506000612d196124d2565b9050600c60009054906101000a900473ffffffffffffffffffffffffffffffffffffffff1673ffffffffffffffffffffffffffffffffffffffff1663a9059cbb600460009054906101000a900473ffffffffffffffffffffffffffffffffffffffff16836040518363ffffffff1660e01b8152600401612d9a929190614ac1565b602060405180830381600087803b158015612db457600080fd5b505af1158015612dc8573d6000803e3d6000fd5b505050506040513d601f19601f82011682018060405250810190612dec9190614311565b5050565b600460009054906101000a900473ffffffffffffffffffffffffffffffffffffffff1681565b6000811480612eaf575060008373ffffffffffffffffffffffffffffffffffffffff1663dd62ed3e30856040518363ffffffff1660e01b8152600401612e5d929190614a98565b60206040518083038186803b158015612e7557600080fd5b505afa158015612e89573d6000803e3d6000fd5b505050506040513d601f19601f82011682018060405250810190612ead9190614363565b145b612eee576040517f08c379a0000000000000000000000000000000000000000000000000000000008152600401612ee590614d49565b60405180910390fd5b612f6f8363095ea7b360e01b8484604051602401612f0d929190614ac1565b604051602081830303815290604052907bffffffffffffffffffffffffffffffffffffffffffffffffffffffff19166020820180517bffffffffffffffffffffffffffffffffffffffffffffffffffffffff838183161783525050505061374f565b505050565b6060612f838484600085613816565b90509392505050565b60008183612f9a9190614fe0565b905092915050565b6130238363a9059cbb60e01b8484604051602401612fc1929190614ac1565b604051602081830303815290604052907bffffffffffffffffffffffffffffffffffffffffffffffffffffffff19166020820180517bffffffffffffffffffffffffffffffffffffffffffffffffffffffff838183161783525050505061374f565b505050565b600081836130369190614f86565b905092915050565b6000818361304c9190614f55565b905092915050565b61305c61160f565b61309b576040517f08c379a000000000000000000000000000000000000000000000000000000000815260040161309290614b49565b60405180910390fd5b60008060146101000a81548160ff0219169083151502179055507f5db9ee0a495bf2e6ff9c91a7834c1ba4fdd244a5e8aa4e537bd38aeae4b073aa6130de613494565b6040516130eb9190614a7d565b60405180910390a1565b61315873f28164a485b0b2c90639e47b0f377b4a438a16b1600954600c60009054906101000a900473ffffffffffffffffffffffffffffffffffffffff1673ffffffffffffffffffffffffffffffffffffffff16612e169092919063ffffffff16565b6131bb600d60009054906101000a900473ffffffffffffffffffffffffffffffffffffffff1660095473f28164a485b0b2c90639e47b0f377b4a438a16b173ffffffffffffffffffffffffffffffffffffffff16612e169092919063ffffffff16565b61322c600360009054906101000a900473ffffffffffffffffffffffffffffffffffffffff16600954600b60009054906101000a900473ffffffffffffffffffffffffffffffffffffffff1673ffffffffffffffffffffffffffffffffffffffff16612e169092919063ffffffff16565b565b3373ffffffffffffffffffffffffffffffffffffffff163273ffffffffffffffffffffffffffffffffffffffff1614806132b55750600460009054906101000a900473ffffffffffffffffffffffffffffffffffffffff1673ffffffffffffffffffffffffffffffffffffffff163373ffffffffffffffffffffffffffffffffffffffff16145b6132f4576040517f08c379a00000000000000000000000000000000000000000000000000000000081526004016132eb90614ba9565b60405180910390fd5b600d60009054906101000a900473ffffffffffffffffffffffffffffffffffffffff1673ffffffffffffffffffffffffffffffffffffffff16633d18b9126040518163ffffffff1660e01b8152600401600060405180830381600087803b15801561335e57600080fd5b505af1158015613372573d6000803e3d6000fd5b505050506000600b60009054906101000a900473ffffffffffffffffffffffffffffffffffffffff1673ffffffffffffffffffffffffffffffffffffffff166370a08231306040518263ffffffff1660e01b81526004016133d39190614a7d565b60206040518083038186803b1580156133eb57600080fd5b505afa1580156133ff573d6000803e3d6000fd5b505050506040513d601f19601f820116820180604052508101906134239190614363565b905060008111156134915761343661392a565b61343e613d24565b6134466126e6565b426011819055503373ffffffffffffffffffffffffffffffffffffffff167f577a37fdb49a88d66684922c6f913df5239b4f214b2b97c53ef8e3bbb2034cb560405160405180910390a25b50565b600033905090565b60008060009054906101000a900473ffffffffffffffffffffffffffffffffffffffff169050816000806101000a81548173ffffffffffffffffffffffffffffffffffffffff021916908373ffffffffffffffffffffffffffffffffffffffff1602179055508173ffffffffffffffffffffffffffffffffffffffff168173ffffffffffffffffffffffffffffffffffffffff167f8be0079c531659141344cd1fd0a4f28419497f9722a3daafe3b4186f6b6457e060405160405180910390a35050565b6000818361356e9190614eff565b905092915050565b61357e61160f565b156135be576040517f08c379a00000000000000000000000000000000000000000000000000000000081526004016135b590614c09565b60405180910390fd5b6001600060146101000a81548160ff0219169083151502179055507f62e78cea01bee320cd4e420270b5ea74000d11b0c9f74754ebdbfc544b05a258613602613494565b60405161360f9190614a7d565b60405180910390a1565b61367b73f28164a485b0b2c90639e47b0f377b4a438a16b16000600c60009054906101000a900473ffffffffffffffffffffffffffffffffffffffff1673ffffffffffffffffffffffffffffffffffffffff16612e169092919063ffffffff16565b6136dd600d60009054906101000a900473ffffffffffffffffffffffffffffffffffffffff16600073f28164a485b0b2c90639e47b0f377b4a438a16b173ffffffffffffffffffffffffffffffffffffffff16612e169092919063ffffffff16565b61374d600360009054906101000a900473ffffffffffffffffffffffffffffffffffffffff166000600b60009054906101000a900473ffffffffffffffffffffffffffffffffffffffff1673ffffffffffffffffffffffffffffffffffffffff16612e169092919063ffffffff16565b565b60006137b1826040518060400160405280602081526020017f5361666545524332303a206c6f772d6c6576656c2063616c6c206661696c65648152508573ffffffffffffffffffffffffffffffffffffffff16612f749092919063ffffffff16565b905060008151111561381157808060200190518101906137d19190614311565b613810576040517f08c379a000000000000000000000000000000000000000000000000000000000815260040161380790614d09565b60405180910390fd5b5b505050565b60608247101561385b576040517f08c379a000000000000000000000000000000000000000000000000000000000815260040161385290614be9565b60405180910390fd5b61386485613f0b565b6138a3576040517f08c379a000000000000000000000000000000000000000000000000000000000815260040161389a90614cc9565b60405180910390fd5b6000808673ffffffffffffffffffffffffffffffffffffffff1685876040516138cc9190614a66565b60006040518083038185875af1925050503d8060008114613909576040519150601f19603f3d011682016040523d82523d6000602084013e61390e565b606091505b509150915061391e828286613f1e565b92505050949350505050565b60006139fe6103e86139f0602d600b60009054906101000a900473ffffffffffffffffffffffffffffffffffffffff1673ffffffffffffffffffffffffffffffffffffffff166370a08231306040518263ffffffff1660e01b81526004016139929190614a7d565b60206040518083038186803b1580156139aa57600080fd5b505afa1580156139be573d6000803e3d6000fd5b505050506040513d601f19601f820116820180604052508101906139e29190614363565b61302890919063ffffffff16565b61303e90919063ffffffff16565b9050600360009054906101000a900473ffffffffffffffffffffffffffffffffffffffff1673ffffffffffffffffffffffffffffffffffffffff166338ed1739826000600e30426040518663ffffffff1660e01b8152600401613a65959493929190614d84565b600060405180830381600087803b158015613a7f57600080fd5b505af1158015613a93573d6000803e3d6000fd5b505050506040513d6000823e3d601f19601f82011682018060405250810190613abc91906142a7565b506000600a60009054906101000a900473ffffffffffffffffffffffffffffffffffffffff1673ffffffffffffffffffffffffffffffffffffffff166370a08231306040518263ffffffff1660e01b8152600401613b1a9190614a7d565b60206040518083038186803b158015613b3257600080fd5b505afa158015613b46573d6000803e3d6000fd5b505050506040513d601f19601f82011682018060405250810190613b6a9190614363565b90506000613b976103e8613b896007548561302890919063ffffffff16565b61303e90919063ffffffff16565b9050613be63282600a60009054906101000a900473ffffffffffffffffffffffffffffffffffffffff1673ffffffffffffffffffffffffffffffffffffffff16612fa29092919063ffffffff16565b6000613c116103e8613c036008548661302890919063ffffffff16565b61303e90919063ffffffff16565b9050613c82600560009054906101000a900473ffffffffffffffffffffffffffffffffffffffff1682600a60009054906101000a900473ffffffffffffffffffffffffffffffffffffffff1673ffffffffffffffffffffffffffffffffffffffff16612fa29092919063ffffffff16565b6000613cac6103e8613c9e60708761302890919063ffffffff16565b61303e90919063ffffffff16565b9050613d1d600260009054906101000a900473ffffffffffffffffffffffffffffffffffffffff1682600a60009054906101000a900473ffffffffffffffffffffffffffffffffffffffff1673ffffffffffffffffffffffffffffffffffffffff16612fa29092919063ffffffff16565b5050505050565b600b60009054906101000a900473ffffffffffffffffffffffffffffffffffffffff1673ffffffffffffffffffffffffffffffffffffffff16600c60009054906101000a900473ffffffffffffffffffffffffffffffffffffffff1673ffffffffffffffffffffffffffffffffffffffff1614613f09576000600b60009054906101000a900473ffffffffffffffffffffffffffffffffffffffff1673ffffffffffffffffffffffffffffffffffffffff166370a08231306040518263ffffffff1660e01b8152600401613df89190614a7d565b60206040518083038186803b158015613e1057600080fd5b505afa158015613e24573d6000803e3d6000fd5b505050506040513d601f19601f82011682018060405250810190613e489190614363565b9050600360009054906101000a900473ffffffffffffffffffffffffffffffffffffffff1673ffffffffffffffffffffffffffffffffffffffff166338ed1739826000600f30426040518663ffffffff1660e01b8152600401613eaf959493929190614d84565b600060405180830381600087803b158015613ec957600080fd5b505af1158015613edd573d6000803e3d6000fd5b505050506040513d6000823e3d601f19601f82011682018060405250810190613f0691906142a7565b50505b565b600080823b905060008111915050919050565b60608315613f2e57829050613f7e565b600083511115613f415782518084602001fd5b816040517f08c379a0000000000000000000000000000000000000000000000000000000008152600401613f759190614b27565b60405180910390fd5b9392505050565b828054828255906000526020600020908101928215613ffe579160200282015b82811115613ffd5782518260006101000a81548173ffffffffffffffffffffffffffffffffffffffff021916908373ffffffffffffffffffffffffffffffffffffffff16021790555091602001919060010190613fa5565b5b50905061400b919061400f565b5090565b5b80821115614028576000816000905550600101614010565b5090565b600061403f61403a84614e0f565b614dde565b9050808382526020820190508285602086028201111561405e57600080fd5b60005b8581101561408e57816140748882614104565b845260208401935060208301925050600181019050614061565b5050509392505050565b60006140ab6140a684614e3b565b614dde565b905080838252602082019050828560208602820111156140ca57600080fd5b60005b858110156140fa57816140e088826141c1565b8452602084019350602083019250506001810190506140cd565b5050509392505050565b60008135905061411381615199565b92915050565b60008151905061412881615199565b92915050565b600082601f83011261413f57600080fd5b813561414f84826020860161402c565b91505092915050565b600082601f83011261416957600080fd5b8151614179848260208601614098565b91505092915050565b600081359050614191816151b0565b92915050565b6000815190506141a6816151b0565b92915050565b6000813590506141bb816151c7565b92915050565b6000815190506141d0816151c7565b92915050565b6000602082840312156141e857600080fd5b60006141f684828501614104565b91505092915050565b60006020828403121561421157600080fd5b600061421f84828501614119565b91505092915050565b60008060006060848603121561423d57600080fd5b600061424b86828701614104565b935050602084013567ffffffffffffffff81111561426857600080fd5b6142748682870161412e565b925050604084013567ffffffffffffffff81111561429157600080fd5b61429d8682870161412e565b9150509250925092565b6000602082840312156142b957600080fd5b600082015167ffffffffffffffff8111156142d357600080fd5b6142df84828501614158565b91505092915050565b6000602082840312156142fa57600080fd5b600061430884828501614182565b91505092915050565b60006020828403121561432357600080fd5b600061433184828501614197565b91505092915050565b60006020828403121561434c57600080fd5b600061435a848285016141ac565b91505092915050565b60006020828403121561437557600080fd5b6000614383848285016141c1565b91505092915050565b600061439883836143a4565b60208301905092915050565b6143ad81615034565b82525050565b6143bc81615034565b82525050565b60006143cd82614e8c565b6143d78185614ed2565b93506143e283614e67565b8060005b838110156144135781516143fa888261438c565b975061440583614eb8565b9250506001810190506143e6565b5085935050505092915050565b600061442b82614e97565b6144358185614ed2565b935061444083614e77565b8060005b838110156144785761445582615168565b61445f888261438c565b975061446a83614ec5565b925050600181019050614444565b5085935050505092915050565b61448e81615046565b82525050565b600061449f82614ea2565b6144a98185614ee3565b93506144b981856020860161508e565b80840191505092915050565b6144ce8161507c565b82525050565b60006144df82614ead565b6144e98185614eee565b93506144f981856020860161508e565b6145028161517b565b840191505092915050565b600061451a601483614eee565b91507f5061757361626c653a206e6f74207061757365640000000000000000000000006000830152602082019050919050565b600061455a600b83614eee565b91507f21737472617465676973740000000000000000000000000000000000000000006000830152602082019050919050565b600061459a602683614eee565b91507f4f776e61626c653a206e6577206f776e657220697320746865207a65726f206160008301527f64647265737300000000000000000000000000000000000000000000000000006020830152604082019050919050565b6000614600600983614eee565b91507f21636f6e747261637400000000000000000000000000000000000000000000006000830152602082019050919050565b6000614640602383614eee565b91507f50726f706f7365642077616e7420696e20726f757465206973206e6f7420766160008301527f6c696400000000000000000000000000000000000000000000000000000000006020830152604082019050919050565b60006146a6602683614eee565b91507f416464726573733a20696e73756666696369656e742062616c616e636520666f60008301527f722063616c6c00000000000000000000000000000000000000000000000000006020830152604082019050919050565b600061470c601083614eee565b91507f5061757361626c653a20706175736564000000000000000000000000000000006000830152602082019050919050565b600061474c602183614eee565b91507f50726f706f73616c206e6f742076616c696420666f722074686973205661756c60008301527f74000000000000000000000000000000000000000000000000000000000000006020830152604082019050919050565b60006147b2602583614eee565b91507f50726f706f736564206f757470757420696e20726f757465206973206e6f742060008301527f76616c69640000000000000000000000000000000000000000000000000000006020830152604082019050919050565b6000614818600483614eee565b91507f21636170000000000000000000000000000000000000000000000000000000006000830152602082019050919050565b6000614858600683614eee565b91507f217661756c7400000000000000000000000000000000000000000000000000006000830152602082019050919050565b6000614898602083614eee565b91507f4f776e61626c653a2063616c6c6572206973206e6f7420746865206f776e65726000830152602082019050919050565b60006148d8601d83614eee565b91507f416464726573733a2063616c6c20746f206e6f6e2d636f6e74726163740000006000830152602082019050919050565b6000614918600883614eee565b91507f216d616e616765720000000000000000000000000000000000000000000000006000830152602082019050919050565b6000614958602a83614eee565b91507f5361666545524332303a204552433230206f7065726174696f6e20646964206e60008301527f6f742073756363656564000000000000000000000000000000000000000000006020830152604082019050919050565b60006149be600483614eee565b91507f21454f41000000000000000000000000000000000000000000000000000000006000830152602082019050919050565b60006149fe603683614eee565b91507f5361666545524332303a20617070726f76652066726f6d206e6f6e2d7a65726f60008301527f20746f206e6f6e2d7a65726f20616c6c6f77616e6365000000000000000000006020830152604082019050919050565b614a6081615072565b82525050565b6000614a728284614494565b915081905092915050565b6000602082019050614a9260008301846143b3565b92915050565b6000604082019050614aad60008301856143b3565b614aba60208301846143b3565b9392505050565b6000604082019050614ad660008301856143b3565b614ae36020830184614a57565b9392505050565b60006020820190508181036000830152614b0481846143c2565b905092915050565b6000602082019050614b216000830184614485565b92915050565b60006020820190508181036000830152614b4181846144d4565b905092915050565b60006020820190508181036000830152614b628161450d565b9050919050565b60006020820190508181036000830152614b828161454d565b9050919050565b60006020820190508181036000830152614ba28161458d565b9050919050565b60006020820190508181036000830152614bc2816145f3565b9050919050565b60006020820190508181036000830152614be281614633565b9050919050565b60006020820190508181036000830152614c0281614699565b9050919050565b60006020820190508181036000830152614c22816146ff565b9050919050565b60006020820190508181036000830152614c428161473f565b9050919050565b60006020820190508181036000830152614c62816147a5565b9050919050565b60006020820190508181036000830152614c828161480b565b9050919050565b60006020820190508181036000830152614ca28161484b565b9050919050565b60006020820190508181036000830152614cc28161488b565b9050919050565b60006020820190508181036000830152614ce2816148cb565b9050919050565b60006020820190508181036000830152614d028161490b565b9050919050565b60006020820190508181036000830152614d228161494b565b9050919050565b60006020820190508181036000830152614d42816149b1565b9050919050565b60006020820190508181036000830152614d62816149f1565b9050919050565b6000602082019050614d7e6000830184614a57565b92915050565b600060a082019050614d996000830188614a57565b614da660208301876144c5565b8181036040830152614db88186614420565b9050614dc760608301856143b3565b614dd46080830184614a57565b9695505050505050565b6000604051905081810181811067ffffffffffffffff82111715614e0557614e04615139565b5b8060405250919050565b600067ffffffffffffffff821115614e2a57614e29615139565b5b602082029050602081019050919050565b600067ffffffffffffffff821115614e5657614e55615139565b5b602082029050602081019050919050565b6000819050602082019050919050565b60008190508160005260206000209050919050565b600081519050919050565b600081549050919050565b600081519050919050565b600081519050919050565b6000602082019050919050565b6000600182019050919050565b600082825260208201905092915050565b600081905092915050565b600082825260208201905092915050565b6000614f0a82615072565b9150614f1583615072565b9250827fffffffffffffffffffffffffffffffffffffffffffffffffffffffffffffffff03821115614f4a57614f496150db565b5b828201905092915050565b6000614f6082615072565b9150614f6b83615072565b925082614f7b57614f7a61510a565b5b828204905092915050565b6000614f9182615072565b9150614f9c83615072565b9250817fffffffffffffffffffffffffffffffffffffffffffffffffffffffffffffffff0483118215151615614fd557614fd46150db565b5b828202905092915050565b6000614feb82615072565b9150614ff683615072565b925082821015615009576150086150db565b5b828203905092915050565b600073ffffffffffffffffffffffffffffffffffffffff82169050919050565b600061503f82615052565b9050919050565b60008115159050919050565b600073ffffffffffffffffffffffffffffffffffffffff82169050919050565b6000819050919050565b600061508782615072565b9050919050565b60005b838110156150ac578082015181840152602081019050615091565b838111156150bb576000848401525b50505050565b60006150d46150cf8361518c565b615014565b9050919050565b7f4e487b7100000000000000000000000000000000000000000000000000000000600052601160045260246000fd5b7f4e487b7100000000000000000000000000000000000000000000000000000000600052601260045260246000fd5b7f4e487b7100000000000000000000000000000000000000000000000000000000600052604160045260246000fd5b600061517482546150c1565b9050919050565b6000601f19601f8301169050919050565b60008160001c9050919050565b6151a281615034565b81146151ad57600080fd5b50565b6151b981615046565b81146151c457600080fd5b50565b6151d081615072565b81146151db57600080fd5b5056fea2646970667358221220144dbbdb94c1ea7174128562dae01beeb02cb3177ce1ad02118ebae8ddcf00b964736f6c63430008000033",
  "linkReferences": {},
  "deployedLinkReferences": {}
}