{
  "_format": "hh-sol-artifact-1",
  "contractName": "StrategyCommonRewardPoolLPV2",
  "sourceName": "contracts/quick/StrategyCommonRewardPoolLPV2.sol",
  "abi": [
    {
      "inputs": [
        {
          "internalType": "address",
          "name": "_want",
          "type": "address"
        },
        {
          "internalType": "address",
          "name": "_rewardPool",
          "type": "address"
        },
        {
          "internalType": "address",
          "name": "_vault",
          "type": "address"
        },
        {
          "internalType": "address",
          "name": "_unirouter",
          "type": "address"
        },
        {
          "internalType": "address",
          "name": "_keeper",
          "type": "address"
        },
        {
          "internalType": "address",
          "name": "_strategist",
          "type": "address"
        },
        {
          "internalType": "address",
          "name": "_beefyFeeRecipient",
          "type": "address"
        },
        {
          "internalType": "address[]",
          "name": "_outputToNativeRoute",
          "type": "address[]"
        },
        {
          "internalType": "address[]",
          "name": "_outputToLp0Route",
          "type": "address[]"
        },
        {
          "internalType": "address[]",
          "name": "_outputToLp1Route",
          "type": "address[]"
        }
      ],
      "stateMutability": "nonpayable",
      "type": "constructor"
    },
    {
      "anonymous": false,
      "inputs": [
        {
          "indexed": true,
          "internalType": "address",
          "name": "previousOwner",
          "type": "address"
        },
        {
          "indexed": true,
          "internalType": "address",
          "name": "newOwner",
          "type": "address"
        }
      ],
      "name": "OwnershipTransferred",
      "type": "event"
    },
    {
      "anonymous": false,
      "inputs": [
        {
          "indexed": false,
          "internalType": "address",
          "name": "account",
          "type": "address"
        }
      ],
      "name": "Paused",
      "type": "event"
    },
    {
      "anonymous": false,
      "inputs": [
        {
          "indexed": true,
          "internalType": "address",
          "name": "harvester",
          "type": "address"
        }
      ],
      "name": "StratHarvest",
      "type": "event"
    },
    {
      "anonymous": false,
      "inputs": [
        {
          "indexed": false,
          "internalType": "address",
          "name": "account",
          "type": "address"
        }
      ],
      "name": "Unpaused",
      "type": "event"
    },
    {
      "inputs": [],
      "name": "MAX_CALL_FEE",
      "outputs": [
        {
          "internalType": "uint256",
          "name": "",
          "type": "uint256"
        }
      ],
      "stateMutability": "view",
      "type": "function"
    },
    {
      "inputs": [],
      "name": "MAX_FEE",
      "outputs": [
        {
          "internalType": "uint256",
          "name": "",
          "type": "uint256"
        }
      ],
      "stateMutability": "view",
      "type": "function"
    },
    {
      "inputs": [],
      "name": "MAX_INT",
      "outputs": [
        {
          "internalType": "uint256",
          "name": "",
          "type": "uint256"
        }
      ],
      "stateMutability": "view",
      "type": "function"
    },
    {
      "inputs": [],
      "name": "STRATEGIST_FEE",
      "outputs": [
        {
          "internalType": "uint256",
          "name": "",
          "type": "uint256"
        }
      ],
      "stateMutability": "view",
      "type": "function"
    },
    {
      "inputs": [],
      "name": "WITHDRAWAL_FEE_CAP",
      "outputs": [
        {
          "internalType": "uint256",
          "name": "",
          "type": "uint256"
        }
      ],
      "stateMutability": "view",
      "type": "function"
    },
    {
      "inputs": [],
      "name": "WITHDRAWAL_MAX",
      "outputs": [
        {
          "internalType": "uint256",
          "name": "",
          "type": "uint256"
        }
      ],
      "stateMutability": "view",
      "type": "function"
    },
    {
      "inputs": [],
      "name": "balanceOf",
      "outputs": [
        {
          "internalType": "uint256",
          "name": "",
          "type": "uint256"
        }
      ],
      "stateMutability": "view",
      "type": "function"
    },
    {
      "inputs": [],
      "name": "balanceOfPool",
      "outputs": [
        {
          "internalType": "uint256",
          "name": "",
          "type": "uint256"
        }
      ],
      "stateMutability": "view",
      "type": "function"
    },
    {
      "inputs": [],
      "name": "balanceOfWant",
      "outputs": [
        {
          "internalType": "uint256",
          "name": "",
          "type": "uint256"
        }
      ],
      "stateMutability": "view",
      "type": "function"
    },
    {
      "inputs": [],
      "name": "beefyFee",
      "outputs": [
        {
          "internalType": "uint256",
          "name": "",
          "type": "uint256"
        }
      ],
      "stateMutability": "view",
      "type": "function"
    },
    {
      "inputs": [],
      "name": "beefyFeeRecipient",
      "outputs": [
        {
          "internalType": "address",
          "name": "",
          "type": "address"
        }
      ],
      "stateMutability": "view",
      "type": "function"
    },
    {
      "inputs": [],
      "name": "beforeDeposit",
      "outputs": [],
      "stateMutability": "nonpayable",
      "type": "function"
    },
    {
      "inputs": [],
      "name": "callFee",
      "outputs": [
        {
          "internalType": "uint256",
          "name": "",
          "type": "uint256"
        }
      ],
      "stateMutability": "view",
      "type": "function"
    },
    {
      "inputs": [],
      "name": "callReward",
      "outputs": [
        {
          "internalType": "uint256",
          "name": "",
          "type": "uint256"
        }
      ],
      "stateMutability": "view",
      "type": "function"
    },
    {
      "inputs": [],
      "name": "deposit",
      "outputs": [],
      "stateMutability": "nonpayable",
      "type": "function"
    },
    {
      "inputs": [],
      "name": "dragonsLair",
      "outputs": [
        {
          "internalType": "address",
          "name": "",
          "type": "address"
        }
      ],
      "stateMutability": "view",
      "type": "function"
    },
    {
      "inputs": [],
      "name": "harvest",
      "outputs": [],
      "stateMutability": "nonpayable",
      "type": "function"
    },
    {
      "inputs": [],
      "name": "harvestOnDeposit",
      "outputs": [
        {
          "internalType": "bool",
          "name": "",
          "type": "bool"
        }
      ],
      "stateMutability": "view",
      "type": "function"
    },
    {
      "inputs": [],
      "name": "keeper",
      "outputs": [
        {
          "internalType": "address",
          "name": "",
          "type": "address"
        }
      ],
      "stateMutability": "view",
      "type": "function"
    },
    {
      "inputs": [],
      "name": "lastHarvest",
      "outputs": [
        {
          "internalType": "uint256",
          "name": "",
          "type": "uint256"
        }
      ],
      "stateMutability": "view",
      "type": "function"
    },
    {
      "inputs": [],
      "name": "lpToken0",
      "outputs": [
        {
          "internalType": "address",
          "name": "",
          "type": "address"
        }
      ],
      "stateMutability": "view",
      "type": "function"
    },
    {
      "inputs": [],
      "name": "lpToken1",
      "outputs": [
        {
          "internalType": "address",
          "name": "",
          "type": "address"
        }
      ],
      "stateMutability": "view",
      "type": "function"
    },
    {
      "inputs": [],
      "name": "managerHarvest",
      "outputs": [],
      "stateMutability": "nonpayable",
      "type": "function"
    },
    {
      "inputs": [],
      "name": "native",
      "outputs": [
        {
          "internalType": "address",
          "name": "",
          "type": "address"
        }
      ],
      "stateMutability": "view",
      "type": "function"
    },
    {
      "inputs": [],
      "name": "output",
      "outputs": [
        {
          "internalType": "address",
          "name": "",
          "type": "address"
        }
      ],
      "stateMutability": "view",
      "type": "function"
    },
    {
      "inputs": [],
      "name": "outputToLp0",
      "outputs": [
        {
          "internalType": "address[]",
          "name": "",
          "type": "address[]"
        }
      ],
      "stateMutability": "view",
      "type": "function"
    },
    {
      "inputs": [
        {
          "internalType": "uint256",
          "name": "",
          "type": "uint256"
        }
      ],
      "name": "outputToLp0Route",
      "outputs": [
        {
          "internalType": "address",
          "name": "",
          "type": "address"
        }
      ],
      "stateMutability": "view",
      "type": "function"
    },
    {
      "inputs": [],
      "name": "outputToLp1",
      "outputs": [
        {
          "internalType": "address[]",
          "name": "",
          "type": "address[]"
        }
      ],
      "stateMutability": "view",
      "type": "function"
    },
    {
      "inputs": [
        {
          "internalType": "uint256",
          "name": "",
          "type": "uint256"
        }
      ],
      "name": "outputToLp1Route",
      "outputs": [
        {
          "internalType": "address",
          "name": "",
          "type": "address"
        }
      ],
      "stateMutability": "view",
      "type": "function"
    },
    {
      "inputs": [],
      "name": "outputToNative",
      "outputs": [
        {
          "internalType": "address[]",
          "name": "",
          "type": "address[]"
        }
      ],
      "stateMutability": "view",
      "type": "function"
    },
    {
      "inputs": [
        {
          "internalType": "uint256",
          "name": "",
          "type": "uint256"
        }
      ],
      "name": "outputToNativeRoute",
      "outputs": [
        {
          "internalType": "address",
          "name": "",
          "type": "address"
        }
      ],
      "stateMutability": "view",
      "type": "function"
    },
    {
      "inputs": [],
      "name": "owner",
      "outputs": [
        {
          "internalType": "address",
          "name": "",
          "type": "address"
        }
      ],
      "stateMutability": "view",
      "type": "function"
    },
    {
      "inputs": [],
      "name": "panic",
      "outputs": [],
      "stateMutability": "nonpayable",
      "type": "function"
    },
    {
      "inputs": [],
      "name": "pause",
      "outputs": [],
      "stateMutability": "nonpayable",
      "type": "function"
    },
    {
      "inputs": [],
      "name": "paused",
      "outputs": [
        {
          "internalType": "bool",
          "name": "",
          "type": "bool"
        }
      ],
      "stateMutability": "view",
      "type": "function"
    },
    {
      "inputs": [],
      "name": "renounceOwnership",
      "outputs": [],
      "stateMutability": "nonpayable",
      "type": "function"
    },
    {
      "inputs": [],
      "name": "retireStrat",
      "outputs": [],
      "stateMutability": "nonpayable",
      "type": "function"
    },
    {
      "inputs": [],
      "name": "rewardPool",
      "outputs": [
        {
          "internalType": "address",
          "name": "",
          "type": "address"
        }
      ],
      "stateMutability": "view",
      "type": "function"
    },
    {
      "inputs": [],
      "name": "rewardsAvailable",
      "outputs": [
        {
          "internalType": "uint256",
          "name": "",
          "type": "uint256"
        }
      ],
      "stateMutability": "view",
      "type": "function"
    },
    {
      "inputs": [
        {
          "internalType": "address",
          "name": "_beefyFeeRecipient",
          "type": "address"
        }
      ],
      "name": "setBeefyFeeRecipient",
      "outputs": [],
      "stateMutability": "nonpayable",
      "type": "function"
    },
    {
      "inputs": [
        {
          "internalType": "uint256",
          "name": "_fee",
          "type": "uint256"
        }
      ],
      "name": "setCallFee",
      "outputs": [],
      "stateMutability": "nonpayable",
      "type": "function"
    },
    {
      "inputs": [
        {
          "internalType": "bool",
          "name": "_harvestOnDeposit",
          "type": "bool"
        }
      ],
      "name": "setHarvestOnDeposit",
      "outputs": [],
      "stateMutability": "nonpayable",
      "type": "function"
    },
    {
      "inputs": [
        {
          "internalType": "address",
          "name": "_keeper",
          "type": "address"
        }
      ],
      "name": "setKeeper",
      "outputs": [],
      "stateMutability": "nonpayable",
      "type": "function"
    },
    {
      "inputs": [
        {
          "internalType": "address",
          "name": "_strategist",
          "type": "address"
        }
      ],
      "name": "setStrategist",
      "outputs": [],
      "stateMutability": "nonpayable",
      "type": "function"
    },
    {
      "inputs": [
        {
          "internalType": "address",
          "name": "_unirouter",
          "type": "address"
        }
      ],
      "name": "setUnirouter",
      "outputs": [],
      "stateMutability": "nonpayable",
      "type": "function"
    },
    {
      "inputs": [
        {
          "internalType": "address",
          "name": "_vault",
          "type": "address"
        }
      ],
      "name": "setVault",
      "outputs": [],
      "stateMutability": "nonpayable",
      "type": "function"
    },
    {
      "inputs": [
        {
          "internalType": "uint256",
          "name": "_fee",
          "type": "uint256"
        }
      ],
      "name": "setWithdrawalFee",
      "outputs": [],
      "stateMutability": "nonpayable",
      "type": "function"
    },
    {
      "inputs": [],
      "name": "strategist",
      "outputs": [
        {
          "internalType": "address",
          "name": "",
          "type": "address"
        }
      ],
      "stateMutability": "view",
      "type": "function"
    },
    {
      "inputs": [
        {
          "internalType": "address",
          "name": "newOwner",
          "type": "address"
        }
      ],
      "name": "transferOwnership",
      "outputs": [],
      "stateMutability": "nonpayable",
      "type": "function"
    },
    {
      "inputs": [],
      "name": "unirouter",
      "outputs": [
        {
          "internalType": "address",
          "name": "",
          "type": "address"
        }
      ],
      "stateMutability": "view",
      "type": "function"
    },
    {
      "inputs": [],
      "name": "unpause",
      "outputs": [],
      "stateMutability": "nonpayable",
      "type": "function"
    },
    {
      "inputs": [],
      "name": "vault",
      "outputs": [
        {
          "internalType": "address",
          "name": "",
          "type": "address"
        }
      ],
      "stateMutability": "view",
      "type": "function"
    },
    {
      "inputs": [],
      "name": "want",
      "outputs": [
        {
          "internalType": "address",
          "name": "",
          "type": "address"
        }
      ],
      "stateMutability": "view",
      "type": "function"
    },
    {
      "inputs": [
        {
          "internalType": "uint256",
          "name": "_amount",
          "type": "uint256"
        }
      ],
      "name": "withdraw",
      "outputs": [],
      "stateMutability": "nonpayable",
      "type": "function"
    },
    {
      "inputs": [],
      "name": "withdrawalFee",
      "outputs": [
        {
          "internalType": "uint256",
          "name": "",
          "type": "uint256"
        }
      ],
      "stateMutability": "view",
      "type": "function"
    }
  ],
  "bytecode": "0x6080604052600a600655600b60075560075460706103e8620000229190620013bc565b6200002e9190620013bc565b6008557fffffffffffffffffffffffffffffffffffffffffffffffffffffffffffffffff6009553480156200006257600080fd5b506040516200640c3803806200640c833981810160405281019062000088919062000f4a565b8585888a87620000ad620000a1620005da60201b60201c565b620005e260201b60201c565b60008060146101000a81548160ff02191690831515021790555084600160006101000a81548173ffffffffffffffffffffffffffffffffffffffff021916908373ffffffffffffffffffffffffffffffffffffffff16021790555083600260006101000a81548173ffffffffffffffffffffffffffffffffffffffff021916908373ffffffffffffffffffffffffffffffffffffffff16021790555082600360006101000a81548173ffffffffffffffffffffffffffffffffffffffff021916908373ffffffffffffffffffffffffffffffffffffffff16021790555081600460006101000a81548173ffffffffffffffffffffffffffffffffffffffff021916908373ffffffffffffffffffffffffffffffffffffffff16021790555080600560006101000a81548173ffffffffffffffffffffffffffffffffffffffff021916908373ffffffffffffffffffffffffffffffffffffffff160217905550505050505089600c60006101000a81548173ffffffffffffffffffffffffffffffffffffffff021916908373ffffffffffffffffffffffffffffffffffffffff16021790555088600f60006101000a81548173ffffffffffffffffffffffffffffffffffffffff021916908373ffffffffffffffffffffffffffffffffffffffff16021790555082600081518110620002ce577f4e487b7100000000000000000000000000000000000000000000000000000000600052603260045260246000fd5b6020026020010151600b60006101000a81548173ffffffffffffffffffffffffffffffffffffffff021916908373ffffffffffffffffffffffffffffffffffffffff1602179055508260018451620003279190620013bc565b815181106200035f577f4e487b7100000000000000000000000000000000000000000000000000000000600052603260045260246000fd5b6020026020010151600a60006101000a81548173ffffffffffffffffffffffffffffffffffffffff021916908373ffffffffffffffffffffffffffffffffffffffff1602179055508260109080519060200190620003bf92919062000d89565b50600c60009054906101000a900473ffffffffffffffffffffffffffffffffffffffff1673ffffffffffffffffffffffffffffffffffffffff16630dfe16816040518163ffffffff1660e01b815260040160206040518083038186803b1580156200042957600080fd5b505afa1580156200043e573d6000803e3d6000fd5b505050506040513d601f19601f8201168201806040525081019062000464919062000f1e565b600d60006101000a81548173ffffffffffffffffffffffffffffffffffffffff021916908373ffffffffffffffffffffffffffffffffffffffff1602179055508160119080519060200190620004bc92919062000d89565b50600c60009054906101000a900473ffffffffffffffffffffffffffffffffffffffff1673ffffffffffffffffffffffffffffffffffffffff1663d21220a76040518163ffffffff1660e01b815260040160206040518083038186803b1580156200052657600080fd5b505afa1580156200053b573d6000803e3d6000fd5b505050506040513d601f19601f8201168201806040525081019062000561919062000f1e565b600e60006101000a81548173ffffffffffffffffffffffffffffffffffffffff021916908373ffffffffffffffffffffffffffffffffffffffff1602179055508060129080519060200190620005b992919062000d89565b50620005ca620006a660201b60201c565b5050505050505050505062001680565b600033905090565b60008060009054906101000a900473ffffffffffffffffffffffffffffffffffffffff169050816000806101000a81548173ffffffffffffffffffffffffffffffffffffffff021916908373ffffffffffffffffffffffffffffffffffffffff1602179055508173ffffffffffffffffffffffffffffffffffffffff168173ffffffffffffffffffffffffffffffffffffffff167f8be0079c531659141344cd1fd0a4f28419497f9722a3daafe3b4186f6b6457e060405160405180910390a35050565b6200071e600f60009054906101000a900473ffffffffffffffffffffffffffffffffffffffff16600954600c60009054906101000a900473ffffffffffffffffffffffffffffffffffffffff1673ffffffffffffffffffffffffffffffffffffffff166200097660201b6200261a179092919060201c565b62000796600360009054906101000a900473ffffffffffffffffffffffffffffffffffffffff16600954600b60009054906101000a900473ffffffffffffffffffffffffffffffffffffffff1673ffffffffffffffffffffffffffffffffffffffff166200097660201b6200261a179092919060201c565b6200080d600360009054906101000a900473ffffffffffffffffffffffffffffffffffffffff166000600d60009054906101000a900473ffffffffffffffffffffffffffffffffffffffff1673ffffffffffffffffffffffffffffffffffffffff166200097660201b6200261a179092919060201c565b62000885600360009054906101000a900473ffffffffffffffffffffffffffffffffffffffff16600954600d60009054906101000a900473ffffffffffffffffffffffffffffffffffffffff1673ffffffffffffffffffffffffffffffffffffffff166200097660201b6200261a179092919060201c565b620008fc600360009054906101000a900473ffffffffffffffffffffffffffffffffffffffff166000600e60009054906101000a900473ffffffffffffffffffffffffffffffffffffffff1673ffffffffffffffffffffffffffffffffffffffff166200097660201b6200261a179092919060201c565b62000974600360009054906101000a900473ffffffffffffffffffffffffffffffffffffffff16600954600e60009054906101000a900473ffffffffffffffffffffffffffffffffffffffff1673ffffffffffffffffffffffffffffffffffffffff166200097660201b6200261a179092919060201c565b565b600081148062000a16575060008373ffffffffffffffffffffffffffffffffffffffff1663dd62ed3e30856040518363ffffffff1660e01b8152600401620009c09291906200122c565b60206040518083038186803b158015620009d957600080fd5b505afa158015620009ee573d6000803e3d6000fd5b505050506040513d601f19601f8201168201806040525081019062000a149190620010b1565b145b62000a58576040517f08c379a000000000000000000000000000000000000000000000000000000000815260040162000a4f9062001310565b60405180910390fd5b62000ae38363095ea7b360e01b848460405160240162000a7a92919062001259565b604051602081830303815290604052907bffffffffffffffffffffffffffffffffffffffffffffffffffffffff19166020820180517bffffffffffffffffffffffffffffffffffffffffffffffffffffffff838183161783525050505062000ae860201b60201c565b505050565b600062000b51826040518060400160405280602081526020017f5361666545524332303a206c6f772d6c6576656c2063616c6c206661696c65648152508573ffffffffffffffffffffffffffffffffffffffff1662000bbc60201b62002778179092919060201c565b905060008151111562000bb7578080602001905181019062000b74919062001085565b62000bb6576040517f08c379a000000000000000000000000000000000000000000000000000000000815260040162000bad90620012ee565b60405180910390fd5b5b505050565b606062000bd3848460008562000bdc60201b60201c565b90509392505050565b60608247101562000c24576040517f08c379a000000000000000000000000000000000000000000000000000000000815260040162000c1b90620012aa565b60405180910390fd5b62000c358562000d0a60201b60201c565b62000c77576040517f08c379a000000000000000000000000000000000000000000000000000000000815260040162000c6e90620012cc565b60405180910390fd5b6000808673ffffffffffffffffffffffffffffffffffffffff16858760405162000ca2919062001213565b60006040518083038185875af1925050503d806000811462000ce1576040519150601f19603f3d011682016040523d82523d6000602084013e62000ce6565b606091505b509150915062000cfe82828662000d1d60201b60201c565b92505050949350505050565b600080823b905060008111915050919050565b6060831562000d2f5782905062000d82565b60008351111562000d435782518084602001fd5b816040517f08c379a000000000000000000000000000000000000000000000000000000000815260040162000d79919062001286565b60405180910390fd5b9392505050565b82805482825590600052602060002090810192821562000e05579160200282015b8281111562000e045782518260006101000a81548173ffffffffffffffffffffffffffffffffffffffff021916908373ffffffffffffffffffffffffffffffffffffffff1602179055509160200191906001019062000daa565b5b50905062000e14919062000e18565b5090565b5b8082111562000e3357600081600090555060010162000e19565b5090565b600062000e4e62000e48846200135b565b62001332565b9050808382526020820190508285602086028201111562000e6e57600080fd5b60005b8581101562000ea2578162000e87888262000eac565b84526020840193506020830192505060018101905062000e71565b5050509392505050565b60008151905062000ebd8162001632565b92915050565b600082601f83011262000ed557600080fd5b815162000ee784826020860162000e37565b91505092915050565b60008151905062000f01816200164c565b92915050565b60008151905062000f188162001666565b92915050565b60006020828403121562000f3157600080fd5b600062000f418482850162000eac565b91505092915050565b6000806000806000806000806000806101408b8d03121562000f6b57600080fd5b600062000f7b8d828e0162000eac565b9a5050602062000f8e8d828e0162000eac565b995050604062000fa18d828e0162000eac565b985050606062000fb48d828e0162000eac565b975050608062000fc78d828e0162000eac565b96505060a062000fda8d828e0162000eac565b95505060c062000fed8d828e0162000eac565b94505060e08b015167ffffffffffffffff8111156200100b57600080fd5b620010198d828e0162000ec3565b9350506101008b015167ffffffffffffffff8111156200103857600080fd5b620010468d828e0162000ec3565b9250506101208b015167ffffffffffffffff8111156200106557600080fd5b620010738d828e0162000ec3565b9150509295989b9194979a5092959850565b6000602082840312156200109857600080fd5b6000620010a88482850162000ef0565b91505092915050565b600060208284031215620010c457600080fd5b6000620010d48482850162000f07565b91505092915050565b620010e881620013f7565b82525050565b6000620010fb826200138a565b620011078185620013a0565b93506200111981856020860162001441565b80840191505092915050565b6000620011328262001395565b6200113e8185620013ab565b93506200115081856020860162001441565b6200115b816200150b565b840191505092915050565b600062001175602683620013ab565b915062001182826200151c565b604082019050919050565b60006200119c601d83620013ab565b9150620011a9826200156b565b602082019050919050565b6000620011c3602a83620013ab565b9150620011d08262001594565b604082019050919050565b6000620011ea603683620013ab565b9150620011f782620015e3565b604082019050919050565b6200120d8162001437565b82525050565b6000620012218284620010ee565b915081905092915050565b6000604082019050620012436000830185620010dd565b620012526020830184620010dd565b9392505050565b6000604082019050620012706000830185620010dd565b6200127f602083018462001202565b9392505050565b60006020820190508181036000830152620012a2818462001125565b905092915050565b60006020820190508181036000830152620012c58162001166565b9050919050565b60006020820190508181036000830152620012e7816200118d565b9050919050565b600060208201905081810360008301526200130981620011b4565b9050919050565b600060208201905081810360008301526200132b81620011db565b9050919050565b60006200133e62001351565b90506200134c828262001477565b919050565b6000604051905090565b600067ffffffffffffffff821115620013795762001378620014dc565b5b602082029050602081019050919050565b600081519050919050565b600081519050919050565b600081905092915050565b600082825260208201905092915050565b6000620013c98262001437565b9150620013d68362001437565b925082821015620013ec57620013eb620014ad565b5b828203905092915050565b6000620014048262001417565b9050919050565b60008115159050919050565b600073ffffffffffffffffffffffffffffffffffffffff82169050919050565b6000819050919050565b60005b838110156200146157808201518184015260208101905062001444565b8381111562001471576000848401525b50505050565b62001482826200150b565b810181811067ffffffffffffffff82111715620014a457620014a3620014dc565b5b80604052505050565b7f4e487b7100000000000000000000000000000000000000000000000000000000600052601160045260246000fd5b7f4e487b7100000000000000000000000000000000000000000000000000000000600052604160045260246000fd5b6000601f19601f8301169050919050565b7f416464726573733a20696e73756666696369656e742062616c616e636520666f60008201527f722063616c6c0000000000000000000000000000000000000000000000000000602082015250565b7f416464726573733a2063616c6c20746f206e6f6e2d636f6e7472616374000000600082015250565b7f5361666545524332303a204552433230206f7065726174696f6e20646964206e60008201527f6f74207375636365656400000000000000000000000000000000000000000000602082015250565b7f5361666545524332303a20617070726f76652066726f6d206e6f6e2d7a65726f60008201527f20746f206e6f6e2d7a65726f20616c6c6f77616e636500000000000000000000602082015250565b6200163d81620013f7565b81146200164957600080fd5b50565b62001657816200140b565b81146200166357600080fd5b50565b620016718162001437565b81146200167d57600080fd5b50565b614d7c80620016906000396000f3fe608060405234801561001057600080fd5b506004361061035d5760003560e01c80638456cb59116101d3578063c1a3d44c11610104578063e7a7250a116100a2578063f2fde38b1161007c578063f2fde38b146108ce578063fb617787146108ea578063fbfa77cf146108f4578063fd63a887146109125761035d565b8063e7a7250a14610874578063f1a392da14610892578063f20eaeb8146108b05761035d565b8063d3102589116100de578063d310258914610812578063d801d94614610830578063d92f3d731461083a578063dfbdc437146108565761035d565b8063c1a3d44c146107ce578063c7b9d530146107ec578063d0e30db0146108085761035d565b806397fd323d11610171578063ac1e50251161014b578063ac1e502514610746578063aced166114610762578063bc063e1a14610780578063be12a9781461079e5761035d565b806397fd323d146106ee578063989ef4e31461070c578063a68833e51461072a5761035d565b80638bc7e8c4116101ad5780638bc7e8c4146106765780638da5cb5b146106945780638e145459146106b257806390321e1a146106d05761035d565b80638456cb5914610630578063877562b61461063a5780638912cb8b146106585761035d565b80633f4ba83a116102ad5780636013d5bf1161024b578063715018a611610225578063715018a6146105ce578063722713f7146105d8578063748747e6146105f65780637d38ca65146106125761035d565b80636013d5bf1461057657806366666aa9146105945780636817031b146105b25761035d565b806354518b1a1161028757806354518b1a14610512578063573fef0a146105305780635c975abb1461053a5780635ee167c0146105585761035d565b80633f4ba83a146104f45780634641257d146104fe5780634700d305146105085761035d565b80631f1fcd511161031a57806326465826116102f4578063264658261461046e5780632ad5a53f1461048a5780632e1a7d4d146104a857806336c6cf21146104c45761035d565b80631f1fcd51146104145780631fe4a68614610432578063257ae0de146104505761035d565b80630587f78514610362578063098d3228146103805780630e8fbb5a1461039e57806311588086146103ba57806311b0b42d146103d857806313e120b1146103f6575b600080fd5b61036a610942565b6040516103779190614433565b60405180910390f35b6103886109d0565b6040516103959190614612565b60405180910390f35b6103b860048036038101906103b39190613efb565b6109d6565b005b6103c2610af6565b6040516103cf9190614612565b60405180910390f35b6103e0610ba8565b6040516103ed9190614348565b60405180910390f35b6103fe610bce565b60405161040b9190614433565b60405180910390f35b61041c610c5c565b6040516104299190614348565b60405180910390f35b61043a610c82565b6040516104479190614348565b60405180910390f35b610458610ca8565b6040516104659190614348565b60405180910390f35b61048860048036038101906104839190613f4d565b610cce565b005b610492610e0b565b60405161049f9190614612565b60405180910390f35b6104c260048036038101906104bd9190613f4d565b610e10565b005b6104de60048036038101906104d99190613f4d565b6110dc565b6040516104eb9190614348565b60405180910390f35b6104fc61111b565b005b610506611202565b005b610510611254565b005b61051a6113bf565b6040516105279190614612565b60405180910390f35b6105386113c5565b005b610542611475565b60405161054f9190614455565b60405180910390f35b61056061148b565b60405161056d9190614348565b60405180910390f35b61057e6114b1565b60405161058b9190614348565b60405180910390f35b61059c6114c9565b6040516105a99190614348565b60405180910390f35b6105cc60048036038101906105c79190613e91565b6114ef565b005b6105d66115af565b005b6105e0611637565b6040516105ed9190614612565b60405180910390f35b610610600480360381019061060b9190613e91565b61165f565b005b61061a611770565b6040516106279190614612565b60405180910390f35b610638611775565b005b610642611854565b60405161064f9190614348565b60405180910390f35b61066061187a565b60405161066d9190614455565b60405180910390f35b61067e61188d565b60405161068b9190614612565b60405180910390f35b61069c611893565b6040516106a99190614348565b60405180910390f35b6106ba6118bc565b6040516106c79190614348565b60405180910390f35b6106d86118e2565b6040516106e59190614612565b60405180910390f35b6106f66118e8565b6040516107039190614612565b60405180910390f35b610714611a50565b6040516107219190614433565b60405180910390f35b610744600480360381019061073f9190613e91565b611ade565b005b610760600480360381019061075b9190613f4d565b611b9e565b005b61076a611cb9565b6040516107779190614348565b60405180910390f35b610788611cdf565b6040516107959190614612565b60405180910390f35b6107b860048036038101906107b39190613f4d565b611ce5565b6040516107c59190614348565b60405180910390f35b6107d6611d24565b6040516107e39190614612565b60405180910390f35b61080660048036038101906108019190613e91565b611dd6565b005b610810611eaa565b005b61081a611f98565b6040516108279190614612565b60405180910390f35b610838611f9e565b005b610854600480360381019061084f9190613e91565b612075565b005b61085e612135565b60405161086b9190614612565b60405180910390f35b61087c61213a565b6040516108899190614612565b60405180910390f35b61089a61228c565b6040516108a79190614612565b60405180910390f35b6108b8612292565b6040516108c59190614348565b60405180910390f35b6108e860048036038101906108e39190613e91565b6122b8565b005b6108f26123b0565b005b6108fc6125b5565b6040516109099190614348565b60405180910390f35b61092c60048036038101906109279190613f4d565b6125db565b6040516109399190614348565b60405180910390f35b606060128054806020026020016040519081016040528092919081815260200182805480156109c657602002820191906000526020600020905b8160009054906101000a900473ffffffffffffffffffffffffffffffffffffffff1673ffffffffffffffffffffffffffffffffffffffff168152602001906001019080831161097c575b5050505050905090565b60095481565b6109de611893565b73ffffffffffffffffffffffffffffffffffffffff163373ffffffffffffffffffffffffffffffffffffffff161480610a645750600160009054906101000a900473ffffffffffffffffffffffffffffffffffffffff1673ffffffffffffffffffffffffffffffffffffffff163373ffffffffffffffffffffffffffffffffffffffff16145b610aa3576040517f08c379a0000000000000000000000000000000000000000000000000000000008152600401610a9a906145b2565b60405180910390fd5b80601360006101000a81548160ff02191690831515021790555060011515601360009054906101000a900460ff1615151415610ae857610ae36000611b9e565b610af3565b610af2600a611b9e565b5b50565b6000600f60009054906101000a900473ffffffffffffffffffffffffffffffffffffffff1673ffffffffffffffffffffffffffffffffffffffff166370a08231306040518263ffffffff1660e01b8152600401610b539190614348565b60206040518083038186803b158015610b6b57600080fd5b505afa158015610b7f573d6000803e3d6000fd5b505050506040513d601f19601f82011682018060405250810190610ba39190613f76565b905090565b600a60009054906101000a900473ffffffffffffffffffffffffffffffffffffffff1681565b60606010805480602002602001604051908101604052809291908181526020018280548015610c5257602002820191906000526020600020905b8160009054906101000a900473ffffffffffffffffffffffffffffffffffffffff1673ffffffffffffffffffffffffffffffffffffffff1681526020019060010190808311610c08575b5050505050905090565b600c60009054906101000a900473ffffffffffffffffffffffffffffffffffffffff1681565b600260009054906101000a900473ffffffffffffffffffffffffffffffffffffffff1681565b600360009054906101000a900473ffffffffffffffffffffffffffffffffffffffff1681565b610cd6611893565b73ffffffffffffffffffffffffffffffffffffffff163373ffffffffffffffffffffffffffffffffffffffff161480610d5c5750600160009054906101000a900473ffffffffffffffffffffffffffffffffffffffff1673ffffffffffffffffffffffffffffffffffffffff163373ffffffffffffffffffffffffffffffffffffffff16145b610d9b576040517f08c379a0000000000000000000000000000000000000000000000000000000008152600401610d92906145b2565b60405180910390fd5b606f811115610ddf576040517f08c379a0000000000000000000000000000000000000000000000000000000008152600401610dd690614532565b60405180910390fd5b8060078190555060075460706103e8610df89190614881565b610e029190614881565b60088190555050565b606f81565b600460009054906101000a900473ffffffffffffffffffffffffffffffffffffffff1673ffffffffffffffffffffffffffffffffffffffff163373ffffffffffffffffffffffffffffffffffffffff1614610ea0576040517f08c379a0000000000000000000000000000000000000000000000000000000008152600401610e9790614552565b60405180910390fd5b6000610eaa611d24565b905081811015610f5e57600f60009054906101000a900473ffffffffffffffffffffffffffffffffffffffff1673ffffffffffffffffffffffffffffffffffffffff16632e1a7d4d610f05838561279090919063ffffffff16565b6040518263ffffffff1660e01b8152600401610f219190614612565b600060405180830381600087803b158015610f3b57600080fd5b505af1158015610f4f573d6000803e3d6000fd5b50505050610f5b611d24565b90505b81811115610f6a578190505b610f72611893565b73ffffffffffffffffffffffffffffffffffffffff163273ffffffffffffffffffffffffffffffffffffffff161480610faf5750610fae611475565b5b1561102857611023600460009054906101000a900473ffffffffffffffffffffffffffffffffffffffff1682600c60009054906101000a900473ffffffffffffffffffffffffffffffffffffffff1673ffffffffffffffffffffffffffffffffffffffff166127a69092919063ffffffff16565b6110d8565b60006110536127106110456006548561282c90919063ffffffff16565b61284290919063ffffffff16565b90506110d6600460009054906101000a900473ffffffffffffffffffffffffffffffffffffffff1661108e838561279090919063ffffffff16565b600c60009054906101000a900473ffffffffffffffffffffffffffffffffffffffff1673ffffffffffffffffffffffffffffffffffffffff166127a69092919063ffffffff16565b505b5050565b601181815481106110ec57600080fd5b906000526020600020016000915054906101000a900473ffffffffffffffffffffffffffffffffffffffff1681565b611123611893565b73ffffffffffffffffffffffffffffffffffffffff163373ffffffffffffffffffffffffffffffffffffffff1614806111a95750600160009054906101000a900473ffffffffffffffffffffffffffffffffffffffff1673ffffffffffffffffffffffffffffffffffffffff163373ffffffffffffffffffffffffffffffffffffffff16145b6111e8576040517f08c379a00000000000000000000000000000000000000000000000000000000081526004016111df906145b2565b60405180910390fd5b6111f0612858565b6111f86128f9565b611200611eaa565b565b61120a611475565b1561124a576040517f08c379a000000000000000000000000000000000000000000000000000000000815260040161124190614512565b60405180910390fd5b611252612b9f565b565b61125c611893565b73ffffffffffffffffffffffffffffffffffffffff163373ffffffffffffffffffffffffffffffffffffffff1614806112e25750600160009054906101000a900473ffffffffffffffffffffffffffffffffffffffff1673ffffffffffffffffffffffffffffffffffffffff163373ffffffffffffffffffffffffffffffffffffffff16145b611321576040517f08c379a0000000000000000000000000000000000000000000000000000000008152600401611318906145b2565b60405180910390fd5b611329611775565b600f60009054906101000a900473ffffffffffffffffffffffffffffffffffffffff1673ffffffffffffffffffffffffffffffffffffffff16632e1a7d4d61136f610af6565b6040518263ffffffff1660e01b815260040161138b9190614612565b600060405180830381600087803b1580156113a557600080fd5b505af11580156113b9573d6000803e3d6000fd5b50505050565b61271081565b601360009054906101000a900460ff161561147357600460009054906101000a900473ffffffffffffffffffffffffffffffffffffffff1673ffffffffffffffffffffffffffffffffffffffff163373ffffffffffffffffffffffffffffffffffffffff161461146a576040517f08c379a000000000000000000000000000000000000000000000000000000000815260040161146190614552565b60405180910390fd5b611472612b9f565b5b565b60008060149054906101000a900460ff16905090565b600d60009054906101000a900473ffffffffffffffffffffffffffffffffffffffff1681565b73f28164a485b0b2c90639e47b0f377b4a438a16b181565b600f60009054906101000a900473ffffffffffffffffffffffffffffffffffffffff1681565b6114f7612cc5565b73ffffffffffffffffffffffffffffffffffffffff16611515611893565b73ffffffffffffffffffffffffffffffffffffffff161461156b576040517f08c379a000000000000000000000000000000000000000000000000000000000815260040161156290614572565b60405180910390fd5b80600460006101000a81548173ffffffffffffffffffffffffffffffffffffffff021916908373ffffffffffffffffffffffffffffffffffffffff16021790555050565b6115b7612cc5565b73ffffffffffffffffffffffffffffffffffffffff166115d5611893565b73ffffffffffffffffffffffffffffffffffffffff161461162b576040517f08c379a000000000000000000000000000000000000000000000000000000000815260040161162290614572565b60405180910390fd5b6116356000612ccd565b565b600061165a611644610af6565b61164c611d24565b612d9190919063ffffffff16565b905090565b611667611893565b73ffffffffffffffffffffffffffffffffffffffff163373ffffffffffffffffffffffffffffffffffffffff1614806116ed5750600160009054906101000a900473ffffffffffffffffffffffffffffffffffffffff1673ffffffffffffffffffffffffffffffffffffffff163373ffffffffffffffffffffffffffffffffffffffff16145b61172c576040517f08c379a0000000000000000000000000000000000000000000000000000000008152600401611723906145b2565b60405180910390fd5b80600160006101000a81548173ffffffffffffffffffffffffffffffffffffffff021916908373ffffffffffffffffffffffffffffffffffffffff16021790555050565b607081565b61177d611893565b73ffffffffffffffffffffffffffffffffffffffff163373ffffffffffffffffffffffffffffffffffffffff1614806118035750600160009054906101000a900473ffffffffffffffffffffffffffffffffffffffff1673ffffffffffffffffffffffffffffffffffffffff163373ffffffffffffffffffffffffffffffffffffffff16145b611842576040517f08c379a0000000000000000000000000000000000000000000000000000000008152600401611839906145b2565b60405180910390fd5b61184a612da7565b611852612e4a565b565b600e60009054906101000a900473ffffffffffffffffffffffffffffffffffffffff1681565b601360009054906101000a900460ff1681565b60065481565b60008060009054906101000a900473ffffffffffffffffffffffffffffffffffffffff16905090565b600560009054906101000a900473ffffffffffffffffffffffffffffffffffffffff1681565b60075481565b6000806118f361213a565b90506000600360009054906101000a900473ffffffffffffffffffffffffffffffffffffffff1673ffffffffffffffffffffffffffffffffffffffff1663d06ca61f8360106040518363ffffffff1660e01b815260040161195592919061462d565b60006040518083038186803b15801561196d57600080fd5b505afa158015611981573d6000803e3d6000fd5b505050506040513d6000823e3d601f19601f820116820180604052508101906119aa9190613eba565b9050611a496103e8611a3b600754611a2d6103e8611a1f602d8860018a516119d29190614881565b81518110611a09577f4e487b7100000000000000000000000000000000000000000000000000000000600052603260045260246000fd5b602002602001015161282c90919063ffffffff16565b61284290919063ffffffff16565b61282c90919063ffffffff16565b61284290919063ffffffff16565b9250505090565b60606011805480602002602001604051908101604052809291908181526020018280548015611ad457602002820191906000526020600020905b8160009054906101000a900473ffffffffffffffffffffffffffffffffffffffff1673ffffffffffffffffffffffffffffffffffffffff1681526020019060010190808311611a8a575b5050505050905090565b611ae6612cc5565b73ffffffffffffffffffffffffffffffffffffffff16611b04611893565b73ffffffffffffffffffffffffffffffffffffffff1614611b5a576040517f08c379a0000000000000000000000000000000000000000000000000000000008152600401611b5190614572565b60405180910390fd5b80600560006101000a81548173ffffffffffffffffffffffffffffffffffffffff021916908373ffffffffffffffffffffffffffffffffffffffff16021790555050565b611ba6611893565b73ffffffffffffffffffffffffffffffffffffffff163373ffffffffffffffffffffffffffffffffffffffff161480611c2c5750600160009054906101000a900473ffffffffffffffffffffffffffffffffffffffff1673ffffffffffffffffffffffffffffffffffffffff163373ffffffffffffffffffffffffffffffffffffffff16145b611c6b576040517f08c379a0000000000000000000000000000000000000000000000000000000008152600401611c62906145b2565b60405180910390fd5b6032811115611caf576040517f08c379a0000000000000000000000000000000000000000000000000000000008152600401611ca690614532565b60405180910390fd5b8060068190555050565b600160009054906101000a900473ffffffffffffffffffffffffffffffffffffffff1681565b6103e881565b60108181548110611cf557600080fd5b906000526020600020016000915054906101000a900473ffffffffffffffffffffffffffffffffffffffff1681565b6000600c60009054906101000a900473ffffffffffffffffffffffffffffffffffffffff1673ffffffffffffffffffffffffffffffffffffffff166370a08231306040518263ffffffff1660e01b8152600401611d819190614348565b60206040518083038186803b158015611d9957600080fd5b505afa158015611dad573d6000803e3d6000fd5b505050506040513d601f19601f82011682018060405250810190611dd19190613f76565b905090565b600260009054906101000a900473ffffffffffffffffffffffffffffffffffffffff1673ffffffffffffffffffffffffffffffffffffffff163373ffffffffffffffffffffffffffffffffffffffff1614611e66576040517f08c379a0000000000000000000000000000000000000000000000000000000008152600401611e5d906144b2565b60405180910390fd5b80600260006101000a81548173ffffffffffffffffffffffffffffffffffffffff021916908373ffffffffffffffffffffffffffffffffffffffff16021790555050565b611eb2611475565b15611ef2576040517f08c379a0000000000000000000000000000000000000000000000000000000008152600401611ee990614512565b60405180910390fd5b6000611efc611d24565b90506000811115611f9557600f60009054906101000a900473ffffffffffffffffffffffffffffffffffffffff1673ffffffffffffffffffffffffffffffffffffffff1663a694fc3a826040518263ffffffff1660e01b8152600401611f629190614612565b600060405180830381600087803b158015611f7c57600080fd5b505af1158015611f90573d6000803e3d6000fd5b505050505b50565b60085481565b611fa6611893565b73ffffffffffffffffffffffffffffffffffffffff163373ffffffffffffffffffffffffffffffffffffffff16148061202c5750600160009054906101000a900473ffffffffffffffffffffffffffffffffffffffff1673ffffffffffffffffffffffffffffffffffffffff163373ffffffffffffffffffffffffffffffffffffffff16145b61206b576040517f08c379a0000000000000000000000000000000000000000000000000000000008152600401612062906145b2565b60405180910390fd5b612073612b9f565b565b61207d612cc5565b73ffffffffffffffffffffffffffffffffffffffff1661209b611893565b73ffffffffffffffffffffffffffffffffffffffff16146120f1576040517f08c379a00000000000000000000000000000000000000000000000000000000081526004016120e890614572565b60405180910390fd5b80600360006101000a81548173ffffffffffffffffffffffffffffffffffffffff021916908373ffffffffffffffffffffffffffffffffffffffff16021790555050565b603281565b600080600f60009054906101000a900473ffffffffffffffffffffffffffffffffffffffff1673ffffffffffffffffffffffffffffffffffffffff16628cc262306040518263ffffffff1660e01b81526004016121979190614348565b60206040518083038186803b1580156121af57600080fd5b505afa1580156121c3573d6000803e3d6000fd5b505050506040513d601f19601f820116820180604052508101906121e79190613f76565b905073f28164a485b0b2c90639e47b0f377b4a438a16b173ffffffffffffffffffffffffffffffffffffffff1663ad19daf8826040518263ffffffff1660e01b81526004016122369190614612565b60206040518083038186803b15801561224e57600080fd5b505afa158015612262573d6000803e3d6000fd5b505050506040513d601f19601f820116820180604052508101906122869190613f76565b91505090565b60145481565b600b60009054906101000a900473ffffffffffffffffffffffffffffffffffffffff1681565b6122c0612cc5565b73ffffffffffffffffffffffffffffffffffffffff166122de611893565b73ffffffffffffffffffffffffffffffffffffffff1614612334576040517f08c379a000000000000000000000000000000000000000000000000000000000815260040161232b90614572565b60405180910390fd5b600073ffffffffffffffffffffffffffffffffffffffff168173ffffffffffffffffffffffffffffffffffffffff1614156123a4576040517f08c379a000000000000000000000000000000000000000000000000000000000815260040161239b906144d2565b60405180910390fd5b6123ad81612ccd565b50565b600460009054906101000a900473ffffffffffffffffffffffffffffffffffffffff1673ffffffffffffffffffffffffffffffffffffffff163373ffffffffffffffffffffffffffffffffffffffff1614612440576040517f08c379a000000000000000000000000000000000000000000000000000000000815260040161243790614552565b60405180910390fd5b600f60009054906101000a900473ffffffffffffffffffffffffffffffffffffffff1673ffffffffffffffffffffffffffffffffffffffff16632e1a7d4d612486610af6565b6040518263ffffffff1660e01b81526004016124a29190614612565b600060405180830381600087803b1580156124bc57600080fd5b505af11580156124d0573d6000803e3d6000fd5b5050505060006124de611d24565b9050600c60009054906101000a900473ffffffffffffffffffffffffffffffffffffffff1673ffffffffffffffffffffffffffffffffffffffff1663a9059cbb600460009054906101000a900473ffffffffffffffffffffffffffffffffffffffff16836040518363ffffffff1660e01b815260040161255f92919061440a565b602060405180830381600087803b15801561257957600080fd5b505af115801561258d573d6000803e3d6000fd5b505050506040513d601f19601f820116820180604052508101906125b19190613f24565b5050565b600460009054906101000a900473ffffffffffffffffffffffffffffffffffffffff1681565b601281815481106125eb57600080fd5b906000526020600020016000915054906101000a900473ffffffffffffffffffffffffffffffffffffffff1681565b60008114806126b3575060008373ffffffffffffffffffffffffffffffffffffffff1663dd62ed3e30856040518363ffffffff1660e01b8152600401612661929190614363565b60206040518083038186803b15801561267957600080fd5b505afa15801561268d573d6000803e3d6000fd5b505050506040513d601f19601f820116820180604052508101906126b19190613f76565b145b6126f2576040517f08c379a00000000000000000000000000000000000000000000000000000000081526004016126e9906145f2565b60405180910390fd5b6127738363095ea7b360e01b848460405160240161271192919061440a565b604051602081830303815290604052907bffffffffffffffffffffffffffffffffffffffffffffffffffffffff19166020820180517bffffffffffffffffffffffffffffffffffffffffffffffffffffffff838183161783525050505061300c565b505050565b606061278784846000856130d3565b90509392505050565b6000818361279e9190614881565b905092915050565b6128278363a9059cbb60e01b84846040516024016127c592919061440a565b604051602081830303815290604052907bffffffffffffffffffffffffffffffffffffffffffffffffffffffff19166020820180517bffffffffffffffffffffffffffffffffffffffffffffffffffffffff838183161783525050505061300c565b505050565b6000818361283a9190614827565b905092915050565b6000818361285091906147f6565b905092915050565b612860611475565b61289f576040517f08c379a000000000000000000000000000000000000000000000000000000000815260040161289690614492565b60405180910390fd5b60008060146101000a81548160ff0219169083151502179055507f5db9ee0a495bf2e6ff9c91a7834c1ba4fdd244a5e8aa4e537bd38aeae4b073aa6128e2612cc5565b6040516128ef9190614348565b60405180910390a1565b61296a600f60009054906101000a900473ffffffffffffffffffffffffffffffffffffffff16600954600c60009054906101000a900473ffffffffffffffffffffffffffffffffffffffff1673ffffffffffffffffffffffffffffffffffffffff1661261a9092919063ffffffff16565b6129db600360009054906101000a900473ffffffffffffffffffffffffffffffffffffffff16600954600b60009054906101000a900473ffffffffffffffffffffffffffffffffffffffff1673ffffffffffffffffffffffffffffffffffffffff1661261a9092919063ffffffff16565b612a4b600360009054906101000a900473ffffffffffffffffffffffffffffffffffffffff166000600d60009054906101000a900473ffffffffffffffffffffffffffffffffffffffff1673ffffffffffffffffffffffffffffffffffffffff1661261a9092919063ffffffff16565b612abc600360009054906101000a900473ffffffffffffffffffffffffffffffffffffffff16600954600d60009054906101000a900473ffffffffffffffffffffffffffffffffffffffff1673ffffffffffffffffffffffffffffffffffffffff1661261a9092919063ffffffff16565b612b2c600360009054906101000a900473ffffffffffffffffffffffffffffffffffffffff166000600e60009054906101000a900473ffffffffffffffffffffffffffffffffffffffff1673ffffffffffffffffffffffffffffffffffffffff1661261a9092919063ffffffff16565b612b9d600360009054906101000a900473ffffffffffffffffffffffffffffffffffffffff16600954600e60009054906101000a900473ffffffffffffffffffffffffffffffffffffffff1673ffffffffffffffffffffffffffffffffffffffff1661261a9092919063ffffffff16565b565b612ba76131e7565b6000600b60009054906101000a900473ffffffffffffffffffffffffffffffffffffffff1673ffffffffffffffffffffffffffffffffffffffff166370a08231306040518263ffffffff1660e01b8152600401612c049190614348565b60206040518083038186803b158015612c1c57600080fd5b505afa158015612c30573d6000803e3d6000fd5b505050506040513d601f19601f82011682018060405250810190612c549190613f76565b90506000811115612cc257612c6761338c565b612c6f613786565b612c77611eaa565b426014819055503373ffffffffffffffffffffffffffffffffffffffff167f577a37fdb49a88d66684922c6f913df5239b4f214b2b97c53ef8e3bbb2034cb560405160405180910390a25b50565b600033905090565b60008060009054906101000a900473ffffffffffffffffffffffffffffffffffffffff169050816000806101000a81548173ffffffffffffffffffffffffffffffffffffffff021916908373ffffffffffffffffffffffffffffffffffffffff1602179055508173ffffffffffffffffffffffffffffffffffffffff168173ffffffffffffffffffffffffffffffffffffffff167f8be0079c531659141344cd1fd0a4f28419497f9722a3daafe3b4186f6b6457e060405160405180910390a35050565b60008183612d9f91906147a0565b905092915050565b612daf611475565b15612def576040517f08c379a0000000000000000000000000000000000000000000000000000000008152600401612de690614512565b60405180910390fd5b6001600060146101000a81548160ff0219169083151502179055507f62e78cea01bee320cd4e420270b5ea74000d11b0c9f74754ebdbfc544b05a258612e33612cc5565b604051612e409190614348565b60405180910390a1565b612eba600f60009054906101000a900473ffffffffffffffffffffffffffffffffffffffff166000600c60009054906101000a900473ffffffffffffffffffffffffffffffffffffffff1673ffffffffffffffffffffffffffffffffffffffff1661261a9092919063ffffffff16565b612f2a600360009054906101000a900473ffffffffffffffffffffffffffffffffffffffff166000600b60009054906101000a900473ffffffffffffffffffffffffffffffffffffffff1673ffffffffffffffffffffffffffffffffffffffff1661261a9092919063ffffffff16565b612f9a600360009054906101000a900473ffffffffffffffffffffffffffffffffffffffff166000600d60009054906101000a900473ffffffffffffffffffffffffffffffffffffffff1673ffffffffffffffffffffffffffffffffffffffff1661261a9092919063ffffffff16565b61300a600360009054906101000a900473ffffffffffffffffffffffffffffffffffffffff166000600e60009054906101000a900473ffffffffffffffffffffffffffffffffffffffff1673ffffffffffffffffffffffffffffffffffffffff1661261a9092919063ffffffff16565b565b600061306e826040518060400160405280602081526020017f5361666545524332303a206c6f772d6c6576656c2063616c6c206661696c65648152508573ffffffffffffffffffffffffffffffffffffffff166127789092919063ffffffff16565b90506000815111156130ce578080602001905181019061308e9190613f24565b6130cd576040517f08c379a00000000000000000000000000000000000000000000000000000000081526004016130c4906145d2565b60405180910390fd5b5b505050565b606082471015613118576040517f08c379a000000000000000000000000000000000000000000000000000000000815260040161310f906144f2565b60405180910390fd5b61312185613d18565b613160576040517f08c379a000000000000000000000000000000000000000000000000000000000815260040161315790614592565b60405180910390fd5b6000808673ffffffffffffffffffffffffffffffffffffffff1685876040516131899190614331565b60006040518083038185875af1925050503d80600081146131c6576040519150601f19603f3d011682016040523d82523d6000602084013e6131cb565b606091505b50915091506131db828286613d2b565b92505050949350505050565b600f60009054906101000a900473ffffffffffffffffffffffffffffffffffffffff1673ffffffffffffffffffffffffffffffffffffffff16633d18b9126040518163ffffffff1660e01b8152600401600060405180830381600087803b15801561325157600080fd5b505af1158015613265573d6000803e3d6000fd5b50505050600073f28164a485b0b2c90639e47b0f377b4a438a16b173ffffffffffffffffffffffffffffffffffffffff166370a08231306040518263ffffffff1660e01b81526004016132b89190614348565b60206040518083038186803b1580156132d057600080fd5b505afa1580156132e4573d6000803e3d6000fd5b505050506040513d601f19601f820116820180604052508101906133089190613f76565b905073f28164a485b0b2c90639e47b0f377b4a438a16b173ffffffffffffffffffffffffffffffffffffffff166367dfd4c9826040518263ffffffff1660e01b81526004016133579190614612565b600060405180830381600087803b15801561337157600080fd5b505af1158015613385573d6000803e3d6000fd5b5050505050565b60006134606103e8613452602d600b60009054906101000a900473ffffffffffffffffffffffffffffffffffffffff1673ffffffffffffffffffffffffffffffffffffffff166370a08231306040518263ffffffff1660e01b81526004016133f49190614348565b60206040518083038186803b15801561340c57600080fd5b505afa158015613420573d6000803e3d6000fd5b505050506040513d601f19601f820116820180604052508101906134449190613f76565b61282c90919063ffffffff16565b61284290919063ffffffff16565b9050600360009054906101000a900473ffffffffffffffffffffffffffffffffffffffff1673ffffffffffffffffffffffffffffffffffffffff166338ed1739826000601030426040518663ffffffff1660e01b81526004016134c795949392919061465d565b600060405180830381600087803b1580156134e157600080fd5b505af11580156134f5573d6000803e3d6000fd5b505050506040513d6000823e3d601f19601f8201168201806040525081019061351e9190613eba565b506000600a60009054906101000a900473ffffffffffffffffffffffffffffffffffffffff1673ffffffffffffffffffffffffffffffffffffffff166370a08231306040518263ffffffff1660e01b815260040161357c9190614348565b60206040518083038186803b15801561359457600080fd5b505afa1580156135a8573d6000803e3d6000fd5b505050506040513d601f19601f820116820180604052508101906135cc9190613f76565b905060006135f96103e86135eb6007548561282c90919063ffffffff16565b61284290919063ffffffff16565b90506136483282600a60009054906101000a900473ffffffffffffffffffffffffffffffffffffffff1673ffffffffffffffffffffffffffffffffffffffff166127a69092919063ffffffff16565b60006136736103e86136656008548661282c90919063ffffffff16565b61284290919063ffffffff16565b90506136e4600560009054906101000a900473ffffffffffffffffffffffffffffffffffffffff1682600a60009054906101000a900473ffffffffffffffffffffffffffffffffffffffff1673ffffffffffffffffffffffffffffffffffffffff166127a69092919063ffffffff16565b600061370e6103e861370060708761282c90919063ffffffff16565b61284290919063ffffffff16565b905061377f600260009054906101000a900473ffffffffffffffffffffffffffffffffffffffff1682600a60009054906101000a900473ffffffffffffffffffffffffffffffffffffffff1673ffffffffffffffffffffffffffffffffffffffff166127a69092919063ffffffff16565b5050505050565b60006138466002600b60009054906101000a900473ffffffffffffffffffffffffffffffffffffffff1673ffffffffffffffffffffffffffffffffffffffff166370a08231306040518263ffffffff1660e01b81526004016137e89190614348565b60206040518083038186803b15801561380057600080fd5b505afa158015613814573d6000803e3d6000fd5b505050506040513d601f19601f820116820180604052508101906138389190613f76565b61284290919063ffffffff16565b9050600b60009054906101000a900473ffffffffffffffffffffffffffffffffffffffff1673ffffffffffffffffffffffffffffffffffffffff16600d60009054906101000a900473ffffffffffffffffffffffffffffffffffffffff1673ffffffffffffffffffffffffffffffffffffffff161461397d57600360009054906101000a900473ffffffffffffffffffffffffffffffffffffffff1673ffffffffffffffffffffffffffffffffffffffff166338ed1739826000601130426040518663ffffffff1660e01b815260040161392495949392919061465d565b600060405180830381600087803b15801561393e57600080fd5b505af1158015613952573d6000803e3d6000fd5b505050506040513d6000823e3d601f19601f8201168201806040525081019061397b9190613eba565b505b600b60009054906101000a900473ffffffffffffffffffffffffffffffffffffffff1673ffffffffffffffffffffffffffffffffffffffff16600e60009054906101000a900473ffffffffffffffffffffffffffffffffffffffff1673ffffffffffffffffffffffffffffffffffffffff1614613ab257600360009054906101000a900473ffffffffffffffffffffffffffffffffffffffff1673ffffffffffffffffffffffffffffffffffffffff166338ed1739826000601230426040518663ffffffff1660e01b8152600401613a5995949392919061465d565b600060405180830381600087803b158015613a7357600080fd5b505af1158015613a87573d6000803e3d6000fd5b505050506040513d6000823e3d601f19601f82011682018060405250810190613ab09190613eba565b505b6000600d60009054906101000a900473ffffffffffffffffffffffffffffffffffffffff1673ffffffffffffffffffffffffffffffffffffffff166370a08231306040518263ffffffff1660e01b8152600401613b0f9190614348565b60206040518083038186803b158015613b2757600080fd5b505afa158015613b3b573d6000803e3d6000fd5b505050506040513d601f19601f82011682018060405250810190613b5f9190613f76565b90506000600e60009054906101000a900473ffffffffffffffffffffffffffffffffffffffff1673ffffffffffffffffffffffffffffffffffffffff166370a08231306040518263ffffffff1660e01b8152600401613bbe9190614348565b60206040518083038186803b158015613bd657600080fd5b505afa158015613bea573d6000803e3d6000fd5b505050506040513d601f19601f82011682018060405250810190613c0e9190613f76565b9050600360009054906101000a900473ffffffffffffffffffffffffffffffffffffffff1673ffffffffffffffffffffffffffffffffffffffff1663e8e33700600d60009054906101000a900473ffffffffffffffffffffffffffffffffffffffff16600e60009054906101000a900473ffffffffffffffffffffffffffffffffffffffff16858560018030426040518963ffffffff1660e01b8152600401613cbe98979695949392919061438c565b606060405180830381600087803b158015613cd857600080fd5b505af1158015613cec573d6000803e3d6000fd5b505050506040513d601f19601f82011682018060405250810190613d109190613f9f565b505050505050565b600080823b905060008111915050919050565b60608315613d3b57829050613d8b565b600083511115613d4e5782518084602001fd5b816040517f08c379a0000000000000000000000000000000000000000000000000000000008152600401613d829190614470565b60405180910390fd5b9392505050565b6000613da5613da0846146dc565b6146b7565b90508083825260208201905082856020860282011115613dc457600080fd5b60005b85811015613df45781613dda8882613e7c565b845260208401935060208301925050600181019050613dc7565b5050509392505050565b600081359050613e0d81614d01565b92915050565b600082601f830112613e2457600080fd5b8151613e34848260208601613d92565b91505092915050565b600081359050613e4c81614d18565b92915050565b600081519050613e6181614d18565b92915050565b600081359050613e7681614d2f565b92915050565b600081519050613e8b81614d2f565b92915050565b600060208284031215613ea357600080fd5b6000613eb184828501613dfe565b91505092915050565b600060208284031215613ecc57600080fd5b600082015167ffffffffffffffff811115613ee657600080fd5b613ef284828501613e13565b91505092915050565b600060208284031215613f0d57600080fd5b6000613f1b84828501613e3d565b91505092915050565b600060208284031215613f3657600080fd5b6000613f4484828501613e52565b91505092915050565b600060208284031215613f5f57600080fd5b6000613f6d84828501613e67565b91505092915050565b600060208284031215613f8857600080fd5b6000613f9684828501613e7c565b91505092915050565b600080600060608486031215613fb457600080fd5b6000613fc286828701613e7c565b9350506020613fd386828701613e7c565b9250506040613fe486828701613e7c565b9150509250925092565b6000613ffa8383614006565b60208301905092915050565b61400f816148d5565b82525050565b61401e816148d5565b82525050565b600061402f8261472d565b6140398185614773565b935061404483614708565b8060005b8381101561407557815161405c8882613fee565b975061406783614759565b925050600181019050614048565b5085935050505092915050565b600061408d82614738565b6140978185614773565b93506140a283614718565b8060005b838110156140da576140b782614a4c565b6140c18882613fee565b97506140cc83614766565b9250506001810190506140a6565b5085935050505092915050565b6140f0816148e7565b82525050565b600061410182614743565b61410b8185614784565b935061411b818560208601614941565b80840191505092915050565b6141308161491d565b82525050565b61413f8161492f565b82525050565b60006141508261474e565b61415a818561478f565b935061416a818560208601614941565b61417381614a5f565b840191505092915050565b600061418b60148361478f565b915061419682614a7d565b602082019050919050565b60006141ae600b8361478f565b91506141b982614aa6565b602082019050919050565b60006141d160268361478f565b91506141dc82614acf565b604082019050919050565b60006141f460268361478f565b91506141ff82614b1e565b604082019050919050565b600061421760108361478f565b915061422282614b6d565b602082019050919050565b600061423a60048361478f565b915061424582614b96565b602082019050919050565b600061425d60068361478f565b915061426882614bbf565b602082019050919050565b600061428060208361478f565b915061428b82614be8565b602082019050919050565b60006142a3601d8361478f565b91506142ae82614c11565b602082019050919050565b60006142c660088361478f565b91506142d182614c3a565b602082019050919050565b60006142e9602a8361478f565b91506142f482614c63565b604082019050919050565b600061430c60368361478f565b915061431782614cb2565b604082019050919050565b61432b81614913565b82525050565b600061433d82846140f6565b915081905092915050565b600060208201905061435d6000830184614015565b92915050565b60006040820190506143786000830185614015565b6143856020830184614015565b9392505050565b6000610100820190506143a2600083018b614015565b6143af602083018a614015565b6143bc6040830189614322565b6143c96060830188614322565b6143d66080830187614136565b6143e360a0830186614136565b6143f060c0830185614015565b6143fd60e0830184614322565b9998505050505050505050565b600060408201905061441f6000830185614015565b61442c6020830184614322565b9392505050565b6000602082019050818103600083015261444d8184614024565b905092915050565b600060208201905061446a60008301846140e7565b92915050565b6000602082019050818103600083015261448a8184614145565b905092915050565b600060208201905081810360008301526144ab8161417e565b9050919050565b600060208201905081810360008301526144cb816141a1565b9050919050565b600060208201905081810360008301526144eb816141c4565b9050919050565b6000602082019050818103600083015261450b816141e7565b9050919050565b6000602082019050818103600083015261452b8161420a565b9050919050565b6000602082019050818103600083015261454b8161422d565b9050919050565b6000602082019050818103600083015261456b81614250565b9050919050565b6000602082019050818103600083015261458b81614273565b9050919050565b600060208201905081810360008301526145ab81614296565b9050919050565b600060208201905081810360008301526145cb816142b9565b9050919050565b600060208201905081810360008301526145eb816142dc565b9050919050565b6000602082019050818103600083015261460b816142ff565b9050919050565b60006020820190506146276000830184614322565b92915050565b60006040820190506146426000830185614322565b81810360208301526146548184614082565b90509392505050565b600060a0820190506146726000830188614322565b61467f6020830187614127565b81810360408301526146918186614082565b90506146a06060830185614015565b6146ad6080830184614322565b9695505050505050565b60006146c16146d2565b90506146cd828261498e565b919050565b6000604051905090565b600067ffffffffffffffff8211156146f7576146f6614a1d565b5b602082029050602081019050919050565b6000819050602082019050919050565b60008190508160005260206000209050919050565b600081519050919050565b600081549050919050565b600081519050919050565b600081519050919050565b6000602082019050919050565b6000600182019050919050565b600082825260208201905092915050565b600081905092915050565b600082825260208201905092915050565b60006147ab82614913565b91506147b683614913565b9250827fffffffffffffffffffffffffffffffffffffffffffffffffffffffffffffffff038211156147eb576147ea6149bf565b5b828201905092915050565b600061480182614913565b915061480c83614913565b92508261481c5761481b6149ee565b5b828204905092915050565b600061483282614913565b915061483d83614913565b9250817fffffffffffffffffffffffffffffffffffffffffffffffffffffffffffffffff0483118215151615614876576148756149bf565b5b828202905092915050565b600061488c82614913565b915061489783614913565b9250828210156148aa576148a96149bf565b5b828203905092915050565b600073ffffffffffffffffffffffffffffffffffffffff82169050919050565b60006148e0826148f3565b9050919050565b60008115159050919050565b600073ffffffffffffffffffffffffffffffffffffffff82169050919050565b6000819050919050565b600061492882614913565b9050919050565b600061493a82614913565b9050919050565b60005b8381101561495f578082015181840152602081019050614944565b8381111561496e576000848401525b50505050565b600061498761498283614a70565b6148b5565b9050919050565b61499782614a5f565b810181811067ffffffffffffffff821117156149b6576149b5614a1d565b5b80604052505050565b7f4e487b7100000000000000000000000000000000000000000000000000000000600052601160045260246000fd5b7f4e487b7100000000000000000000000000000000000000000000000000000000600052601260045260246000fd5b7f4e487b7100000000000000000000000000000000000000000000000000000000600052604160045260246000fd5b6000614a588254614974565b9050919050565b6000601f19601f8301169050919050565b60008160001c9050919050565b7f5061757361626c653a206e6f7420706175736564000000000000000000000000600082015250565b7f2173747261746567697374000000000000000000000000000000000000000000600082015250565b7f4f776e61626c653a206e6577206f776e657220697320746865207a65726f206160008201527f6464726573730000000000000000000000000000000000000000000000000000602082015250565b7f416464726573733a20696e73756666696369656e742062616c616e636520666f60008201527f722063616c6c0000000000000000000000000000000000000000000000000000602082015250565b7f5061757361626c653a2070617573656400000000000000000000000000000000600082015250565b7f2163617000000000000000000000000000000000000000000000000000000000600082015250565b7f217661756c740000000000000000000000000000000000000000000000000000600082015250565b7f4f776e61626c653a2063616c6c6572206973206e6f7420746865206f776e6572600082015250565b7f416464726573733a2063616c6c20746f206e6f6e2d636f6e7472616374000000600082015250565b7f216d616e61676572000000000000000000000000000000000000000000000000600082015250565b7f5361666545524332303a204552433230206f7065726174696f6e20646964206e60008201527f6f74207375636365656400000000000000000000000000000000000000000000602082015250565b7f5361666545524332303a20617070726f76652066726f6d206e6f6e2d7a65726f60008201527f20746f206e6f6e2d7a65726f20616c6c6f77616e636500000000000000000000602082015250565b614d0a816148d5565b8114614d1557600080fd5b50565b614d21816148e7565b8114614d2c57600080fd5b50565b614d3881614913565b8114614d4357600080fd5b5056fea2646970667358221220759d4876a8c42993abeac040f4e70c2cc4d2d5062cacaa98e72a58bbc372caf564736f6c63430008040033",
  "linkReferences": {},
  "deployedLinkReferences": {}
}