{
  "_format": "hh-sol-artifact-1",
  "contractName": "BeefyVaultV6",
  "sourceName": "contracts/BeefyVaultV6.sol",
  "abi": [
    {
      "inputs": [
        {
          "internalType": "contract IStrategy",
          "name": "_strategy",
          "type": "address"
        },
        {
          "internalType": "string",
          "name": "_name",
          "type": "string"
        },
        {
          "internalType": "string",
          "name": "_symbol",
          "type": "string"
        },
        {
          "internalType": "uint256",
          "name": "_approvalDelay",
          "type": "uint256"
        }
      ],
      "stateMutability": "nonpayable",
      "type": "constructor"
    },
    {
      "anonymous": false,
      "inputs": [
        {
          "indexed": true,
          "internalType": "address",
          "name": "owner",
          "type": "address"
        },
        {
          "indexed": true,
          "internalType": "address",
          "name": "spender",
          "type": "address"
        },
        {
          "indexed": false,
          "internalType": "uint256",
          "name": "value",
          "type": "uint256"
        }
      ],
      "name": "Approval",
      "type": "event"
    },
    {
      "anonymous": false,
      "inputs": [
        {
          "indexed": false,
          "internalType": "address",
          "name": "implementation",
          "type": "address"
        }
      ],
      "name": "NewStratCandidate",
      "type": "event"
    },
    {
      "anonymous": false,
      "inputs": [
        {
          "indexed": true,
          "internalType": "address",
          "name": "previousOwner",
          "type": "address"
        },
        {
          "indexed": true,
          "internalType": "address",
          "name": "newOwner",
          "type": "address"
        }
      ],
      "name": "OwnershipTransferred",
      "type": "event"
    },
    {
      "anonymous": false,
      "inputs": [
        {
          "indexed": true,
          "internalType": "address",
          "name": "from",
          "type": "address"
        },
        {
          "indexed": true,
          "internalType": "address",
          "name": "to",
          "type": "address"
        },
        {
          "indexed": false,
          "internalType": "uint256",
          "name": "value",
          "type": "uint256"
        }
      ],
      "name": "Transfer",
      "type": "event"
    },
    {
      "anonymous": false,
      "inputs": [
        {
          "indexed": false,
          "internalType": "address",
          "name": "implementation",
          "type": "address"
        }
      ],
      "name": "UpgradeStrat",
      "type": "event"
    },
    {
      "inputs": [
        {
          "internalType": "address",
          "name": "owner",
          "type": "address"
        },
        {
          "internalType": "address",
          "name": "spender",
          "type": "address"
        }
      ],
      "name": "allowance",
      "outputs": [
        {
          "internalType": "uint256",
          "name": "",
          "type": "uint256"
        }
      ],
      "stateMutability": "view",
      "type": "function"
    },
    {
      "inputs": [],
      "name": "approvalDelay",
      "outputs": [
        {
          "internalType": "uint256",
          "name": "",
          "type": "uint256"
        }
      ],
      "stateMutability": "view",
      "type": "function"
    },
    {
      "inputs": [
        {
          "internalType": "address",
          "name": "spender",
          "type": "address"
        },
        {
          "internalType": "uint256",
          "name": "amount",
          "type": "uint256"
        }
      ],
      "name": "approve",
      "outputs": [
        {
          "internalType": "bool",
          "name": "",
          "type": "bool"
        }
      ],
      "stateMutability": "nonpayable",
      "type": "function"
    },
    {
      "inputs": [],
      "name": "available",
      "outputs": [
        {
          "internalType": "uint256",
          "name": "",
          "type": "uint256"
        }
      ],
      "stateMutability": "view",
      "type": "function"
    },
    {
      "inputs": [],
      "name": "balance",
      "outputs": [
        {
          "internalType": "uint256",
          "name": "",
          "type": "uint256"
        }
      ],
      "stateMutability": "view",
      "type": "function"
    },
    {
      "inputs": [
        {
          "internalType": "address",
          "name": "account",
          "type": "address"
        }
      ],
      "name": "balanceOf",
      "outputs": [
        {
          "internalType": "uint256",
          "name": "",
          "type": "uint256"
        }
      ],
      "stateMutability": "view",
      "type": "function"
    },
    {
      "inputs": [],
      "name": "decimals",
      "outputs": [
        {
          "internalType": "uint8",
          "name": "",
          "type": "uint8"
        }
      ],
      "stateMutability": "view",
      "type": "function"
    },
    {
      "inputs": [
        {
          "internalType": "address",
          "name": "spender",
          "type": "address"
        },
        {
          "internalType": "uint256",
          "name": "subtractedValue",
          "type": "uint256"
        }
      ],
      "name": "decreaseAllowance",
      "outputs": [
        {
          "internalType": "bool",
          "name": "",
          "type": "bool"
        }
      ],
      "stateMutability": "nonpayable",
      "type": "function"
    },
    {
      "inputs": [
        {
          "internalType": "uint256",
          "name": "_amount",
          "type": "uint256"
        }
      ],
      "name": "deposit",
      "outputs": [],
      "stateMutability": "nonpayable",
      "type": "function"
    },
    {
      "inputs": [],
      "name": "depositAll",
      "outputs": [],
      "stateMutability": "nonpayable",
      "type": "function"
    },
    {
      "inputs": [],
      "name": "earn",
      "outputs": [],
      "stateMutability": "nonpayable",
      "type": "function"
    },
    {
      "inputs": [],
      "name": "getPricePerFullShare",
      "outputs": [
        {
          "internalType": "uint256",
          "name": "",
          "type": "uint256"
        }
      ],
      "stateMutability": "view",
      "type": "function"
    },
    {
      "inputs": [
        {
          "internalType": "address",
          "name": "_token",
          "type": "address"
        }
      ],
      "name": "inCaseTokensGetStuck",
      "outputs": [],
      "stateMutability": "nonpayable",
      "type": "function"
    },
    {
      "inputs": [
        {
          "internalType": "address",
          "name": "spender",
          "type": "address"
        },
        {
          "internalType": "uint256",
          "name": "addedValue",
          "type": "uint256"
        }
      ],
      "name": "increaseAllowance",
      "outputs": [
        {
          "internalType": "bool",
          "name": "",
          "type": "bool"
        }
      ],
      "stateMutability": "nonpayable",
      "type": "function"
    },
    {
      "inputs": [],
      "name": "name",
      "outputs": [
        {
          "internalType": "string",
          "name": "",
          "type": "string"
        }
      ],
      "stateMutability": "view",
      "type": "function"
    },
    {
      "inputs": [],
      "name": "owner",
      "outputs": [
        {
          "internalType": "address",
          "name": "",
          "type": "address"
        }
      ],
      "stateMutability": "view",
      "type": "function"
    },
    {
      "inputs": [
        {
          "internalType": "address",
          "name": "_implementation",
          "type": "address"
        }
      ],
      "name": "proposeStrat",
      "outputs": [],
      "stateMutability": "nonpayable",
      "type": "function"
    },
    {
      "inputs": [],
      "name": "renounceOwnership",
      "outputs": [],
      "stateMutability": "nonpayable",
      "type": "function"
    },
    {
      "inputs": [],
      "name": "stratCandidate",
      "outputs": [
        {
          "internalType": "address",
          "name": "implementation",
          "type": "address"
        },
        {
          "internalType": "uint256",
          "name": "proposedTime",
          "type": "uint256"
        }
      ],
      "stateMutability": "view",
      "type": "function"
    },
    {
      "inputs": [],
      "name": "strategy",
      "outputs": [
        {
          "internalType": "contract IStrategy",
          "name": "",
          "type": "address"
        }
      ],
      "stateMutability": "view",
      "type": "function"
    },
    {
      "inputs": [],
      "name": "symbol",
      "outputs": [
        {
          "internalType": "string",
          "name": "",
          "type": "string"
        }
      ],
      "stateMutability": "view",
      "type": "function"
    },
    {
      "inputs": [],
      "name": "totalSupply",
      "outputs": [
        {
          "internalType": "uint256",
          "name": "",
          "type": "uint256"
        }
      ],
      "stateMutability": "view",
      "type": "function"
    },
    {
      "inputs": [
        {
          "internalType": "address",
          "name": "recipient",
          "type": "address"
        },
        {
          "internalType": "uint256",
          "name": "amount",
          "type": "uint256"
        }
      ],
      "name": "transfer",
      "outputs": [
        {
          "internalType": "bool",
          "name": "",
          "type": "bool"
        }
      ],
      "stateMutability": "nonpayable",
      "type": "function"
    },
    {
      "inputs": [
        {
          "internalType": "address",
          "name": "sender",
          "type": "address"
        },
        {
          "internalType": "address",
          "name": "recipient",
          "type": "address"
        },
        {
          "internalType": "uint256",
          "name": "amount",
          "type": "uint256"
        }
      ],
      "name": "transferFrom",
      "outputs": [
        {
          "internalType": "bool",
          "name": "",
          "type": "bool"
        }
      ],
      "stateMutability": "nonpayable",
      "type": "function"
    },
    {
      "inputs": [
        {
          "internalType": "address",
          "name": "newOwner",
          "type": "address"
        }
      ],
      "name": "transferOwnership",
      "outputs": [],
      "stateMutability": "nonpayable",
      "type": "function"
    },
    {
      "inputs": [],
      "name": "upgradeStrat",
      "outputs": [],
      "stateMutability": "nonpayable",
      "type": "function"
    },
    {
      "inputs": [],
      "name": "want",
      "outputs": [
        {
          "internalType": "contract IERC20",
          "name": "",
          "type": "address"
        }
      ],
      "stateMutability": "view",
      "type": "function"
    },
    {
      "inputs": [
        {
          "internalType": "uint256",
          "name": "_shares",
          "type": "uint256"
        }
      ],
      "name": "withdraw",
      "outputs": [],
      "stateMutability": "nonpayable",
      "type": "function"
    },
    {
      "inputs": [],
      "name": "withdrawAll",
      "outputs": [],
      "stateMutability": "nonpayable",
      "type": "function"
    }
  ],
  "bytecode": "0x60a06040523480156200001157600080fd5b5060405162003fe238038062003fe2833981810160405281019062000037919062000306565b8282816003908051906020019062000051929190620001b6565b5080600490805190602001906200006a929190620001b6565b5050506200008d62000081620000e860201b60201c565b620000f060201b60201c565b600160068190555083600960006101000a81548173ffffffffffffffffffffffffffffffffffffffff021916908373ffffffffffffffffffffffffffffffffffffffff1602179055508060808181525050505050506200059a565b600033905090565b6000600560009054906101000a900473ffffffffffffffffffffffffffffffffffffffff16905081600560006101000a81548173ffffffffffffffffffffffffffffffffffffffff021916908373ffffffffffffffffffffffffffffffffffffffff1602179055508173ffffffffffffffffffffffffffffffffffffffff168173ffffffffffffffffffffffffffffffffffffffff167f8be0079c531659141344cd1fd0a4f28419497f9722a3daafe3b4186f6b6457e060405160405180910390a35050565b828054620001c4906200048b565b90600052602060002090601f016020900481019282620001e8576000855562000234565b82601f106200020357805160ff191683800117855562000234565b8280016001018555821562000234579182015b828111156200023357825182559160200191906001019062000216565b5b50905062000243919062000247565b5090565b5b808211156200026257600081600090555060010162000248565b5090565b60006200027d6200027784620003cd565b620003a4565b9050828152602081018484840111156200029657600080fd5b620002a384828562000455565b509392505050565b600081519050620002bc8162000566565b92915050565b600082601f830112620002d457600080fd5b8151620002e684826020860162000266565b91505092915050565b600081519050620003008162000580565b92915050565b600080600080608085870312156200031d57600080fd5b60006200032d87828801620002ab565b945050602085015167ffffffffffffffff8111156200034b57600080fd5b6200035987828801620002c2565b935050604085015167ffffffffffffffff8111156200037757600080fd5b6200038587828801620002c2565b92505060606200039887828801620002ef565b91505092959194509250565b6000620003b0620003c3565b9050620003be8282620004c1565b919050565b6000604051905090565b600067ffffffffffffffff821115620003eb57620003ea62000526565b5b620003f68262000555565b9050602081019050919050565b600062000410826200042b565b9050919050565b6000620004248262000403565b9050919050565b600073ffffffffffffffffffffffffffffffffffffffff82169050919050565b6000819050919050565b60005b838110156200047557808201518184015260208101905062000458565b8381111562000485576000848401525b50505050565b60006002820490506001821680620004a457607f821691505b60208210811415620004bb57620004ba620004f7565b5b50919050565b620004cc8262000555565b810181811067ffffffffffffffff82111715620004ee57620004ed62000526565b5b80604052505050565b7f4e487b7100000000000000000000000000000000000000000000000000000000600052602260045260246000fd5b7f4e487b7100000000000000000000000000000000000000000000000000000000600052604160045260246000fd5b6000601f19601f8301169050919050565b620005718162000417565b81146200057d57600080fd5b50565b6200058b816200044b565b81146200059757600080fd5b50565b608051613a25620005bd6000396000818161178d01526118c60152613a256000f3fe608060405234801561001057600080fd5b50600436106101cf5760003560e01c8063853828b611610104578063b6b55f25116100a2578063def68a9c11610071578063def68a9c146104eb578063e2d1e75c14610507578063e668524414610525578063f2fde38b1461052f576101cf565b8063b6b55f251461048b578063d389800f146104a7578063dd62ed3e146104b1578063de5f6268146104e1576101cf565b8063a457c2d7116100de578063a457c2d7146103ef578063a8c62e761461041f578063a9059cbb1461043d578063b69ef8a81461046d576101cf565b8063853828b6146103a95780638da5cb5b146103b357806395d89b41146103d1576101cf565b8063395093511161017157806370a082311161014b57806370a0823114610332578063715018a61461036257806376dfabb81461036c57806377c7b8fc1461038b576101cf565b806339509351146102c857806348a0d754146102f85780635b12ff9b14610316576101cf565b80631f1fcd51116101ad5780631f1fcd511461024057806323b872dd1461025e5780632e1a7d4d1461028e578063313ce567146102aa576101cf565b806306fdde03146101d4578063095ea7b3146101f257806318160ddd14610222575b600080fd5b6101dc61054b565b6040516101e99190612ea0565b60405180910390f35b61020c6004803603810190610207919061295d565b6105dd565b6040516102199190612e4f565b60405180910390f35b61022a6105fb565b6040516102379190613142565b60405180910390f35b610248610605565b6040516102559190612e6a565b60405180910390f35b6102786004803603810190610273919061290e565b6106ac565b6040516102859190612e4f565b60405180910390f35b6102a860048036038101906102a391906129eb565b6107a4565b005b6102b2610a29565b6040516102bf919061315d565b60405180910390f35b6102e260048036038101906102dd919061295d565b610a32565b6040516102ef9190612e4f565b60405180910390f35b610300610ade565b60405161030d9190613142565b60405180910390f35b610330600480360381019061032b9190612880565b610b75565b005b61034c60048036038101906103479190612880565b610d97565b6040516103599190613142565b60405180910390f35b61036a610ddf565b005b610374610e67565b604051610382929190612e26565b60405180910390f35b610393610e99565b6040516103a09190613142565b60405180910390f35b6103b1610ef8565b005b6103bb610f0b565b6040516103c89190612dd4565b60405180910390f35b6103d9610f35565b6040516103e69190612ea0565b60405180910390f35b6104096004803603810190610404919061295d565b610fc7565b6040516104169190612e4f565b60405180910390f35b6104276110b2565b6040516104349190612e85565b60405180910390f35b6104576004803603810190610452919061295d565b6110d8565b6040516104649190612e4f565b60405180910390f35b6104756110f6565b6040516104829190613142565b60405180910390f35b6104a560048036038101906104a091906129eb565b61123e565b005b6104af6113d7565b005b6104cb60048036038101906104c691906128d2565b6114bc565b6040516104d89190613142565b60405180910390f35b6104e9611543565b005b61050560048036038101906105009190612880565b6115dd565b005b61050f61178b565b60405161051c9190613142565b60405180910390f35b61052d6117af565b005b61054960048036038101906105449190612880565b611adb565b005b60606003805461055a906133a1565b80601f0160208091040260200160405190810160405280929190818152602001828054610586906133a1565b80156105d35780601f106105a8576101008083540402835291602001916105d3565b820191906000526020600020905b8154815290600101906020018083116105b657829003601f168201915b5050505050905090565b60006105f16105ea611bd3565b8484611bdb565b6001905092915050565b6000600254905090565b6000600960009054906101000a900473ffffffffffffffffffffffffffffffffffffffff1673ffffffffffffffffffffffffffffffffffffffff16631f1fcd516040518163ffffffff1660e01b815260040160206040518083038186803b15801561066f57600080fd5b505afa158015610683573d6000803e3d6000fd5b505050506040513d601f19601f820116820180604052508101906106a791906129c2565b905090565b60006106b9848484611da6565b6000600160008673ffffffffffffffffffffffffffffffffffffffff1673ffffffffffffffffffffffffffffffffffffffff1681526020019081526020016000206000610704611bd3565b73ffffffffffffffffffffffffffffffffffffffff1673ffffffffffffffffffffffffffffffffffffffff16815260200190815260200160002054905082811015610784576040517f08c379a000000000000000000000000000000000000000000000000000000000815260040161077b90612fe2565b60405180910390fd5b61079885610790611bd3565b858403611bdb565b60019150509392505050565b60006107d96107b16105fb565b6107cb846107bd6110f6565b61202790919063ffffffff16565b61203d90919063ffffffff16565b90506107e53383612053565b60006107ef610605565b73ffffffffffffffffffffffffffffffffffffffff166370a08231306040518263ffffffff1660e01b81526004016108279190612dd4565b60206040518083038186803b15801561083f57600080fd5b505afa158015610853573d6000803e3d6000fd5b505050506040513d601f19601f820116820180604052508101906108779190612a14565b9050818110156109f2576000610896828461222a90919063ffffffff16565b9050600960009054906101000a900473ffffffffffffffffffffffffffffffffffffffff1673ffffffffffffffffffffffffffffffffffffffff16632e1a7d4d826040518263ffffffff1660e01b81526004016108f39190613142565b600060405180830381600087803b15801561090d57600080fd5b505af1158015610921573d6000803e3d6000fd5b50505050600061092f610605565b73ffffffffffffffffffffffffffffffffffffffff166370a08231306040518263ffffffff1660e01b81526004016109679190612dd4565b60206040518083038186803b15801561097f57600080fd5b505afa158015610993573d6000803e3d6000fd5b505050506040513d601f19601f820116820180604052508101906109b79190612a14565b905060006109ce848361222a90919063ffffffff16565b9050828110156109ee576109eb818561224090919063ffffffff16565b94505b5050505b610a2433836109ff610605565b73ffffffffffffffffffffffffffffffffffffffff166122569092919063ffffffff16565b505050565b60006012905090565b6000610ad4610a3f611bd3565b848460016000610a4d611bd3565b73ffffffffffffffffffffffffffffffffffffffff1673ffffffffffffffffffffffffffffffffffffffff16815260200190815260200160002060008873ffffffffffffffffffffffffffffffffffffffff1673ffffffffffffffffffffffffffffffffffffffff16815260200190815260200160002054610acf91906131aa565b611bdb565b6001905092915050565b6000610ae8610605565b73ffffffffffffffffffffffffffffffffffffffff166370a08231306040518263ffffffff1660e01b8152600401610b209190612dd4565b60206040518083038186803b158015610b3857600080fd5b505afa158015610b4c573d6000803e3d6000fd5b505050506040513d601f19601f82011682018060405250810190610b709190612a14565b905090565b610b7d611bd3565b73ffffffffffffffffffffffffffffffffffffffff16610b9b610f0b565b73ffffffffffffffffffffffffffffffffffffffff1614610bf1576040517f08c379a0000000000000000000000000000000000000000000000000000000008152600401610be890613002565b60405180910390fd5b8073ffffffffffffffffffffffffffffffffffffffff1663fbfa77cf6040518163ffffffff1660e01b815260040160206040518083038186803b158015610c3757600080fd5b505afa158015610c4b573d6000803e3d6000fd5b505050506040513d601f19601f82011682018060405250810190610c6f91906128a9565b73ffffffffffffffffffffffffffffffffffffffff163073ffffffffffffffffffffffffffffffffffffffff1614610cdc576040517f08c379a0000000000000000000000000000000000000000000000000000000008152600401610cd390612fc2565b60405180910390fd5b60405180604001604052808273ffffffffffffffffffffffffffffffffffffffff16815260200142815250600760008201518160000160006101000a81548173ffffffffffffffffffffffffffffffffffffffff021916908373ffffffffffffffffffffffffffffffffffffffff160217905550602082015181600101559050507f1aae2ec5647db56da2d513de40528ba3565c6057525637050660c4323bbac7df81604051610d8c9190612dd4565b60405180910390a150565b60008060008373ffffffffffffffffffffffffffffffffffffffff1673ffffffffffffffffffffffffffffffffffffffff168152602001908152602001600020549050919050565b610de7611bd3565b73ffffffffffffffffffffffffffffffffffffffff16610e05610f0b565b73ffffffffffffffffffffffffffffffffffffffff1614610e5b576040517f08c379a0000000000000000000000000000000000000000000000000000000008152600401610e5290613002565b60405180910390fd5b610e6560006122dc565b565b60078060000160009054906101000a900473ffffffffffffffffffffffffffffffffffffffff16908060010154905082565b600080610ea46105fb565b14610ee957610ee4610eb46105fb565b610ed6670de0b6b3a7640000610ec86110f6565b61202790919063ffffffff16565b61203d90919063ffffffff16565b610ef3565b670de0b6b3a76400005b905090565b610f09610f0433610d97565b6107a4565b565b6000600560009054906101000a900473ffffffffffffffffffffffffffffffffffffffff16905090565b606060048054610f44906133a1565b80601f0160208091040260200160405190810160405280929190818152602001828054610f70906133a1565b8015610fbd5780601f10610f9257610100808354040283529160200191610fbd565b820191906000526020600020905b815481529060010190602001808311610fa057829003601f168201915b5050505050905090565b60008060016000610fd6611bd3565b73ffffffffffffffffffffffffffffffffffffffff1673ffffffffffffffffffffffffffffffffffffffff16815260200190815260200160002060008573ffffffffffffffffffffffffffffffffffffffff1673ffffffffffffffffffffffffffffffffffffffff16815260200190815260200160002054905082811015611093576040517f08c379a000000000000000000000000000000000000000000000000000000000815260040161108a90613102565b60405180910390fd5b6110a761109e611bd3565b85858403611bdb565b600191505092915050565b600960009054906101000a900473ffffffffffffffffffffffffffffffffffffffff1681565b60006110ec6110e5611bd3565b8484611da6565b6001905092915050565b6000611239600960009054906101000a900473ffffffffffffffffffffffffffffffffffffffff1673ffffffffffffffffffffffffffffffffffffffff1663722713f76040518163ffffffff1660e01b815260040160206040518083038186803b15801561116357600080fd5b505afa158015611177573d6000803e3d6000fd5b505050506040513d601f19601f8201168201806040525081019061119b9190612a14565b6111a3610605565b73ffffffffffffffffffffffffffffffffffffffff166370a08231306040518263ffffffff1660e01b81526004016111db9190612dd4565b60206040518083038186803b1580156111f357600080fd5b505afa158015611207573d6000803e3d6000fd5b505050506040513d601f19601f8201168201806040525081019061122b9190612a14565b61224090919063ffffffff16565b905090565b60026006541415611284576040517f08c379a000000000000000000000000000000000000000000000000000000000815260040161127b906130e2565b60405180910390fd5b6002600681905550600960009054906101000a900473ffffffffffffffffffffffffffffffffffffffff1673ffffffffffffffffffffffffffffffffffffffff1663573fef0a6040518163ffffffff1660e01b8152600401600060405180830381600087803b1580156112f657600080fd5b505af115801561130a573d6000803e3d6000fd5b5050505060006113186110f6565b905061134e333084611328610605565b73ffffffffffffffffffffffffffffffffffffffff166123a2909392919063ffffffff16565b6113566113d7565b60006113606110f6565b9050611375828261222a90919063ffffffff16565b92506000806113826105fb565b1415611390578390506113bf565b6113bc836113ae61139f6105fb565b8761202790919063ffffffff16565b61203d90919063ffffffff16565b90505b6113c9338261242b565b505050600160068190555050565b60006113e1610ade565b9050611437600960009054906101000a900473ffffffffffffffffffffffffffffffffffffffff1682611412610605565b73ffffffffffffffffffffffffffffffffffffffff166122569092919063ffffffff16565b600960009054906101000a900473ffffffffffffffffffffffffffffffffffffffff1673ffffffffffffffffffffffffffffffffffffffff1663d0e30db06040518163ffffffff1660e01b8152600401600060405180830381600087803b1580156114a157600080fd5b505af11580156114b5573d6000803e3d6000fd5b5050505050565b6000600160008473ffffffffffffffffffffffffffffffffffffffff1673ffffffffffffffffffffffffffffffffffffffff16815260200190815260200160002060008373ffffffffffffffffffffffffffffffffffffffff1673ffffffffffffffffffffffffffffffffffffffff16815260200190815260200160002054905092915050565b6115db61154e610605565b73ffffffffffffffffffffffffffffffffffffffff166370a08231336040518263ffffffff1660e01b81526004016115869190612dd4565b60206040518083038186803b15801561159e57600080fd5b505afa1580156115b2573d6000803e3d6000fd5b505050506040513d601f19601f820116820180604052508101906115d69190612a14565b61123e565b565b6115e5611bd3565b73ffffffffffffffffffffffffffffffffffffffff16611603610f0b565b73ffffffffffffffffffffffffffffffffffffffff1614611659576040517f08c379a000000000000000000000000000000000000000000000000000000000815260040161165090613002565b60405180910390fd5b611661610605565b73ffffffffffffffffffffffffffffffffffffffff168173ffffffffffffffffffffffffffffffffffffffff1614156116cf576040517f08c379a00000000000000000000000000000000000000000000000000000000081526004016116c690612fa2565b60405180910390fd5b60008173ffffffffffffffffffffffffffffffffffffffff166370a08231306040518263ffffffff1660e01b815260040161170a9190612dd4565b60206040518083038186803b15801561172257600080fd5b505afa158015611736573d6000803e3d6000fd5b505050506040513d601f19601f8201168201806040525081019061175a9190612a14565b905061178733828473ffffffffffffffffffffffffffffffffffffffff166122569092919063ffffffff16565b5050565b7f000000000000000000000000000000000000000000000000000000000000000081565b6117b7611bd3565b73ffffffffffffffffffffffffffffffffffffffff166117d5610f0b565b73ffffffffffffffffffffffffffffffffffffffff161461182b576040517f08c379a000000000000000000000000000000000000000000000000000000000815260040161182290613002565b60405180910390fd5b600073ffffffffffffffffffffffffffffffffffffffff16600760000160009054906101000a900473ffffffffffffffffffffffffffffffffffffffff1673ffffffffffffffffffffffffffffffffffffffff1614156118c0576040517f08c379a00000000000000000000000000000000000000000000000000000000081526004016118b790613062565b60405180910390fd5b426118f97f000000000000000000000000000000000000000000000000000000000000000060076001015461224090919063ffffffff16565b10611939576040517f08c379a000000000000000000000000000000000000000000000000000000000815260040161193090612f82565b60405180910390fd5b7f7f37d440e85aba7fbf641c4bda5ca4ef669a80bffaacde2aa8d9feb1b048c82c600760000160009054906101000a900473ffffffffffffffffffffffffffffffffffffffff1660405161198d9190612dd4565b60405180910390a1600960009054906101000a900473ffffffffffffffffffffffffffffffffffffffff1673ffffffffffffffffffffffffffffffffffffffff1663fb6177876040518163ffffffff1660e01b8152600401600060405180830381600087803b1580156119ff57600080fd5b505af1158015611a13573d6000803e3d6000fd5b50505050600760000160009054906101000a900473ffffffffffffffffffffffffffffffffffffffff16600960006101000a81548173ffffffffffffffffffffffffffffffffffffffff021916908373ffffffffffffffffffffffffffffffffffffffff1602179055506000600760000160006101000a81548173ffffffffffffffffffffffffffffffffffffffff021916908373ffffffffffffffffffffffffffffffffffffffff16021790555064012a05f200600760010181905550611ad96113d7565b565b611ae3611bd3565b73ffffffffffffffffffffffffffffffffffffffff16611b01610f0b565b73ffffffffffffffffffffffffffffffffffffffff1614611b57576040517f08c379a0000000000000000000000000000000000000000000000000000000008152600401611b4e90613002565b60405180910390fd5b600073ffffffffffffffffffffffffffffffffffffffff168173ffffffffffffffffffffffffffffffffffffffff161415611bc7576040517f08c379a0000000000000000000000000000000000000000000000000000000008152600401611bbe90612f02565b60405180910390fd5b611bd0816122dc565b50565b600033905090565b600073ffffffffffffffffffffffffffffffffffffffff168373ffffffffffffffffffffffffffffffffffffffff161415611c4b576040517f08c379a0000000000000000000000000000000000000000000000000000000008152600401611c4290613082565b60405180910390fd5b600073ffffffffffffffffffffffffffffffffffffffff168273ffffffffffffffffffffffffffffffffffffffff161415611cbb576040517f08c379a0000000000000000000000000000000000000000000000000000000008152600401611cb290612f22565b60405180910390fd5b80600160008573ffffffffffffffffffffffffffffffffffffffff1673ffffffffffffffffffffffffffffffffffffffff16815260200190815260200160002060008473ffffffffffffffffffffffffffffffffffffffff1673ffffffffffffffffffffffffffffffffffffffff168152602001908152602001600020819055508173ffffffffffffffffffffffffffffffffffffffff168373ffffffffffffffffffffffffffffffffffffffff167f8c5be1e5ebec7d5bd14f71427d1e84f3dd0314c0f7b2291e5b200ac8c7c3b92583604051611d999190613142565b60405180910390a3505050565b600073ffffffffffffffffffffffffffffffffffffffff168373ffffffffffffffffffffffffffffffffffffffff161415611e16576040517f08c379a0000000000000000000000000000000000000000000000000000000008152600401611e0d90613042565b60405180910390fd5b600073ffffffffffffffffffffffffffffffffffffffff168273ffffffffffffffffffffffffffffffffffffffff161415611e86576040517f08c379a0000000000000000000000000000000000000000000000000000000008152600401611e7d90612ec2565b60405180910390fd5b611e9183838361258b565b60008060008573ffffffffffffffffffffffffffffffffffffffff1673ffffffffffffffffffffffffffffffffffffffff16815260200190815260200160002054905081811015611f17576040517f08c379a0000000000000000000000000000000000000000000000000000000008152600401611f0e90612f42565b60405180910390fd5b8181036000808673ffffffffffffffffffffffffffffffffffffffff1673ffffffffffffffffffffffffffffffffffffffff16815260200190815260200160002081905550816000808573ffffffffffffffffffffffffffffffffffffffff1673ffffffffffffffffffffffffffffffffffffffff1681526020019081526020016000206000828254611faa91906131aa565b925050819055508273ffffffffffffffffffffffffffffffffffffffff168473ffffffffffffffffffffffffffffffffffffffff167fddf252ad1be2c89b69c2b068fc378daa952ba7f163c4a11628f55a4df523b3ef8460405161200e9190613142565b60405180910390a3612021848484612590565b50505050565b600081836120359190613231565b905092915050565b6000818361204b9190613200565b905092915050565b600073ffffffffffffffffffffffffffffffffffffffff168273ffffffffffffffffffffffffffffffffffffffff1614156120c3576040517f08c379a00000000000000000000000000000000000000000000000000000000081526004016120ba90613022565b60405180910390fd5b6120cf8260008361258b565b60008060008473ffffffffffffffffffffffffffffffffffffffff1673ffffffffffffffffffffffffffffffffffffffff16815260200190815260200160002054905081811015612155576040517f08c379a000000000000000000000000000000000000000000000000000000000815260040161214c90612ee2565b60405180910390fd5b8181036000808573ffffffffffffffffffffffffffffffffffffffff1673ffffffffffffffffffffffffffffffffffffffff1681526020019081526020016000208190555081600260008282546121ac919061328b565b92505081905550600073ffffffffffffffffffffffffffffffffffffffff168373ffffffffffffffffffffffffffffffffffffffff167fddf252ad1be2c89b69c2b068fc378daa952ba7f163c4a11628f55a4df523b3ef846040516122119190613142565b60405180910390a361222583600084612590565b505050565b60008183612238919061328b565b905092915050565b6000818361224e91906131aa565b905092915050565b6122d78363a9059cbb60e01b8484604051602401612275929190612e26565b604051602081830303815290604052907bffffffffffffffffffffffffffffffffffffffffffffffffffffffff19166020820180517bffffffffffffffffffffffffffffffffffffffffffffffffffffffff8381831617835250505050612595565b505050565b6000600560009054906101000a900473ffffffffffffffffffffffffffffffffffffffff16905081600560006101000a81548173ffffffffffffffffffffffffffffffffffffffff021916908373ffffffffffffffffffffffffffffffffffffffff1602179055508173ffffffffffffffffffffffffffffffffffffffff168173ffffffffffffffffffffffffffffffffffffffff167f8be0079c531659141344cd1fd0a4f28419497f9722a3daafe3b4186f6b6457e060405160405180910390a35050565b612425846323b872dd60e01b8585856040516024016123c393929190612def565b604051602081830303815290604052907bffffffffffffffffffffffffffffffffffffffffffffffffffffffff19166020820180517bffffffffffffffffffffffffffffffffffffffffffffffffffffffff8381831617835250505050612595565b50505050565b600073ffffffffffffffffffffffffffffffffffffffff168273ffffffffffffffffffffffffffffffffffffffff16141561249b576040517f08c379a000000000000000000000000000000000000000000000000000000000815260040161249290613122565b60405180910390fd5b6124a76000838361258b565b80600260008282546124b991906131aa565b92505081905550806000808473ffffffffffffffffffffffffffffffffffffffff1673ffffffffffffffffffffffffffffffffffffffff168152602001908152602001600020600082825461250e91906131aa565b925050819055508173ffffffffffffffffffffffffffffffffffffffff16600073ffffffffffffffffffffffffffffffffffffffff167fddf252ad1be2c89b69c2b068fc378daa952ba7f163c4a11628f55a4df523b3ef836040516125739190613142565b60405180910390a361258760008383612590565b5050565b505050565b505050565b60006125f7826040518060400160405280602081526020017f5361666545524332303a206c6f772d6c6576656c2063616c6c206661696c65648152508573ffffffffffffffffffffffffffffffffffffffff1661265c9092919063ffffffff16565b905060008151111561265757808060200190518101906126179190612999565b612656576040517f08c379a000000000000000000000000000000000000000000000000000000000815260040161264d906130c2565b60405180910390fd5b5b505050565b606061266b8484600085612674565b90509392505050565b6060824710156126b9576040517f08c379a00000000000000000000000000000000000000000000000000000000081526004016126b090612f62565b60405180910390fd5b6126c285612788565b612701576040517f08c379a00000000000000000000000000000000000000000000000000000000081526004016126f8906130a2565b60405180910390fd5b6000808673ffffffffffffffffffffffffffffffffffffffff16858760405161272a9190612dbd565b60006040518083038185875af1925050503d8060008114612767576040519150601f19603f3d011682016040523d82523d6000602084013e61276c565b606091505b509150915061277c82828661279b565b92505050949350505050565b600080823b905060008111915050919050565b606083156127ab578290506127fb565b6000835111156127be5782518084602001fd5b816040517f08c379a00000000000000000000000000000000000000000000000000000000081526004016127f29190612ea0565b60405180910390fd5b9392505050565b60008135905061281181613993565b92915050565b60008151905061282681613993565b92915050565b60008151905061283b816139aa565b92915050565b600081519050612850816139c1565b92915050565b600081359050612865816139d8565b92915050565b60008151905061287a816139d8565b92915050565b60006020828403121561289257600080fd5b60006128a084828501612802565b91505092915050565b6000602082840312156128bb57600080fd5b60006128c984828501612817565b91505092915050565b600080604083850312156128e557600080fd5b60006128f385828601612802565b925050602061290485828601612802565b9150509250929050565b60008060006060848603121561292357600080fd5b600061293186828701612802565b935050602061294286828701612802565b925050604061295386828701612856565b9150509250925092565b6000806040838503121561297057600080fd5b600061297e85828601612802565b925050602061298f85828601612856565b9150509250929050565b6000602082840312156129ab57600080fd5b60006129b98482850161282c565b91505092915050565b6000602082840312156129d457600080fd5b60006129e284828501612841565b91505092915050565b6000602082840312156129fd57600080fd5b6000612a0b84828501612856565b91505092915050565b600060208284031215612a2657600080fd5b6000612a348482850161286b565b91505092915050565b612a46816132bf565b82525050565b612a55816132d1565b82525050565b6000612a6682613178565b612a70818561318e565b9350612a8081856020860161336e565b80840191505092915050565b612a9581613326565b82525050565b612aa48161334a565b82525050565b6000612ab582613183565b612abf8185613199565b9350612acf81856020860161336e565b612ad881613460565b840191505092915050565b6000612af0602383613199565b9150612afb82613471565b604082019050919050565b6000612b13602283613199565b9150612b1e826134c0565b604082019050919050565b6000612b36602683613199565b9150612b418261350f565b604082019050919050565b6000612b59602283613199565b9150612b648261355e565b604082019050919050565b6000612b7c602683613199565b9150612b87826135ad565b604082019050919050565b6000612b9f602683613199565b9150612baa826135fc565b604082019050919050565b6000612bc2601483613199565b9150612bcd8261364b565b602082019050919050565b6000612be5600683613199565b9150612bf082613674565b602082019050919050565b6000612c08602183613199565b9150612c138261369d565b604082019050919050565b6000612c2b602883613199565b9150612c36826136ec565b604082019050919050565b6000612c4e602083613199565b9150612c598261373b565b602082019050919050565b6000612c71602183613199565b9150612c7c82613764565b604082019050919050565b6000612c94602583613199565b9150612c9f826137b3565b604082019050919050565b6000612cb7601583613199565b9150612cc282613802565b602082019050919050565b6000612cda602483613199565b9150612ce58261382b565b604082019050919050565b6000612cfd601d83613199565b9150612d088261387a565b602082019050919050565b6000612d20602a83613199565b9150612d2b826138a3565b604082019050919050565b6000612d43601f83613199565b9150612d4e826138f2565b602082019050919050565b6000612d66602583613199565b9150612d718261391b565b604082019050919050565b6000612d89601f83613199565b9150612d948261396a565b602082019050919050565b612da88161330f565b82525050565b612db781613319565b82525050565b6000612dc98284612a5b565b915081905092915050565b6000602082019050612de96000830184612a3d565b92915050565b6000606082019050612e046000830186612a3d565b612e116020830185612a3d565b612e1e6040830184612d9f565b949350505050565b6000604082019050612e3b6000830185612a3d565b612e486020830184612d9f565b9392505050565b6000602082019050612e646000830184612a4c565b92915050565b6000602082019050612e7f6000830184612a8c565b92915050565b6000602082019050612e9a6000830184612a9b565b92915050565b60006020820190508181036000830152612eba8184612aaa565b905092915050565b60006020820190508181036000830152612edb81612ae3565b9050919050565b60006020820190508181036000830152612efb81612b06565b9050919050565b60006020820190508181036000830152612f1b81612b29565b9050919050565b60006020820190508181036000830152612f3b81612b4c565b9050919050565b60006020820190508181036000830152612f5b81612b6f565b9050919050565b60006020820190508181036000830152612f7b81612b92565b9050919050565b60006020820190508181036000830152612f9b81612bb5565b9050919050565b60006020820190508181036000830152612fbb81612bd8565b9050919050565b60006020820190508181036000830152612fdb81612bfb565b9050919050565b60006020820190508181036000830152612ffb81612c1e565b9050919050565b6000602082019050818103600083015261301b81612c41565b9050919050565b6000602082019050818103600083015261303b81612c64565b9050919050565b6000602082019050818103600083015261305b81612c87565b9050919050565b6000602082019050818103600083015261307b81612caa565b9050919050565b6000602082019050818103600083015261309b81612ccd565b9050919050565b600060208201905081810360008301526130bb81612cf0565b9050919050565b600060208201905081810360008301526130db81612d13565b9050919050565b600060208201905081810360008301526130fb81612d36565b9050919050565b6000602082019050818103600083015261311b81612d59565b9050919050565b6000602082019050818103600083015261313b81612d7c565b9050919050565b60006020820190506131576000830184612d9f565b92915050565b60006020820190506131726000830184612dae565b92915050565b600081519050919050565b600081519050919050565b600081905092915050565b600082825260208201905092915050565b60006131b58261330f565b91506131c08361330f565b9250827fffffffffffffffffffffffffffffffffffffffffffffffffffffffffffffffff038211156131f5576131f46133d3565b5b828201905092915050565b600061320b8261330f565b91506132168361330f565b92508261322657613225613402565b5b828204905092915050565b600061323c8261330f565b91506132478361330f565b9250817fffffffffffffffffffffffffffffffffffffffffffffffffffffffffffffffff04831182151516156132805761327f6133d3565b5b828202905092915050565b60006132968261330f565b91506132a18361330f565b9250828210156132b4576132b36133d3565b5b828203905092915050565b60006132ca826132ef565b9050919050565b60008115159050919050565b60006132e8826132bf565b9050919050565b600073ffffffffffffffffffffffffffffffffffffffff82169050919050565b6000819050919050565b600060ff82169050919050565b600061333182613338565b9050919050565b6000613343826132ef565b9050919050565b60006133558261335c565b9050919050565b6000613367826132ef565b9050919050565b60005b8381101561338c578082015181840152602081019050613371565b8381111561339b576000848401525b50505050565b600060028204905060018216806133b957607f821691505b602082108114156133cd576133cc613431565b5b50919050565b7f4e487b7100000000000000000000000000000000000000000000000000000000600052601160045260246000fd5b7f4e487b7100000000000000000000000000000000000000000000000000000000600052601260045260246000fd5b7f4e487b7100000000000000000000000000000000000000000000000000000000600052602260045260246000fd5b6000601f19601f8301169050919050565b7f45524332303a207472616e7366657220746f20746865207a65726f206164647260008201527f6573730000000000000000000000000000000000000000000000000000000000602082015250565b7f45524332303a206275726e20616d6f756e7420657863656564732062616c616e60008201527f6365000000000000000000000000000000000000000000000000000000000000602082015250565b7f4f776e61626c653a206e6577206f776e657220697320746865207a65726f206160008201527f6464726573730000000000000000000000000000000000000000000000000000602082015250565b7f45524332303a20617070726f766520746f20746865207a65726f20616464726560008201527f7373000000000000000000000000000000000000000000000000000000000000602082015250565b7f45524332303a207472616e7366657220616d6f756e742065786365656473206260008201527f616c616e63650000000000000000000000000000000000000000000000000000602082015250565b7f416464726573733a20696e73756666696369656e742062616c616e636520666f60008201527f722063616c6c0000000000000000000000000000000000000000000000000000602082015250565b7f44656c617920686173206e6f7420706173736564000000000000000000000000600082015250565b7f21746f6b656e0000000000000000000000000000000000000000000000000000600082015250565b7f50726f706f73616c206e6f742076616c696420666f722074686973205661756c60008201527f7400000000000000000000000000000000000000000000000000000000000000602082015250565b7f45524332303a207472616e7366657220616d6f756e742065786365656473206160008201527f6c6c6f77616e6365000000000000000000000000000000000000000000000000602082015250565b7f4f776e61626c653a2063616c6c6572206973206e6f7420746865206f776e6572600082015250565b7f45524332303a206275726e2066726f6d20746865207a65726f2061646472657360008201527f7300000000000000000000000000000000000000000000000000000000000000602082015250565b7f45524332303a207472616e736665722066726f6d20746865207a65726f20616460008201527f6472657373000000000000000000000000000000000000000000000000000000602082015250565b7f5468657265206973206e6f2063616e6469646174650000000000000000000000600082015250565b7f45524332303a20617070726f76652066726f6d20746865207a65726f2061646460008201527f7265737300000000000000000000000000000000000000000000000000000000602082015250565b7f416464726573733a2063616c6c20746f206e6f6e2d636f6e7472616374000000600082015250565b7f5361666545524332303a204552433230206f7065726174696f6e20646964206e60008201527f6f74207375636365656400000000000000000000000000000000000000000000602082015250565b7f5265656e7472616e637947756172643a207265656e7472616e742063616c6c00600082015250565b7f45524332303a2064656372656173656420616c6c6f77616e63652062656c6f7760008201527f207a65726f000000000000000000000000000000000000000000000000000000602082015250565b7f45524332303a206d696e7420746f20746865207a65726f206164647265737300600082015250565b61399c816132bf565b81146139a757600080fd5b50565b6139b3816132d1565b81146139be57600080fd5b50565b6139ca816132dd565b81146139d557600080fd5b50565b6139e18161330f565b81146139ec57600080fd5b5056fea26469706673582212205ef6666f7b56a77a8c572a961071a01aee8d96859a8aa039dca030c55f56e94e64736f6c63430008040033",
  "linkReferences": {},
  "deployedLinkReferences": {}
}