{
  "_format": "hh-sol-artifact-1",
  "contractName": "StrategyCommonMiniChefLP",
  "sourceName": "contracts/strategy/sushi/StrategyCommonMiniChefLP.sol",
  "abi": [
    {
      "inputs": [
        {
          "internalType": "address",
          "name": "_want",
          "type": "address"
        },
        {
          "internalType": "uint256",
          "name": "_poolId",
          "type": "uint256"
        },
        {
          "internalType": "address",
          "name": "_chef",
          "type": "address"
        },
        {
          "internalType": "address",
          "name": "_vault",
          "type": "address"
        },
        {
          "internalType": "address",
          "name": "_unirouter",
          "type": "address"
        },
        {
          "internalType": "address",
          "name": "_keeper",
          "type": "address"
        },
        {
          "internalType": "address",
          "name": "_strategist",
          "type": "address"
        },
        {
          "internalType": "address",
          "name": "_beefyFeeRecipient",
          "type": "address"
        },
        {
          "internalType": "address[]",
          "name": "_outputToNativeRoute",
          "type": "address[]"
        },
        {
          "internalType": "address[]",
          "name": "_outputToLp0Route",
          "type": "address[]"
        },
        {
          "internalType": "address[]",
          "name": "_outputToLp1Route",
          "type": "address[]"
        }
      ],
      "stateMutability": "nonpayable",
      "type": "constructor"
    },
    {
      "anonymous": false,
      "inputs": [
        {
          "indexed": true,
          "internalType": "address",
          "name": "previousOwner",
          "type": "address"
        },
        {
          "indexed": true,
          "internalType": "address",
          "name": "newOwner",
          "type": "address"
        }
      ],
      "name": "OwnershipTransferred",
      "type": "event"
    },
    {
      "anonymous": false,
      "inputs": [
        {
          "indexed": false,
          "internalType": "address",
          "name": "account",
          "type": "address"
        }
      ],
      "name": "Paused",
      "type": "event"
    },
    {
      "anonymous": false,
      "inputs": [
        {
          "indexed": true,
          "internalType": "address",
          "name": "harvester",
          "type": "address"
        }
      ],
      "name": "StratHarvest",
      "type": "event"
    },
    {
      "anonymous": false,
      "inputs": [
        {
          "indexed": false,
          "internalType": "address",
          "name": "account",
          "type": "address"
        }
      ],
      "name": "Unpaused",
      "type": "event"
    },
    {
      "inputs": [],
      "name": "MAX_CALL_FEE",
      "outputs": [
        {
          "internalType": "uint256",
          "name": "",
          "type": "uint256"
        }
      ],
      "stateMutability": "view",
      "type": "function"
    },
    {
      "inputs": [],
      "name": "MAX_FEE",
      "outputs": [
        {
          "internalType": "uint256",
          "name": "",
          "type": "uint256"
        }
      ],
      "stateMutability": "view",
      "type": "function"
    },
    {
      "inputs": [],
      "name": "STRATEGIST_FEE",
      "outputs": [
        {
          "internalType": "uint256",
          "name": "",
          "type": "uint256"
        }
      ],
      "stateMutability": "view",
      "type": "function"
    },
    {
      "inputs": [],
      "name": "WITHDRAWAL_FEE_CAP",
      "outputs": [
        {
          "internalType": "uint256",
          "name": "",
          "type": "uint256"
        }
      ],
      "stateMutability": "view",
      "type": "function"
    },
    {
      "inputs": [],
      "name": "WITHDRAWAL_MAX",
      "outputs": [
        {
          "internalType": "uint256",
          "name": "",
          "type": "uint256"
        }
      ],
      "stateMutability": "view",
      "type": "function"
    },
    {
      "inputs": [],
      "name": "balanceOf",
      "outputs": [
        {
          "internalType": "uint256",
          "name": "",
          "type": "uint256"
        }
      ],
      "stateMutability": "view",
      "type": "function"
    },
    {
      "inputs": [],
      "name": "balanceOfPool",
      "outputs": [
        {
          "internalType": "uint256",
          "name": "",
          "type": "uint256"
        }
      ],
      "stateMutability": "view",
      "type": "function"
    },
    {
      "inputs": [],
      "name": "balanceOfWant",
      "outputs": [
        {
          "internalType": "uint256",
          "name": "",
          "type": "uint256"
        }
      ],
      "stateMutability": "view",
      "type": "function"
    },
    {
      "inputs": [],
      "name": "beefyFee",
      "outputs": [
        {
          "internalType": "uint256",
          "name": "",
          "type": "uint256"
        }
      ],
      "stateMutability": "view",
      "type": "function"
    },
    {
      "inputs": [],
      "name": "beefyFeeRecipient",
      "outputs": [
        {
          "internalType": "address",
          "name": "",
          "type": "address"
        }
      ],
      "stateMutability": "view",
      "type": "function"
    },
    {
      "inputs": [],
      "name": "beforeDeposit",
      "outputs": [],
      "stateMutability": "nonpayable",
      "type": "function"
    },
    {
      "inputs": [],
      "name": "callFee",
      "outputs": [
        {
          "internalType": "uint256",
          "name": "",
          "type": "uint256"
        }
      ],
      "stateMutability": "view",
      "type": "function"
    },
    {
      "inputs": [],
      "name": "chef",
      "outputs": [
        {
          "internalType": "address",
          "name": "",
          "type": "address"
        }
      ],
      "stateMutability": "view",
      "type": "function"
    },
    {
      "inputs": [],
      "name": "deposit",
      "outputs": [],
      "stateMutability": "nonpayable",
      "type": "function"
    },
    {
      "inputs": [],
      "name": "harvest",
      "outputs": [],
      "stateMutability": "nonpayable",
      "type": "function"
    },
    {
      "inputs": [],
      "name": "harvestOnDeposit",
      "outputs": [
        {
          "internalType": "bool",
          "name": "",
          "type": "bool"
        }
      ],
      "stateMutability": "view",
      "type": "function"
    },
    {
      "inputs": [],
      "name": "keeper",
      "outputs": [
        {
          "internalType": "address",
          "name": "",
          "type": "address"
        }
      ],
      "stateMutability": "view",
      "type": "function"
    },
    {
      "inputs": [],
      "name": "lastHarvest",
      "outputs": [
        {
          "internalType": "uint256",
          "name": "",
          "type": "uint256"
        }
      ],
      "stateMutability": "view",
      "type": "function"
    },
    {
      "inputs": [],
      "name": "lpToken0",
      "outputs": [
        {
          "internalType": "address",
          "name": "",
          "type": "address"
        }
      ],
      "stateMutability": "view",
      "type": "function"
    },
    {
      "inputs": [],
      "name": "lpToken1",
      "outputs": [
        {
          "internalType": "address",
          "name": "",
          "type": "address"
        }
      ],
      "stateMutability": "view",
      "type": "function"
    },
    {
      "inputs": [],
      "name": "managerHarvest",
      "outputs": [],
      "stateMutability": "nonpayable",
      "type": "function"
    },
    {
      "inputs": [],
      "name": "native",
      "outputs": [
        {
          "internalType": "address",
          "name": "",
          "type": "address"
        }
      ],
      "stateMutability": "view",
      "type": "function"
    },
    {
      "inputs": [
        {
          "internalType": "uint256",
          "name": "",
          "type": "uint256"
        }
      ],
      "name": "nativeToOutputRoute",
      "outputs": [
        {
          "internalType": "address",
          "name": "",
          "type": "address"
        }
      ],
      "stateMutability": "view",
      "type": "function"
    },
    {
      "inputs": [],
      "name": "output",
      "outputs": [
        {
          "internalType": "address",
          "name": "",
          "type": "address"
        }
      ],
      "stateMutability": "view",
      "type": "function"
    },
    {
      "inputs": [],
      "name": "outputToLp0",
      "outputs": [
        {
          "internalType": "address[]",
          "name": "",
          "type": "address[]"
        }
      ],
      "stateMutability": "view",
      "type": "function"
    },
    {
      "inputs": [
        {
          "internalType": "uint256",
          "name": "",
          "type": "uint256"
        }
      ],
      "name": "outputToLp0Route",
      "outputs": [
        {
          "internalType": "address",
          "name": "",
          "type": "address"
        }
      ],
      "stateMutability": "view",
      "type": "function"
    },
    {
      "inputs": [],
      "name": "outputToLp1",
      "outputs": [
        {
          "internalType": "address[]",
          "name": "",
          "type": "address[]"
        }
      ],
      "stateMutability": "view",
      "type": "function"
    },
    {
      "inputs": [
        {
          "internalType": "uint256",
          "name": "",
          "type": "uint256"
        }
      ],
      "name": "outputToLp1Route",
      "outputs": [
        {
          "internalType": "address",
          "name": "",
          "type": "address"
        }
      ],
      "stateMutability": "view",
      "type": "function"
    },
    {
      "inputs": [],
      "name": "outputToNative",
      "outputs": [
        {
          "internalType": "address[]",
          "name": "",
          "type": "address[]"
        }
      ],
      "stateMutability": "view",
      "type": "function"
    },
    {
      "inputs": [
        {
          "internalType": "uint256",
          "name": "",
          "type": "uint256"
        }
      ],
      "name": "outputToNativeRoute",
      "outputs": [
        {
          "internalType": "address",
          "name": "",
          "type": "address"
        }
      ],
      "stateMutability": "view",
      "type": "function"
    },
    {
      "inputs": [],
      "name": "owner",
      "outputs": [
        {
          "internalType": "address",
          "name": "",
          "type": "address"
        }
      ],
      "stateMutability": "view",
      "type": "function"
    },
    {
      "inputs": [],
      "name": "panic",
      "outputs": [],
      "stateMutability": "nonpayable",
      "type": "function"
    },
    {
      "inputs": [],
      "name": "pause",
      "outputs": [],
      "stateMutability": "nonpayable",
      "type": "function"
    },
    {
      "inputs": [],
      "name": "paused",
      "outputs": [
        {
          "internalType": "bool",
          "name": "",
          "type": "bool"
        }
      ],
      "stateMutability": "view",
      "type": "function"
    },
    {
      "inputs": [],
      "name": "poolId",
      "outputs": [
        {
          "internalType": "uint256",
          "name": "",
          "type": "uint256"
        }
      ],
      "stateMutability": "view",
      "type": "function"
    },
    {
      "inputs": [],
      "name": "renounceOwnership",
      "outputs": [],
      "stateMutability": "nonpayable",
      "type": "function"
    },
    {
      "inputs": [],
      "name": "retireStrat",
      "outputs": [],
      "stateMutability": "nonpayable",
      "type": "function"
    },
    {
      "inputs": [
        {
          "internalType": "address",
          "name": "_beefyFeeRecipient",
          "type": "address"
        }
      ],
      "name": "setBeefyFeeRecipient",
      "outputs": [],
      "stateMutability": "nonpayable",
      "type": "function"
    },
    {
      "inputs": [
        {
          "internalType": "uint256",
          "name": "_fee",
          "type": "uint256"
        }
      ],
      "name": "setCallFee",
      "outputs": [],
      "stateMutability": "nonpayable",
      "type": "function"
    },
    {
      "inputs": [
        {
          "internalType": "bool",
          "name": "_harvestOnDeposit",
          "type": "bool"
        }
      ],
      "name": "setHarvestOnDeposit",
      "outputs": [],
      "stateMutability": "nonpayable",
      "type": "function"
    },
    {
      "inputs": [
        {
          "internalType": "address",
          "name": "_keeper",
          "type": "address"
        }
      ],
      "name": "setKeeper",
      "outputs": [],
      "stateMutability": "nonpayable",
      "type": "function"
    },
    {
      "inputs": [
        {
          "internalType": "address",
          "name": "_strategist",
          "type": "address"
        }
      ],
      "name": "setStrategist",
      "outputs": [],
      "stateMutability": "nonpayable",
      "type": "function"
    },
    {
      "inputs": [
        {
          "internalType": "address",
          "name": "_unirouter",
          "type": "address"
        }
      ],
      "name": "setUnirouter",
      "outputs": [],
      "stateMutability": "nonpayable",
      "type": "function"
    },
    {
      "inputs": [
        {
          "internalType": "address",
          "name": "_vault",
          "type": "address"
        }
      ],
      "name": "setVault",
      "outputs": [],
      "stateMutability": "nonpayable",
      "type": "function"
    },
    {
      "inputs": [
        {
          "internalType": "uint256",
          "name": "_fee",
          "type": "uint256"
        }
      ],
      "name": "setWithdrawalFee",
      "outputs": [],
      "stateMutability": "nonpayable",
      "type": "function"
    },
    {
      "inputs": [],
      "name": "strategist",
      "outputs": [
        {
          "internalType": "address",
          "name": "",
          "type": "address"
        }
      ],
      "stateMutability": "view",
      "type": "function"
    },
    {
      "inputs": [
        {
          "internalType": "address",
          "name": "newOwner",
          "type": "address"
        }
      ],
      "name": "transferOwnership",
      "outputs": [],
      "stateMutability": "nonpayable",
      "type": "function"
    },
    {
      "inputs": [],
      "name": "unirouter",
      "outputs": [
        {
          "internalType": "address",
          "name": "",
          "type": "address"
        }
      ],
      "stateMutability": "view",
      "type": "function"
    },
    {
      "inputs": [],
      "name": "unpause",
      "outputs": [],
      "stateMutability": "nonpayable",
      "type": "function"
    },
    {
      "inputs": [],
      "name": "vault",
      "outputs": [
        {
          "internalType": "address",
          "name": "",
          "type": "address"
        }
      ],
      "stateMutability": "view",
      "type": "function"
    },
    {
      "inputs": [],
      "name": "want",
      "outputs": [
        {
          "internalType": "address",
          "name": "",
          "type": "address"
        }
      ],
      "stateMutability": "view",
      "type": "function"
    },
    {
      "inputs": [
        {
          "internalType": "uint256",
          "name": "_amount",
          "type": "uint256"
        }
      ],
      "name": "withdraw",
      "outputs": [],
      "stateMutability": "nonpayable",
      "type": "function"
    },
    {
      "inputs": [],
      "name": "withdrawalFee",
      "outputs": [
        {
          "internalType": "uint256",
          "name": "",
          "type": "uint256"
        }
      ],
      "stateMutability": "view",
      "type": "function"
    }
  ],
  "bytecode": "0x6080604052600a600655600b60075560075460706103e86200002291906200191e565b6200002e91906200191e565b6008553480156200003e57600080fd5b5060405162006c7c38038062006c7c833981810160405281019062000064919062001495565b8585888a87620000896200007d62000a1760201b60201c565b62000a1f60201b60201c565b60008060146101000a81548160ff02191690831515021790555084600160006101000a81548173ffffffffffffffffffffffffffffffffffffffff021916908373ffffffffffffffffffffffffffffffffffffffff16021790555083600260006101000a81548173ffffffffffffffffffffffffffffffffffffffff021916908373ffffffffffffffffffffffffffffffffffffffff16021790555082600360006101000a81548173ffffffffffffffffffffffffffffffffffffffff021916908373ffffffffffffffffffffffffffffffffffffffff16021790555081600460006101000a81548173ffffffffffffffffffffffffffffffffffffffff021916908373ffffffffffffffffffffffffffffffffffffffff16021790555080600560006101000a81548173ffffffffffffffffffffffffffffffffffffffff021916908373ffffffffffffffffffffffffffffffffffffffff16021790555050505050508a600b60006101000a81548173ffffffffffffffffffffffffffffffffffffffff021916908373ffffffffffffffffffffffffffffffffffffffff16021790555089600f8190555088600e60006101000a81548173ffffffffffffffffffffffffffffffffffffffff021916908373ffffffffffffffffffffffffffffffffffffffff1602179055506002835110156200028657600080fd5b82600081518110620002c1577f4e487b7100000000000000000000000000000000000000000000000000000000600052603260045260246000fd5b6020026020010151600a60006101000a81548173ffffffffffffffffffffffffffffffffffffffff021916908373ffffffffffffffffffffffffffffffffffffffff16021790555082600184516200031a91906200191e565b8151811062000352577f4e487b7100000000000000000000000000000000000000000000000000000000600052603260045260246000fd5b6020026020010151600960006101000a81548173ffffffffffffffffffffffffffffffffffffffff021916908373ffffffffffffffffffffffffffffffffffffffff1602179055508260129080519060200190620003b2929190620012d4565b50600b60009054906101000a900473ffffffffffffffffffffffffffffffffffffffff1673ffffffffffffffffffffffffffffffffffffffff16630dfe16816040518163ffffffff1660e01b815260040160206040518083038186803b1580156200041c57600080fd5b505afa15801562000431573d6000803e3d6000fd5b505050506040513d601f19601f8201168201806040525081019062000457919062001469565b600c60006101000a81548173ffffffffffffffffffffffffffffffffffffffff021916908373ffffffffffffffffffffffffffffffffffffffff160217905550600a60009054906101000a900473ffffffffffffffffffffffffffffffffffffffff1673ffffffffffffffffffffffffffffffffffffffff16826000815181106200050b577f4e487b7100000000000000000000000000000000000000000000000000000000600052603260045260246000fd5b602002602001015173ffffffffffffffffffffffffffffffffffffffff16146200053457600080fd5b600c60009054906101000a900473ffffffffffffffffffffffffffffffffffffffff1673ffffffffffffffffffffffffffffffffffffffff1682600184516200057e91906200191e565b81518110620005b6577f4e487b7100000000000000000000000000000000000000000000000000000000600052603260045260246000fd5b602002602001015173ffffffffffffffffffffffffffffffffffffffff1614620005df57600080fd5b8160149080519060200190620005f7929190620012d4565b50600b60009054906101000a900473ffffffffffffffffffffffffffffffffffffffff1673ffffffffffffffffffffffffffffffffffffffff1663d21220a76040518163ffffffff1660e01b815260040160206040518083038186803b1580156200066157600080fd5b505afa15801562000676573d6000803e3d6000fd5b505050506040513d601f19601f820116820180604052508101906200069c919062001469565b600d60006101000a81548173ffffffffffffffffffffffffffffffffffffffff021916908373ffffffffffffffffffffffffffffffffffffffff160217905550600a60009054906101000a900473ffffffffffffffffffffffffffffffffffffffff1673ffffffffffffffffffffffffffffffffffffffff168160008151811062000750577f4e487b7100000000000000000000000000000000000000000000000000000000600052603260045260246000fd5b602002602001015173ffffffffffffffffffffffffffffffffffffffff16146200077957600080fd5b600d60009054906101000a900473ffffffffffffffffffffffffffffffffffffffff1673ffffffffffffffffffffffffffffffffffffffff168160018351620007c391906200191e565b81518110620007fb577f4e487b7100000000000000000000000000000000000000000000000000000000600052603260045260246000fd5b602002602001015173ffffffffffffffffffffffffffffffffffffffff16146200082457600080fd5b80601590805190602001906200083c929190620012d4565b50825167ffffffffffffffff8111156200087f577f4e487b7100000000000000000000000000000000000000000000000000000000600052604160045260246000fd5b604051908082528060200260200182016040528015620008ae5781602001602082028036833780820191505090505b5060139080519060200190620008c6929190620012d4565b5060005b8351811015620009f55760008160018651620008e791906200191e565b620008f391906200191e565b90506012818154811062000930577f4e487b7100000000000000000000000000000000000000000000000000000000600052603260045260246000fd5b9060005260206000200160009054906101000a900473ffffffffffffffffffffffffffffffffffffffff166013838154811062000996577f4e487b7100000000000000000000000000000000000000000000000000000000600052603260045260246000fd5b9060005260206000200160006101000a81548173ffffffffffffffffffffffffffffffffffffffff021916908373ffffffffffffffffffffffffffffffffffffffff160217905550508080620009ec9062001a0f565b915050620008ca565b5062000a0662000ae360201b60201c565b505050505050505050505062001c30565b600033905090565b60008060009054906101000a900473ffffffffffffffffffffffffffffffffffffffff169050816000806101000a81548173ffffffffffffffffffffffffffffffffffffffff021916908373ffffffffffffffffffffffffffffffffffffffff1602179055508173ffffffffffffffffffffffffffffffffffffffff168173ffffffffffffffffffffffffffffffffffffffff167f8be0079c531659141344cd1fd0a4f28419497f9722a3daafe3b4186f6b6457e060405160405180910390a35050565b62000b79600e60009054906101000a900473ffffffffffffffffffffffffffffffffffffffff167fffffffffffffffffffffffffffffffffffffffffffffffffffffffffffffffff600b60009054906101000a900473ffffffffffffffffffffffffffffffffffffffff1673ffffffffffffffffffffffffffffffffffffffff1662000ec160201b62002630179092919060201c565b62000c0f600360009054906101000a900473ffffffffffffffffffffffffffffffffffffffff167fffffffffffffffffffffffffffffffffffffffffffffffffffffffffffffffff600a60009054906101000a900473ffffffffffffffffffffffffffffffffffffffff1673ffffffffffffffffffffffffffffffffffffffff1662000ec160201b62002630179092919060201c565b62000ca5600360009054906101000a900473ffffffffffffffffffffffffffffffffffffffff167fffffffffffffffffffffffffffffffffffffffffffffffffffffffffffffffff600960009054906101000a900473ffffffffffffffffffffffffffffffffffffffff1673ffffffffffffffffffffffffffffffffffffffff1662000ec160201b62002630179092919060201c565b62000d1c600360009054906101000a900473ffffffffffffffffffffffffffffffffffffffff166000600c60009054906101000a900473ffffffffffffffffffffffffffffffffffffffff1673ffffffffffffffffffffffffffffffffffffffff1662000ec160201b62002630179092919060201c565b62000db2600360009054906101000a900473ffffffffffffffffffffffffffffffffffffffff167fffffffffffffffffffffffffffffffffffffffffffffffffffffffffffffffff600c60009054906101000a900473ffffffffffffffffffffffffffffffffffffffff1673ffffffffffffffffffffffffffffffffffffffff1662000ec160201b62002630179092919060201c565b62000e29600360009054906101000a900473ffffffffffffffffffffffffffffffffffffffff166000600d60009054906101000a900473ffffffffffffffffffffffffffffffffffffffff1673ffffffffffffffffffffffffffffffffffffffff1662000ec160201b62002630179092919060201c565b62000ebf600360009054906101000a900473ffffffffffffffffffffffffffffffffffffffff167fffffffffffffffffffffffffffffffffffffffffffffffffffffffffffffffff600d60009054906101000a900473ffffffffffffffffffffffffffffffffffffffff1673ffffffffffffffffffffffffffffffffffffffff1662000ec160201b62002630179092919060201c565b565b600081148062000f61575060008373ffffffffffffffffffffffffffffffffffffffff1663dd62ed3e30856040518363ffffffff1660e01b815260040162000f0b9291906200178e565b60206040518083038186803b15801562000f2457600080fd5b505afa15801562000f39573d6000803e3d6000fd5b505050506040513d601f19601f8201168201806040525081019062000f5f919062001613565b145b62000fa3576040517f08c379a000000000000000000000000000000000000000000000000000000000815260040162000f9a9062001872565b60405180910390fd5b6200102e8363095ea7b360e01b848460405160240162000fc5929190620017bb565b604051602081830303815290604052907bffffffffffffffffffffffffffffffffffffffffffffffffffffffff19166020820180517bffffffffffffffffffffffffffffffffffffffffffffffffffffffff83818316178352505050506200103360201b60201c565b505050565b60006200109c826040518060400160405280602081526020017f5361666545524332303a206c6f772d6c6576656c2063616c6c206661696c65648152508573ffffffffffffffffffffffffffffffffffffffff166200110760201b6200278e179092919060201c565b9050600081511115620011025780806020019051810190620010bf9190620015e7565b62001101576040517f08c379a0000000000000000000000000000000000000000000000000000000008152600401620010f89062001850565b60405180910390fd5b5b505050565b60606200111e84846000856200112760201b60201c565b90509392505050565b6060824710156200116f576040517f08c379a000000000000000000000000000000000000000000000000000000000815260040162001166906200180c565b60405180910390fd5b62001180856200125560201b60201c565b620011c2576040517f08c379a0000000000000000000000000000000000000000000000000000000008152600401620011b9906200182e565b60405180910390fd5b6000808673ffffffffffffffffffffffffffffffffffffffff168587604051620011ed919062001775565b60006040518083038185875af1925050503d80600081146200122c576040519150601f19603f3d011682016040523d82523d6000602084013e62001231565b606091505b5091509150620012498282866200126860201b60201c565b92505050949350505050565b600080823b905060008111915050919050565b606083156200127a57829050620012cd565b6000835111156200128e5782518084602001fd5b816040517f08c379a0000000000000000000000000000000000000000000000000000000008152600401620012c49190620017e8565b60405180910390fd5b9392505050565b82805482825590600052602060002090810192821562001350579160200282015b828111156200134f5782518260006101000a81548173ffffffffffffffffffffffffffffffffffffffff021916908373ffffffffffffffffffffffffffffffffffffffff16021790555091602001919060010190620012f5565b5b5090506200135f919062001363565b5090565b5b808211156200137e57600081600090555060010162001364565b5090565b6000620013996200139384620018bd565b62001894565b90508083825260208201905082856020860282011115620013b957600080fd5b60005b85811015620013ed5781620013d28882620013f7565b845260208401935060208301925050600181019050620013bc565b5050509392505050565b600081519050620014088162001be2565b92915050565b600082601f8301126200142057600080fd5b81516200143284826020860162001382565b91505092915050565b6000815190506200144c8162001bfc565b92915050565b600081519050620014638162001c16565b92915050565b6000602082840312156200147c57600080fd5b60006200148c84828501620013f7565b91505092915050565b60008060008060008060008060008060006101608c8e031215620014b857600080fd5b6000620014c88e828f01620013f7565b9b50506020620014db8e828f0162001452565b9a50506040620014ee8e828f01620013f7565b9950506060620015018e828f01620013f7565b9850506080620015148e828f01620013f7565b97505060a0620015278e828f01620013f7565b96505060c06200153a8e828f01620013f7565b95505060e06200154d8e828f01620013f7565b9450506101008c015167ffffffffffffffff8111156200156c57600080fd5b6200157a8e828f016200140e565b9350506101208c015167ffffffffffffffff8111156200159957600080fd5b620015a78e828f016200140e565b9250506101408c015167ffffffffffffffff811115620015c657600080fd5b620015d48e828f016200140e565b9150509295989b509295989b9093969950565b600060208284031215620015fa57600080fd5b60006200160a848285016200143b565b91505092915050565b6000602082840312156200162657600080fd5b6000620016368482850162001452565b91505092915050565b6200164a8162001959565b82525050565b60006200165d82620018ec565b62001669818562001902565b93506200167b818560208601620019a3565b80840191505092915050565b60006200169482620018f7565b620016a081856200190d565b9350620016b2818560208601620019a3565b620016bd8162001abb565b840191505092915050565b6000620016d76026836200190d565b9150620016e48262001acc565b604082019050919050565b6000620016fe601d836200190d565b91506200170b8262001b1b565b602082019050919050565b600062001725602a836200190d565b9150620017328262001b44565b604082019050919050565b60006200174c6036836200190d565b9150620017598262001b93565b604082019050919050565b6200176f8162001999565b82525050565b600062001783828462001650565b915081905092915050565b6000604082019050620017a560008301856200163f565b620017b460208301846200163f565b9392505050565b6000604082019050620017d260008301856200163f565b620017e1602083018462001764565b9392505050565b6000602082019050818103600083015262001804818462001687565b905092915050565b600060208201905081810360008301526200182781620016c8565b9050919050565b600060208201905081810360008301526200184981620016ef565b9050919050565b600060208201905081810360008301526200186b8162001716565b9050919050565b600060208201905081810360008301526200188d816200173d565b9050919050565b6000620018a0620018b3565b9050620018ae8282620019d9565b919050565b6000604051905090565b600067ffffffffffffffff821115620018db57620018da62001a8c565b5b602082029050602081019050919050565b600081519050919050565b600081519050919050565b600081905092915050565b600082825260208201905092915050565b60006200192b8262001999565b9150620019388362001999565b9250828210156200194e576200194d62001a5d565b5b828203905092915050565b6000620019668262001979565b9050919050565b60008115159050919050565b600073ffffffffffffffffffffffffffffffffffffffff82169050919050565b6000819050919050565b60005b83811015620019c3578082015181840152602081019050620019a6565b83811115620019d3576000848401525b50505050565b620019e48262001abb565b810181811067ffffffffffffffff8211171562001a065762001a0562001a8c565b5b80604052505050565b600062001a1c8262001999565b91507fffffffffffffffffffffffffffffffffffffffffffffffffffffffffffffffff82141562001a525762001a5162001a5d565b5b600182019050919050565b7f4e487b7100000000000000000000000000000000000000000000000000000000600052601160045260246000fd5b7f4e487b7100000000000000000000000000000000000000000000000000000000600052604160045260246000fd5b6000601f19601f8301169050919050565b7f416464726573733a20696e73756666696369656e742062616c616e636520666f60008201527f722063616c6c0000000000000000000000000000000000000000000000000000602082015250565b7f416464726573733a2063616c6c20746f206e6f6e2d636f6e7472616374000000600082015250565b7f5361666545524332303a204552433230206f7065726174696f6e20646964206e60008201527f6f74207375636365656400000000000000000000000000000000000000000000602082015250565b7f5361666545524332303a20617070726f76652066726f6d206e6f6e2d7a65726f60008201527f20746f206e6f6e2d7a65726f20616c6c6f77616e636500000000000000000000602082015250565b62001bed8162001959565b811462001bf957600080fd5b50565b62001c07816200196d565b811462001c1357600080fd5b50565b62001c218162001999565b811462001c2d57600080fd5b50565b61503c8062001c406000396000f3fe608060405234801561001057600080fd5b50600436106103275760003560e01c80637d38ca65116101b8578063be12a97811610104578063dfbdc437116100a2578063f2fde38b1161007c578063f2fde38b1461086e578063fb6177871461088a578063fbfa77cf14610894578063fd63a887146108b257610327565b8063dfbdc43714610814578063f1a392da14610832578063f20eaeb81461085057610327565b8063d0e30db0116100de578063d0e30db0146107c6578063d3102589146107d0578063d801d946146107ee578063d92f3d73146107f857610327565b8063be12a9781461075c578063c1a3d44c1461078c578063c7b9d530146107aa57610327565b80638e14545911610171578063a68833e51161014b578063a68833e5146106e8578063ac1e502514610704578063aced166114610720578063bc063e1a1461073e57610327565b80638e1454591461068e57806390321e1a146106ac578063989ef4e3146106ca57610327565b80637d38ca65146105ee5780638456cb591461060c578063877562b6146106165780638912cb8b146106345780638bc7e8c4146106525780638da5cb5b1461067057610327565b806336c6cf2111610277578063573fef0a116102305780636817031b1161020a5780636817031b1461058e578063715018a6146105aa578063722713f7146105b4578063748747e6146105d257610327565b8063573fef0a146105485780635c975abb146105525780635ee167c01461057057610327565b806336c6cf21146104be5780633e0dc34e146104ee5780633f4ba83a1461050c5780634641257d146105165780634700d3051461052057806354518b1a1461052a57610327565b80631f1fcd51116102e4578063257ae0de116102be578063257ae0de1461044a57806326465826146104685780632ad5a53f146104845780632e1a7d4d146104a257610327565b80631f1fcd51146103f05780631fc8bc5d1461040e5780631fe4a6861461042c57610327565b806305200c9c1461032c5780630587f7851461035c5780630e8fbb5a1461037a578063115880861461039657806311b0b42d146103b457806313e120b1146103d2575b600080fd5b61034660048036038101906103419190614135565b6108e2565b604051610353919061458f565b60405180910390f35b610364610921565b604051610371919061467a565b60405180910390f35b610394600480360381019061038f91906140e3565b6109af565b005b61039e610acf565b6040516103ab9190614879565b60405180910390f35b6103bc610b8a565b6040516103c9919061458f565b60405180910390f35b6103da610bb0565b6040516103e7919061467a565b60405180910390f35b6103f8610c3e565b604051610405919061458f565b60405180910390f35b610416610c64565b604051610423919061458f565b60405180910390f35b610434610c8a565b604051610441919061458f565b60405180910390f35b610452610cb0565b60405161045f919061458f565b60405180910390f35b610482600480360381019061047d9190614135565b610cd6565b005b61048c610e13565b6040516104999190614879565b60405180910390f35b6104bc60048036038101906104b79190614135565b610e18565b005b6104d860048036038101906104d39190614135565b611230565b6040516104e5919061458f565b60405180910390f35b6104f661126f565b6040516105039190614879565b60405180910390f35b610514611275565b005b61051e61135c565b005b61052861141c565b005b610532611584565b60405161053f9190614879565b60405180910390f35b61055061158a565b005b61055a61163a565b604051610567919061469c565b60405180910390f35b610578611650565b604051610585919061458f565b60405180910390f35b6105a860048036038101906105a39190614079565b611676565b005b6105b2611736565b005b6105bc6117be565b6040516105c99190614879565b60405180910390f35b6105ec60048036038101906105e79190614079565b6117e6565b005b6105f66118f7565b6040516106039190614879565b60405180910390f35b6106146118fc565b005b61061e6119db565b60405161062b919061458f565b60405180910390f35b61063c611a01565b604051610649919061469c565b60405180910390f35b61065a611a14565b6040516106679190614879565b60405180910390f35b610678611a1a565b604051610685919061458f565b60405180910390f35b610696611a43565b6040516106a3919061458f565b60405180910390f35b6106b4611a69565b6040516106c19190614879565b60405180910390f35b6106d2611a6f565b6040516106df919061467a565b60405180910390f35b61070260048036038101906106fd9190614079565b611afd565b005b61071e60048036038101906107199190614135565b611bbd565b005b610728611cd8565b604051610735919061458f565b60405180910390f35b610746611cfe565b6040516107539190614879565b60405180910390f35b61077660048036038101906107719190614135565b611d04565b604051610783919061458f565b60405180910390f35b610794611d43565b6040516107a19190614879565b60405180910390f35b6107c460048036038101906107bf9190614079565b611df5565b005b6107ce611ec9565b005b6107d8612060565b6040516107e59190614879565b60405180910390f35b6107f6612066565b005b610812600480360381019061080d9190614079565b61213d565b005b61081c6121fd565b6040516108299190614879565b60405180910390f35b61083a612202565b6040516108479190614879565b60405180910390f35b610858612208565b604051610865919061458f565b60405180910390f35b61088860048036038101906108839190614079565b61222e565b005b610892612326565b005b61089c6125cb565b6040516108a9919061458f565b60405180910390f35b6108cc60048036038101906108c79190614135565b6125f1565b6040516108d9919061458f565b60405180910390f35b601381815481106108f257600080fd5b906000526020600020016000915054906101000a900473ffffffffffffffffffffffffffffffffffffffff1681565b606060158054806020026020016040519081016040528092919081815260200182805480156109a557602002820191906000526020600020905b8160009054906101000a900473ffffffffffffffffffffffffffffffffffffffff1673ffffffffffffffffffffffffffffffffffffffff168152602001906001019080831161095b575b5050505050905090565b6109b7611a1a565b73ffffffffffffffffffffffffffffffffffffffff163373ffffffffffffffffffffffffffffffffffffffff161480610a3d5750600160009054906101000a900473ffffffffffffffffffffffffffffffffffffffff1673ffffffffffffffffffffffffffffffffffffffff163373ffffffffffffffffffffffffffffffffffffffff16145b610a7c576040517f08c379a0000000000000000000000000000000000000000000000000000000008152600401610a73906147f9565b60405180910390fd5b80601060006101000a81548160ff02191690831515021790555060011515601060009054906101000a900460ff1615151415610ac157610abc6000611bbd565b610acc565b610acb600a611bbd565b5b50565b600080600e60009054906101000a900473ffffffffffffffffffffffffffffffffffffffff1673ffffffffffffffffffffffffffffffffffffffff166393f1a40b600f54306040518363ffffffff1660e01b8152600401610b31929190614894565b604080518083038186803b158015610b4857600080fd5b505afa158015610b5c573d6000803e3d6000fd5b505050506040513d601f19601f82011682018060405250810190610b809190614187565b5090508091505090565b600960009054906101000a900473ffffffffffffffffffffffffffffffffffffffff1681565b60606012805480602002602001604051908101604052809291908181526020018280548015610c3457602002820191906000526020600020905b8160009054906101000a900473ffffffffffffffffffffffffffffffffffffffff1673ffffffffffffffffffffffffffffffffffffffff1681526020019060010190808311610bea575b5050505050905090565b600b60009054906101000a900473ffffffffffffffffffffffffffffffffffffffff1681565b600e60009054906101000a900473ffffffffffffffffffffffffffffffffffffffff1681565b600260009054906101000a900473ffffffffffffffffffffffffffffffffffffffff1681565b600360009054906101000a900473ffffffffffffffffffffffffffffffffffffffff1681565b610cde611a1a565b73ffffffffffffffffffffffffffffffffffffffff163373ffffffffffffffffffffffffffffffffffffffff161480610d645750600160009054906101000a900473ffffffffffffffffffffffffffffffffffffffff1673ffffffffffffffffffffffffffffffffffffffff163373ffffffffffffffffffffffffffffffffffffffff16145b610da3576040517f08c379a0000000000000000000000000000000000000000000000000000000008152600401610d9a906147f9565b60405180910390fd5b606f811115610de7576040517f08c379a0000000000000000000000000000000000000000000000000000000008152600401610dde90614779565b60405180910390fd5b8060078190555060075460706103e8610e009190614b18565b610e0a9190614b18565b60088190555050565b606f81565b600460009054906101000a900473ffffffffffffffffffffffffffffffffffffffff1673ffffffffffffffffffffffffffffffffffffffff163373ffffffffffffffffffffffffffffffffffffffff1614610ea8576040517f08c379a0000000000000000000000000000000000000000000000000000000008152600401610e9f90614799565b60405180910390fd5b6000600b60009054906101000a900473ffffffffffffffffffffffffffffffffffffffff1673ffffffffffffffffffffffffffffffffffffffff166370a08231306040518263ffffffff1660e01b8152600401610f05919061458f565b60206040518083038186803b158015610f1d57600080fd5b505afa158015610f31573d6000803e3d6000fd5b505050506040513d601f19601f82011682018060405250810190610f55919061415e565b9050818110156110b257600e60009054906101000a900473ffffffffffffffffffffffffffffffffffffffff1673ffffffffffffffffffffffffffffffffffffffff16630ad58d2f600f54610fb384866127a690919063ffffffff16565b306040518463ffffffff1660e01b8152600401610fd293929190614917565b600060405180830381600087803b158015610fec57600080fd5b505af1158015611000573d6000803e3d6000fd5b50505050600b60009054906101000a900473ffffffffffffffffffffffffffffffffffffffff1673ffffffffffffffffffffffffffffffffffffffff166370a08231306040518263ffffffff1660e01b815260040161105f919061458f565b60206040518083038186803b15801561107757600080fd5b505afa15801561108b573d6000803e3d6000fd5b505050506040513d601f19601f820116820180604052508101906110af919061415e565b90505b818111156110be578190505b6110c6611a1a565b73ffffffffffffffffffffffffffffffffffffffff163273ffffffffffffffffffffffffffffffffffffffff161480611103575061110261163a565b5b1561117c57611177600460009054906101000a900473ffffffffffffffffffffffffffffffffffffffff1682600b60009054906101000a900473ffffffffffffffffffffffffffffffffffffffff1673ffffffffffffffffffffffffffffffffffffffff166127bc9092919063ffffffff16565b61122c565b60006111a76127106111996006548561284290919063ffffffff16565b61285890919063ffffffff16565b905061122a600460009054906101000a900473ffffffffffffffffffffffffffffffffffffffff166111e283856127a690919063ffffffff16565b600b60009054906101000a900473ffffffffffffffffffffffffffffffffffffffff1673ffffffffffffffffffffffffffffffffffffffff166127bc9092919063ffffffff16565b505b5050565b6014818154811061124057600080fd5b906000526020600020016000915054906101000a900473ffffffffffffffffffffffffffffffffffffffff1681565b600f5481565b61127d611a1a565b73ffffffffffffffffffffffffffffffffffffffff163373ffffffffffffffffffffffffffffffffffffffff1614806113035750600160009054906101000a900473ffffffffffffffffffffffffffffffffffffffff1673ffffffffffffffffffffffffffffffffffffffff163373ffffffffffffffffffffffffffffffffffffffff16145b611342576040517f08c379a0000000000000000000000000000000000000000000000000000000008152600401611339906147f9565b60405180910390fd5b61134a61286e565b61135261290f565b61135a611ec9565b565b61136461163a565b156113a4576040517f08c379a000000000000000000000000000000000000000000000000000000000815260040161139b90614759565b60405180910390fd5b3273ffffffffffffffffffffffffffffffffffffffff163373ffffffffffffffffffffffffffffffffffffffff1614611412576040517f08c379a000000000000000000000000000000000000000000000000000000000815260040161140990614839565b60405180910390fd5b61141a612cbc565b565b611424611a1a565b73ffffffffffffffffffffffffffffffffffffffff163373ffffffffffffffffffffffffffffffffffffffff1614806114aa5750600160009054906101000a900473ffffffffffffffffffffffffffffffffffffffff1673ffffffffffffffffffffffffffffffffffffffff163373ffffffffffffffffffffffffffffffffffffffff16145b6114e9576040517f08c379a00000000000000000000000000000000000000000000000000000000081526004016114e0906147f9565b60405180910390fd5b6114f16118fc565b600e60009054906101000a900473ffffffffffffffffffffffffffffffffffffffff1673ffffffffffffffffffffffffffffffffffffffff16632f940c70600f54306040518363ffffffff1660e01b8152600401611550929190614894565b600060405180830381600087803b15801561156a57600080fd5b505af115801561157e573d6000803e3d6000fd5b50505050565b61271081565b601060009054906101000a900460ff161561163857600460009054906101000a900473ffffffffffffffffffffffffffffffffffffffff1673ffffffffffffffffffffffffffffffffffffffff163373ffffffffffffffffffffffffffffffffffffffff161461162f576040517f08c379a000000000000000000000000000000000000000000000000000000000815260040161162690614799565b60405180910390fd5b611637612cbc565b5b565b60008060149054906101000a900460ff16905090565b600c60009054906101000a900473ffffffffffffffffffffffffffffffffffffffff1681565b61167e612e6b565b73ffffffffffffffffffffffffffffffffffffffff1661169c611a1a565b73ffffffffffffffffffffffffffffffffffffffff16146116f2576040517f08c379a00000000000000000000000000000000000000000000000000000000081526004016116e9906147b9565b60405180910390fd5b80600460006101000a81548173ffffffffffffffffffffffffffffffffffffffff021916908373ffffffffffffffffffffffffffffffffffffffff16021790555050565b61173e612e6b565b73ffffffffffffffffffffffffffffffffffffffff1661175c611a1a565b73ffffffffffffffffffffffffffffffffffffffff16146117b2576040517f08c379a00000000000000000000000000000000000000000000000000000000081526004016117a9906147b9565b60405180910390fd5b6117bc6000612e73565b565b60006117e16117cb610acf565b6117d3611d43565b612f3790919063ffffffff16565b905090565b6117ee611a1a565b73ffffffffffffffffffffffffffffffffffffffff163373ffffffffffffffffffffffffffffffffffffffff1614806118745750600160009054906101000a900473ffffffffffffffffffffffffffffffffffffffff1673ffffffffffffffffffffffffffffffffffffffff163373ffffffffffffffffffffffffffffffffffffffff16145b6118b3576040517f08c379a00000000000000000000000000000000000000000000000000000000081526004016118aa906147f9565b60405180910390fd5b80600160006101000a81548173ffffffffffffffffffffffffffffffffffffffff021916908373ffffffffffffffffffffffffffffffffffffffff16021790555050565b607081565b611904611a1a565b73ffffffffffffffffffffffffffffffffffffffff163373ffffffffffffffffffffffffffffffffffffffff16148061198a5750600160009054906101000a900473ffffffffffffffffffffffffffffffffffffffff1673ffffffffffffffffffffffffffffffffffffffff163373ffffffffffffffffffffffffffffffffffffffff16145b6119c9576040517f08c379a00000000000000000000000000000000000000000000000000000000081526004016119c0906147f9565b60405180910390fd5b6119d1612f4d565b6119d9612ff0565b565b600d60009054906101000a900473ffffffffffffffffffffffffffffffffffffffff1681565b601060009054906101000a900460ff1681565b60065481565b60008060009054906101000a900473ffffffffffffffffffffffffffffffffffffffff16905090565b600560009054906101000a900473ffffffffffffffffffffffffffffffffffffffff1681565b60075481565b60606014805480602002602001604051908101604052809291908181526020018280548015611af357602002820191906000526020600020905b8160009054906101000a900473ffffffffffffffffffffffffffffffffffffffff1673ffffffffffffffffffffffffffffffffffffffff1681526020019060010190808311611aa9575b5050505050905090565b611b05612e6b565b73ffffffffffffffffffffffffffffffffffffffff16611b23611a1a565b73ffffffffffffffffffffffffffffffffffffffff1614611b79576040517f08c379a0000000000000000000000000000000000000000000000000000000008152600401611b70906147b9565b60405180910390fd5b80600560006101000a81548173ffffffffffffffffffffffffffffffffffffffff021916908373ffffffffffffffffffffffffffffffffffffffff16021790555050565b611bc5611a1a565b73ffffffffffffffffffffffffffffffffffffffff163373ffffffffffffffffffffffffffffffffffffffff161480611c4b5750600160009054906101000a900473ffffffffffffffffffffffffffffffffffffffff1673ffffffffffffffffffffffffffffffffffffffff163373ffffffffffffffffffffffffffffffffffffffff16145b611c8a576040517f08c379a0000000000000000000000000000000000000000000000000000000008152600401611c81906147f9565b60405180910390fd5b6032811115611cce576040517f08c379a0000000000000000000000000000000000000000000000000000000008152600401611cc590614779565b60405180910390fd5b8060068190555050565b600160009054906101000a900473ffffffffffffffffffffffffffffffffffffffff1681565b6103e881565b60128181548110611d1457600080fd5b906000526020600020016000915054906101000a900473ffffffffffffffffffffffffffffffffffffffff1681565b6000600b60009054906101000a900473ffffffffffffffffffffffffffffffffffffffff1673ffffffffffffffffffffffffffffffffffffffff166370a08231306040518263ffffffff1660e01b8152600401611da0919061458f565b60206040518083038186803b158015611db857600080fd5b505afa158015611dcc573d6000803e3d6000fd5b505050506040513d601f19601f82011682018060405250810190611df0919061415e565b905090565b600260009054906101000a900473ffffffffffffffffffffffffffffffffffffffff1673ffffffffffffffffffffffffffffffffffffffff163373ffffffffffffffffffffffffffffffffffffffff1614611e85576040517f08c379a0000000000000000000000000000000000000000000000000000000008152600401611e7c906146f9565b60405180910390fd5b80600260006101000a81548173ffffffffffffffffffffffffffffffffffffffff021916908373ffffffffffffffffffffffffffffffffffffffff16021790555050565b611ed161163a565b15611f11576040517f08c379a0000000000000000000000000000000000000000000000000000000008152600401611f0890614759565b60405180910390fd5b6000600b60009054906101000a900473ffffffffffffffffffffffffffffffffffffffff1673ffffffffffffffffffffffffffffffffffffffff166370a08231306040518263ffffffff1660e01b8152600401611f6e919061458f565b60206040518083038186803b158015611f8657600080fd5b505afa158015611f9a573d6000803e3d6000fd5b505050506040513d601f19601f82011682018060405250810190611fbe919061415e565b9050600081111561205d57600e60009054906101000a900473ffffffffffffffffffffffffffffffffffffffff1673ffffffffffffffffffffffffffffffffffffffff16638dbdbe6d600f5483306040518463ffffffff1660e01b815260040161202a93929190614917565b600060405180830381600087803b15801561204457600080fd5b505af1158015612058573d6000803e3d6000fd5b505050505b50565b60085481565b61206e611a1a565b73ffffffffffffffffffffffffffffffffffffffff163373ffffffffffffffffffffffffffffffffffffffff1614806120f45750600160009054906101000a900473ffffffffffffffffffffffffffffffffffffffff1673ffffffffffffffffffffffffffffffffffffffff163373ffffffffffffffffffffffffffffffffffffffff16145b612133576040517f08c379a000000000000000000000000000000000000000000000000000000000815260040161212a906147f9565b60405180910390fd5b61213b612cbc565b565b612145612e6b565b73ffffffffffffffffffffffffffffffffffffffff16612163611a1a565b73ffffffffffffffffffffffffffffffffffffffff16146121b9576040517f08c379a00000000000000000000000000000000000000000000000000000000081526004016121b0906147b9565b60405180910390fd5b80600360006101000a81548173ffffffffffffffffffffffffffffffffffffffff021916908373ffffffffffffffffffffffffffffffffffffffff16021790555050565b603281565b60115481565b600a60009054906101000a900473ffffffffffffffffffffffffffffffffffffffff1681565b612236612e6b565b73ffffffffffffffffffffffffffffffffffffffff16612254611a1a565b73ffffffffffffffffffffffffffffffffffffffff16146122aa576040517f08c379a00000000000000000000000000000000000000000000000000000000081526004016122a1906147b9565b60405180910390fd5b600073ffffffffffffffffffffffffffffffffffffffff168173ffffffffffffffffffffffffffffffffffffffff16141561231a576040517f08c379a000000000000000000000000000000000000000000000000000000000815260040161231190614719565b60405180910390fd5b61232381612e73565b50565b600460009054906101000a900473ffffffffffffffffffffffffffffffffffffffff1673ffffffffffffffffffffffffffffffffffffffff163373ffffffffffffffffffffffffffffffffffffffff16146123b6576040517f08c379a00000000000000000000000000000000000000000000000000000000081526004016123ad90614799565b60405180910390fd5b600e60009054906101000a900473ffffffffffffffffffffffffffffffffffffffff1673ffffffffffffffffffffffffffffffffffffffff16632f940c70600f54306040518363ffffffff1660e01b8152600401612415929190614894565b600060405180830381600087803b15801561242f57600080fd5b505af1158015612443573d6000803e3d6000fd5b505050506000600b60009054906101000a900473ffffffffffffffffffffffffffffffffffffffff1673ffffffffffffffffffffffffffffffffffffffff166370a08231306040518263ffffffff1660e01b81526004016124a4919061458f565b60206040518083038186803b1580156124bc57600080fd5b505afa1580156124d0573d6000803e3d6000fd5b505050506040513d601f19601f820116820180604052508101906124f4919061415e565b9050600b60009054906101000a900473ffffffffffffffffffffffffffffffffffffffff1673ffffffffffffffffffffffffffffffffffffffff1663a9059cbb600460009054906101000a900473ffffffffffffffffffffffffffffffffffffffff16836040518363ffffffff1660e01b8152600401612575929190614651565b602060405180830381600087803b15801561258f57600080fd5b505af11580156125a3573d6000803e3d6000fd5b505050506040513d601f19601f820116820180604052508101906125c7919061410c565b5050565b600460009054906101000a900473ffffffffffffffffffffffffffffffffffffffff1681565b6015818154811061260157600080fd5b906000526020600020016000915054906101000a900473ffffffffffffffffffffffffffffffffffffffff1681565b60008114806126c9575060008373ffffffffffffffffffffffffffffffffffffffff1663dd62ed3e30856040518363ffffffff1660e01b81526004016126779291906145aa565b60206040518083038186803b15801561268f57600080fd5b505afa1580156126a3573d6000803e3d6000fd5b505050506040513d601f19601f820116820180604052508101906126c7919061415e565b145b612708576040517f08c379a00000000000000000000000000000000000000000000000000000000081526004016126ff90614859565b60405180910390fd5b6127898363095ea7b360e01b8484604051602401612727929190614651565b604051602081830303815290604052907bffffffffffffffffffffffffffffffffffffffffffffffffffffffff19166020820180517bffffffffffffffffffffffffffffffffffffffffffffffffffffffff8381831617835250505050613222565b505050565b606061279d84846000856132e9565b90509392505050565b600081836127b49190614b18565b905092915050565b61283d8363a9059cbb60e01b84846040516024016127db929190614651565b604051602081830303815290604052907bffffffffffffffffffffffffffffffffffffffffffffffffffffffff19166020820180517bffffffffffffffffffffffffffffffffffffffffffffffffffffffff8381831617835250505050613222565b505050565b600081836128509190614abe565b905092915050565b600081836128669190614a8d565b905092915050565b61287661163a565b6128b5576040517f08c379a00000000000000000000000000000000000000000000000000000000081526004016128ac906146d9565b60405180910390fd5b60008060146101000a81548160ff0219169083151502179055507f5db9ee0a495bf2e6ff9c91a7834c1ba4fdd244a5e8aa4e537bd38aeae4b073aa6128f8612e6b565b604051612905919061458f565b60405180910390a1565b61299e600e60009054906101000a900473ffffffffffffffffffffffffffffffffffffffff167fffffffffffffffffffffffffffffffffffffffffffffffffffffffffffffffff600b60009054906101000a900473ffffffffffffffffffffffffffffffffffffffff1673ffffffffffffffffffffffffffffffffffffffff166126309092919063ffffffff16565b612a2d600360009054906101000a900473ffffffffffffffffffffffffffffffffffffffff167fffffffffffffffffffffffffffffffffffffffffffffffffffffffffffffffff600a60009054906101000a900473ffffffffffffffffffffffffffffffffffffffff1673ffffffffffffffffffffffffffffffffffffffff166126309092919063ffffffff16565b612abc600360009054906101000a900473ffffffffffffffffffffffffffffffffffffffff167fffffffffffffffffffffffffffffffffffffffffffffffffffffffffffffffff600960009054906101000a900473ffffffffffffffffffffffffffffffffffffffff1673ffffffffffffffffffffffffffffffffffffffff166126309092919063ffffffff16565b612b2c600360009054906101000a900473ffffffffffffffffffffffffffffffffffffffff166000600c60009054906101000a900473ffffffffffffffffffffffffffffffffffffffff1673ffffffffffffffffffffffffffffffffffffffff166126309092919063ffffffff16565b612bbb600360009054906101000a900473ffffffffffffffffffffffffffffffffffffffff167fffffffffffffffffffffffffffffffffffffffffffffffffffffffffffffffff600c60009054906101000a900473ffffffffffffffffffffffffffffffffffffffff1673ffffffffffffffffffffffffffffffffffffffff166126309092919063ffffffff16565b612c2b600360009054906101000a900473ffffffffffffffffffffffffffffffffffffffff166000600d60009054906101000a900473ffffffffffffffffffffffffffffffffffffffff1673ffffffffffffffffffffffffffffffffffffffff166126309092919063ffffffff16565b612cba600360009054906101000a900473ffffffffffffffffffffffffffffffffffffffff167fffffffffffffffffffffffffffffffffffffffffffffffffffffffffffffffff600d60009054906101000a900473ffffffffffffffffffffffffffffffffffffffff1673ffffffffffffffffffffffffffffffffffffffff166126309092919063ffffffff16565b565b600e60009054906101000a900473ffffffffffffffffffffffffffffffffffffffff1673ffffffffffffffffffffffffffffffffffffffff166318fccc76600f54306040518363ffffffff1660e01b8152600401612d1b929190614894565b600060405180830381600087803b158015612d3557600080fd5b505af1158015612d49573d6000803e3d6000fd5b505050506000600a60009054906101000a900473ffffffffffffffffffffffffffffffffffffffff1673ffffffffffffffffffffffffffffffffffffffff166370a08231306040518263ffffffff1660e01b8152600401612daa919061458f565b60206040518083038186803b158015612dc257600080fd5b505afa158015612dd6573d6000803e3d6000fd5b505050506040513d601f19601f82011682018060405250810190612dfa919061415e565b90506000811115612e1e57612e0d6133fd565b612e1561396e565b612e1d611ec9565b5b426011819055503373ffffffffffffffffffffffffffffffffffffffff167f577a37fdb49a88d66684922c6f913df5239b4f214b2b97c53ef8e3bbb2034cb560405160405180910390a250565b600033905090565b60008060009054906101000a900473ffffffffffffffffffffffffffffffffffffffff169050816000806101000a81548173ffffffffffffffffffffffffffffffffffffffff021916908373ffffffffffffffffffffffffffffffffffffffff1602179055508173ffffffffffffffffffffffffffffffffffffffff168173ffffffffffffffffffffffffffffffffffffffff167f8be0079c531659141344cd1fd0a4f28419497f9722a3daafe3b4186f6b6457e060405160405180910390a35050565b60008183612f459190614a37565b905092915050565b612f5561163a565b15612f95576040517f08c379a0000000000000000000000000000000000000000000000000000000008152600401612f8c90614759565b60405180910390fd5b6001600060146101000a81548160ff0219169083151502179055507f62e78cea01bee320cd4e420270b5ea74000d11b0c9f74754ebdbfc544b05a258612fd9612e6b565b604051612fe6919061458f565b60405180910390a1565b613060600e60009054906101000a900473ffffffffffffffffffffffffffffffffffffffff166000600b60009054906101000a900473ffffffffffffffffffffffffffffffffffffffff1673ffffffffffffffffffffffffffffffffffffffff166126309092919063ffffffff16565b6130d0600360009054906101000a900473ffffffffffffffffffffffffffffffffffffffff166000600a60009054906101000a900473ffffffffffffffffffffffffffffffffffffffff1673ffffffffffffffffffffffffffffffffffffffff166126309092919063ffffffff16565b613140600360009054906101000a900473ffffffffffffffffffffffffffffffffffffffff166000600960009054906101000a900473ffffffffffffffffffffffffffffffffffffffff1673ffffffffffffffffffffffffffffffffffffffff166126309092919063ffffffff16565b6131b0600360009054906101000a900473ffffffffffffffffffffffffffffffffffffffff166000600c60009054906101000a900473ffffffffffffffffffffffffffffffffffffffff1673ffffffffffffffffffffffffffffffffffffffff166126309092919063ffffffff16565b613220600360009054906101000a900473ffffffffffffffffffffffffffffffffffffffff166000600d60009054906101000a900473ffffffffffffffffffffffffffffffffffffffff1673ffffffffffffffffffffffffffffffffffffffff166126309092919063ffffffff16565b565b6000613284826040518060400160405280602081526020017f5361666545524332303a206c6f772d6c6576656c2063616c6c206661696c65648152508573ffffffffffffffffffffffffffffffffffffffff1661278e9092919063ffffffff16565b90506000815111156132e457808060200190518101906132a4919061410c565b6132e3576040517f08c379a00000000000000000000000000000000000000000000000000000000081526004016132da90614819565b60405180910390fd5b5b505050565b60608247101561332e576040517f08c379a000000000000000000000000000000000000000000000000000000000815260040161332590614739565b60405180910390fd5b61333785613f00565b613376576040517f08c379a000000000000000000000000000000000000000000000000000000000815260040161336d906147d9565b60405180910390fd5b6000808673ffffffffffffffffffffffffffffffffffffffff16858760405161339f9190614578565b60006040518083038185875af1925050503d80600081146133dc576040519150601f19603f3d011682016040523d82523d6000602084013e6133e1565b606091505b50915091506133f1828286613f13565b92505050949350505050565b6000600960009054906101000a900473ffffffffffffffffffffffffffffffffffffffff1673ffffffffffffffffffffffffffffffffffffffff166370a08231306040518263ffffffff1660e01b815260040161345a919061458f565b60206040518083038186803b15801561347257600080fd5b505afa158015613486573d6000803e3d6000fd5b505050506040513d601f19601f820116820180604052508101906134aa919061415e565b9050600081111561357357600360009054906101000a900473ffffffffffffffffffffffffffffffffffffffff1673ffffffffffffffffffffffffffffffffffffffff166338ed1739826000601330426040518663ffffffff1660e01b815260040161351a9594939291906148bd565b600060405180830381600087803b15801561353457600080fd5b505af1158015613548573d6000803e3d6000fd5b505050506040513d6000823e3d601f19601f8201168201806040525081019061357191906140a2565b505b60006136476103e8613639602d600a60009054906101000a900473ffffffffffffffffffffffffffffffffffffffff1673ffffffffffffffffffffffffffffffffffffffff166370a08231306040518263ffffffff1660e01b81526004016135db919061458f565b60206040518083038186803b1580156135f357600080fd5b505afa158015613607573d6000803e3d6000fd5b505050506040513d601f19601f8201168201806040525081019061362b919061415e565b61284290919063ffffffff16565b61285890919063ffffffff16565b9050600360009054906101000a900473ffffffffffffffffffffffffffffffffffffffff1673ffffffffffffffffffffffffffffffffffffffff166338ed1739826000601230426040518663ffffffff1660e01b81526004016136ae9594939291906148bd565b600060405180830381600087803b1580156136c857600080fd5b505af11580156136dc573d6000803e3d6000fd5b505050506040513d6000823e3d601f19601f8201168201806040525081019061370591906140a2565b506000600960009054906101000a900473ffffffffffffffffffffffffffffffffffffffff1673ffffffffffffffffffffffffffffffffffffffff166370a08231306040518263ffffffff1660e01b8152600401613763919061458f565b60206040518083038186803b15801561377b57600080fd5b505afa15801561378f573d6000803e3d6000fd5b505050506040513d601f19601f820116820180604052508101906137b3919061415e565b905060006137e06103e86137d26007548561284290919063ffffffff16565b61285890919063ffffffff16565b905061382f3382600960009054906101000a900473ffffffffffffffffffffffffffffffffffffffff1673ffffffffffffffffffffffffffffffffffffffff166127bc9092919063ffffffff16565b600061385a6103e861384c6008548661284290919063ffffffff16565b61285890919063ffffffff16565b90506138cb600560009054906101000a900473ffffffffffffffffffffffffffffffffffffffff1682600960009054906101000a900473ffffffffffffffffffffffffffffffffffffffff1673ffffffffffffffffffffffffffffffffffffffff166127bc9092919063ffffffff16565b60006138f56103e86138e760708761284290919063ffffffff16565b61285890919063ffffffff16565b9050613966600260009054906101000a900473ffffffffffffffffffffffffffffffffffffffff1682600960009054906101000a900473ffffffffffffffffffffffffffffffffffffffff1673ffffffffffffffffffffffffffffffffffffffff166127bc9092919063ffffffff16565b505050505050565b6000613a2e6002600a60009054906101000a900473ffffffffffffffffffffffffffffffffffffffff1673ffffffffffffffffffffffffffffffffffffffff166370a08231306040518263ffffffff1660e01b81526004016139d0919061458f565b60206040518083038186803b1580156139e857600080fd5b505afa1580156139fc573d6000803e3d6000fd5b505050506040513d601f19601f82011682018060405250810190613a20919061415e565b61285890919063ffffffff16565b9050600a60009054906101000a900473ffffffffffffffffffffffffffffffffffffffff1673ffffffffffffffffffffffffffffffffffffffff16600c60009054906101000a900473ffffffffffffffffffffffffffffffffffffffff1673ffffffffffffffffffffffffffffffffffffffff1614613b6557600360009054906101000a900473ffffffffffffffffffffffffffffffffffffffff1673ffffffffffffffffffffffffffffffffffffffff166338ed1739826000601430426040518663ffffffff1660e01b8152600401613b0c9594939291906148bd565b600060405180830381600087803b158015613b2657600080fd5b505af1158015613b3a573d6000803e3d6000fd5b505050506040513d6000823e3d601f19601f82011682018060405250810190613b6391906140a2565b505b600a60009054906101000a900473ffffffffffffffffffffffffffffffffffffffff1673ffffffffffffffffffffffffffffffffffffffff16600d60009054906101000a900473ffffffffffffffffffffffffffffffffffffffff1673ffffffffffffffffffffffffffffffffffffffff1614613c9a57600360009054906101000a900473ffffffffffffffffffffffffffffffffffffffff1673ffffffffffffffffffffffffffffffffffffffff166338ed1739826000601530426040518663ffffffff1660e01b8152600401613c419594939291906148bd565b600060405180830381600087803b158015613c5b57600080fd5b505af1158015613c6f573d6000803e3d6000fd5b505050506040513d6000823e3d601f19601f82011682018060405250810190613c9891906140a2565b505b6000600c60009054906101000a900473ffffffffffffffffffffffffffffffffffffffff1673ffffffffffffffffffffffffffffffffffffffff166370a08231306040518263ffffffff1660e01b8152600401613cf7919061458f565b60206040518083038186803b158015613d0f57600080fd5b505afa158015613d23573d6000803e3d6000fd5b505050506040513d601f19601f82011682018060405250810190613d47919061415e565b90506000600d60009054906101000a900473ffffffffffffffffffffffffffffffffffffffff1673ffffffffffffffffffffffffffffffffffffffff166370a08231306040518263ffffffff1660e01b8152600401613da6919061458f565b60206040518083038186803b158015613dbe57600080fd5b505afa158015613dd2573d6000803e3d6000fd5b505050506040513d601f19601f82011682018060405250810190613df6919061415e565b9050600360009054906101000a900473ffffffffffffffffffffffffffffffffffffffff1673ffffffffffffffffffffffffffffffffffffffff1663e8e33700600c60009054906101000a900473ffffffffffffffffffffffffffffffffffffffff16600d60009054906101000a900473ffffffffffffffffffffffffffffffffffffffff16858560018030426040518963ffffffff1660e01b8152600401613ea69897969594939291906145d3565b606060405180830381600087803b158015613ec057600080fd5b505af1158015613ed4573d6000803e3d6000fd5b505050506040513d601f19601f82011682018060405250810190613ef891906141c3565b505050505050565b600080823b905060008111915050919050565b60608315613f2357829050613f73565b600083511115613f365782518084602001fd5b816040517f08c379a0000000000000000000000000000000000000000000000000000000008152600401613f6a91906146b7565b60405180910390fd5b9392505050565b6000613f8d613f8884614973565b61494e565b90508083825260208201905082856020860282011115613fac57600080fd5b60005b85811015613fdc5781613fc28882614064565b845260208401935060208301925050600181019050613faf565b5050509392505050565b600081359050613ff581614fc1565b92915050565b600082601f83011261400c57600080fd5b815161401c848260208601613f7a565b91505092915050565b60008135905061403481614fd8565b92915050565b60008151905061404981614fd8565b92915050565b60008135905061405e81614fef565b92915050565b60008151905061407381614fef565b92915050565b60006020828403121561408b57600080fd5b600061409984828501613fe6565b91505092915050565b6000602082840312156140b457600080fd5b600082015167ffffffffffffffff8111156140ce57600080fd5b6140da84828501613ffb565b91505092915050565b6000602082840312156140f557600080fd5b600061410384828501614025565b91505092915050565b60006020828403121561411e57600080fd5b600061412c8482850161403a565b91505092915050565b60006020828403121561414757600080fd5b60006141558482850161404f565b91505092915050565b60006020828403121561417057600080fd5b600061417e84828501614064565b91505092915050565b6000806040838503121561419a57600080fd5b60006141a885828601614064565b92505060206141b985828601614064565b9150509250929050565b6000806000606084860312156141d857600080fd5b60006141e686828701614064565b93505060206141f786828701614064565b925050604061420886828701614064565b9150509250925092565b600061421e838361422a565b60208301905092915050565b61423381614b6c565b82525050565b61424281614b6c565b82525050565b6000614253826149c4565b61425d8185614a0a565b93506142688361499f565b8060005b838110156142995781516142808882614212565b975061428b836149f0565b92505060018101905061426c565b5085935050505092915050565b60006142b1826149cf565b6142bb8185614a0a565b93506142c6836149af565b8060005b838110156142fe576142db82614ce3565b6142e58882614212565b97506142f0836149fd565b9250506001810190506142ca565b5085935050505092915050565b61431481614b7e565b82525050565b6000614325826149da565b61432f8185614a1b565b935061433f818560208601614bd8565b80840191505092915050565b61435481614bb4565b82525050565b61436381614bc6565b82525050565b6000614374826149e5565b61437e8185614a26565b935061438e818560208601614bd8565b61439781614cf6565b840191505092915050565b60006143af601483614a26565b91506143ba82614d14565b602082019050919050565b60006143d2600b83614a26565b91506143dd82614d3d565b602082019050919050565b60006143f5602683614a26565b915061440082614d66565b604082019050919050565b6000614418602683614a26565b915061442382614db5565b604082019050919050565b600061443b601083614a26565b915061444682614e04565b602082019050919050565b600061445e600483614a26565b915061446982614e2d565b602082019050919050565b6000614481600683614a26565b915061448c82614e56565b602082019050919050565b60006144a4602083614a26565b91506144af82614e7f565b602082019050919050565b60006144c7601d83614a26565b91506144d282614ea8565b602082019050919050565b60006144ea600883614a26565b91506144f582614ed1565b602082019050919050565b600061450d602a83614a26565b915061451882614efa565b604082019050919050565b6000614530600483614a26565b915061453b82614f49565b602082019050919050565b6000614553603683614a26565b915061455e82614f72565b604082019050919050565b61457281614baa565b82525050565b6000614584828461431a565b915081905092915050565b60006020820190506145a46000830184614239565b92915050565b60006040820190506145bf6000830185614239565b6145cc6020830184614239565b9392505050565b6000610100820190506145e9600083018b614239565b6145f6602083018a614239565b6146036040830189614569565b6146106060830188614569565b61461d608083018761435a565b61462a60a083018661435a565b61463760c0830185614239565b61464460e0830184614569565b9998505050505050505050565b60006040820190506146666000830185614239565b6146736020830184614569565b9392505050565b600060208201905081810360008301526146948184614248565b905092915050565b60006020820190506146b1600083018461430b565b92915050565b600060208201905081810360008301526146d18184614369565b905092915050565b600060208201905081810360008301526146f2816143a2565b9050919050565b60006020820190508181036000830152614712816143c5565b9050919050565b60006020820190508181036000830152614732816143e8565b9050919050565b600060208201905081810360008301526147528161440b565b9050919050565b600060208201905081810360008301526147728161442e565b9050919050565b6000602082019050818103600083015261479281614451565b9050919050565b600060208201905081810360008301526147b281614474565b9050919050565b600060208201905081810360008301526147d281614497565b9050919050565b600060208201905081810360008301526147f2816144ba565b9050919050565b60006020820190508181036000830152614812816144dd565b9050919050565b6000602082019050818103600083015261483281614500565b9050919050565b6000602082019050818103600083015261485281614523565b9050919050565b6000602082019050818103600083015261487281614546565b9050919050565b600060208201905061488e6000830184614569565b92915050565b60006040820190506148a96000830185614569565b6148b66020830184614239565b9392505050565b600060a0820190506148d26000830188614569565b6148df602083018761434b565b81810360408301526148f181866142a6565b90506149006060830185614239565b61490d6080830184614569565b9695505050505050565b600060608201905061492c6000830186614569565b6149396020830185614569565b6149466040830184614239565b949350505050565b6000614958614969565b90506149648282614c25565b919050565b6000604051905090565b600067ffffffffffffffff82111561498e5761498d614cb4565b5b602082029050602081019050919050565b6000819050602082019050919050565b60008190508160005260206000209050919050565b600081519050919050565b600081549050919050565b600081519050919050565b600081519050919050565b6000602082019050919050565b6000600182019050919050565b600082825260208201905092915050565b600081905092915050565b600082825260208201905092915050565b6000614a4282614baa565b9150614a4d83614baa565b9250827fffffffffffffffffffffffffffffffffffffffffffffffffffffffffffffffff03821115614a8257614a81614c56565b5b828201905092915050565b6000614a9882614baa565b9150614aa383614baa565b925082614ab357614ab2614c85565b5b828204905092915050565b6000614ac982614baa565b9150614ad483614baa565b9250817fffffffffffffffffffffffffffffffffffffffffffffffffffffffffffffffff0483118215151615614b0d57614b0c614c56565b5b828202905092915050565b6000614b2382614baa565b9150614b2e83614baa565b925082821015614b4157614b40614c56565b5b828203905092915050565b600073ffffffffffffffffffffffffffffffffffffffff82169050919050565b6000614b7782614b8a565b9050919050565b60008115159050919050565b600073ffffffffffffffffffffffffffffffffffffffff82169050919050565b6000819050919050565b6000614bbf82614baa565b9050919050565b6000614bd182614baa565b9050919050565b60005b83811015614bf6578082015181840152602081019050614bdb565b83811115614c05576000848401525b50505050565b6000614c1e614c1983614d07565b614b4c565b9050919050565b614c2e82614cf6565b810181811067ffffffffffffffff82111715614c4d57614c4c614cb4565b5b80604052505050565b7f4e487b7100000000000000000000000000000000000000000000000000000000600052601160045260246000fd5b7f4e487b7100000000000000000000000000000000000000000000000000000000600052601260045260246000fd5b7f4e487b7100000000000000000000000000000000000000000000000000000000600052604160045260246000fd5b6000614cef8254614c0b565b9050919050565b6000601f19601f8301169050919050565b60008160001c9050919050565b7f5061757361626c653a206e6f7420706175736564000000000000000000000000600082015250565b7f2173747261746567697374000000000000000000000000000000000000000000600082015250565b7f4f776e61626c653a206e6577206f776e657220697320746865207a65726f206160008201527f6464726573730000000000000000000000000000000000000000000000000000602082015250565b7f416464726573733a20696e73756666696369656e742062616c616e636520666f60008201527f722063616c6c0000000000000000000000000000000000000000000000000000602082015250565b7f5061757361626c653a2070617573656400000000000000000000000000000000600082015250565b7f2163617000000000000000000000000000000000000000000000000000000000600082015250565b7f217661756c740000000000000000000000000000000000000000000000000000600082015250565b7f4f776e61626c653a2063616c6c6572206973206e6f7420746865206f776e6572600082015250565b7f416464726573733a2063616c6c20746f206e6f6e2d636f6e7472616374000000600082015250565b7f216d616e61676572000000000000000000000000000000000000000000000000600082015250565b7f5361666545524332303a204552433230206f7065726174696f6e20646964206e60008201527f6f74207375636365656400000000000000000000000000000000000000000000602082015250565b7f21454f4100000000000000000000000000000000000000000000000000000000600082015250565b7f5361666545524332303a20617070726f76652066726f6d206e6f6e2d7a65726f60008201527f20746f206e6f6e2d7a65726f20616c6c6f77616e636500000000000000000000602082015250565b614fca81614b6c565b8114614fd557600080fd5b50565b614fe181614b7e565b8114614fec57600080fd5b50565b614ff881614baa565b811461500357600080fd5b5056fea264697066735822122019aac681346d39064e9d2e663d663a53e2088c6ce114103da835be7bf0019af864736f6c63430008040033",
  "linkReferences": {},
  "deployedLinkReferences": {}
}