{
  "_format": "hh-sol-artifact-1",
  "contractName": "StrategyCommonMiniChefLP",
  "sourceName": "contracts/strategy/sushi/StrategyCommonMiniChefLP.sol",
  "abi": [
    {
      "inputs": [
        {
          "internalType": "address",
          "name": "_want",
          "type": "address"
        },
        {
          "internalType": "uint256",
          "name": "_poolId",
          "type": "uint256"
        },
        {
          "internalType": "address",
          "name": "_chef",
          "type": "address"
        },
        {
          "internalType": "address",
          "name": "_vault",
          "type": "address"
        },
        {
          "internalType": "address",
          "name": "_unirouter",
          "type": "address"
        },
        {
          "internalType": "address",
          "name": "_keeper",
          "type": "address"
        },
        {
          "internalType": "address",
          "name": "_strategist",
          "type": "address"
        },
        {
          "internalType": "address",
          "name": "_beefyFeeRecipient",
          "type": "address"
        },
        {
          "internalType": "address[]",
          "name": "_outputToNativeRoute",
          "type": "address[]"
        },
        {
          "internalType": "address[]",
          "name": "_outputToLp0Route",
          "type": "address[]"
        },
        {
          "internalType": "address[]",
          "name": "_outputToLp1Route",
          "type": "address[]"
        }
      ],
      "stateMutability": "nonpayable",
      "type": "constructor"
    },
    {
      "anonymous": false,
      "inputs": [
        {
          "indexed": true,
          "internalType": "address",
          "name": "previousOwner",
          "type": "address"
        },
        {
          "indexed": true,
          "internalType": "address",
          "name": "newOwner",
          "type": "address"
        }
      ],
      "name": "OwnershipTransferred",
      "type": "event"
    },
    {
      "anonymous": false,
      "inputs": [
        {
          "indexed": false,
          "internalType": "address",
          "name": "account",
          "type": "address"
        }
      ],
      "name": "Paused",
      "type": "event"
    },
    {
      "anonymous": false,
      "inputs": [
        {
          "indexed": true,
          "internalType": "address",
          "name": "harvester",
          "type": "address"
        }
      ],
      "name": "StratHarvest",
      "type": "event"
    },
    {
      "anonymous": false,
      "inputs": [
        {
          "indexed": false,
          "internalType": "address",
          "name": "account",
          "type": "address"
        }
      ],
      "name": "Unpaused",
      "type": "event"
    },
    {
      "inputs": [],
      "name": "MAX_CALL_FEE",
      "outputs": [
        {
          "internalType": "uint256",
          "name": "",
          "type": "uint256"
        }
      ],
      "stateMutability": "view",
      "type": "function"
    },
    {
      "inputs": [],
      "name": "MAX_FEE",
      "outputs": [
        {
          "internalType": "uint256",
          "name": "",
          "type": "uint256"
        }
      ],
      "stateMutability": "view",
      "type": "function"
    },
    {
      "inputs": [],
      "name": "STRATEGIST_FEE",
      "outputs": [
        {
          "internalType": "uint256",
          "name": "",
          "type": "uint256"
        }
      ],
      "stateMutability": "view",
      "type": "function"
    },
    {
      "inputs": [],
      "name": "WITHDRAWAL_FEE_CAP",
      "outputs": [
        {
          "internalType": "uint256",
          "name": "",
          "type": "uint256"
        }
      ],
      "stateMutability": "view",
      "type": "function"
    },
    {
      "inputs": [],
      "name": "WITHDRAWAL_MAX",
      "outputs": [
        {
          "internalType": "uint256",
          "name": "",
          "type": "uint256"
        }
      ],
      "stateMutability": "view",
      "type": "function"
    },
    {
      "inputs": [],
      "name": "balanceOf",
      "outputs": [
        {
          "internalType": "uint256",
          "name": "",
          "type": "uint256"
        }
      ],
      "stateMutability": "view",
      "type": "function"
    },
    {
      "inputs": [],
      "name": "balanceOfPool",
      "outputs": [
        {
          "internalType": "uint256",
          "name": "",
          "type": "uint256"
        }
      ],
      "stateMutability": "view",
      "type": "function"
    },
    {
      "inputs": [],
      "name": "balanceOfWant",
      "outputs": [
        {
          "internalType": "uint256",
          "name": "",
          "type": "uint256"
        }
      ],
      "stateMutability": "view",
      "type": "function"
    },
    {
      "inputs": [],
      "name": "beefyFee",
      "outputs": [
        {
          "internalType": "uint256",
          "name": "",
          "type": "uint256"
        }
      ],
      "stateMutability": "view",
      "type": "function"
    },
    {
      "inputs": [],
      "name": "beefyFeeRecipient",
      "outputs": [
        {
          "internalType": "address",
          "name": "",
          "type": "address"
        }
      ],
      "stateMutability": "view",
      "type": "function"
    },
    {
      "inputs": [],
      "name": "beforeDeposit",
      "outputs": [],
      "stateMutability": "nonpayable",
      "type": "function"
    },
    {
      "inputs": [],
      "name": "callFee",
      "outputs": [
        {
          "internalType": "uint256",
          "name": "",
          "type": "uint256"
        }
      ],
      "stateMutability": "view",
      "type": "function"
    },
    {
      "inputs": [],
      "name": "chef",
      "outputs": [
        {
          "internalType": "address",
          "name": "",
          "type": "address"
        }
      ],
      "stateMutability": "view",
      "type": "function"
    },
    {
      "inputs": [],
      "name": "deposit",
      "outputs": [],
      "stateMutability": "nonpayable",
      "type": "function"
    },
    {
      "inputs": [],
      "name": "harvest",
      "outputs": [],
      "stateMutability": "nonpayable",
      "type": "function"
    },
    {
      "inputs": [],
      "name": "harvestOnDeposit",
      "outputs": [
        {
          "internalType": "bool",
          "name": "",
          "type": "bool"
        }
      ],
      "stateMutability": "view",
      "type": "function"
    },
    {
      "inputs": [],
      "name": "keeper",
      "outputs": [
        {
          "internalType": "address",
          "name": "",
          "type": "address"
        }
      ],
      "stateMutability": "view",
      "type": "function"
    },
    {
      "inputs": [],
      "name": "lastHarvest",
      "outputs": [
        {
          "internalType": "uint256",
          "name": "",
          "type": "uint256"
        }
      ],
      "stateMutability": "view",
      "type": "function"
    },
    {
      "inputs": [],
      "name": "lpToken0",
      "outputs": [
        {
          "internalType": "address",
          "name": "",
          "type": "address"
        }
      ],
      "stateMutability": "view",
      "type": "function"
    },
    {
      "inputs": [],
      "name": "lpToken1",
      "outputs": [
        {
          "internalType": "address",
          "name": "",
          "type": "address"
        }
      ],
      "stateMutability": "view",
      "type": "function"
    },
    {
      "inputs": [],
      "name": "managerHarvest",
      "outputs": [],
      "stateMutability": "nonpayable",
      "type": "function"
    },
    {
      "inputs": [],
      "name": "native",
      "outputs": [
        {
          "internalType": "address",
          "name": "",
          "type": "address"
        }
      ],
      "stateMutability": "view",
      "type": "function"
    },
    {
      "inputs": [
        {
          "internalType": "uint256",
          "name": "",
          "type": "uint256"
        }
      ],
      "name": "nativeToOutputRoute",
      "outputs": [
        {
          "internalType": "address",
          "name": "",
          "type": "address"
        }
      ],
      "stateMutability": "view",
      "type": "function"
    },
    {
      "inputs": [],
      "name": "output",
      "outputs": [
        {
          "internalType": "address",
          "name": "",
          "type": "address"
        }
      ],
      "stateMutability": "view",
      "type": "function"
    },
    {
      "inputs": [],
      "name": "outputToLp0",
      "outputs": [
        {
          "internalType": "address[]",
          "name": "",
          "type": "address[]"
        }
      ],
      "stateMutability": "view",
      "type": "function"
    },
    {
      "inputs": [
        {
          "internalType": "uint256",
          "name": "",
          "type": "uint256"
        }
      ],
      "name": "outputToLp0Route",
      "outputs": [
        {
          "internalType": "address",
          "name": "",
          "type": "address"
        }
      ],
      "stateMutability": "view",
      "type": "function"
    },
    {
      "inputs": [],
      "name": "outputToLp1",
      "outputs": [
        {
          "internalType": "address[]",
          "name": "",
          "type": "address[]"
        }
      ],
      "stateMutability": "view",
      "type": "function"
    },
    {
      "inputs": [
        {
          "internalType": "uint256",
          "name": "",
          "type": "uint256"
        }
      ],
      "name": "outputToLp1Route",
      "outputs": [
        {
          "internalType": "address",
          "name": "",
          "type": "address"
        }
      ],
      "stateMutability": "view",
      "type": "function"
    },
    {
      "inputs": [],
      "name": "outputToNative",
      "outputs": [
        {
          "internalType": "address[]",
          "name": "",
          "type": "address[]"
        }
      ],
      "stateMutability": "view",
      "type": "function"
    },
    {
      "inputs": [
        {
          "internalType": "uint256",
          "name": "",
          "type": "uint256"
        }
      ],
      "name": "outputToNativeRoute",
      "outputs": [
        {
          "internalType": "address",
          "name": "",
          "type": "address"
        }
      ],
      "stateMutability": "view",
      "type": "function"
    },
    {
      "inputs": [],
      "name": "owner",
      "outputs": [
        {
          "internalType": "address",
          "name": "",
          "type": "address"
        }
      ],
      "stateMutability": "view",
      "type": "function"
    },
    {
      "inputs": [],
      "name": "panic",
      "outputs": [],
      "stateMutability": "nonpayable",
      "type": "function"
    },
    {
      "inputs": [],
      "name": "pause",
      "outputs": [],
      "stateMutability": "nonpayable",
      "type": "function"
    },
    {
      "inputs": [],
      "name": "paused",
      "outputs": [
        {
          "internalType": "bool",
          "name": "",
          "type": "bool"
        }
      ],
      "stateMutability": "view",
      "type": "function"
    },
    {
      "inputs": [],
      "name": "poolId",
      "outputs": [
        {
          "internalType": "uint256",
          "name": "",
          "type": "uint256"
        }
      ],
      "stateMutability": "view",
      "type": "function"
    },
    {
      "inputs": [],
      "name": "renounceOwnership",
      "outputs": [],
      "stateMutability": "nonpayable",
      "type": "function"
    },
    {
      "inputs": [],
      "name": "retireStrat",
      "outputs": [],
      "stateMutability": "nonpayable",
      "type": "function"
    },
    {
      "inputs": [
        {
          "internalType": "address",
          "name": "_beefyFeeRecipient",
          "type": "address"
        }
      ],
      "name": "setBeefyFeeRecipient",
      "outputs": [],
      "stateMutability": "nonpayable",
      "type": "function"
    },
    {
      "inputs": [
        {
          "internalType": "uint256",
          "name": "_fee",
          "type": "uint256"
        }
      ],
      "name": "setCallFee",
      "outputs": [],
      "stateMutability": "nonpayable",
      "type": "function"
    },
    {
      "inputs": [
        {
          "internalType": "bool",
          "name": "_harvestOnDeposit",
          "type": "bool"
        }
      ],
      "name": "setHarvestOnDeposit",
      "outputs": [],
      "stateMutability": "nonpayable",
      "type": "function"
    },
    {
      "inputs": [
        {
          "internalType": "address",
          "name": "_keeper",
          "type": "address"
        }
      ],
      "name": "setKeeper",
      "outputs": [],
      "stateMutability": "nonpayable",
      "type": "function"
    },
    {
      "inputs": [
        {
          "internalType": "address",
          "name": "_strategist",
          "type": "address"
        }
      ],
      "name": "setStrategist",
      "outputs": [],
      "stateMutability": "nonpayable",
      "type": "function"
    },
    {
      "inputs": [
        {
          "internalType": "address",
          "name": "_unirouter",
          "type": "address"
        }
      ],
      "name": "setUnirouter",
      "outputs": [],
      "stateMutability": "nonpayable",
      "type": "function"
    },
    {
      "inputs": [
        {
          "internalType": "address",
          "name": "_vault",
          "type": "address"
        }
      ],
      "name": "setVault",
      "outputs": [],
      "stateMutability": "nonpayable",
      "type": "function"
    },
    {
      "inputs": [
        {
          "internalType": "uint256",
          "name": "_fee",
          "type": "uint256"
        }
      ],
      "name": "setWithdrawalFee",
      "outputs": [],
      "stateMutability": "nonpayable",
      "type": "function"
    },
    {
      "inputs": [],
      "name": "strategist",
      "outputs": [
        {
          "internalType": "address",
          "name": "",
          "type": "address"
        }
      ],
      "stateMutability": "view",
      "type": "function"
    },
    {
      "inputs": [
        {
          "internalType": "address",
          "name": "newOwner",
          "type": "address"
        }
      ],
      "name": "transferOwnership",
      "outputs": [],
      "stateMutability": "nonpayable",
      "type": "function"
    },
    {
      "inputs": [],
      "name": "unirouter",
      "outputs": [
        {
          "internalType": "address",
          "name": "",
          "type": "address"
        }
      ],
      "stateMutability": "view",
      "type": "function"
    },
    {
      "inputs": [],
      "name": "unpause",
      "outputs": [],
      "stateMutability": "nonpayable",
      "type": "function"
    },
    {
      "inputs": [],
      "name": "vault",
      "outputs": [
        {
          "internalType": "address",
          "name": "",
          "type": "address"
        }
      ],
      "stateMutability": "view",
      "type": "function"
    },
    {
      "inputs": [],
      "name": "want",
      "outputs": [
        {
          "internalType": "address",
          "name": "",
          "type": "address"
        }
      ],
      "stateMutability": "view",
      "type": "function"
    },
    {
      "inputs": [
        {
          "internalType": "uint256",
          "name": "_amount",
          "type": "uint256"
        }
      ],
      "name": "withdraw",
      "outputs": [],
      "stateMutability": "nonpayable",
      "type": "function"
    },
    {
      "inputs": [],
      "name": "withdrawalFee",
      "outputs": [
        {
          "internalType": "uint256",
          "name": "",
          "type": "uint256"
        }
      ],
      "stateMutability": "view",
      "type": "function"
    }
  ],
  "bytecode": "0x6080604052600a600655600b60075560075460706103e86200002291906200191e565b6200002e91906200191e565b6008553480156200003e57600080fd5b5060405162006cf438038062006cf4833981810160405281019062000064919062001495565b8585888a87620000896200007d62000a1760201b60201c565b62000a1f60201b60201c565b60008060146101000a81548160ff02191690831515021790555084600160006101000a81548173ffffffffffffffffffffffffffffffffffffffff021916908373ffffffffffffffffffffffffffffffffffffffff16021790555083600260006101000a81548173ffffffffffffffffffffffffffffffffffffffff021916908373ffffffffffffffffffffffffffffffffffffffff16021790555082600360006101000a81548173ffffffffffffffffffffffffffffffffffffffff021916908373ffffffffffffffffffffffffffffffffffffffff16021790555081600460006101000a81548173ffffffffffffffffffffffffffffffffffffffff021916908373ffffffffffffffffffffffffffffffffffffffff16021790555080600560006101000a81548173ffffffffffffffffffffffffffffffffffffffff021916908373ffffffffffffffffffffffffffffffffffffffff16021790555050505050508a600b60006101000a81548173ffffffffffffffffffffffffffffffffffffffff021916908373ffffffffffffffffffffffffffffffffffffffff16021790555089600f8190555088600e60006101000a81548173ffffffffffffffffffffffffffffffffffffffff021916908373ffffffffffffffffffffffffffffffffffffffff1602179055506002835110156200028657600080fd5b82600081518110620002c1577f4e487b7100000000000000000000000000000000000000000000000000000000600052603260045260246000fd5b6020026020010151600a60006101000a81548173ffffffffffffffffffffffffffffffffffffffff021916908373ffffffffffffffffffffffffffffffffffffffff16021790555082600184516200031a91906200191e565b8151811062000352577f4e487b7100000000000000000000000000000000000000000000000000000000600052603260045260246000fd5b6020026020010151600960006101000a81548173ffffffffffffffffffffffffffffffffffffffff021916908373ffffffffffffffffffffffffffffffffffffffff1602179055508260129080519060200190620003b2929190620012d4565b50600b60009054906101000a900473ffffffffffffffffffffffffffffffffffffffff1673ffffffffffffffffffffffffffffffffffffffff16630dfe16816040518163ffffffff1660e01b815260040160206040518083038186803b1580156200041c57600080fd5b505afa15801562000431573d6000803e3d6000fd5b505050506040513d601f19601f8201168201806040525081019062000457919062001469565b600c60006101000a81548173ffffffffffffffffffffffffffffffffffffffff021916908373ffffffffffffffffffffffffffffffffffffffff160217905550600a60009054906101000a900473ffffffffffffffffffffffffffffffffffffffff1673ffffffffffffffffffffffffffffffffffffffff16826000815181106200050b577f4e487b7100000000000000000000000000000000000000000000000000000000600052603260045260246000fd5b602002602001015173ffffffffffffffffffffffffffffffffffffffff16146200053457600080fd5b600c60009054906101000a900473ffffffffffffffffffffffffffffffffffffffff1673ffffffffffffffffffffffffffffffffffffffff1682600184516200057e91906200191e565b81518110620005b6577f4e487b7100000000000000000000000000000000000000000000000000000000600052603260045260246000fd5b602002602001015173ffffffffffffffffffffffffffffffffffffffff1614620005df57600080fd5b8160149080519060200190620005f7929190620012d4565b50600b60009054906101000a900473ffffffffffffffffffffffffffffffffffffffff1673ffffffffffffffffffffffffffffffffffffffff1663d21220a76040518163ffffffff1660e01b815260040160206040518083038186803b1580156200066157600080fd5b505afa15801562000676573d6000803e3d6000fd5b505050506040513d601f19601f820116820180604052508101906200069c919062001469565b600d60006101000a81548173ffffffffffffffffffffffffffffffffffffffff021916908373ffffffffffffffffffffffffffffffffffffffff160217905550600a60009054906101000a900473ffffffffffffffffffffffffffffffffffffffff1673ffffffffffffffffffffffffffffffffffffffff168160008151811062000750577f4e487b7100000000000000000000000000000000000000000000000000000000600052603260045260246000fd5b602002602001015173ffffffffffffffffffffffffffffffffffffffff16146200077957600080fd5b600d60009054906101000a900473ffffffffffffffffffffffffffffffffffffffff1673ffffffffffffffffffffffffffffffffffffffff168160018351620007c391906200191e565b81518110620007fb577f4e487b7100000000000000000000000000000000000000000000000000000000600052603260045260246000fd5b602002602001015173ffffffffffffffffffffffffffffffffffffffff16146200082457600080fd5b80601590805190602001906200083c929190620012d4565b50825167ffffffffffffffff8111156200087f577f4e487b7100000000000000000000000000000000000000000000000000000000600052604160045260246000fd5b604051908082528060200260200182016040528015620008ae5781602001602082028036833780820191505090505b5060139080519060200190620008c6929190620012d4565b5060005b8351811015620009f55760008160018651620008e791906200191e565b620008f391906200191e565b90506012818154811062000930577f4e487b7100000000000000000000000000000000000000000000000000000000600052603260045260246000fd5b9060005260206000200160009054906101000a900473ffffffffffffffffffffffffffffffffffffffff166013838154811062000996577f4e487b7100000000000000000000000000000000000000000000000000000000600052603260045260246000fd5b9060005260206000200160006101000a81548173ffffffffffffffffffffffffffffffffffffffff021916908373ffffffffffffffffffffffffffffffffffffffff160217905550508080620009ec9062001a0f565b915050620008ca565b5062000a0662000ae360201b60201c565b505050505050505050505062001c30565b600033905090565b60008060009054906101000a900473ffffffffffffffffffffffffffffffffffffffff169050816000806101000a81548173ffffffffffffffffffffffffffffffffffffffff021916908373ffffffffffffffffffffffffffffffffffffffff1602179055508173ffffffffffffffffffffffffffffffffffffffff168173ffffffffffffffffffffffffffffffffffffffff167f8be0079c531659141344cd1fd0a4f28419497f9722a3daafe3b4186f6b6457e060405160405180910390a35050565b62000b79600e60009054906101000a900473ffffffffffffffffffffffffffffffffffffffff167fffffffffffffffffffffffffffffffffffffffffffffffffffffffffffffffff600b60009054906101000a900473ffffffffffffffffffffffffffffffffffffffff1673ffffffffffffffffffffffffffffffffffffffff1662000ec160201b62002630179092919060201c565b62000c0f600360009054906101000a900473ffffffffffffffffffffffffffffffffffffffff167fffffffffffffffffffffffffffffffffffffffffffffffffffffffffffffffff600a60009054906101000a900473ffffffffffffffffffffffffffffffffffffffff1673ffffffffffffffffffffffffffffffffffffffff1662000ec160201b62002630179092919060201c565b62000ca5600360009054906101000a900473ffffffffffffffffffffffffffffffffffffffff167fffffffffffffffffffffffffffffffffffffffffffffffffffffffffffffffff600960009054906101000a900473ffffffffffffffffffffffffffffffffffffffff1673ffffffffffffffffffffffffffffffffffffffff1662000ec160201b62002630179092919060201c565b62000d1c600360009054906101000a900473ffffffffffffffffffffffffffffffffffffffff166000600c60009054906101000a900473ffffffffffffffffffffffffffffffffffffffff1673ffffffffffffffffffffffffffffffffffffffff1662000ec160201b62002630179092919060201c565b62000db2600360009054906101000a900473ffffffffffffffffffffffffffffffffffffffff167fffffffffffffffffffffffffffffffffffffffffffffffffffffffffffffffff600c60009054906101000a900473ffffffffffffffffffffffffffffffffffffffff1673ffffffffffffffffffffffffffffffffffffffff1662000ec160201b62002630179092919060201c565b62000e29600360009054906101000a900473ffffffffffffffffffffffffffffffffffffffff166000600d60009054906101000a900473ffffffffffffffffffffffffffffffffffffffff1673ffffffffffffffffffffffffffffffffffffffff1662000ec160201b62002630179092919060201c565b62000ebf600360009054906101000a900473ffffffffffffffffffffffffffffffffffffffff167fffffffffffffffffffffffffffffffffffffffffffffffffffffffffffffffff600d60009054906101000a900473ffffffffffffffffffffffffffffffffffffffff1673ffffffffffffffffffffffffffffffffffffffff1662000ec160201b62002630179092919060201c565b565b600081148062000f61575060008373ffffffffffffffffffffffffffffffffffffffff1663dd62ed3e30856040518363ffffffff1660e01b815260040162000f0b9291906200178e565b60206040518083038186803b15801562000f2457600080fd5b505afa15801562000f39573d6000803e3d6000fd5b505050506040513d601f19601f8201168201806040525081019062000f5f919062001613565b145b62000fa3576040517f08c379a000000000000000000000000000000000000000000000000000000000815260040162000f9a9062001872565b60405180910390fd5b6200102e8363095ea7b360e01b848460405160240162000fc5929190620017bb565b604051602081830303815290604052907bffffffffffffffffffffffffffffffffffffffffffffffffffffffff19166020820180517bffffffffffffffffffffffffffffffffffffffffffffffffffffffff83818316178352505050506200103360201b60201c565b505050565b60006200109c826040518060400160405280602081526020017f5361666545524332303a206c6f772d6c6576656c2063616c6c206661696c65648152508573ffffffffffffffffffffffffffffffffffffffff166200110760201b6200278e179092919060201c565b9050600081511115620011025780806020019051810190620010bf9190620015e7565b62001101576040517f08c379a0000000000000000000000000000000000000000000000000000000008152600401620010f89062001850565b60405180910390fd5b5b505050565b60606200111e84846000856200112760201b60201c565b90509392505050565b6060824710156200116f576040517f08c379a000000000000000000000000000000000000000000000000000000000815260040162001166906200180c565b60405180910390fd5b62001180856200125560201b60201c565b620011c2576040517f08c379a0000000000000000000000000000000000000000000000000000000008152600401620011b9906200182e565b60405180910390fd5b6000808673ffffffffffffffffffffffffffffffffffffffff168587604051620011ed919062001775565b60006040518083038185875af1925050503d80600081146200122c576040519150601f19603f3d011682016040523d82523d6000602084013e62001231565b606091505b5091509150620012498282866200126860201b60201c565b92505050949350505050565b600080823b905060008111915050919050565b606083156200127a57829050620012cd565b6000835111156200128e5782518084602001fd5b816040517f08c379a0000000000000000000000000000000000000000000000000000000008152600401620012c49190620017e8565b60405180910390fd5b9392505050565b82805482825590600052602060002090810192821562001350579160200282015b828111156200134f5782518260006101000a81548173ffffffffffffffffffffffffffffffffffffffff021916908373ffffffffffffffffffffffffffffffffffffffff16021790555091602001919060010190620012f5565b5b5090506200135f919062001363565b5090565b5b808211156200137e57600081600090555060010162001364565b5090565b6000620013996200139384620018bd565b62001894565b90508083825260208201905082856020860282011115620013b957600080fd5b60005b85811015620013ed5781620013d28882620013f7565b845260208401935060208301925050600181019050620013bc565b5050509392505050565b600081519050620014088162001be2565b92915050565b600082601f8301126200142057600080fd5b81516200143284826020860162001382565b91505092915050565b6000815190506200144c8162001bfc565b92915050565b600081519050620014638162001c16565b92915050565b6000602082840312156200147c57600080fd5b60006200148c84828501620013f7565b91505092915050565b60008060008060008060008060008060006101608c8e031215620014b857600080fd5b6000620014c88e828f01620013f7565b9b50506020620014db8e828f0162001452565b9a50506040620014ee8e828f01620013f7565b9950506060620015018e828f01620013f7565b9850506080620015148e828f01620013f7565b97505060a0620015278e828f01620013f7565b96505060c06200153a8e828f01620013f7565b95505060e06200154d8e828f01620013f7565b9450506101008c015167ffffffffffffffff8111156200156c57600080fd5b6200157a8e828f016200140e565b9350506101208c015167ffffffffffffffff8111156200159957600080fd5b620015a78e828f016200140e565b9250506101408c015167ffffffffffffffff811115620015c657600080fd5b620015d48e828f016200140e565b9150509295989b509295989b9093969950565b600060208284031215620015fa57600080fd5b60006200160a848285016200143b565b91505092915050565b6000602082840312156200162657600080fd5b6000620016368482850162001452565b91505092915050565b6200164a8162001959565b82525050565b60006200165d82620018ec565b62001669818562001902565b93506200167b818560208601620019a3565b80840191505092915050565b60006200169482620018f7565b620016a081856200190d565b9350620016b2818560208601620019a3565b620016bd8162001abb565b840191505092915050565b6000620016d76026836200190d565b9150620016e48262001acc565b604082019050919050565b6000620016fe601d836200190d565b91506200170b8262001b1b565b602082019050919050565b600062001725602a836200190d565b9150620017328262001b44565b604082019050919050565b60006200174c6036836200190d565b9150620017598262001b93565b604082019050919050565b6200176f8162001999565b82525050565b600062001783828462001650565b915081905092915050565b6000604082019050620017a560008301856200163f565b620017b460208301846200163f565b9392505050565b6000604082019050620017d260008301856200163f565b620017e1602083018462001764565b9392505050565b6000602082019050818103600083015262001804818462001687565b905092915050565b600060208201905081810360008301526200182781620016c8565b9050919050565b600060208201905081810360008301526200184981620016ef565b9050919050565b600060208201905081810360008301526200186b8162001716565b9050919050565b600060208201905081810360008301526200188d816200173d565b9050919050565b6000620018a0620018b3565b9050620018ae8282620019d9565b919050565b6000604051905090565b600067ffffffffffffffff821115620018db57620018da62001a8c565b5b602082029050602081019050919050565b600081519050919050565b600081519050919050565b600081905092915050565b600082825260208201905092915050565b60006200192b8262001999565b9150620019388362001999565b9250828210156200194e576200194d62001a5d565b5b828203905092915050565b6000620019668262001979565b9050919050565b60008115159050919050565b600073ffffffffffffffffffffffffffffffffffffffff82169050919050565b6000819050919050565b60005b83811015620019c3578082015181840152602081019050620019a6565b83811115620019d3576000848401525b50505050565b620019e48262001abb565b810181811067ffffffffffffffff8211171562001a065762001a0562001a8c565b5b80604052505050565b600062001a1c8262001999565b91507fffffffffffffffffffffffffffffffffffffffffffffffffffffffffffffffff82141562001a525762001a5162001a5d565b5b600182019050919050565b7f4e487b7100000000000000000000000000000000000000000000000000000000600052601160045260246000fd5b7f4e487b7100000000000000000000000000000000000000000000000000000000600052604160045260246000fd5b6000601f19601f8301169050919050565b7f416464726573733a20696e73756666696369656e742062616c616e636520666f60008201527f722063616c6c0000000000000000000000000000000000000000000000000000602082015250565b7f416464726573733a2063616c6c20746f206e6f6e2d636f6e7472616374000000600082015250565b7f5361666545524332303a204552433230206f7065726174696f6e20646964206e60008201527f6f74207375636365656400000000000000000000000000000000000000000000602082015250565b7f5361666545524332303a20617070726f76652066726f6d206e6f6e2d7a65726f60008201527f20746f206e6f6e2d7a65726f20616c6c6f77616e636500000000000000000000602082015250565b62001bed8162001959565b811462001bf957600080fd5b50565b62001c07816200196d565b811462001c1357600080fd5b50565b62001c218162001999565b811462001c2d57600080fd5b50565b6150b48062001c406000396000f3fe608060405234801561001057600080fd5b50600436106103275760003560e01c80637d38ca65116101b8578063be12a97811610104578063dfbdc437116100a2578063f2fde38b1161007c578063f2fde38b1461086e578063fb6177871461088a578063fbfa77cf14610894578063fd63a887146108b257610327565b8063dfbdc43714610814578063f1a392da14610832578063f20eaeb81461085057610327565b8063d0e30db0116100de578063d0e30db0146107c6578063d3102589146107d0578063d801d946146107ee578063d92f3d73146107f857610327565b8063be12a9781461075c578063c1a3d44c1461078c578063c7b9d530146107aa57610327565b80638e14545911610171578063a68833e51161014b578063a68833e5146106e8578063ac1e502514610704578063aced166114610720578063bc063e1a1461073e57610327565b80638e1454591461068e57806390321e1a146106ac578063989ef4e3146106ca57610327565b80637d38ca65146105ee5780638456cb591461060c578063877562b6146106165780638912cb8b146106345780638bc7e8c4146106525780638da5cb5b1461067057610327565b806336c6cf2111610277578063573fef0a116102305780636817031b1161020a5780636817031b1461058e578063715018a6146105aa578063722713f7146105b4578063748747e6146105d257610327565b8063573fef0a146105485780635c975abb146105525780635ee167c01461057057610327565b806336c6cf21146104be5780633e0dc34e146104ee5780633f4ba83a1461050c5780634641257d146105165780634700d3051461052057806354518b1a1461052a57610327565b80631f1fcd51116102e4578063257ae0de116102be578063257ae0de1461044a57806326465826146104685780632ad5a53f146104845780632e1a7d4d146104a257610327565b80631f1fcd51146103f05780631fc8bc5d1461040e5780631fe4a6861461042c57610327565b806305200c9c1461032c5780630587f7851461035c5780630e8fbb5a1461037a578063115880861461039657806311b0b42d146103b457806313e120b1146103d2575b600080fd5b61034660048036038101906103419190614141565b6108e2565b60405161035391906145be565b60405180910390f35b610364610921565b60405161037191906146a9565b60405180910390f35b610394600480360381019061038f91906140ef565b6109af565b005b61039e610acf565b6040516103ab91906148c8565b60405180910390f35b6103bc610b8a565b6040516103c991906145be565b60405180910390f35b6103da610bb0565b6040516103e791906146a9565b60405180910390f35b6103f8610c3e565b60405161040591906145be565b60405180910390f35b610416610c64565b60405161042391906145be565b60405180910390f35b610434610c8a565b60405161044191906145be565b60405180910390f35b610452610cb0565b60405161045f91906145be565b60405180910390f35b610482600480360381019061047d9190614141565b610cd6565b005b61048c610e13565b60405161049991906148c8565b60405180910390f35b6104bc60048036038101906104b79190614141565b610e18565b005b6104d860048036038101906104d39190614141565b611230565b6040516104e591906145be565b60405180910390f35b6104f661126f565b60405161050391906148c8565b60405180910390f35b610514611275565b005b61051e61135c565b005b61052861141c565b005b610532611584565b60405161053f91906148c8565b60405180910390f35b61055061158a565b005b61055a61163a565b60405161056791906146cb565b60405180910390f35b610578611650565b60405161058591906145be565b60405180910390f35b6105a860048036038101906105a39190614085565b611676565b005b6105b2611736565b005b6105bc6117be565b6040516105c991906148c8565b60405180910390f35b6105ec60048036038101906105e79190614085565b6117e6565b005b6105f66118f7565b60405161060391906148c8565b60405180910390f35b6106146118fc565b005b61061e6119db565b60405161062b91906145be565b60405180910390f35b61063c611a01565b60405161064991906146cb565b60405180910390f35b61065a611a14565b60405161066791906148c8565b60405180910390f35b610678611a1a565b60405161068591906145be565b60405180910390f35b610696611a43565b6040516106a391906145be565b60405180910390f35b6106b4611a69565b6040516106c191906148c8565b60405180910390f35b6106d2611a6f565b6040516106df91906146a9565b60405180910390f35b61070260048036038101906106fd9190614085565b611afd565b005b61071e60048036038101906107199190614141565b611bbd565b005b610728611cd8565b60405161073591906145be565b60405180910390f35b610746611cfe565b60405161075391906148c8565b60405180910390f35b61077660048036038101906107719190614141565b611d04565b60405161078391906145be565b60405180910390f35b610794611d43565b6040516107a191906148c8565b60405180910390f35b6107c460048036038101906107bf9190614085565b611df5565b005b6107ce611ec9565b005b6107d8612060565b6040516107e591906148c8565b60405180910390f35b6107f6612066565b005b610812600480360381019061080d9190614085565b61213d565b005b61081c6121fd565b60405161082991906148c8565b60405180910390f35b61083a612202565b60405161084791906148c8565b60405180910390f35b610858612208565b60405161086591906145be565b60405180910390f35b61088860048036038101906108839190614085565b61222e565b005b610892612326565b005b61089c6125cb565b6040516108a991906145be565b60405180910390f35b6108cc60048036038101906108c79190614141565b6125f1565b6040516108d991906145be565b60405180910390f35b601381815481106108f257600080fd5b906000526020600020016000915054906101000a900473ffffffffffffffffffffffffffffffffffffffff1681565b606060158054806020026020016040519081016040528092919081815260200182805480156109a557602002820191906000526020600020905b8160009054906101000a900473ffffffffffffffffffffffffffffffffffffffff1673ffffffffffffffffffffffffffffffffffffffff168152602001906001019080831161095b575b5050505050905090565b6109b7611a1a565b73ffffffffffffffffffffffffffffffffffffffff163373ffffffffffffffffffffffffffffffffffffffff161480610a3d5750600160009054906101000a900473ffffffffffffffffffffffffffffffffffffffff1673ffffffffffffffffffffffffffffffffffffffff163373ffffffffffffffffffffffffffffffffffffffff16145b610a7c576040517f08c379a0000000000000000000000000000000000000000000000000000000008152600401610a7390614848565b60405180910390fd5b80601060006101000a81548160ff02191690831515021790555060011515601060009054906101000a900460ff1615151415610ac157610abc6000611bbd565b610acc565b610acb600a611bbd565b5b50565b600080600e60009054906101000a900473ffffffffffffffffffffffffffffffffffffffff1673ffffffffffffffffffffffffffffffffffffffff166393f1a40b600f54306040518363ffffffff1660e01b8152600401610b319291906148e3565b604080518083038186803b158015610b4857600080fd5b505afa158015610b5c573d6000803e3d6000fd5b505050506040513d601f19601f82011682018060405250810190610b809190614193565b5090508091505090565b600960009054906101000a900473ffffffffffffffffffffffffffffffffffffffff1681565b60606012805480602002602001604051908101604052809291908181526020018280548015610c3457602002820191906000526020600020905b8160009054906101000a900473ffffffffffffffffffffffffffffffffffffffff1673ffffffffffffffffffffffffffffffffffffffff1681526020019060010190808311610bea575b5050505050905090565b600b60009054906101000a900473ffffffffffffffffffffffffffffffffffffffff1681565b600e60009054906101000a900473ffffffffffffffffffffffffffffffffffffffff1681565b600260009054906101000a900473ffffffffffffffffffffffffffffffffffffffff1681565b600360009054906101000a900473ffffffffffffffffffffffffffffffffffffffff1681565b610cde611a1a565b73ffffffffffffffffffffffffffffffffffffffff163373ffffffffffffffffffffffffffffffffffffffff161480610d645750600160009054906101000a900473ffffffffffffffffffffffffffffffffffffffff1673ffffffffffffffffffffffffffffffffffffffff163373ffffffffffffffffffffffffffffffffffffffff16145b610da3576040517f08c379a0000000000000000000000000000000000000000000000000000000008152600401610d9a90614848565b60405180910390fd5b606f811115610de7576040517f08c379a0000000000000000000000000000000000000000000000000000000008152600401610dde906147c8565b60405180910390fd5b8060078190555060075460706103e8610e009190614b67565b610e0a9190614b67565b60088190555050565b606f81565b600460009054906101000a900473ffffffffffffffffffffffffffffffffffffffff1673ffffffffffffffffffffffffffffffffffffffff163373ffffffffffffffffffffffffffffffffffffffff1614610ea8576040517f08c379a0000000000000000000000000000000000000000000000000000000008152600401610e9f906147e8565b60405180910390fd5b6000600b60009054906101000a900473ffffffffffffffffffffffffffffffffffffffff1673ffffffffffffffffffffffffffffffffffffffff166370a08231306040518263ffffffff1660e01b8152600401610f0591906145be565b60206040518083038186803b158015610f1d57600080fd5b505afa158015610f31573d6000803e3d6000fd5b505050506040513d601f19601f82011682018060405250810190610f55919061416a565b9050818110156110b257600e60009054906101000a900473ffffffffffffffffffffffffffffffffffffffff1673ffffffffffffffffffffffffffffffffffffffff16630ad58d2f600f54610fb384866127a690919063ffffffff16565b306040518463ffffffff1660e01b8152600401610fd293929190614966565b600060405180830381600087803b158015610fec57600080fd5b505af1158015611000573d6000803e3d6000fd5b50505050600b60009054906101000a900473ffffffffffffffffffffffffffffffffffffffff1673ffffffffffffffffffffffffffffffffffffffff166370a08231306040518263ffffffff1660e01b815260040161105f91906145be565b60206040518083038186803b15801561107757600080fd5b505afa15801561108b573d6000803e3d6000fd5b505050506040513d601f19601f820116820180604052508101906110af919061416a565b90505b818111156110be578190505b6110c6611a1a565b73ffffffffffffffffffffffffffffffffffffffff163273ffffffffffffffffffffffffffffffffffffffff161480611103575061110261163a565b5b1561117c57611177600460009054906101000a900473ffffffffffffffffffffffffffffffffffffffff1682600b60009054906101000a900473ffffffffffffffffffffffffffffffffffffffff1673ffffffffffffffffffffffffffffffffffffffff166127bc9092919063ffffffff16565b61122c565b60006111a76127106111996006548561284290919063ffffffff16565b61285890919063ffffffff16565b905061122a600460009054906101000a900473ffffffffffffffffffffffffffffffffffffffff166111e283856127a690919063ffffffff16565b600b60009054906101000a900473ffffffffffffffffffffffffffffffffffffffff1673ffffffffffffffffffffffffffffffffffffffff166127bc9092919063ffffffff16565b505b5050565b6014818154811061124057600080fd5b906000526020600020016000915054906101000a900473ffffffffffffffffffffffffffffffffffffffff1681565b600f5481565b61127d611a1a565b73ffffffffffffffffffffffffffffffffffffffff163373ffffffffffffffffffffffffffffffffffffffff1614806113035750600160009054906101000a900473ffffffffffffffffffffffffffffffffffffffff1673ffffffffffffffffffffffffffffffffffffffff163373ffffffffffffffffffffffffffffffffffffffff16145b611342576040517f08c379a000000000000000000000000000000000000000000000000000000000815260040161133990614848565b60405180910390fd5b61134a61286e565b61135261290f565b61135a611ec9565b565b61136461163a565b156113a4576040517f08c379a000000000000000000000000000000000000000000000000000000000815260040161139b906147a8565b60405180910390fd5b3273ffffffffffffffffffffffffffffffffffffffff163373ffffffffffffffffffffffffffffffffffffffff1614611412576040517f08c379a000000000000000000000000000000000000000000000000000000000815260040161140990614888565b60405180910390fd5b61141a612cbc565b565b611424611a1a565b73ffffffffffffffffffffffffffffffffffffffff163373ffffffffffffffffffffffffffffffffffffffff1614806114aa5750600160009054906101000a900473ffffffffffffffffffffffffffffffffffffffff1673ffffffffffffffffffffffffffffffffffffffff163373ffffffffffffffffffffffffffffffffffffffff16145b6114e9576040517f08c379a00000000000000000000000000000000000000000000000000000000081526004016114e090614848565b60405180910390fd5b6114f16118fc565b600e60009054906101000a900473ffffffffffffffffffffffffffffffffffffffff1673ffffffffffffffffffffffffffffffffffffffff16632f940c70600f54306040518363ffffffff1660e01b81526004016115509291906148e3565b600060405180830381600087803b15801561156a57600080fd5b505af115801561157e573d6000803e3d6000fd5b50505050565b61271081565b601060009054906101000a900460ff161561163857600460009054906101000a900473ffffffffffffffffffffffffffffffffffffffff1673ffffffffffffffffffffffffffffffffffffffff163373ffffffffffffffffffffffffffffffffffffffff161461162f576040517f08c379a0000000000000000000000000000000000000000000000000000000008152600401611626906147e8565b60405180910390fd5b611637612cbc565b5b565b60008060149054906101000a900460ff16905090565b600c60009054906101000a900473ffffffffffffffffffffffffffffffffffffffff1681565b61167e612e77565b73ffffffffffffffffffffffffffffffffffffffff1661169c611a1a565b73ffffffffffffffffffffffffffffffffffffffff16146116f2576040517f08c379a00000000000000000000000000000000000000000000000000000000081526004016116e990614808565b60405180910390fd5b80600460006101000a81548173ffffffffffffffffffffffffffffffffffffffff021916908373ffffffffffffffffffffffffffffffffffffffff16021790555050565b61173e612e77565b73ffffffffffffffffffffffffffffffffffffffff1661175c611a1a565b73ffffffffffffffffffffffffffffffffffffffff16146117b2576040517f08c379a00000000000000000000000000000000000000000000000000000000081526004016117a990614808565b60405180910390fd5b6117bc6000612e7f565b565b60006117e16117cb610acf565b6117d3611d43565b612f4390919063ffffffff16565b905090565b6117ee611a1a565b73ffffffffffffffffffffffffffffffffffffffff163373ffffffffffffffffffffffffffffffffffffffff1614806118745750600160009054906101000a900473ffffffffffffffffffffffffffffffffffffffff1673ffffffffffffffffffffffffffffffffffffffff163373ffffffffffffffffffffffffffffffffffffffff16145b6118b3576040517f08c379a00000000000000000000000000000000000000000000000000000000081526004016118aa90614848565b60405180910390fd5b80600160006101000a81548173ffffffffffffffffffffffffffffffffffffffff021916908373ffffffffffffffffffffffffffffffffffffffff16021790555050565b607081565b611904611a1a565b73ffffffffffffffffffffffffffffffffffffffff163373ffffffffffffffffffffffffffffffffffffffff16148061198a5750600160009054906101000a900473ffffffffffffffffffffffffffffffffffffffff1673ffffffffffffffffffffffffffffffffffffffff163373ffffffffffffffffffffffffffffffffffffffff16145b6119c9576040517f08c379a00000000000000000000000000000000000000000000000000000000081526004016119c090614848565b60405180910390fd5b6119d1612f59565b6119d9612ffc565b565b600d60009054906101000a900473ffffffffffffffffffffffffffffffffffffffff1681565b601060009054906101000a900460ff1681565b60065481565b60008060009054906101000a900473ffffffffffffffffffffffffffffffffffffffff16905090565b600560009054906101000a900473ffffffffffffffffffffffffffffffffffffffff1681565b60075481565b60606014805480602002602001604051908101604052809291908181526020018280548015611af357602002820191906000526020600020905b8160009054906101000a900473ffffffffffffffffffffffffffffffffffffffff1673ffffffffffffffffffffffffffffffffffffffff1681526020019060010190808311611aa9575b5050505050905090565b611b05612e77565b73ffffffffffffffffffffffffffffffffffffffff16611b23611a1a565b73ffffffffffffffffffffffffffffffffffffffff1614611b79576040517f08c379a0000000000000000000000000000000000000000000000000000000008152600401611b7090614808565b60405180910390fd5b80600560006101000a81548173ffffffffffffffffffffffffffffffffffffffff021916908373ffffffffffffffffffffffffffffffffffffffff16021790555050565b611bc5611a1a565b73ffffffffffffffffffffffffffffffffffffffff163373ffffffffffffffffffffffffffffffffffffffff161480611c4b5750600160009054906101000a900473ffffffffffffffffffffffffffffffffffffffff1673ffffffffffffffffffffffffffffffffffffffff163373ffffffffffffffffffffffffffffffffffffffff16145b611c8a576040517f08c379a0000000000000000000000000000000000000000000000000000000008152600401611c8190614848565b60405180910390fd5b6032811115611cce576040517f08c379a0000000000000000000000000000000000000000000000000000000008152600401611cc5906147c8565b60405180910390fd5b8060068190555050565b600160009054906101000a900473ffffffffffffffffffffffffffffffffffffffff1681565b6103e881565b60128181548110611d1457600080fd5b906000526020600020016000915054906101000a900473ffffffffffffffffffffffffffffffffffffffff1681565b6000600b60009054906101000a900473ffffffffffffffffffffffffffffffffffffffff1673ffffffffffffffffffffffffffffffffffffffff166370a08231306040518263ffffffff1660e01b8152600401611da091906145be565b60206040518083038186803b158015611db857600080fd5b505afa158015611dcc573d6000803e3d6000fd5b505050506040513d601f19601f82011682018060405250810190611df0919061416a565b905090565b600260009054906101000a900473ffffffffffffffffffffffffffffffffffffffff1673ffffffffffffffffffffffffffffffffffffffff163373ffffffffffffffffffffffffffffffffffffffff1614611e85576040517f08c379a0000000000000000000000000000000000000000000000000000000008152600401611e7c90614728565b60405180910390fd5b80600260006101000a81548173ffffffffffffffffffffffffffffffffffffffff021916908373ffffffffffffffffffffffffffffffffffffffff16021790555050565b611ed161163a565b15611f11576040517f08c379a0000000000000000000000000000000000000000000000000000000008152600401611f08906147a8565b60405180910390fd5b6000600b60009054906101000a900473ffffffffffffffffffffffffffffffffffffffff1673ffffffffffffffffffffffffffffffffffffffff166370a08231306040518263ffffffff1660e01b8152600401611f6e91906145be565b60206040518083038186803b158015611f8657600080fd5b505afa158015611f9a573d6000803e3d6000fd5b505050506040513d601f19601f82011682018060405250810190611fbe919061416a565b9050600081111561205d57600e60009054906101000a900473ffffffffffffffffffffffffffffffffffffffff1673ffffffffffffffffffffffffffffffffffffffff16638dbdbe6d600f5483306040518463ffffffff1660e01b815260040161202a93929190614966565b600060405180830381600087803b15801561204457600080fd5b505af1158015612058573d6000803e3d6000fd5b505050505b50565b60085481565b61206e611a1a565b73ffffffffffffffffffffffffffffffffffffffff163373ffffffffffffffffffffffffffffffffffffffff1614806120f45750600160009054906101000a900473ffffffffffffffffffffffffffffffffffffffff1673ffffffffffffffffffffffffffffffffffffffff163373ffffffffffffffffffffffffffffffffffffffff16145b612133576040517f08c379a000000000000000000000000000000000000000000000000000000000815260040161212a90614848565b60405180910390fd5b61213b612cbc565b565b612145612e77565b73ffffffffffffffffffffffffffffffffffffffff16612163611a1a565b73ffffffffffffffffffffffffffffffffffffffff16146121b9576040517f08c379a00000000000000000000000000000000000000000000000000000000081526004016121b090614808565b60405180910390fd5b80600360006101000a81548173ffffffffffffffffffffffffffffffffffffffff021916908373ffffffffffffffffffffffffffffffffffffffff16021790555050565b603281565b60115481565b600a60009054906101000a900473ffffffffffffffffffffffffffffffffffffffff1681565b612236612e77565b73ffffffffffffffffffffffffffffffffffffffff16612254611a1a565b73ffffffffffffffffffffffffffffffffffffffff16146122aa576040517f08c379a00000000000000000000000000000000000000000000000000000000081526004016122a190614808565b60405180910390fd5b600073ffffffffffffffffffffffffffffffffffffffff168173ffffffffffffffffffffffffffffffffffffffff16141561231a576040517f08c379a000000000000000000000000000000000000000000000000000000000815260040161231190614748565b60405180910390fd5b61232381612e7f565b50565b600460009054906101000a900473ffffffffffffffffffffffffffffffffffffffff1673ffffffffffffffffffffffffffffffffffffffff163373ffffffffffffffffffffffffffffffffffffffff16146123b6576040517f08c379a00000000000000000000000000000000000000000000000000000000081526004016123ad906147e8565b60405180910390fd5b600e60009054906101000a900473ffffffffffffffffffffffffffffffffffffffff1673ffffffffffffffffffffffffffffffffffffffff16632f940c70600f54306040518363ffffffff1660e01b81526004016124159291906148e3565b600060405180830381600087803b15801561242f57600080fd5b505af1158015612443573d6000803e3d6000fd5b505050506000600b60009054906101000a900473ffffffffffffffffffffffffffffffffffffffff1673ffffffffffffffffffffffffffffffffffffffff166370a08231306040518263ffffffff1660e01b81526004016124a491906145be565b60206040518083038186803b1580156124bc57600080fd5b505afa1580156124d0573d6000803e3d6000fd5b505050506040513d601f19601f820116820180604052508101906124f4919061416a565b9050600b60009054906101000a900473ffffffffffffffffffffffffffffffffffffffff1673ffffffffffffffffffffffffffffffffffffffff1663a9059cbb600460009054906101000a900473ffffffffffffffffffffffffffffffffffffffff16836040518363ffffffff1660e01b8152600401612575929190614680565b602060405180830381600087803b15801561258f57600080fd5b505af11580156125a3573d6000803e3d6000fd5b505050506040513d601f19601f820116820180604052508101906125c79190614118565b5050565b600460009054906101000a900473ffffffffffffffffffffffffffffffffffffffff1681565b6015818154811061260157600080fd5b906000526020600020016000915054906101000a900473ffffffffffffffffffffffffffffffffffffffff1681565b60008114806126c9575060008373ffffffffffffffffffffffffffffffffffffffff1663dd62ed3e30856040518363ffffffff1660e01b81526004016126779291906145d9565b60206040518083038186803b15801561268f57600080fd5b505afa1580156126a3573d6000803e3d6000fd5b505050506040513d601f19601f820116820180604052508101906126c7919061416a565b145b612708576040517f08c379a00000000000000000000000000000000000000000000000000000000081526004016126ff906148a8565b60405180910390fd5b6127898363095ea7b360e01b8484604051602401612727929190614680565b604051602081830303815290604052907bffffffffffffffffffffffffffffffffffffffffffffffffffffffff19166020820180517bffffffffffffffffffffffffffffffffffffffffffffffffffffffff838183161783525050505061322e565b505050565b606061279d84846000856132f5565b90509392505050565b600081836127b49190614b67565b905092915050565b61283d8363a9059cbb60e01b84846040516024016127db929190614680565b604051602081830303815290604052907bffffffffffffffffffffffffffffffffffffffffffffffffffffffff19166020820180517bffffffffffffffffffffffffffffffffffffffffffffffffffffffff838183161783525050505061322e565b505050565b600081836128509190614b0d565b905092915050565b600081836128669190614adc565b905092915050565b61287661163a565b6128b5576040517f08c379a00000000000000000000000000000000000000000000000000000000081526004016128ac90614708565b60405180910390fd5b60008060146101000a81548160ff0219169083151502179055507f5db9ee0a495bf2e6ff9c91a7834c1ba4fdd244a5e8aa4e537bd38aeae4b073aa6128f8612e77565b60405161290591906145be565b60405180910390a1565b61299e600e60009054906101000a900473ffffffffffffffffffffffffffffffffffffffff167fffffffffffffffffffffffffffffffffffffffffffffffffffffffffffffffff600b60009054906101000a900473ffffffffffffffffffffffffffffffffffffffff1673ffffffffffffffffffffffffffffffffffffffff166126309092919063ffffffff16565b612a2d600360009054906101000a900473ffffffffffffffffffffffffffffffffffffffff167fffffffffffffffffffffffffffffffffffffffffffffffffffffffffffffffff600a60009054906101000a900473ffffffffffffffffffffffffffffffffffffffff1673ffffffffffffffffffffffffffffffffffffffff166126309092919063ffffffff16565b612abc600360009054906101000a900473ffffffffffffffffffffffffffffffffffffffff167fffffffffffffffffffffffffffffffffffffffffffffffffffffffffffffffff600960009054906101000a900473ffffffffffffffffffffffffffffffffffffffff1673ffffffffffffffffffffffffffffffffffffffff166126309092919063ffffffff16565b612b2c600360009054906101000a900473ffffffffffffffffffffffffffffffffffffffff166000600c60009054906101000a900473ffffffffffffffffffffffffffffffffffffffff1673ffffffffffffffffffffffffffffffffffffffff166126309092919063ffffffff16565b612bbb600360009054906101000a900473ffffffffffffffffffffffffffffffffffffffff167fffffffffffffffffffffffffffffffffffffffffffffffffffffffffffffffff600c60009054906101000a900473ffffffffffffffffffffffffffffffffffffffff1673ffffffffffffffffffffffffffffffffffffffff166126309092919063ffffffff16565b612c2b600360009054906101000a900473ffffffffffffffffffffffffffffffffffffffff166000600d60009054906101000a900473ffffffffffffffffffffffffffffffffffffffff1673ffffffffffffffffffffffffffffffffffffffff166126309092919063ffffffff16565b612cba600360009054906101000a900473ffffffffffffffffffffffffffffffffffffffff167fffffffffffffffffffffffffffffffffffffffffffffffffffffffffffffffff600d60009054906101000a900473ffffffffffffffffffffffffffffffffffffffff1673ffffffffffffffffffffffffffffffffffffffff166126309092919063ffffffff16565b565b3373ffffffffffffffffffffffffffffffffffffffff163273ffffffffffffffffffffffffffffffffffffffff161480612d435750600460009054906101000a900473ffffffffffffffffffffffffffffffffffffffff1673ffffffffffffffffffffffffffffffffffffffff163373ffffffffffffffffffffffffffffffffffffffff16145b612d82576040517f08c379a0000000000000000000000000000000000000000000000000000000008152600401612d7990614768565b60405180910390fd5b600e60009054906101000a900473ffffffffffffffffffffffffffffffffffffffff1673ffffffffffffffffffffffffffffffffffffffff166318fccc76600f54306040518363ffffffff1660e01b8152600401612de19291906148e3565b600060405180830381600087803b158015612dfb57600080fd5b505af1158015612e0f573d6000803e3d6000fd5b50505050612e1b613409565b612e2361397a565b612e2b611ec9565b426011819055503373ffffffffffffffffffffffffffffffffffffffff167f577a37fdb49a88d66684922c6f913df5239b4f214b2b97c53ef8e3bbb2034cb560405160405180910390a2565b600033905090565b60008060009054906101000a900473ffffffffffffffffffffffffffffffffffffffff169050816000806101000a81548173ffffffffffffffffffffffffffffffffffffffff021916908373ffffffffffffffffffffffffffffffffffffffff1602179055508173ffffffffffffffffffffffffffffffffffffffff168173ffffffffffffffffffffffffffffffffffffffff167f8be0079c531659141344cd1fd0a4f28419497f9722a3daafe3b4186f6b6457e060405160405180910390a35050565b60008183612f519190614a86565b905092915050565b612f6161163a565b15612fa1576040517f08c379a0000000000000000000000000000000000000000000000000000000008152600401612f98906147a8565b60405180910390fd5b6001600060146101000a81548160ff0219169083151502179055507f62e78cea01bee320cd4e420270b5ea74000d11b0c9f74754ebdbfc544b05a258612fe5612e77565b604051612ff291906145be565b60405180910390a1565b61306c600e60009054906101000a900473ffffffffffffffffffffffffffffffffffffffff166000600b60009054906101000a900473ffffffffffffffffffffffffffffffffffffffff1673ffffffffffffffffffffffffffffffffffffffff166126309092919063ffffffff16565b6130dc600360009054906101000a900473ffffffffffffffffffffffffffffffffffffffff166000600a60009054906101000a900473ffffffffffffffffffffffffffffffffffffffff1673ffffffffffffffffffffffffffffffffffffffff166126309092919063ffffffff16565b61314c600360009054906101000a900473ffffffffffffffffffffffffffffffffffffffff166000600960009054906101000a900473ffffffffffffffffffffffffffffffffffffffff1673ffffffffffffffffffffffffffffffffffffffff166126309092919063ffffffff16565b6131bc600360009054906101000a900473ffffffffffffffffffffffffffffffffffffffff166000600c60009054906101000a900473ffffffffffffffffffffffffffffffffffffffff1673ffffffffffffffffffffffffffffffffffffffff166126309092919063ffffffff16565b61322c600360009054906101000a900473ffffffffffffffffffffffffffffffffffffffff166000600d60009054906101000a900473ffffffffffffffffffffffffffffffffffffffff1673ffffffffffffffffffffffffffffffffffffffff166126309092919063ffffffff16565b565b6000613290826040518060400160405280602081526020017f5361666545524332303a206c6f772d6c6576656c2063616c6c206661696c65648152508573ffffffffffffffffffffffffffffffffffffffff1661278e9092919063ffffffff16565b90506000815111156132f057808060200190518101906132b09190614118565b6132ef576040517f08c379a00000000000000000000000000000000000000000000000000000000081526004016132e690614868565b60405180910390fd5b5b505050565b60608247101561333a576040517f08c379a000000000000000000000000000000000000000000000000000000000815260040161333190614788565b60405180910390fd5b61334385613f0c565b613382576040517f08c379a000000000000000000000000000000000000000000000000000000000815260040161337990614828565b60405180910390fd5b6000808673ffffffffffffffffffffffffffffffffffffffff1685876040516133ab91906145a7565b60006040518083038185875af1925050503d80600081146133e8576040519150601f19603f3d011682016040523d82523d6000602084013e6133ed565b606091505b50915091506133fd828286613f1f565b92505050949350505050565b6000600960009054906101000a900473ffffffffffffffffffffffffffffffffffffffff1673ffffffffffffffffffffffffffffffffffffffff166370a08231306040518263ffffffff1660e01b815260040161346691906145be565b60206040518083038186803b15801561347e57600080fd5b505afa158015613492573d6000803e3d6000fd5b505050506040513d601f19601f820116820180604052508101906134b6919061416a565b9050600081111561357f57600360009054906101000a900473ffffffffffffffffffffffffffffffffffffffff1673ffffffffffffffffffffffffffffffffffffffff166338ed1739826000601330426040518663ffffffff1660e01b815260040161352695949392919061490c565b600060405180830381600087803b15801561354057600080fd5b505af1158015613554573d6000803e3d6000fd5b505050506040513d6000823e3d601f19601f8201168201806040525081019061357d91906140ae565b505b60006136536103e8613645602d600a60009054906101000a900473ffffffffffffffffffffffffffffffffffffffff1673ffffffffffffffffffffffffffffffffffffffff166370a08231306040518263ffffffff1660e01b81526004016135e791906145be565b60206040518083038186803b1580156135ff57600080fd5b505afa158015613613573d6000803e3d6000fd5b505050506040513d601f19601f82011682018060405250810190613637919061416a565b61284290919063ffffffff16565b61285890919063ffffffff16565b9050600360009054906101000a900473ffffffffffffffffffffffffffffffffffffffff1673ffffffffffffffffffffffffffffffffffffffff166338ed1739826000601230426040518663ffffffff1660e01b81526004016136ba95949392919061490c565b600060405180830381600087803b1580156136d457600080fd5b505af11580156136e8573d6000803e3d6000fd5b505050506040513d6000823e3d601f19601f8201168201806040525081019061371191906140ae565b506000600960009054906101000a900473ffffffffffffffffffffffffffffffffffffffff1673ffffffffffffffffffffffffffffffffffffffff166370a08231306040518263ffffffff1660e01b815260040161376f91906145be565b60206040518083038186803b15801561378757600080fd5b505afa15801561379b573d6000803e3d6000fd5b505050506040513d601f19601f820116820180604052508101906137bf919061416a565b905060006137ec6103e86137de6007548561284290919063ffffffff16565b61285890919063ffffffff16565b905061383b3382600960009054906101000a900473ffffffffffffffffffffffffffffffffffffffff1673ffffffffffffffffffffffffffffffffffffffff166127bc9092919063ffffffff16565b60006138666103e86138586008548661284290919063ffffffff16565b61285890919063ffffffff16565b90506138d7600560009054906101000a900473ffffffffffffffffffffffffffffffffffffffff1682600960009054906101000a900473ffffffffffffffffffffffffffffffffffffffff1673ffffffffffffffffffffffffffffffffffffffff166127bc9092919063ffffffff16565b60006139016103e86138f360708761284290919063ffffffff16565b61285890919063ffffffff16565b9050613972600260009054906101000a900473ffffffffffffffffffffffffffffffffffffffff1682600960009054906101000a900473ffffffffffffffffffffffffffffffffffffffff1673ffffffffffffffffffffffffffffffffffffffff166127bc9092919063ffffffff16565b505050505050565b6000613a3a6002600a60009054906101000a900473ffffffffffffffffffffffffffffffffffffffff1673ffffffffffffffffffffffffffffffffffffffff166370a08231306040518263ffffffff1660e01b81526004016139dc91906145be565b60206040518083038186803b1580156139f457600080fd5b505afa158015613a08573d6000803e3d6000fd5b505050506040513d601f19601f82011682018060405250810190613a2c919061416a565b61285890919063ffffffff16565b9050600a60009054906101000a900473ffffffffffffffffffffffffffffffffffffffff1673ffffffffffffffffffffffffffffffffffffffff16600c60009054906101000a900473ffffffffffffffffffffffffffffffffffffffff1673ffffffffffffffffffffffffffffffffffffffff1614613b7157600360009054906101000a900473ffffffffffffffffffffffffffffffffffffffff1673ffffffffffffffffffffffffffffffffffffffff166338ed1739826000601430426040518663ffffffff1660e01b8152600401613b1895949392919061490c565b600060405180830381600087803b158015613b3257600080fd5b505af1158015613b46573d6000803e3d6000fd5b505050506040513d6000823e3d601f19601f82011682018060405250810190613b6f91906140ae565b505b600a60009054906101000a900473ffffffffffffffffffffffffffffffffffffffff1673ffffffffffffffffffffffffffffffffffffffff16600d60009054906101000a900473ffffffffffffffffffffffffffffffffffffffff1673ffffffffffffffffffffffffffffffffffffffff1614613ca657600360009054906101000a900473ffffffffffffffffffffffffffffffffffffffff1673ffffffffffffffffffffffffffffffffffffffff166338ed1739826000601530426040518663ffffffff1660e01b8152600401613c4d95949392919061490c565b600060405180830381600087803b158015613c6757600080fd5b505af1158015613c7b573d6000803e3d6000fd5b505050506040513d6000823e3d601f19601f82011682018060405250810190613ca491906140ae565b505b6000600c60009054906101000a900473ffffffffffffffffffffffffffffffffffffffff1673ffffffffffffffffffffffffffffffffffffffff166370a08231306040518263ffffffff1660e01b8152600401613d0391906145be565b60206040518083038186803b158015613d1b57600080fd5b505afa158015613d2f573d6000803e3d6000fd5b505050506040513d601f19601f82011682018060405250810190613d53919061416a565b90506000600d60009054906101000a900473ffffffffffffffffffffffffffffffffffffffff1673ffffffffffffffffffffffffffffffffffffffff166370a08231306040518263ffffffff1660e01b8152600401613db291906145be565b60206040518083038186803b158015613dca57600080fd5b505afa158015613dde573d6000803e3d6000fd5b505050506040513d601f19601f82011682018060405250810190613e02919061416a565b9050600360009054906101000a900473ffffffffffffffffffffffffffffffffffffffff1673ffffffffffffffffffffffffffffffffffffffff1663e8e33700600c60009054906101000a900473ffffffffffffffffffffffffffffffffffffffff16600d60009054906101000a900473ffffffffffffffffffffffffffffffffffffffff16858560018030426040518963ffffffff1660e01b8152600401613eb2989796959493929190614602565b606060405180830381600087803b158015613ecc57600080fd5b505af1158015613ee0573d6000803e3d6000fd5b505050506040513d601f19601f82011682018060405250810190613f0491906141cf565b505050505050565b600080823b905060008111915050919050565b60608315613f2f57829050613f7f565b600083511115613f425782518084602001fd5b816040517f08c379a0000000000000000000000000000000000000000000000000000000008152600401613f7691906146e6565b60405180910390fd5b9392505050565b6000613f99613f94846149c2565b61499d565b90508083825260208201905082856020860282011115613fb857600080fd5b60005b85811015613fe85781613fce8882614070565b845260208401935060208301925050600181019050613fbb565b5050509392505050565b60008135905061400181615039565b92915050565b600082601f83011261401857600080fd5b8151614028848260208601613f86565b91505092915050565b60008135905061404081615050565b92915050565b60008151905061405581615050565b92915050565b60008135905061406a81615067565b92915050565b60008151905061407f81615067565b92915050565b60006020828403121561409757600080fd5b60006140a584828501613ff2565b91505092915050565b6000602082840312156140c057600080fd5b600082015167ffffffffffffffff8111156140da57600080fd5b6140e684828501614007565b91505092915050565b60006020828403121561410157600080fd5b600061410f84828501614031565b91505092915050565b60006020828403121561412a57600080fd5b600061413884828501614046565b91505092915050565b60006020828403121561415357600080fd5b60006141618482850161405b565b91505092915050565b60006020828403121561417c57600080fd5b600061418a84828501614070565b91505092915050565b600080604083850312156141a657600080fd5b60006141b485828601614070565b92505060206141c585828601614070565b9150509250929050565b6000806000606084860312156141e457600080fd5b60006141f286828701614070565b935050602061420386828701614070565b925050604061421486828701614070565b9150509250925092565b600061422a8383614236565b60208301905092915050565b61423f81614bbb565b82525050565b61424e81614bbb565b82525050565b600061425f82614a13565b6142698185614a59565b9350614274836149ee565b8060005b838110156142a557815161428c888261421e565b975061429783614a3f565b925050600181019050614278565b5085935050505092915050565b60006142bd82614a1e565b6142c78185614a59565b93506142d2836149fe565b8060005b8381101561430a576142e782614d32565b6142f1888261421e565b97506142fc83614a4c565b9250506001810190506142d6565b5085935050505092915050565b61432081614bcd565b82525050565b600061433182614a29565b61433b8185614a6a565b935061434b818560208601614c27565b80840191505092915050565b61436081614c03565b82525050565b61436f81614c15565b82525050565b600061438082614a34565b61438a8185614a75565b935061439a818560208601614c27565b6143a381614d45565b840191505092915050565b60006143bb601483614a75565b91506143c682614d63565b602082019050919050565b60006143de600b83614a75565b91506143e982614d8c565b602082019050919050565b6000614401602683614a75565b915061440c82614db5565b604082019050919050565b6000614424600983614a75565b915061442f82614e04565b602082019050919050565b6000614447602683614a75565b915061445282614e2d565b604082019050919050565b600061446a601083614a75565b915061447582614e7c565b602082019050919050565b600061448d600483614a75565b915061449882614ea5565b602082019050919050565b60006144b0600683614a75565b91506144bb82614ece565b602082019050919050565b60006144d3602083614a75565b91506144de82614ef7565b602082019050919050565b60006144f6601d83614a75565b915061450182614f20565b602082019050919050565b6000614519600883614a75565b915061452482614f49565b602082019050919050565b600061453c602a83614a75565b915061454782614f72565b604082019050919050565b600061455f600483614a75565b915061456a82614fc1565b602082019050919050565b6000614582603683614a75565b915061458d82614fea565b604082019050919050565b6145a181614bf9565b82525050565b60006145b38284614326565b915081905092915050565b60006020820190506145d36000830184614245565b92915050565b60006040820190506145ee6000830185614245565b6145fb6020830184614245565b9392505050565b600061010082019050614618600083018b614245565b614625602083018a614245565b6146326040830189614598565b61463f6060830188614598565b61464c6080830187614366565b61465960a0830186614366565b61466660c0830185614245565b61467360e0830184614598565b9998505050505050505050565b60006040820190506146956000830185614245565b6146a26020830184614598565b9392505050565b600060208201905081810360008301526146c38184614254565b905092915050565b60006020820190506146e06000830184614317565b92915050565b600060208201905081810360008301526147008184614375565b905092915050565b60006020820190508181036000830152614721816143ae565b9050919050565b60006020820190508181036000830152614741816143d1565b9050919050565b60006020820190508181036000830152614761816143f4565b9050919050565b6000602082019050818103600083015261478181614417565b9050919050565b600060208201905081810360008301526147a18161443a565b9050919050565b600060208201905081810360008301526147c18161445d565b9050919050565b600060208201905081810360008301526147e181614480565b9050919050565b60006020820190508181036000830152614801816144a3565b9050919050565b60006020820190508181036000830152614821816144c6565b9050919050565b60006020820190508181036000830152614841816144e9565b9050919050565b600060208201905081810360008301526148618161450c565b9050919050565b600060208201905081810360008301526148818161452f565b9050919050565b600060208201905081810360008301526148a181614552565b9050919050565b600060208201905081810360008301526148c181614575565b9050919050565b60006020820190506148dd6000830184614598565b92915050565b60006040820190506148f86000830185614598565b6149056020830184614245565b9392505050565b600060a0820190506149216000830188614598565b61492e6020830187614357565b818103604083015261494081866142b2565b905061494f6060830185614245565b61495c6080830184614598565b9695505050505050565b600060608201905061497b6000830186614598565b6149886020830185614598565b6149956040830184614245565b949350505050565b60006149a76149b8565b90506149b38282614c74565b919050565b6000604051905090565b600067ffffffffffffffff8211156149dd576149dc614d03565b5b602082029050602081019050919050565b6000819050602082019050919050565b60008190508160005260206000209050919050565b600081519050919050565b600081549050919050565b600081519050919050565b600081519050919050565b6000602082019050919050565b6000600182019050919050565b600082825260208201905092915050565b600081905092915050565b600082825260208201905092915050565b6000614a9182614bf9565b9150614a9c83614bf9565b9250827fffffffffffffffffffffffffffffffffffffffffffffffffffffffffffffffff03821115614ad157614ad0614ca5565b5b828201905092915050565b6000614ae782614bf9565b9150614af283614bf9565b925082614b0257614b01614cd4565b5b828204905092915050565b6000614b1882614bf9565b9150614b2383614bf9565b9250817fffffffffffffffffffffffffffffffffffffffffffffffffffffffffffffffff0483118215151615614b5c57614b5b614ca5565b5b828202905092915050565b6000614b7282614bf9565b9150614b7d83614bf9565b925082821015614b9057614b8f614ca5565b5b828203905092915050565b600073ffffffffffffffffffffffffffffffffffffffff82169050919050565b6000614bc682614bd9565b9050919050565b60008115159050919050565b600073ffffffffffffffffffffffffffffffffffffffff82169050919050565b6000819050919050565b6000614c0e82614bf9565b9050919050565b6000614c2082614bf9565b9050919050565b60005b83811015614c45578082015181840152602081019050614c2a565b83811115614c54576000848401525b50505050565b6000614c6d614c6883614d56565b614b9b565b9050919050565b614c7d82614d45565b810181811067ffffffffffffffff82111715614c9c57614c9b614d03565b5b80604052505050565b7f4e487b7100000000000000000000000000000000000000000000000000000000600052601160045260246000fd5b7f4e487b7100000000000000000000000000000000000000000000000000000000600052601260045260246000fd5b7f4e487b7100000000000000000000000000000000000000000000000000000000600052604160045260246000fd5b6000614d3e8254614c5a565b9050919050565b6000601f19601f8301169050919050565b60008160001c9050919050565b7f5061757361626c653a206e6f7420706175736564000000000000000000000000600082015250565b7f2173747261746567697374000000000000000000000000000000000000000000600082015250565b7f4f776e61626c653a206e6577206f776e657220697320746865207a65726f206160008201527f6464726573730000000000000000000000000000000000000000000000000000602082015250565b7f21636f6e74726163740000000000000000000000000000000000000000000000600082015250565b7f416464726573733a20696e73756666696369656e742062616c616e636520666f60008201527f722063616c6c0000000000000000000000000000000000000000000000000000602082015250565b7f5061757361626c653a2070617573656400000000000000000000000000000000600082015250565b7f2163617000000000000000000000000000000000000000000000000000000000600082015250565b7f217661756c740000000000000000000000000000000000000000000000000000600082015250565b7f4f776e61626c653a2063616c6c6572206973206e6f7420746865206f776e6572600082015250565b7f416464726573733a2063616c6c20746f206e6f6e2d636f6e7472616374000000600082015250565b7f216d616e61676572000000000000000000000000000000000000000000000000600082015250565b7f5361666545524332303a204552433230206f7065726174696f6e20646964206e60008201527f6f74207375636365656400000000000000000000000000000000000000000000602082015250565b7f21454f4100000000000000000000000000000000000000000000000000000000600082015250565b7f5361666545524332303a20617070726f76652066726f6d206e6f6e2d7a65726f60008201527f20746f206e6f6e2d7a65726f20616c6c6f77616e636500000000000000000000602082015250565b61504281614bbb565b811461504d57600080fd5b50565b61505981614bcd565b811461506457600080fd5b50565b61507081614bf9565b811461507b57600080fd5b5056fea26469706673582212209329d175651292723aafc7568e848b9b9a427bbef9f6de099ad490b7a2e82de464736f6c63430008040033",
  "linkReferences": {},
  "deployedLinkReferences": {}
}