{
  "_format": "hh-sol-artifact-1",
  "contractName": "StrategyCommonRewardPoolLPV2",
  "sourceName": "contracts/quick/StrategyCommonRewardPooLPV2.sol",
  "abi": [
    {
      "inputs": [
        {
          "internalType": "address",
          "name": "_want",
          "type": "address"
        },
        {
          "internalType": "address",
          "name": "_rewardPool",
          "type": "address"
        },
        {
          "internalType": "address",
          "name": "_vault",
          "type": "address"
        },
        {
          "internalType": "address",
          "name": "_unirouter",
          "type": "address"
        },
        {
          "internalType": "address",
          "name": "_keeper",
          "type": "address"
        },
        {
          "internalType": "address",
          "name": "_strategist",
          "type": "address"
        },
        {
          "internalType": "address",
          "name": "_beefyFeeRecipient",
          "type": "address"
        },
        {
          "internalType": "address[]",
          "name": "_outputToNativeRoute",
          "type": "address[]"
        },
        {
          "internalType": "address[]",
          "name": "_outputToLp0Route",
          "type": "address[]"
        },
        {
          "internalType": "address[]",
          "name": "_outputToLp1Route",
          "type": "address[]"
        }
      ],
      "stateMutability": "nonpayable",
      "type": "constructor"
    },
    {
      "anonymous": false,
      "inputs": [
        {
          "indexed": true,
          "internalType": "address",
          "name": "previousOwner",
          "type": "address"
        },
        {
          "indexed": true,
          "internalType": "address",
          "name": "newOwner",
          "type": "address"
        }
      ],
      "name": "OwnershipTransferred",
      "type": "event"
    },
    {
      "anonymous": false,
      "inputs": [
        {
          "indexed": false,
          "internalType": "address",
          "name": "account",
          "type": "address"
        }
      ],
      "name": "Paused",
      "type": "event"
    },
    {
      "anonymous": false,
      "inputs": [
        {
          "indexed": true,
          "internalType": "address",
          "name": "harvester",
          "type": "address"
        }
      ],
      "name": "StratHarvest",
      "type": "event"
    },
    {
      "anonymous": false,
      "inputs": [
        {
          "indexed": false,
          "internalType": "address",
          "name": "account",
          "type": "address"
        }
      ],
      "name": "Unpaused",
      "type": "event"
    },
    {
      "inputs": [],
      "name": "MAX_CALL_FEE",
      "outputs": [
        {
          "internalType": "uint256",
          "name": "",
          "type": "uint256"
        }
      ],
      "stateMutability": "view",
      "type": "function"
    },
    {
      "inputs": [],
      "name": "MAX_FEE",
      "outputs": [
        {
          "internalType": "uint256",
          "name": "",
          "type": "uint256"
        }
      ],
      "stateMutability": "view",
      "type": "function"
    },
    {
      "inputs": [],
      "name": "MAX_INT",
      "outputs": [
        {
          "internalType": "uint256",
          "name": "",
          "type": "uint256"
        }
      ],
      "stateMutability": "view",
      "type": "function"
    },
    {
      "inputs": [],
      "name": "STRATEGIST_FEE",
      "outputs": [
        {
          "internalType": "uint256",
          "name": "",
          "type": "uint256"
        }
      ],
      "stateMutability": "view",
      "type": "function"
    },
    {
      "inputs": [],
      "name": "WITHDRAWAL_FEE_CAP",
      "outputs": [
        {
          "internalType": "uint256",
          "name": "",
          "type": "uint256"
        }
      ],
      "stateMutability": "view",
      "type": "function"
    },
    {
      "inputs": [],
      "name": "WITHDRAWAL_MAX",
      "outputs": [
        {
          "internalType": "uint256",
          "name": "",
          "type": "uint256"
        }
      ],
      "stateMutability": "view",
      "type": "function"
    },
    {
      "inputs": [],
      "name": "balanceOf",
      "outputs": [
        {
          "internalType": "uint256",
          "name": "",
          "type": "uint256"
        }
      ],
      "stateMutability": "view",
      "type": "function"
    },
    {
      "inputs": [],
      "name": "balanceOfPool",
      "outputs": [
        {
          "internalType": "uint256",
          "name": "",
          "type": "uint256"
        }
      ],
      "stateMutability": "view",
      "type": "function"
    },
    {
      "inputs": [],
      "name": "balanceOfWant",
      "outputs": [
        {
          "internalType": "uint256",
          "name": "",
          "type": "uint256"
        }
      ],
      "stateMutability": "view",
      "type": "function"
    },
    {
      "inputs": [],
      "name": "beefyFee",
      "outputs": [
        {
          "internalType": "uint256",
          "name": "",
          "type": "uint256"
        }
      ],
      "stateMutability": "view",
      "type": "function"
    },
    {
      "inputs": [],
      "name": "beefyFeeRecipient",
      "outputs": [
        {
          "internalType": "address",
          "name": "",
          "type": "address"
        }
      ],
      "stateMutability": "view",
      "type": "function"
    },
    {
      "inputs": [],
      "name": "beforeDeposit",
      "outputs": [],
      "stateMutability": "nonpayable",
      "type": "function"
    },
    {
      "inputs": [],
      "name": "callFee",
      "outputs": [
        {
          "internalType": "uint256",
          "name": "",
          "type": "uint256"
        }
      ],
      "stateMutability": "view",
      "type": "function"
    },
    {
      "inputs": [],
      "name": "deposit",
      "outputs": [],
      "stateMutability": "nonpayable",
      "type": "function"
    },
    {
      "inputs": [],
      "name": "dragonsLair",
      "outputs": [
        {
          "internalType": "address",
          "name": "",
          "type": "address"
        }
      ],
      "stateMutability": "view",
      "type": "function"
    },
    {
      "inputs": [],
      "name": "harvest",
      "outputs": [],
      "stateMutability": "nonpayable",
      "type": "function"
    },
    {
      "inputs": [],
      "name": "harvestOnDeposit",
      "outputs": [
        {
          "internalType": "bool",
          "name": "",
          "type": "bool"
        }
      ],
      "stateMutability": "view",
      "type": "function"
    },
    {
      "inputs": [],
      "name": "keeper",
      "outputs": [
        {
          "internalType": "address",
          "name": "",
          "type": "address"
        }
      ],
      "stateMutability": "view",
      "type": "function"
    },
    {
      "inputs": [],
      "name": "lastHarvest",
      "outputs": [
        {
          "internalType": "uint256",
          "name": "",
          "type": "uint256"
        }
      ],
      "stateMutability": "view",
      "type": "function"
    },
    {
      "inputs": [],
      "name": "lpToken0",
      "outputs": [
        {
          "internalType": "address",
          "name": "",
          "type": "address"
        }
      ],
      "stateMutability": "view",
      "type": "function"
    },
    {
      "inputs": [],
      "name": "lpToken1",
      "outputs": [
        {
          "internalType": "address",
          "name": "",
          "type": "address"
        }
      ],
      "stateMutability": "view",
      "type": "function"
    },
    {
      "inputs": [],
      "name": "managerHarvest",
      "outputs": [],
      "stateMutability": "nonpayable",
      "type": "function"
    },
    {
      "inputs": [],
      "name": "native",
      "outputs": [
        {
          "internalType": "address",
          "name": "",
          "type": "address"
        }
      ],
      "stateMutability": "view",
      "type": "function"
    },
    {
      "inputs": [],
      "name": "output",
      "outputs": [
        {
          "internalType": "address",
          "name": "",
          "type": "address"
        }
      ],
      "stateMutability": "view",
      "type": "function"
    },
    {
      "inputs": [],
      "name": "outputToLp0",
      "outputs": [
        {
          "internalType": "address[]",
          "name": "",
          "type": "address[]"
        }
      ],
      "stateMutability": "view",
      "type": "function"
    },
    {
      "inputs": [
        {
          "internalType": "uint256",
          "name": "",
          "type": "uint256"
        }
      ],
      "name": "outputToLp0Route",
      "outputs": [
        {
          "internalType": "address",
          "name": "",
          "type": "address"
        }
      ],
      "stateMutability": "view",
      "type": "function"
    },
    {
      "inputs": [],
      "name": "outputToLp1",
      "outputs": [
        {
          "internalType": "address[]",
          "name": "",
          "type": "address[]"
        }
      ],
      "stateMutability": "view",
      "type": "function"
    },
    {
      "inputs": [
        {
          "internalType": "uint256",
          "name": "",
          "type": "uint256"
        }
      ],
      "name": "outputToLp1Route",
      "outputs": [
        {
          "internalType": "address",
          "name": "",
          "type": "address"
        }
      ],
      "stateMutability": "view",
      "type": "function"
    },
    {
      "inputs": [],
      "name": "outputToNative",
      "outputs": [
        {
          "internalType": "address[]",
          "name": "",
          "type": "address[]"
        }
      ],
      "stateMutability": "view",
      "type": "function"
    },
    {
      "inputs": [
        {
          "internalType": "uint256",
          "name": "",
          "type": "uint256"
        }
      ],
      "name": "outputToNativeRoute",
      "outputs": [
        {
          "internalType": "address",
          "name": "",
          "type": "address"
        }
      ],
      "stateMutability": "view",
      "type": "function"
    },
    {
      "inputs": [],
      "name": "owner",
      "outputs": [
        {
          "internalType": "address",
          "name": "",
          "type": "address"
        }
      ],
      "stateMutability": "view",
      "type": "function"
    },
    {
      "inputs": [],
      "name": "panic",
      "outputs": [],
      "stateMutability": "nonpayable",
      "type": "function"
    },
    {
      "inputs": [],
      "name": "pause",
      "outputs": [],
      "stateMutability": "nonpayable",
      "type": "function"
    },
    {
      "inputs": [],
      "name": "paused",
      "outputs": [
        {
          "internalType": "bool",
          "name": "",
          "type": "bool"
        }
      ],
      "stateMutability": "view",
      "type": "function"
    },
    {
      "inputs": [],
      "name": "renounceOwnership",
      "outputs": [],
      "stateMutability": "nonpayable",
      "type": "function"
    },
    {
      "inputs": [],
      "name": "retireStrat",
      "outputs": [],
      "stateMutability": "nonpayable",
      "type": "function"
    },
    {
      "inputs": [],
      "name": "rewardPool",
      "outputs": [
        {
          "internalType": "address",
          "name": "",
          "type": "address"
        }
      ],
      "stateMutability": "view",
      "type": "function"
    },
    {
      "inputs": [],
      "name": "rewardsAvailable",
      "outputs": [
        {
          "internalType": "uint256",
          "name": "",
          "type": "uint256"
        }
      ],
      "stateMutability": "view",
      "type": "function"
    },
    {
      "inputs": [
        {
          "internalType": "address",
          "name": "_beefyFeeRecipient",
          "type": "address"
        }
      ],
      "name": "setBeefyFeeRecipient",
      "outputs": [],
      "stateMutability": "nonpayable",
      "type": "function"
    },
    {
      "inputs": [
        {
          "internalType": "uint256",
          "name": "_fee",
          "type": "uint256"
        }
      ],
      "name": "setCallFee",
      "outputs": [],
      "stateMutability": "nonpayable",
      "type": "function"
    },
    {
      "inputs": [
        {
          "internalType": "bool",
          "name": "_harvestOnDeposit",
          "type": "bool"
        }
      ],
      "name": "setHarvestOnDeposit",
      "outputs": [],
      "stateMutability": "nonpayable",
      "type": "function"
    },
    {
      "inputs": [
        {
          "internalType": "address",
          "name": "_keeper",
          "type": "address"
        }
      ],
      "name": "setKeeper",
      "outputs": [],
      "stateMutability": "nonpayable",
      "type": "function"
    },
    {
      "inputs": [
        {
          "internalType": "address",
          "name": "_strategist",
          "type": "address"
        }
      ],
      "name": "setStrategist",
      "outputs": [],
      "stateMutability": "nonpayable",
      "type": "function"
    },
    {
      "inputs": [
        {
          "internalType": "address",
          "name": "_unirouter",
          "type": "address"
        }
      ],
      "name": "setUnirouter",
      "outputs": [],
      "stateMutability": "nonpayable",
      "type": "function"
    },
    {
      "inputs": [
        {
          "internalType": "address",
          "name": "_vault",
          "type": "address"
        }
      ],
      "name": "setVault",
      "outputs": [],
      "stateMutability": "nonpayable",
      "type": "function"
    },
    {
      "inputs": [
        {
          "internalType": "uint256",
          "name": "_fee",
          "type": "uint256"
        }
      ],
      "name": "setWithdrawalFee",
      "outputs": [],
      "stateMutability": "nonpayable",
      "type": "function"
    },
    {
      "inputs": [],
      "name": "strategist",
      "outputs": [
        {
          "internalType": "address",
          "name": "",
          "type": "address"
        }
      ],
      "stateMutability": "view",
      "type": "function"
    },
    {
      "inputs": [
        {
          "internalType": "address",
          "name": "newOwner",
          "type": "address"
        }
      ],
      "name": "transferOwnership",
      "outputs": [],
      "stateMutability": "nonpayable",
      "type": "function"
    },
    {
      "inputs": [],
      "name": "unirouter",
      "outputs": [
        {
          "internalType": "address",
          "name": "",
          "type": "address"
        }
      ],
      "stateMutability": "view",
      "type": "function"
    },
    {
      "inputs": [],
      "name": "unpause",
      "outputs": [],
      "stateMutability": "nonpayable",
      "type": "function"
    },
    {
      "inputs": [],
      "name": "vault",
      "outputs": [
        {
          "internalType": "address",
          "name": "",
          "type": "address"
        }
      ],
      "stateMutability": "view",
      "type": "function"
    },
    {
      "inputs": [],
      "name": "want",
      "outputs": [
        {
          "internalType": "address",
          "name": "",
          "type": "address"
        }
      ],
      "stateMutability": "view",
      "type": "function"
    },
    {
      "inputs": [
        {
          "internalType": "uint256",
          "name": "_amount",
          "type": "uint256"
        }
      ],
      "name": "withdraw",
      "outputs": [],
      "stateMutability": "nonpayable",
      "type": "function"
    },
    {
      "inputs": [],
      "name": "withdrawalFee",
      "outputs": [
        {
          "internalType": "uint256",
          "name": "",
          "type": "uint256"
        }
      ],
      "stateMutability": "view",
      "type": "function"
    }
  ],
  "bytecode": "0x6080604052600a600655600b60075560075460706103e8620000229190620014a5565b6200002e9190620014a5565b6008557fffffffffffffffffffffffffffffffffffffffffffffffffffffffffffffffff6009553480156200006257600080fd5b50604051620061a8380380620061a8833981810160405281019062000088919062000f4a565b8585888a87620000ad620000a1620005da60201b60201c565b620005e260201b60201c565b60008060146101000a81548160ff02191690831515021790555084600160006101000a81548173ffffffffffffffffffffffffffffffffffffffff021916908373ffffffffffffffffffffffffffffffffffffffff16021790555083600260006101000a81548173ffffffffffffffffffffffffffffffffffffffff021916908373ffffffffffffffffffffffffffffffffffffffff16021790555082600360006101000a81548173ffffffffffffffffffffffffffffffffffffffff021916908373ffffffffffffffffffffffffffffffffffffffff16021790555081600460006101000a81548173ffffffffffffffffffffffffffffffffffffffff021916908373ffffffffffffffffffffffffffffffffffffffff16021790555080600560006101000a81548173ffffffffffffffffffffffffffffffffffffffff021916908373ffffffffffffffffffffffffffffffffffffffff160217905550505050505089600c60006101000a81548173ffffffffffffffffffffffffffffffffffffffff021916908373ffffffffffffffffffffffffffffffffffffffff16021790555088600f60006101000a81548173ffffffffffffffffffffffffffffffffffffffff021916908373ffffffffffffffffffffffffffffffffffffffff16021790555082600081518110620002ce577f4e487b7100000000000000000000000000000000000000000000000000000000600052603260045260246000fd5b6020026020010151600b60006101000a81548173ffffffffffffffffffffffffffffffffffffffff021916908373ffffffffffffffffffffffffffffffffffffffff1602179055508260018451620003279190620014a5565b815181106200035f577f4e487b7100000000000000000000000000000000000000000000000000000000600052603260045260246000fd5b6020026020010151600a60006101000a81548173ffffffffffffffffffffffffffffffffffffffff021916908373ffffffffffffffffffffffffffffffffffffffff1602179055508260109080519060200190620003bf92919062000d89565b50600c60009054906101000a900473ffffffffffffffffffffffffffffffffffffffff1673ffffffffffffffffffffffffffffffffffffffff16630dfe16816040518163ffffffff1660e01b815260040160206040518083038186803b1580156200042957600080fd5b505afa1580156200043e573d6000803e3d6000fd5b505050506040513d601f19601f8201168201806040525081019062000464919062000f1e565b600d60006101000a81548173ffffffffffffffffffffffffffffffffffffffff021916908373ffffffffffffffffffffffffffffffffffffffff1602179055508160119080519060200190620004bc92919062000d89565b50600c60009054906101000a900473ffffffffffffffffffffffffffffffffffffffff1673ffffffffffffffffffffffffffffffffffffffff1663d21220a76040518163ffffffff1660e01b815260040160206040518083038186803b1580156200052657600080fd5b505afa1580156200053b573d6000803e3d6000fd5b505050506040513d601f19601f8201168201806040525081019062000561919062000f1e565b600e60006101000a81548173ffffffffffffffffffffffffffffffffffffffff021916908373ffffffffffffffffffffffffffffffffffffffff1602179055508060129080519060200190620005b992919062000d89565b50620005ca620006a660201b60201c565b505050505050505050506200161d565b600033905090565b60008060009054906101000a900473ffffffffffffffffffffffffffffffffffffffff169050816000806101000a81548173ffffffffffffffffffffffffffffffffffffffff021916908373ffffffffffffffffffffffffffffffffffffffff1602179055508173ffffffffffffffffffffffffffffffffffffffff168173ffffffffffffffffffffffffffffffffffffffff167f8be0079c531659141344cd1fd0a4f28419497f9722a3daafe3b4186f6b6457e060405160405180910390a35050565b6200071e600f60009054906101000a900473ffffffffffffffffffffffffffffffffffffffff16600954600c60009054906101000a900473ffffffffffffffffffffffffffffffffffffffff1673ffffffffffffffffffffffffffffffffffffffff166200097660201b62002446179092919060201c565b62000796600360009054906101000a900473ffffffffffffffffffffffffffffffffffffffff16600954600b60009054906101000a900473ffffffffffffffffffffffffffffffffffffffff1673ffffffffffffffffffffffffffffffffffffffff166200097660201b62002446179092919060201c565b6200080d600360009054906101000a900473ffffffffffffffffffffffffffffffffffffffff166000600d60009054906101000a900473ffffffffffffffffffffffffffffffffffffffff1673ffffffffffffffffffffffffffffffffffffffff166200097660201b62002446179092919060201c565b62000885600360009054906101000a900473ffffffffffffffffffffffffffffffffffffffff16600954600d60009054906101000a900473ffffffffffffffffffffffffffffffffffffffff1673ffffffffffffffffffffffffffffffffffffffff166200097660201b62002446179092919060201c565b620008fc600360009054906101000a900473ffffffffffffffffffffffffffffffffffffffff166000600e60009054906101000a900473ffffffffffffffffffffffffffffffffffffffff1673ffffffffffffffffffffffffffffffffffffffff166200097660201b62002446179092919060201c565b62000974600360009054906101000a900473ffffffffffffffffffffffffffffffffffffffff16600954600e60009054906101000a900473ffffffffffffffffffffffffffffffffffffffff1673ffffffffffffffffffffffffffffffffffffffff166200097660201b62002446179092919060201c565b565b600081148062000a16575060008373ffffffffffffffffffffffffffffffffffffffff1663dd62ed3e30856040518363ffffffff1660e01b8152600401620009c09291906200130a565b60206040518083038186803b158015620009d957600080fd5b505afa158015620009ee573d6000803e3d6000fd5b505050506040513d601f19601f8201168201806040525081019062000a149190620010b1565b145b62000a58576040517f08c379a000000000000000000000000000000000000000000000000000000000815260040162000a4f90620013ee565b60405180910390fd5b62000ae38363095ea7b360e01b848460405160240162000a7a92919062001337565b604051602081830303815290604052907bffffffffffffffffffffffffffffffffffffffffffffffffffffffff19166020820180517bffffffffffffffffffffffffffffffffffffffffffffffffffffffff838183161783525050505062000ae860201b60201c565b505050565b600062000b51826040518060400160405280602081526020017f5361666545524332303a206c6f772d6c6576656c2063616c6c206661696c65648152508573ffffffffffffffffffffffffffffffffffffffff1662000bbc60201b620025a4179092919060201c565b905060008151111562000bb7578080602001905181019062000b74919062001085565b62000bb6576040517f08c379a000000000000000000000000000000000000000000000000000000000815260040162000bad90620013cc565b60405180910390fd5b5b505050565b606062000bd3848460008562000bdc60201b60201c565b90509392505050565b60608247101562000c24576040517f08c379a000000000000000000000000000000000000000000000000000000000815260040162000c1b9062001388565b60405180910390fd5b62000c358562000d0a60201b60201c565b62000c77576040517f08c379a000000000000000000000000000000000000000000000000000000000815260040162000c6e90620013aa565b60405180910390fd5b6000808673ffffffffffffffffffffffffffffffffffffffff16858760405162000ca29190620012f1565b60006040518083038185875af1925050503d806000811462000ce1576040519150601f19603f3d011682016040523d82523d6000602084013e62000ce6565b606091505b509150915062000cfe82828662000d1d60201b60201c565b92505050949350505050565b600080823b905060008111915050919050565b6060831562000d2f5782905062000d82565b60008351111562000d435782518084602001fd5b816040517f08c379a000000000000000000000000000000000000000000000000000000000815260040162000d79919062001364565b60405180910390fd5b9392505050565b82805482825590600052602060002090810192821562000e05579160200282015b8281111562000e045782518260006101000a81548173ffffffffffffffffffffffffffffffffffffffff021916908373ffffffffffffffffffffffffffffffffffffffff1602179055509160200191906001019062000daa565b5b50905062000e14919062000e18565b5090565b5b8082111562000e3357600081600090555060010162000e19565b5090565b600062000e4e62000e488462001444565b62001410565b9050808382526020820190508285602086028201111562000e6e57600080fd5b60005b8581101562000ea2578162000e87888262000eac565b84526020840193506020830192505060018101905062000e71565b5050509392505050565b60008151905062000ebd81620015cf565b92915050565b600082601f83011262000ed557600080fd5b815162000ee784826020860162000e37565b91505092915050565b60008151905062000f0181620015e9565b92915050565b60008151905062000f188162001603565b92915050565b60006020828403121562000f3157600080fd5b600062000f418482850162000eac565b91505092915050565b6000806000806000806000806000806101408b8d03121562000f6b57600080fd5b600062000f7b8d828e0162000eac565b9a5050602062000f8e8d828e0162000eac565b995050604062000fa18d828e0162000eac565b985050606062000fb48d828e0162000eac565b975050608062000fc78d828e0162000eac565b96505060a062000fda8d828e0162000eac565b95505060c062000fed8d828e0162000eac565b94505060e08b015167ffffffffffffffff8111156200100b57600080fd5b620010198d828e0162000ec3565b9350506101008b015167ffffffffffffffff8111156200103857600080fd5b620010468d828e0162000ec3565b9250506101208b015167ffffffffffffffff8111156200106557600080fd5b620010738d828e0162000ec3565b9150509295989b9194979a5092959850565b6000602082840312156200109857600080fd5b6000620010a88482850162000ef0565b91505092915050565b600060208284031215620010c457600080fd5b6000620010d48482850162000f07565b91505092915050565b620010e881620014e0565b82525050565b6000620010fb8262001473565b62001107818562001489565b9350620011198185602086016200152a565b80840191505092915050565b600062001132826200147e565b6200113e818562001494565b9350620011508185602086016200152a565b6200115b81620015be565b840191505092915050565b60006200117560268362001494565b91507f416464726573733a20696e73756666696369656e742062616c616e636520666f60008301527f722063616c6c00000000000000000000000000000000000000000000000000006020830152604082019050919050565b6000620011dd601d8362001494565b91507f416464726573733a2063616c6c20746f206e6f6e2d636f6e74726163740000006000830152602082019050919050565b60006200121f602a8362001494565b91507f5361666545524332303a204552433230206f7065726174696f6e20646964206e60008301527f6f742073756363656564000000000000000000000000000000000000000000006020830152604082019050919050565b60006200128760368362001494565b91507f5361666545524332303a20617070726f76652066726f6d206e6f6e2d7a65726f60008301527f20746f206e6f6e2d7a65726f20616c6c6f77616e6365000000000000000000006020830152604082019050919050565b620012eb8162001520565b82525050565b6000620012ff8284620010ee565b915081905092915050565b6000604082019050620013216000830185620010dd565b620013306020830184620010dd565b9392505050565b60006040820190506200134e6000830185620010dd565b6200135d6020830184620012e0565b9392505050565b6000602082019050818103600083015262001380818462001125565b905092915050565b60006020820190508181036000830152620013a38162001166565b9050919050565b60006020820190508181036000830152620013c581620011ce565b9050919050565b60006020820190508181036000830152620013e78162001210565b9050919050565b60006020820190508181036000830152620014098162001278565b9050919050565b6000604051905081810181811067ffffffffffffffff821117156200143a57620014396200158f565b5b8060405250919050565b600067ffffffffffffffff8211156200146257620014616200158f565b5b602082029050602081019050919050565b600081519050919050565b600081519050919050565b600081905092915050565b600082825260208201905092915050565b6000620014b28262001520565b9150620014bf8362001520565b925082821015620014d557620014d462001560565b5b828203905092915050565b6000620014ed8262001500565b9050919050565b60008115159050919050565b600073ffffffffffffffffffffffffffffffffffffffff82169050919050565b6000819050919050565b60005b838110156200154a5780820151818401526020810190506200152d565b838111156200155a576000848401525b50505050565b7f4e487b7100000000000000000000000000000000000000000000000000000000600052601160045260246000fd5b7f4e487b7100000000000000000000000000000000000000000000000000000000600052604160045260246000fd5b6000601f19601f8301169050919050565b620015da81620014e0565b8114620015e657600080fd5b50565b620015f481620014f4565b81146200160057600080fd5b50565b6200160e8162001520565b81146200161a57600080fd5b50565b614b7b806200162d6000396000f3fe608060405234801561001057600080fd5b50600436106103425760003560e01c80638456cb59116101b8578063c1a3d44c11610104578063e7a7250a116100a2578063f2fde38b1161007c578063f2fde38b14610895578063fb617787146108b1578063fbfa77cf146108bb578063fd63a887146108d957610342565b8063e7a7250a1461083b578063f1a392da14610859578063f20eaeb81461087757610342565b8063d3102589116100de578063d3102589146107d9578063d801d946146107f7578063d92f3d7314610801578063dfbdc4371461081d57610342565b8063c1a3d44c14610795578063c7b9d530146107b3578063d0e30db0146107cf57610342565b806390321e1a11610171578063ac1e50251161014b578063ac1e50251461070d578063aced166114610729578063bc063e1a14610747578063be12a9781461076557610342565b806390321e1a146106b5578063989ef4e3146106d3578063a68833e5146106f157610342565b80638456cb5914610615578063877562b61461061f5780638912cb8b1461063d5780638bc7e8c41461065b5780638da5cb5b146106795780638e1454591461069757610342565b80633f4ba83a116102925780636013d5bf11610230578063715018a61161020a578063715018a6146105b3578063722713f7146105bd578063748747e6146105db5780637d38ca65146105f757610342565b80636013d5bf1461055b57806366666aa9146105795780636817031b1461059757610342565b806354518b1a1161026c57806354518b1a146104f7578063573fef0a146105155780635c975abb1461051f5780635ee167c01461053d57610342565b80633f4ba83a146104d95780634641257d146104e35780634700d305146104ed57610342565b80631f1fcd51116102ff57806326465826116102d957806326465826146104535780632ad5a53f1461046f5780632e1a7d4d1461048d57806336c6cf21146104a957610342565b80631f1fcd51146103f95780631fe4a68614610417578063257ae0de1461043557610342565b80630587f78514610347578063098d3228146103655780630e8fbb5a14610383578063115880861461039f57806311b0b42d146103bd57806313e120b1146103db575b600080fd5b61034f610909565b60405161035c91906144cb565b60405180910390f35b61036d610997565b60405161037a91906146ea565b60405180910390f35b61039d60048036038101906103989190613d1f565b61099d565b005b6103a7610abd565b6040516103b491906146ea565b60405180910390f35b6103c5610b6f565b6040516103d291906143e0565b60405180910390f35b6103e3610b95565b6040516103f091906144cb565b60405180910390f35b610401610c23565b60405161040e91906143e0565b60405180910390f35b61041f610c49565b60405161042c91906143e0565b60405180910390f35b61043d610c6f565b60405161044a91906143e0565b60405180910390f35b61046d60048036038101906104689190613d71565b610c95565b005b610477610dd2565b60405161048491906146ea565b60405180910390f35b6104a760048036038101906104a29190613d71565b610dd7565b005b6104c360048036038101906104be9190613d71565b6110a3565b6040516104d091906143e0565b60405180910390f35b6104e16110e2565b005b6104eb6111c9565b005b6104f5611289565b005b6104ff6113f4565b60405161050c91906146ea565b60405180910390f35b61051d6113fa565b005b6105276114aa565b60405161053491906144ed565b60405180910390f35b6105456114c0565b60405161055291906143e0565b60405180910390f35b6105636114e6565b60405161057091906143e0565b60405180910390f35b6105816114fe565b60405161058e91906143e0565b60405180910390f35b6105b160048036038101906105ac9190613cb5565b611524565b005b6105bb6115e4565b005b6105c561166c565b6040516105d291906146ea565b60405180910390f35b6105f560048036038101906105f09190613cb5565b611694565b005b6105ff6117a5565b60405161060c91906146ea565b60405180910390f35b61061d6117aa565b005b610627611889565b60405161063491906143e0565b60405180910390f35b6106456118af565b60405161065291906144ed565b60405180910390f35b6106636118c2565b60405161067091906146ea565b60405180910390f35b6106816118c8565b60405161068e91906143e0565b60405180910390f35b61069f6118f1565b6040516106ac91906143e0565b60405180910390f35b6106bd611917565b6040516106ca91906146ea565b60405180910390f35b6106db61191d565b6040516106e891906144cb565b60405180910390f35b61070b60048036038101906107069190613cb5565b6119ab565b005b61072760048036038101906107229190613d71565b611a6b565b005b610731611b86565b60405161073e91906143e0565b60405180910390f35b61074f611bac565b60405161075c91906146ea565b60405180910390f35b61077f600480360381019061077a9190613d71565b611bb2565b60405161078c91906143e0565b60405180910390f35b61079d611bf1565b6040516107aa91906146ea565b60405180910390f35b6107cd60048036038101906107c89190613cb5565b611ca3565b005b6107d7611d77565b005b6107e1611e65565b6040516107ee91906146ea565b60405180910390f35b6107ff611e6b565b005b61081b60048036038101906108169190613cb5565b611f42565b005b610825612002565b60405161083291906146ea565b60405180910390f35b610843612007565b60405161085091906146ea565b60405180910390f35b6108616120b8565b60405161086e91906146ea565b60405180910390f35b61087f6120be565b60405161088c91906143e0565b60405180910390f35b6108af60048036038101906108aa9190613cb5565b6120e4565b005b6108b96121dc565b005b6108c36123e1565b6040516108d091906143e0565b60405180910390f35b6108f360048036038101906108ee9190613d71565b612407565b60405161090091906143e0565b60405180910390f35b6060601280548060200260200160405190810160405280929190818152602001828054801561098d57602002820191906000526020600020905b8160009054906101000a900473ffffffffffffffffffffffffffffffffffffffff1673ffffffffffffffffffffffffffffffffffffffff1681526020019060010190808311610943575b5050505050905090565b60095481565b6109a56118c8565b73ffffffffffffffffffffffffffffffffffffffff163373ffffffffffffffffffffffffffffffffffffffff161480610a2b5750600160009054906101000a900473ffffffffffffffffffffffffffffffffffffffff1673ffffffffffffffffffffffffffffffffffffffff163373ffffffffffffffffffffffffffffffffffffffff16145b610a6a576040517f08c379a0000000000000000000000000000000000000000000000000000000008152600401610a619061466a565b60405180910390fd5b80601360006101000a81548160ff02191690831515021790555060011515601360009054906101000a900460ff1615151415610aaf57610aaa6000611a6b565b610aba565b610ab9600a611a6b565b5b50565b6000600f60009054906101000a900473ffffffffffffffffffffffffffffffffffffffff1673ffffffffffffffffffffffffffffffffffffffff166370a08231306040518263ffffffff1660e01b8152600401610b1a91906143e0565b60206040518083038186803b158015610b3257600080fd5b505afa158015610b46573d6000803e3d6000fd5b505050506040513d601f19601f82011682018060405250810190610b6a9190613d9a565b905090565b600a60009054906101000a900473ffffffffffffffffffffffffffffffffffffffff1681565b60606010805480602002602001604051908101604052809291908181526020018280548015610c1957602002820191906000526020600020905b8160009054906101000a900473ffffffffffffffffffffffffffffffffffffffff1673ffffffffffffffffffffffffffffffffffffffff1681526020019060010190808311610bcf575b5050505050905090565b600c60009054906101000a900473ffffffffffffffffffffffffffffffffffffffff1681565b600260009054906101000a900473ffffffffffffffffffffffffffffffffffffffff1681565b600360009054906101000a900473ffffffffffffffffffffffffffffffffffffffff1681565b610c9d6118c8565b73ffffffffffffffffffffffffffffffffffffffff163373ffffffffffffffffffffffffffffffffffffffff161480610d235750600160009054906101000a900473ffffffffffffffffffffffffffffffffffffffff1673ffffffffffffffffffffffffffffffffffffffff163373ffffffffffffffffffffffffffffffffffffffff16145b610d62576040517f08c379a0000000000000000000000000000000000000000000000000000000008152600401610d599061466a565b60405180910390fd5b606f811115610da6576040517f08c379a0000000000000000000000000000000000000000000000000000000008152600401610d9d906145ea565b60405180910390fd5b8060078190555060075460706103e8610dbf9190614935565b610dc99190614935565b60088190555050565b606f81565b600460009054906101000a900473ffffffffffffffffffffffffffffffffffffffff1673ffffffffffffffffffffffffffffffffffffffff163373ffffffffffffffffffffffffffffffffffffffff1614610e67576040517f08c379a0000000000000000000000000000000000000000000000000000000008152600401610e5e9061460a565b60405180910390fd5b6000610e71611bf1565b905081811015610f2557600f60009054906101000a900473ffffffffffffffffffffffffffffffffffffffff1673ffffffffffffffffffffffffffffffffffffffff16632e1a7d4d610ecc83856125bc90919063ffffffff16565b6040518263ffffffff1660e01b8152600401610ee891906146ea565b600060405180830381600087803b158015610f0257600080fd5b505af1158015610f16573d6000803e3d6000fd5b50505050610f22611bf1565b90505b81811115610f31578190505b610f396118c8565b73ffffffffffffffffffffffffffffffffffffffff163273ffffffffffffffffffffffffffffffffffffffff161480610f765750610f756114aa565b5b15610fef57610fea600460009054906101000a900473ffffffffffffffffffffffffffffffffffffffff1682600c60009054906101000a900473ffffffffffffffffffffffffffffffffffffffff1673ffffffffffffffffffffffffffffffffffffffff166125d29092919063ffffffff16565b61109f565b600061101a61271061100c6006548561265890919063ffffffff16565b61266e90919063ffffffff16565b905061109d600460009054906101000a900473ffffffffffffffffffffffffffffffffffffffff1661105583856125bc90919063ffffffff16565b600c60009054906101000a900473ffffffffffffffffffffffffffffffffffffffff1673ffffffffffffffffffffffffffffffffffffffff166125d29092919063ffffffff16565b505b5050565b601181815481106110b357600080fd5b906000526020600020016000915054906101000a900473ffffffffffffffffffffffffffffffffffffffff1681565b6110ea6118c8565b73ffffffffffffffffffffffffffffffffffffffff163373ffffffffffffffffffffffffffffffffffffffff1614806111705750600160009054906101000a900473ffffffffffffffffffffffffffffffffffffffff1673ffffffffffffffffffffffffffffffffffffffff163373ffffffffffffffffffffffffffffffffffffffff16145b6111af576040517f08c379a00000000000000000000000000000000000000000000000000000000081526004016111a69061466a565b60405180910390fd5b6111b7612684565b6111bf612725565b6111c7611d77565b565b6111d16114aa565b15611211576040517f08c379a0000000000000000000000000000000000000000000000000000000008152600401611208906145ca565b60405180910390fd5b3273ffffffffffffffffffffffffffffffffffffffff163373ffffffffffffffffffffffffffffffffffffffff161461127f576040517f08c379a0000000000000000000000000000000000000000000000000000000008152600401611276906146aa565b60405180910390fd5b6112876129cb565b565b6112916118c8565b73ffffffffffffffffffffffffffffffffffffffff163373ffffffffffffffffffffffffffffffffffffffff1614806113175750600160009054906101000a900473ffffffffffffffffffffffffffffffffffffffff1673ffffffffffffffffffffffffffffffffffffffff163373ffffffffffffffffffffffffffffffffffffffff16145b611356576040517f08c379a000000000000000000000000000000000000000000000000000000000815260040161134d9061466a565b60405180910390fd5b61135e6117aa565b600f60009054906101000a900473ffffffffffffffffffffffffffffffffffffffff1673ffffffffffffffffffffffffffffffffffffffff16632e1a7d4d6113a4610abd565b6040518263ffffffff1660e01b81526004016113c091906146ea565b600060405180830381600087803b1580156113da57600080fd5b505af11580156113ee573d6000803e3d6000fd5b50505050565b61271081565b601360009054906101000a900460ff16156114a857600460009054906101000a900473ffffffffffffffffffffffffffffffffffffffff1673ffffffffffffffffffffffffffffffffffffffff163373ffffffffffffffffffffffffffffffffffffffff161461149f576040517f08c379a00000000000000000000000000000000000000000000000000000000081526004016114969061460a565b60405180910390fd5b6114a76129cb565b5b565b60008060149054906101000a900460ff16905090565b600d60009054906101000a900473ffffffffffffffffffffffffffffffffffffffff1681565b73f28164a485b0b2c90639e47b0f377b4a438a16b181565b600f60009054906101000a900473ffffffffffffffffffffffffffffffffffffffff1681565b61152c612afd565b73ffffffffffffffffffffffffffffffffffffffff1661154a6118c8565b73ffffffffffffffffffffffffffffffffffffffff16146115a0576040517f08c379a00000000000000000000000000000000000000000000000000000000081526004016115979061462a565b60405180910390fd5b80600460006101000a81548173ffffffffffffffffffffffffffffffffffffffff021916908373ffffffffffffffffffffffffffffffffffffffff16021790555050565b6115ec612afd565b73ffffffffffffffffffffffffffffffffffffffff1661160a6118c8565b73ffffffffffffffffffffffffffffffffffffffff1614611660576040517f08c379a00000000000000000000000000000000000000000000000000000000081526004016116579061462a565b60405180910390fd5b61166a6000612b05565b565b600061168f611679610abd565b611681611bf1565b612bc990919063ffffffff16565b905090565b61169c6118c8565b73ffffffffffffffffffffffffffffffffffffffff163373ffffffffffffffffffffffffffffffffffffffff1614806117225750600160009054906101000a900473ffffffffffffffffffffffffffffffffffffffff1673ffffffffffffffffffffffffffffffffffffffff163373ffffffffffffffffffffffffffffffffffffffff16145b611761576040517f08c379a00000000000000000000000000000000000000000000000000000000081526004016117589061466a565b60405180910390fd5b80600160006101000a81548173ffffffffffffffffffffffffffffffffffffffff021916908373ffffffffffffffffffffffffffffffffffffffff16021790555050565b607081565b6117b26118c8565b73ffffffffffffffffffffffffffffffffffffffff163373ffffffffffffffffffffffffffffffffffffffff1614806118385750600160009054906101000a900473ffffffffffffffffffffffffffffffffffffffff1673ffffffffffffffffffffffffffffffffffffffff163373ffffffffffffffffffffffffffffffffffffffff16145b611877576040517f08c379a000000000000000000000000000000000000000000000000000000000815260040161186e9061466a565b60405180910390fd5b61187f612bdf565b611887612c82565b565b600e60009054906101000a900473ffffffffffffffffffffffffffffffffffffffff1681565b601360009054906101000a900460ff1681565b60065481565b60008060009054906101000a900473ffffffffffffffffffffffffffffffffffffffff16905090565b600560009054906101000a900473ffffffffffffffffffffffffffffffffffffffff1681565b60075481565b606060118054806020026020016040519081016040528092919081815260200182805480156119a157602002820191906000526020600020905b8160009054906101000a900473ffffffffffffffffffffffffffffffffffffffff1673ffffffffffffffffffffffffffffffffffffffff1681526020019060010190808311611957575b5050505050905090565b6119b3612afd565b73ffffffffffffffffffffffffffffffffffffffff166119d16118c8565b73ffffffffffffffffffffffffffffffffffffffff1614611a27576040517f08c379a0000000000000000000000000000000000000000000000000000000008152600401611a1e9061462a565b60405180910390fd5b80600560006101000a81548173ffffffffffffffffffffffffffffffffffffffff021916908373ffffffffffffffffffffffffffffffffffffffff16021790555050565b611a736118c8565b73ffffffffffffffffffffffffffffffffffffffff163373ffffffffffffffffffffffffffffffffffffffff161480611af95750600160009054906101000a900473ffffffffffffffffffffffffffffffffffffffff1673ffffffffffffffffffffffffffffffffffffffff163373ffffffffffffffffffffffffffffffffffffffff16145b611b38576040517f08c379a0000000000000000000000000000000000000000000000000000000008152600401611b2f9061466a565b60405180910390fd5b6032811115611b7c576040517f08c379a0000000000000000000000000000000000000000000000000000000008152600401611b73906145ea565b60405180910390fd5b8060068190555050565b600160009054906101000a900473ffffffffffffffffffffffffffffffffffffffff1681565b6103e881565b60108181548110611bc257600080fd5b906000526020600020016000915054906101000a900473ffffffffffffffffffffffffffffffffffffffff1681565b6000600c60009054906101000a900473ffffffffffffffffffffffffffffffffffffffff1673ffffffffffffffffffffffffffffffffffffffff166370a08231306040518263ffffffff1660e01b8152600401611c4e91906143e0565b60206040518083038186803b158015611c6657600080fd5b505afa158015611c7a573d6000803e3d6000fd5b505050506040513d601f19601f82011682018060405250810190611c9e9190613d9a565b905090565b600260009054906101000a900473ffffffffffffffffffffffffffffffffffffffff1673ffffffffffffffffffffffffffffffffffffffff163373ffffffffffffffffffffffffffffffffffffffff1614611d33576040517f08c379a0000000000000000000000000000000000000000000000000000000008152600401611d2a9061454a565b60405180910390fd5b80600260006101000a81548173ffffffffffffffffffffffffffffffffffffffff021916908373ffffffffffffffffffffffffffffffffffffffff16021790555050565b611d7f6114aa565b15611dbf576040517f08c379a0000000000000000000000000000000000000000000000000000000008152600401611db6906145ca565b60405180910390fd5b6000611dc9611bf1565b90506000811115611e6257600f60009054906101000a900473ffffffffffffffffffffffffffffffffffffffff1673ffffffffffffffffffffffffffffffffffffffff1663a694fc3a826040518263ffffffff1660e01b8152600401611e2f91906146ea565b600060405180830381600087803b158015611e4957600080fd5b505af1158015611e5d573d6000803e3d6000fd5b505050505b50565b60085481565b611e736118c8565b73ffffffffffffffffffffffffffffffffffffffff163373ffffffffffffffffffffffffffffffffffffffff161480611ef95750600160009054906101000a900473ffffffffffffffffffffffffffffffffffffffff1673ffffffffffffffffffffffffffffffffffffffff163373ffffffffffffffffffffffffffffffffffffffff16145b611f38576040517f08c379a0000000000000000000000000000000000000000000000000000000008152600401611f2f9061466a565b60405180910390fd5b611f406129cb565b565b611f4a612afd565b73ffffffffffffffffffffffffffffffffffffffff16611f686118c8565b73ffffffffffffffffffffffffffffffffffffffff1614611fbe576040517f08c379a0000000000000000000000000000000000000000000000000000000008152600401611fb59061462a565b60405180910390fd5b80600360006101000a81548173ffffffffffffffffffffffffffffffffffffffff021916908373ffffffffffffffffffffffffffffffffffffffff16021790555050565b603281565b6000600f60009054906101000a900473ffffffffffffffffffffffffffffffffffffffff1673ffffffffffffffffffffffffffffffffffffffff16628cc262306040518263ffffffff1660e01b815260040161206391906143e0565b60206040518083038186803b15801561207b57600080fd5b505afa15801561208f573d6000803e3d6000fd5b505050506040513d601f19601f820116820180604052508101906120b39190613d9a565b905090565b60145481565b600b60009054906101000a900473ffffffffffffffffffffffffffffffffffffffff1681565b6120ec612afd565b73ffffffffffffffffffffffffffffffffffffffff1661210a6118c8565b73ffffffffffffffffffffffffffffffffffffffff1614612160576040517f08c379a00000000000000000000000000000000000000000000000000000000081526004016121579061462a565b60405180910390fd5b600073ffffffffffffffffffffffffffffffffffffffff168173ffffffffffffffffffffffffffffffffffffffff1614156121d0576040517f08c379a00000000000000000000000000000000000000000000000000000000081526004016121c79061456a565b60405180910390fd5b6121d981612b05565b50565b600460009054906101000a900473ffffffffffffffffffffffffffffffffffffffff1673ffffffffffffffffffffffffffffffffffffffff163373ffffffffffffffffffffffffffffffffffffffff161461226c576040517f08c379a00000000000000000000000000000000000000000000000000000000081526004016122639061460a565b60405180910390fd5b600f60009054906101000a900473ffffffffffffffffffffffffffffffffffffffff1673ffffffffffffffffffffffffffffffffffffffff16632e1a7d4d6122b2610abd565b6040518263ffffffff1660e01b81526004016122ce91906146ea565b600060405180830381600087803b1580156122e857600080fd5b505af11580156122fc573d6000803e3d6000fd5b50505050600061230a611bf1565b9050600c60009054906101000a900473ffffffffffffffffffffffffffffffffffffffff1673ffffffffffffffffffffffffffffffffffffffff1663a9059cbb600460009054906101000a900473ffffffffffffffffffffffffffffffffffffffff16836040518363ffffffff1660e01b815260040161238b9291906144a2565b602060405180830381600087803b1580156123a557600080fd5b505af11580156123b9573d6000803e3d6000fd5b505050506040513d601f19601f820116820180604052508101906123dd9190613d48565b5050565b600460009054906101000a900473ffffffffffffffffffffffffffffffffffffffff1681565b6012818154811061241757600080fd5b906000526020600020016000915054906101000a900473ffffffffffffffffffffffffffffffffffffffff1681565b60008114806124df575060008373ffffffffffffffffffffffffffffffffffffffff1663dd62ed3e30856040518363ffffffff1660e01b815260040161248d9291906143fb565b60206040518083038186803b1580156124a557600080fd5b505afa1580156124b9573d6000803e3d6000fd5b505050506040513d601f19601f820116820180604052508101906124dd9190613d9a565b145b61251e576040517f08c379a0000000000000000000000000000000000000000000000000000000008152600401612515906146ca565b60405180910390fd5b61259f8363095ea7b360e01b848460405160240161253d9291906144a2565b604051602081830303815290604052907bffffffffffffffffffffffffffffffffffffffffffffffffffffffff19166020820180517bffffffffffffffffffffffffffffffffffffffffffffffffffffffff8381831617835250505050612e44565b505050565b60606125b38484600085612f0b565b90509392505050565b600081836125ca9190614935565b905092915050565b6126538363a9059cbb60e01b84846040516024016125f19291906144a2565b604051602081830303815290604052907bffffffffffffffffffffffffffffffffffffffffffffffffffffffff19166020820180517bffffffffffffffffffffffffffffffffffffffffffffffffffffffff8381831617835250505050612e44565b505050565b6000818361266691906148db565b905092915050565b6000818361267c91906148aa565b905092915050565b61268c6114aa565b6126cb576040517f08c379a00000000000000000000000000000000000000000000000000000000081526004016126c29061452a565b60405180910390fd5b60008060146101000a81548160ff0219169083151502179055507f5db9ee0a495bf2e6ff9c91a7834c1ba4fdd244a5e8aa4e537bd38aeae4b073aa61270e612afd565b60405161271b91906143e0565b60405180910390a1565b612796600f60009054906101000a900473ffffffffffffffffffffffffffffffffffffffff16600954600c60009054906101000a900473ffffffffffffffffffffffffffffffffffffffff1673ffffffffffffffffffffffffffffffffffffffff166124469092919063ffffffff16565b612807600360009054906101000a900473ffffffffffffffffffffffffffffffffffffffff16600954600b60009054906101000a900473ffffffffffffffffffffffffffffffffffffffff1673ffffffffffffffffffffffffffffffffffffffff166124469092919063ffffffff16565b612877600360009054906101000a900473ffffffffffffffffffffffffffffffffffffffff166000600d60009054906101000a900473ffffffffffffffffffffffffffffffffffffffff1673ffffffffffffffffffffffffffffffffffffffff166124469092919063ffffffff16565b6128e8600360009054906101000a900473ffffffffffffffffffffffffffffffffffffffff16600954600d60009054906101000a900473ffffffffffffffffffffffffffffffffffffffff1673ffffffffffffffffffffffffffffffffffffffff166124469092919063ffffffff16565b612958600360009054906101000a900473ffffffffffffffffffffffffffffffffffffffff166000600e60009054906101000a900473ffffffffffffffffffffffffffffffffffffffff1673ffffffffffffffffffffffffffffffffffffffff166124469092919063ffffffff16565b6129c9600360009054906101000a900473ffffffffffffffffffffffffffffffffffffffff16600954600e60009054906101000a900473ffffffffffffffffffffffffffffffffffffffff1673ffffffffffffffffffffffffffffffffffffffff166124469092919063ffffffff16565b565b3373ffffffffffffffffffffffffffffffffffffffff163273ffffffffffffffffffffffffffffffffffffffff161480612a525750600460009054906101000a900473ffffffffffffffffffffffffffffffffffffffff1673ffffffffffffffffffffffffffffffffffffffff163373ffffffffffffffffffffffffffffffffffffffff16145b612a91576040517f08c379a0000000000000000000000000000000000000000000000000000000008152600401612a889061458a565b60405180910390fd5b612a9961301f565b612aa16131b0565b612aa96135aa565b612ab1611d77565b426014819055503373ffffffffffffffffffffffffffffffffffffffff167f577a37fdb49a88d66684922c6f913df5239b4f214b2b97c53ef8e3bbb2034cb560405160405180910390a2565b600033905090565b60008060009054906101000a900473ffffffffffffffffffffffffffffffffffffffff169050816000806101000a81548173ffffffffffffffffffffffffffffffffffffffff021916908373ffffffffffffffffffffffffffffffffffffffff1602179055508173ffffffffffffffffffffffffffffffffffffffff168173ffffffffffffffffffffffffffffffffffffffff167f8be0079c531659141344cd1fd0a4f28419497f9722a3daafe3b4186f6b6457e060405160405180910390a35050565b60008183612bd79190614854565b905092915050565b612be76114aa565b15612c27576040517f08c379a0000000000000000000000000000000000000000000000000000000008152600401612c1e906145ca565b60405180910390fd5b6001600060146101000a81548160ff0219169083151502179055507f62e78cea01bee320cd4e420270b5ea74000d11b0c9f74754ebdbfc544b05a258612c6b612afd565b604051612c7891906143e0565b60405180910390a1565b612cf2600f60009054906101000a900473ffffffffffffffffffffffffffffffffffffffff166000600c60009054906101000a900473ffffffffffffffffffffffffffffffffffffffff1673ffffffffffffffffffffffffffffffffffffffff166124469092919063ffffffff16565b612d62600360009054906101000a900473ffffffffffffffffffffffffffffffffffffffff166000600b60009054906101000a900473ffffffffffffffffffffffffffffffffffffffff1673ffffffffffffffffffffffffffffffffffffffff166124469092919063ffffffff16565b612dd2600360009054906101000a900473ffffffffffffffffffffffffffffffffffffffff166000600d60009054906101000a900473ffffffffffffffffffffffffffffffffffffffff1673ffffffffffffffffffffffffffffffffffffffff166124469092919063ffffffff16565b612e42600360009054906101000a900473ffffffffffffffffffffffffffffffffffffffff166000600e60009054906101000a900473ffffffffffffffffffffffffffffffffffffffff1673ffffffffffffffffffffffffffffffffffffffff166124469092919063ffffffff16565b565b6000612ea6826040518060400160405280602081526020017f5361666545524332303a206c6f772d6c6576656c2063616c6c206661696c65648152508573ffffffffffffffffffffffffffffffffffffffff166125a49092919063ffffffff16565b9050600081511115612f065780806020019051810190612ec69190613d48565b612f05576040517f08c379a0000000000000000000000000000000000000000000000000000000008152600401612efc9061468a565b60405180910390fd5b5b505050565b606082471015612f50576040517f08c379a0000000000000000000000000000000000000000000000000000000008152600401612f47906145aa565b60405180910390fd5b612f5985613b3c565b612f98576040517f08c379a0000000000000000000000000000000000000000000000000000000008152600401612f8f9061464a565b60405180910390fd5b6000808673ffffffffffffffffffffffffffffffffffffffff168587604051612fc191906143c9565b60006040518083038185875af1925050503d8060008114612ffe576040519150601f19603f3d011682016040523d82523d6000602084013e613003565b606091505b5091509150613013828286613b4f565b92505050949350505050565b600f60009054906101000a900473ffffffffffffffffffffffffffffffffffffffff1673ffffffffffffffffffffffffffffffffffffffff16633d18b9126040518163ffffffff1660e01b8152600401600060405180830381600087803b15801561308957600080fd5b505af115801561309d573d6000803e3d6000fd5b50505050600073f28164a485b0b2c90639e47b0f377b4a438a16b190508073ffffffffffffffffffffffffffffffffffffffff166367dfd4c98273ffffffffffffffffffffffffffffffffffffffff166370a08231306040518263ffffffff1660e01b815260040161310f91906143e0565b60206040518083038186803b15801561312757600080fd5b505afa15801561313b573d6000803e3d6000fd5b505050506040513d601f19601f8201168201806040525081019061315f9190613d9a565b6040518263ffffffff1660e01b815260040161317b91906146ea565b600060405180830381600087803b15801561319557600080fd5b505af11580156131a9573d6000803e3d6000fd5b5050505050565b60006132846103e8613276602d600b60009054906101000a900473ffffffffffffffffffffffffffffffffffffffff1673ffffffffffffffffffffffffffffffffffffffff166370a08231306040518263ffffffff1660e01b815260040161321891906143e0565b60206040518083038186803b15801561323057600080fd5b505afa158015613244573d6000803e3d6000fd5b505050506040513d601f19601f820116820180604052508101906132689190613d9a565b61265890919063ffffffff16565b61266e90919063ffffffff16565b9050600360009054906101000a900473ffffffffffffffffffffffffffffffffffffffff1673ffffffffffffffffffffffffffffffffffffffff166338ed1739826000601030426040518663ffffffff1660e01b81526004016132eb959493929190614705565b600060405180830381600087803b15801561330557600080fd5b505af1158015613319573d6000803e3d6000fd5b505050506040513d6000823e3d601f19601f820116820180604052508101906133429190613cde565b506000600a60009054906101000a900473ffffffffffffffffffffffffffffffffffffffff1673ffffffffffffffffffffffffffffffffffffffff166370a08231306040518263ffffffff1660e01b81526004016133a091906143e0565b60206040518083038186803b1580156133b857600080fd5b505afa1580156133cc573d6000803e3d6000fd5b505050506040513d601f19601f820116820180604052508101906133f09190613d9a565b9050600061341d6103e861340f6007548561265890919063ffffffff16565b61266e90919063ffffffff16565b905061346c3282600a60009054906101000a900473ffffffffffffffffffffffffffffffffffffffff1673ffffffffffffffffffffffffffffffffffffffff166125d29092919063ffffffff16565b60006134976103e86134896008548661265890919063ffffffff16565b61266e90919063ffffffff16565b9050613508600560009054906101000a900473ffffffffffffffffffffffffffffffffffffffff1682600a60009054906101000a900473ffffffffffffffffffffffffffffffffffffffff1673ffffffffffffffffffffffffffffffffffffffff166125d29092919063ffffffff16565b60006135326103e861352460708761265890919063ffffffff16565b61266e90919063ffffffff16565b90506135a3600260009054906101000a900473ffffffffffffffffffffffffffffffffffffffff1682600a60009054906101000a900473ffffffffffffffffffffffffffffffffffffffff1673ffffffffffffffffffffffffffffffffffffffff166125d29092919063ffffffff16565b5050505050565b600061366a6002600b60009054906101000a900473ffffffffffffffffffffffffffffffffffffffff1673ffffffffffffffffffffffffffffffffffffffff166370a08231306040518263ffffffff1660e01b815260040161360c91906143e0565b60206040518083038186803b15801561362457600080fd5b505afa158015613638573d6000803e3d6000fd5b505050506040513d601f19601f8201168201806040525081019061365c9190613d9a565b61266e90919063ffffffff16565b9050600b60009054906101000a900473ffffffffffffffffffffffffffffffffffffffff1673ffffffffffffffffffffffffffffffffffffffff16600d60009054906101000a900473ffffffffffffffffffffffffffffffffffffffff1673ffffffffffffffffffffffffffffffffffffffff16146137a157600360009054906101000a900473ffffffffffffffffffffffffffffffffffffffff1673ffffffffffffffffffffffffffffffffffffffff166338ed1739826000601130426040518663ffffffff1660e01b8152600401613748959493929190614705565b600060405180830381600087803b15801561376257600080fd5b505af1158015613776573d6000803e3d6000fd5b505050506040513d6000823e3d601f19601f8201168201806040525081019061379f9190613cde565b505b600b60009054906101000a900473ffffffffffffffffffffffffffffffffffffffff1673ffffffffffffffffffffffffffffffffffffffff16600e60009054906101000a900473ffffffffffffffffffffffffffffffffffffffff1673ffffffffffffffffffffffffffffffffffffffff16146138d657600360009054906101000a900473ffffffffffffffffffffffffffffffffffffffff1673ffffffffffffffffffffffffffffffffffffffff166338ed1739826000601230426040518663ffffffff1660e01b815260040161387d959493929190614705565b600060405180830381600087803b15801561389757600080fd5b505af11580156138ab573d6000803e3d6000fd5b505050506040513d6000823e3d601f19601f820116820180604052508101906138d49190613cde565b505b6000600d60009054906101000a900473ffffffffffffffffffffffffffffffffffffffff1673ffffffffffffffffffffffffffffffffffffffff166370a08231306040518263ffffffff1660e01b815260040161393391906143e0565b60206040518083038186803b15801561394b57600080fd5b505afa15801561395f573d6000803e3d6000fd5b505050506040513d601f19601f820116820180604052508101906139839190613d9a565b90506000600e60009054906101000a900473ffffffffffffffffffffffffffffffffffffffff1673ffffffffffffffffffffffffffffffffffffffff166370a08231306040518263ffffffff1660e01b81526004016139e291906143e0565b60206040518083038186803b1580156139fa57600080fd5b505afa158015613a0e573d6000803e3d6000fd5b505050506040513d601f19601f82011682018060405250810190613a329190613d9a565b9050600360009054906101000a900473ffffffffffffffffffffffffffffffffffffffff1673ffffffffffffffffffffffffffffffffffffffff1663e8e33700600d60009054906101000a900473ffffffffffffffffffffffffffffffffffffffff16600e60009054906101000a900473ffffffffffffffffffffffffffffffffffffffff16858560018030426040518963ffffffff1660e01b8152600401613ae2989796959493929190614424565b606060405180830381600087803b158015613afc57600080fd5b505af1158015613b10573d6000803e3d6000fd5b505050506040513d601f19601f82011682018060405250810190613b349190613dc3565b505050505050565b600080823b905060008111915050919050565b60608315613b5f57829050613baf565b600083511115613b725782518084602001fd5b816040517f08c379a0000000000000000000000000000000000000000000000000000000008152600401613ba69190614508565b60405180910390fd5b9392505050565b6000613bc9613bc484614790565b61475f565b90508083825260208201905082856020860282011115613be857600080fd5b60005b85811015613c185781613bfe8882613ca0565b845260208401935060208301925050600181019050613beb565b5050509392505050565b600081359050613c3181614b00565b92915050565b600082601f830112613c4857600080fd5b8151613c58848260208601613bb6565b91505092915050565b600081359050613c7081614b17565b92915050565b600081519050613c8581614b17565b92915050565b600081359050613c9a81614b2e565b92915050565b600081519050613caf81614b2e565b92915050565b600060208284031215613cc757600080fd5b6000613cd584828501613c22565b91505092915050565b600060208284031215613cf057600080fd5b600082015167ffffffffffffffff811115613d0a57600080fd5b613d1684828501613c37565b91505092915050565b600060208284031215613d3157600080fd5b6000613d3f84828501613c61565b91505092915050565b600060208284031215613d5a57600080fd5b6000613d6884828501613c76565b91505092915050565b600060208284031215613d8357600080fd5b6000613d9184828501613c8b565b91505092915050565b600060208284031215613dac57600080fd5b6000613dba84828501613ca0565b91505092915050565b600080600060608486031215613dd857600080fd5b6000613de686828701613ca0565b9350506020613df786828701613ca0565b9250506040613e0886828701613ca0565b9150509250925092565b6000613e1e8383613e2a565b60208301905092915050565b613e3381614989565b82525050565b613e4281614989565b82525050565b6000613e53826147e1565b613e5d8185614827565b9350613e68836147bc565b8060005b83811015613e99578151613e808882613e12565b9750613e8b8361480d565b925050600181019050613e6c565b5085935050505092915050565b6000613eb1826147ec565b613ebb8185614827565b9350613ec6836147cc565b8060005b83811015613efe57613edb82614acf565b613ee58882613e12565b9750613ef08361481a565b925050600181019050613eca565b5085935050505092915050565b613f148161499b565b82525050565b6000613f25826147f7565b613f2f8185614838565b9350613f3f8185602086016149f5565b80840191505092915050565b613f54816149d1565b82525050565b613f63816149e3565b82525050565b6000613f7482614802565b613f7e8185614843565b9350613f8e8185602086016149f5565b613f9781614ae2565b840191505092915050565b6000613faf601483614843565b91507f5061757361626c653a206e6f74207061757365640000000000000000000000006000830152602082019050919050565b6000613fef600b83614843565b91507f21737472617465676973740000000000000000000000000000000000000000006000830152602082019050919050565b600061402f602683614843565b91507f4f776e61626c653a206e6577206f776e657220697320746865207a65726f206160008301527f64647265737300000000000000000000000000000000000000000000000000006020830152604082019050919050565b6000614095600983614843565b91507f21636f6e747261637400000000000000000000000000000000000000000000006000830152602082019050919050565b60006140d5602683614843565b91507f416464726573733a20696e73756666696369656e742062616c616e636520666f60008301527f722063616c6c00000000000000000000000000000000000000000000000000006020830152604082019050919050565b600061413b601083614843565b91507f5061757361626c653a20706175736564000000000000000000000000000000006000830152602082019050919050565b600061417b600483614843565b91507f21636170000000000000000000000000000000000000000000000000000000006000830152602082019050919050565b60006141bb600683614843565b91507f217661756c7400000000000000000000000000000000000000000000000000006000830152602082019050919050565b60006141fb602083614843565b91507f4f776e61626c653a2063616c6c6572206973206e6f7420746865206f776e65726000830152602082019050919050565b600061423b601d83614843565b91507f416464726573733a2063616c6c20746f206e6f6e2d636f6e74726163740000006000830152602082019050919050565b600061427b600883614843565b91507f216d616e616765720000000000000000000000000000000000000000000000006000830152602082019050919050565b60006142bb602a83614843565b91507f5361666545524332303a204552433230206f7065726174696f6e20646964206e60008301527f6f742073756363656564000000000000000000000000000000000000000000006020830152604082019050919050565b6000614321600483614843565b91507f21454f41000000000000000000000000000000000000000000000000000000006000830152602082019050919050565b6000614361603683614843565b91507f5361666545524332303a20617070726f76652066726f6d206e6f6e2d7a65726f60008301527f20746f206e6f6e2d7a65726f20616c6c6f77616e6365000000000000000000006020830152604082019050919050565b6143c3816149c7565b82525050565b60006143d58284613f1a565b915081905092915050565b60006020820190506143f56000830184613e39565b92915050565b60006040820190506144106000830185613e39565b61441d6020830184613e39565b9392505050565b60006101008201905061443a600083018b613e39565b614447602083018a613e39565b61445460408301896143ba565b61446160608301886143ba565b61446e6080830187613f5a565b61447b60a0830186613f5a565b61448860c0830185613e39565b61449560e08301846143ba565b9998505050505050505050565b60006040820190506144b76000830185613e39565b6144c460208301846143ba565b9392505050565b600060208201905081810360008301526144e58184613e48565b905092915050565b60006020820190506145026000830184613f0b565b92915050565b600060208201905081810360008301526145228184613f69565b905092915050565b6000602082019050818103600083015261454381613fa2565b9050919050565b6000602082019050818103600083015261456381613fe2565b9050919050565b6000602082019050818103600083015261458381614022565b9050919050565b600060208201905081810360008301526145a381614088565b9050919050565b600060208201905081810360008301526145c3816140c8565b9050919050565b600060208201905081810360008301526145e38161412e565b9050919050565b600060208201905081810360008301526146038161416e565b9050919050565b60006020820190508181036000830152614623816141ae565b9050919050565b60006020820190508181036000830152614643816141ee565b9050919050565b600060208201905081810360008301526146638161422e565b9050919050565b600060208201905081810360008301526146838161426e565b9050919050565b600060208201905081810360008301526146a3816142ae565b9050919050565b600060208201905081810360008301526146c381614314565b9050919050565b600060208201905081810360008301526146e381614354565b9050919050565b60006020820190506146ff60008301846143ba565b92915050565b600060a08201905061471a60008301886143ba565b6147276020830187613f4b565b81810360408301526147398186613ea6565b90506147486060830185613e39565b61475560808301846143ba565b9695505050505050565b6000604051905081810181811067ffffffffffffffff8211171561478657614785614aa0565b5b8060405250919050565b600067ffffffffffffffff8211156147ab576147aa614aa0565b5b602082029050602081019050919050565b6000819050602082019050919050565b60008190508160005260206000209050919050565b600081519050919050565b600081549050919050565b600081519050919050565b600081519050919050565b6000602082019050919050565b6000600182019050919050565b600082825260208201905092915050565b600081905092915050565b600082825260208201905092915050565b600061485f826149c7565b915061486a836149c7565b9250827fffffffffffffffffffffffffffffffffffffffffffffffffffffffffffffffff0382111561489f5761489e614a42565b5b828201905092915050565b60006148b5826149c7565b91506148c0836149c7565b9250826148d0576148cf614a71565b5b828204905092915050565b60006148e6826149c7565b91506148f1836149c7565b9250817fffffffffffffffffffffffffffffffffffffffffffffffffffffffffffffffff048311821515161561492a57614929614a42565b5b828202905092915050565b6000614940826149c7565b915061494b836149c7565b92508282101561495e5761495d614a42565b5b828203905092915050565b600073ffffffffffffffffffffffffffffffffffffffff82169050919050565b6000614994826149a7565b9050919050565b60008115159050919050565b600073ffffffffffffffffffffffffffffffffffffffff82169050919050565b6000819050919050565b60006149dc826149c7565b9050919050565b60006149ee826149c7565b9050919050565b60005b83811015614a135780820151818401526020810190506149f8565b83811115614a22576000848401525b50505050565b6000614a3b614a3683614af3565b614969565b9050919050565b7f4e487b7100000000000000000000000000000000000000000000000000000000600052601160045260246000fd5b7f4e487b7100000000000000000000000000000000000000000000000000000000600052601260045260246000fd5b7f4e487b7100000000000000000000000000000000000000000000000000000000600052604160045260246000fd5b6000614adb8254614a28565b9050919050565b6000601f19601f8301169050919050565b60008160001c9050919050565b614b0981614989565b8114614b1457600080fd5b50565b614b208161499b565b8114614b2b57600080fd5b50565b614b37816149c7565b8114614b4257600080fd5b5056fea264697066735822122077044e8215f9afa6d27520e0f9d7c3d2b29c6a2b082c6733b2da5964dacc2a6664736f6c63430008000033",
  "linkReferences": {},
  "deployedLinkReferences": {}
}